:100000000C9466080C94AD080C94AD080C94AD08E3
:100010000C94AD080C94AD080C94AD080C94AD088C
:100020000C94AD080C94AD080C94CB290C948F293A
:100030000C94332F0C94AD080C94AD080C94AD08BF
:100040000C94AD080C94AD080C94AD080C94AD085C
:100050000C945C2F0C940D2F0C94AD080C94AD08EF
:100060000C94AD080C94AD080C94AD080C94AD083C
:100070000C94AD080C94AD080C94AD080C94AD082C
:100080000C94AD080C94AD080C94AD080C94AD081C
:100090000C94AD080C94AD080C94AD080C94AD080C
:1000A0000C94AD080C94AD080C94AD080631FF0912
:1000B00074A1010975150026FF00952075088102BD
:1000C0000976150026FF00952075089102C00501EC
:1000D0000980A10185031601002603001A81002A68
:1000E0008300751095018100C0050C0901A10185EF
:1000F00004160100269C021A01002A9C0275109524
:10010000018100C005010906A101050719E029E7E1
:100110001500250195087501810295017508810179
:1001200005081901290595057501910295017503C9
:1001300091010507190029FF150026FF0095067596
:10014000088100C000000000000000000000000165
:10015000010203040506080A0C0F1114181C2024C0
:10016000292E33393F464C535B626A7179818A92FA
:100170009AA2AAB2B9C1C8CFD5DCE1E7EBF0F4F797
:10018000FAFCFDFEFFFEFDFCFAF7F4F0EBE7E1DC24
:10019000D5CFC8C1B9B2AAA29A928A8179716A628E
:1001A0005B534C463F39332E2924201C1814110F61
:1001B0000C0A08060504030201010000000000000B
:1001C000000000000000000000000000000001012D
:1001D0000101010101010102020202020202020305
:1001E00003030303030304040404040505050505D0
:1001F000060606060607070707080808080909098A
:100200000A0A0A0B0B0B0C0C0C0D0D0D0E0E0E0F2B
:100210000F101010111112121313141415151616B5
:100220001717181819191A1A1B1C1C1D1D1E1F1F21
:1002300020212122232324252526272828292A2B6B
:100240002C2C2D2E2F30313132333435363738398E
:100250003A3B3C3D3E3F4041424344454647484986
:100260004B4C4D4E4F50525354555758595A5C5D54
:100270005E606163646567686A6B6C6E6F717274EF
:100280007677797A7C7D7F8182848687898B8D8E53
:100290009092949597999B9D9FA1A2A4A6A8AAAC81
:1002A000AEB0B2B4B6B9BBBDBFC1C3C5C8CACCCE6F
:1002B000D0D3D5D7DADCDEE1E3E6E8EAEDEFF2F41D
:1002C000F7F9FCFF7267626C69676874206D6F6490
:1002D00065205B4E4F454550524F4D5D3A20257588
:1002E0000A007267626C69676874206D6F646520CC
:1002F0005B454550524F4D5D3A2025750A007267A7
:10030000626C696768742073657420687376205B1B
:100310004E4F454550524F4D5D3A2025752C257561
:100320002C25750A007267626C69676874207365B2
:100330007420687376205B454550524F4D5D3A20DE
:1003400025752C25752C25750A007267626C696706
:100350006874207261696E626F77207365742068BB
:1003600073763A2025642C25642C25642C25750A87
:1003700000FFAA7F55407267626C696768742074D9
:10038000696D657220656E61626C65642E0A00722B
:1003900067626C696768742074696D65722064694E
:1003A0007361626C652E0A002223252628292A2CD7
:1003B0002D2F3032333536383A3B3D3E40424345AF
:1003C00047494A4C4E5051535557595A5C5E6062EA
:1003D000646668696B6D6F71737577797B7D7F81FA
:1003E000838587898A8C8E90929496989A9C9E9FFA
:1003F000A1A3A5A7A8AAACAEAFB1B3B4B6B8B9BB18
:10040000BCBEBFC1C2C3C5C6C7C9CACBCCCDCED086
:10041000D1D2D2D3D4D5D6D7D7D8D9D9DADADBDB73
:10042000DBDCDCDCDCDCDDDDDDDDDCDCDCDCDCDB0A
:10043000DBDBDADAD9D9D8D7D7D6D5D4D3D2D2D153
:10044000D0CECDCCCBCAC9C7C6C5C3C2C1BFBEBC46
:10045000BBB9B8B6B4B3B1AFAEACAAA8A7A5A3A1B7
:100460009F9E9C9A98969492908E8C8A8987858379
:10047000817F7D7B79777573716F6D6B6968666459
:1004800062605E5C5A5957555351504E4C4A494729
:10049000454342403E3D3B3A3836353332302F2DCE
:1004A0002C2A29282625232229001E001F0020008F
:1004B00021002200230024002500260027002D0013
:1004C0002E002A002B0014001A0008001500170047
:1004D0001C0018000C00120013002F003000310027
:1004E000000F04001600070009000A000B000D00B1
:1004F0000E000F00330034000000280000071D002C
:100500001B0006001900050011001000360037001E
:10051000380000000000E500E000E300E200000019
:1005200000002C00000000000000E600E700E400EE
:100530000000015135003A003B003C003D003E0008
:100540003F004000410042004300440045004C0091
:100550002B0014001A000800150017001C001800DA
:100560000C00120013002F0030003100000F50006B
:10057000510052004F000A000B000D000E000F004A
:1005800033003400000028000007010001000100D2
:100590000100010001000100010001000100000054
:1005A00000000100E000E300E200000000002C0079
:1005B000000000000000E600E7000251000001001A
:1005C00035023A003B003C003D003E003F00400049
:1005D000410042004300440045004C002B00140041
:1005E0001A000800150017001C0018000C0012006B
:1005F00013002F0030003100000F50005100520056
:100600004F000A000B000D000E000F0033003400F5
:1006100000002800000701000100010001000100A6
:1006200001000100010001000100000000000100C4
:10063000E000E300E200000000002C0000000000E9
:100640000000E600035101000000010035023A00FD
:100650003B003C003D003E003F00400041004200A6
:100660004300440045004C002B0014001A00080011
:10067000150017001C0018000C00120013002F00BA
:1006800030003100000F5000510052004F000A00AE
:100690000B000D000E000F00330034000000280096
:1006A000000701000100010001000100010001003C
:1006B0000100010001000000000001000100010034
:1006C0000100000000000100000000000000010027
:1006D00001000100000001007267626C69676874C4
:1006E0002064697361626C65205B454550524F4DD3
:1006F0005D3A207267626C696768745F636F6E66EB
:1007000069672E656E61626C65203D2025750A0063
:100710007267626C6967687420656E61626C6520DF
:100720005B454550524F4D5D3A207267626C696778
:1007300068745F636F6E6669672E656E61626C6573
:10074000203D2025750A007267626C696768742015
:10075000746F67676C65205B454550524F4D5D3A3D
:10076000207267626C696768745F636F6E66696741
:100770002E656E61626C65203D2025750A00626100
:10078000636B6C6967687420627265617468696E16
:10079000672064697361626C650A006261636B6CF7
:1007A0006967687420627265617468696E67206544
:1007B0006E61626C650A006261636B6C6967687484
:1007C00020627265617468696E6720746F67676C18
:1007D000653A2025750A0044454255473A20646928
:1007E0007361626C65642E0A0044454255473A20A5
:1007F000656E61626C65642E0A006261636B6C6990
:1008000067687420696E6372656173653A20257547
:100810000A006261636B6C69676874206465637267
:10082000656173653A2025750A006261636B6C69C6
:100830006768742064697361626C650A0062616351
:100840006B6C6967687420656E61626C650A006232
:1008500061636B6C6967687420746F67676C653A75
:100860002025750A006261636B6C69676874207388
:100870007465703A2025750A003F00433E20000A47
:10088000002530325820006B6579626F6172645FB9
:100890007265706F72743A20000A002575002E6C24
:1008A0006576656C3A20000A002575002E656E613C
:1008B000626C653A20000A0025303258006261639C
:1008C0006B6C696768745F636F6E6669672E7261CF
:1008D000773A20000A002575002E6E6B726F3A2061
:1008E000000A002575002E737761705F6261636B8B
:1008F000736C6173685F6261636B73706163653AA7
:1009000020000A002575002E737761705F677261A1
:1009100076655F6573633A20000A002575002E6EC8
:100920006F5F6775693A20000A002575002E73779E
:1009300061705F72616C745F726775693A20000A5A
:10094000002575002E737761705F6C616C745F6C4D
:100950006775693A20000A002575002E636170737F
:100960006C6F636B5F746F5F636F6E74726F6C3A02
:1009700020000A002575002E737761705F636F6E2B
:1009800074726F6C5F636170736C6F636B3A20009D
:100990000A0025303258006B65796D61705F636FB6
:1009A0006E6669672E7261773A20000A002575002D
:1009B0002E6D6F7573653A20000A002575002E6B49
:1009C0006579626F6172643A20000A002575002E15
:1009D0006D61747269783A20000A002575002E65F1
:1009E0006E61626C653A20000A002530325800645E
:1009F000656275675F636F6E6669672E7261773ACD
:100A000020000A0025750064656661756C745F6C72
:100A1000617965723A20000A092D204D616769638A
:100A2000202D0A443A094465627567204D65737349
:100A300061676520546F67676C650A583A094D61B4
:100A400074726978204465627567204D6F64652013
:100A5000546F67676C65202D2053686F77206B6536
:100A6000797072657373657320696E206D6174723D
:100A7000697820677269640A4B3A094B6579626F3D
:100A800061726420446562756720546F67676C65A6
:100A9000202D2053686F77206B65797072657373B2
:100AA000207265706F72740A4D3A09446562756709
:100AB000204D6F75736520546F67676C650A563AF1
:100AC0000956657273696F6E0A533A0953746174FB
:100AD00075730A433A09416374697661746520430A
:100AE0006F6E736F6C65204D6F64650A46312D46DD
:100AF00031303A0953776974636820746F204C6110
:100B000079657220302D392028463130203D204C27
:100B100030290A302D393A09537769746368207493
:100B20006F204C6179657220302D390A4752415649
:100B3000453A0953776974636820746F204C617972
:100B4000657220302028616C7465726E617465294D
:100B50000A423A094A756D7020746F20426F6F74B3
:100B60006C6F616465720A4553433A094A756D704A
:100B700020746F20426F6F746C6F616465722028FF
:100B8000616C7465726E617465290A453A09507228
:100B9000696E7420454550524F4D205365747469F9
:100BA0006E67730A4253504143453A09436C65618D
:100BB0007220454550524F4D0A000A092D20436FBF
:100BC0006E736F6C65202D0A4553432F713A09717E
:100BD0007569740A004743433A20372E342E30207B
:100BE0004156522D4C4942433A20322E302E30206D
:100BF0004156525F415243483A20617672350A00AD
:100C00004F5054494F4E533A204C55464120455879
:100C10005452414B455920434F4E534F4C4520436E
:100C20004F4D4D414E4420343039360A004255492B
:100C30004C443A20223231363465312D6469727465
:100C40007922202831333A35393A3232204A756CCC
:100C50002032342032303139290A005649443A20B2
:100C6000307846454544283175706B6579626F610F
:100C700072647329205049443A2030783030303043
:100C800028317570363068736529205645523A20F0
:100C90003078303030310A00444553433A20412007
:100CA000637573746F6D20363025206B6579626FC4
:100CB0006172640A000A092D2056657273696F6EAD
:100CC000202D0A0074696D65725F7265616433324C
:100CD00028293A202530346C580A006B6579626FF8
:100CE0006172645F69646C653A2025580A006B651F
:100CF00079626F6172645F70726F746F636F6C3A68
:100D00002025580A00686F73745F6B6579626F61A4
:100D100072645F6C65647328293A2025580A000ABA
:100D2000092D20537461747573202D0A003F000A49
:100D30006D6F7573653A206F66660A000A6D6F7590
:100D400073653A206F6E0A000A6B6579626F617293
:100D5000643A206F66660A000A6B6579626F617299
:100D6000643A206F6E0A000A6D61747269783A20E5
:100D70006F66660A000A6D61747269783A206F6E58
:100D80000A000A64656275673A206F66660A000A9F
:100D900064656275673A206F6E0A000A0A4A756DCB
:100DA00070696E6720746F20626F6F746C6F61641E
:100DB00065722E2E2E2000433E2000436C6561722A
:100DC000696E6720454550524F4D0A006565636F57
:100DD0006E6669673A0A004C25640A007267626CA5
:100DE000696768745F636F6E6669672E73706565A7
:100DF00064203D2025640A007267626C696768742C
:100E00005F636F6E6669672E76616C203D20256496
:100E10000A007267626C696768745F636F6E666907
:100E2000672E736174203D2025640A007267626C2E
:100E3000696768745F636F6E6669672E68756520A1
:100E40003D2025640A007267686C696768745F6397
:100E50006F6E6669672E6D6F6465203D2025640A9C
:100E6000007267626C696768745F636F6E6669675A
:100E70002E656E61626C65203D2025640A007267F4
:100E8000626C696768745F636F6E66696720454569
:100E900050524F4D3A0A007267626C696768745F1E
:100EA000696E6974207267626C696768745F636FEA
:100EB0006E6669672E6D6F6465203D20302E205769
:100EC000726974652064656661756C742076616C06
:100ED00075657320746F20454550524F4D2E0A00A2
:100EE0007267626C696768745F696E6974206565B2
:100EF000636F6E666967206973206E6F7420656E1C
:100F000061626C65642E0A007267626C696768745E
:100F10005F696E6974207374617274210A0072676C
:100F2000626C696768745F696E69742063616C6C78
:100F300065642E0A007267626C6967687420646970
:100F40007361626C65205B4E4F454550524F4D5D5D
:100F50003A207267626C696768745F636F6E666976
:100F6000672E656E61626C65203D2025750A000A5A
:100F7000002530313662003A200025303258000A10
:100F8000722F6320303132333435363738394142AD
:100F9000434445460A000A0025303258006B657903
:100FA000626F6172645F7365745F6C65643A2000A0
:100FB00000047F3F1F643214643214783C1E1E14F8
:100FC0000A055B735D004B6579626F617264207323
:100FD000746172742E0A005B435D005B445D005BCC
:100FE000535D007267626C6967687420656E616248
:100FF0006C65205B4E4F454550524F4D5D3A207217
:1010000067626C696768745F636F6E6669672E6597
:101010006E61626C65203D2025750A005B575D009E
:101020005B525D0009025B00030100A0FA090400A5
:101030000001030101000921110100012240000704
:1010400005810308000A09040100010300000009EA
:1010500021110100012236000705820320000A0940
:1010600004020002030000000921110100012222F4
:101070000007058303200001070503032000011278
:1010800001100100000008EDFE0000010001020354
:1010900001040330000000120331007500700036B7
:1010A00000300068007300650000001A033100750D
:1010B0000070006B006500790062006F00610072D3
:1010C00000640073000000040309040011241FBE23
:1010D000CFEFDAE0DEBFCDBF04B603FE27C08091BC
:1010E0006D0290916E02A0916F02B09170028730F4
:1010F000904BA740B04BD1F410926D0210926E024B
:1011000010926F021092700214BE84B7877F84BF62
:101110000FB6F894A8958091600088618093600074
:10112000109260000FBEE0E0F8E3099511E0A0E046
:10113000B1E0ECE3F1E602C005900D92A036B107F4
:10114000D9F722E0A0E6B1E001C01D92AD36B207AA
:10115000E1F70E94222B0C949C300C940000FF932A
:10116000EF93E0916001F0916101309709F00995EA
:10117000EF91FF910895FC018591803011F0EFDF30
:10118000FBCF0895FF27E0E230E247FF0CC0419516
:1011900097FF09C0EDE26095709580959095611D6F
:1011A000711D811D911D27FF02C0219530E350E282
:1011B000AA27660F771F881F991FAA1FA41710F070
:1011C000A41B63955A95A9F7AA3008F0A95FA05D02
:1011D000AF93F395611571058105910541F7ED32E6
:1011E00011F4EF93F395F21718F43F93F395FBCFB7
:1011F0008F91B5DFFA95E1F70895E991F99185911D
:10120000803021F0853219F0AADFF9CF089520E06F
:10121000E89455915532C1F3503311F468945591C7
:101220005A3348F4505390F3220F022E220F220F0C
:10123000200D250FF4CF0EF4219589919991533605
:1012400019F3533729F1533559F1BC0188279927F0
:10125000E8945C3621F489919991689455915436BB
:1012600039F446EF7EF077FF0DC08FEF9FEF0AC095
:1012700055374AE039F0583540E121F0523642E026
:1012800009F00895FF93EF937DDFEF91FF91B7CFC2
:10129000FF93EF93FC0181918030B9F360DFFBCFC6
:1012A000FF93EF9368DFF1CFDF93CF93CDB7DEB736
:1012B0002596A3DFCF91DF910895E8EDF0E08081DE
:1012C0008E7F80831092E2001092DA001092E1008B
:1012D000A0EEB0E08C9181608C9380818F778083C9
:1012E00019BCA7EDB0E08C918E7F8C9380818F7EAE
:1012F000808310924E0208952091E4003091E50021
:1013000085E69091EC0090FF06C09091E80090FF78
:1013100006C080E008959091E80092FDFACF909188
:101320006302992391F0953091F09091EB0095FD37
:1013300010C04091E4005091E5002417350709F3EF
:1013400081509A01F1F684E0089582E0089583E0E7
:10135000089581E00895EF92FF920F931F93CF932A
:101360007C018B010E947C09C82F811117C08091DC
:10137000E80085FD0BC08091E8008E778093E8003F
:101380000E947C09882399F3C82F08C0F701819136
:101390007F018093F1000150110949F78C2FCF9103
:1013A0001F910F91FF90EF9008958091650287FF44
:1013B00013C08091E80082FF06C08091E8008B771F
:1013C0008093E80004C0809163028111F2CF0895F8
:1013D000809163028823D9F38091E80080FFF8CFE1
:1013E0008091E8008E77ECCF982F9093E900242F1E
:1013F000762F50E0891731F07091EC002091ED00CC
:101400005091F00021FD07C09F5F973071F78093E6
:10141000E90081E008953091EB003E7F3093EB00CE
:101420003091ED003D7F3093ED003091EB00316065
:101430003093EB007093EC002093ED005093F0009C
:101440002091EE0027FDE0CF80E00895CF92DF925B
:10145000EF92FF920F931F93CF93DF93C8EDD0E0ED
:1014600088818F7E8883E7EDF0E0808181608083D2
:1014700084E082BF81E080934E0288818E7F8883E2
:1014800002EE10E0F80110821092DA0081EEC82E10
:10149000D12CF601108288818F77888388818068BB
:1014A000888388818F7D888319BC10926302109293
:1014B0006402109262021092610290EEE92EF12C09
:1014C000F70180818B7F808388818160888342E0FF
:1014D00060E080E00E94F409F60180818E7F8083C5
:1014E000F801808181608083808188608083F7013A
:1014F00080818E7F8083888180618883DF91CF9116
:101500001F910F91FF90EF90DF90CF900895FC0115
:1015100080916B0290916C0286179707A0F061157D
:10152000710529F49091E8009E779093E80090E08F
:101530006115710551F4911108C08091E80082FF96
:1015400035C080E00895BC01F2CF8091630288230A
:10155000C9F18530C9F18091E80083FD31C08091E7
:10156000E80082FDEACF8091E80080FFE1CF209182
:10157000F3008091F200322F282F6115710519F0C8
:101580002830310558F091E02830310509F090E01D
:101590002091E8002E772093E800CACF81918093B4
:1015A000F100615071092F5F3F4FE7CF80916302D7
:1015B000882341F0853041F08091E80083FFBDCF62
:1015C00081E0089582E0089583E0089508950895E4
:1015D000809158020895CF92DF92EF92FF920F937D
:1015E0001F932FB7F8944091140250911502609107
:1015F0001602709117022FBF6A017B01EE24FF24AF
:101600008C0130E020E0C016D106E206F30650F06F
:10161000481B590BCA011F910F91FF90EF90DF906B
:10162000CF90089541505109F3CF2FB7F89480918E
:10163000140290911502A0911602B09117022FBFCB
:101640000895829590E09C01220F331F220F331FD3
:101650002C7C95958795959587958373282B30E0FD
:10166000C901880F991F8A7A359527952575822B90
:10167000089580910F02811110920F020895E2E601
:10168000F1E09281891301C01282319691E0E8362F
:10169000F907B9F70895A4E6B1E0EFEF90E02D91D6
:1016A000821751F0EF3F19F4211101C0E92F9F5F1C
:1016B0009630A9F7EF3F09F408950E2E000CFF0BAA
:1016C000EE59FE4F828308952EE0929F800D1124E3
:1016D000982F977086958695869525E0829FA00124
:1016E000112470E060E080E0FA01E60FF71FE65297
:1016F000FE4F208130E0092E02C0369527950A94CE
:10170000E2F721703327062E01C0220F0A94EAF770
:10171000822B6F5F7F4F6530710531F708952EE0A2
:10172000929F800D1124982F977071E001C0770F60
:101730009A95EAF786958695869525E0829FC00161
:10174000112450E040E0A62FB0E0FC01E40FF51FAB
:10175000E652FE4F60819D01042E02C0369527950A
:101760000A94E2F721702195262727232627208334
:101770004F5F5F4F4530510541F708958091D90182
:101780009091A801981301C008958F5F8770FACFD8
:1017900020919E0130919F012817390771F0909395
:1017A0009F0180939E01E0912C02F0912D023097D1
:1017B00021F00084F185E02D0994089520919C0189
:1017C00030919D012817390771F090939D01809306
:1017D0009C01E0912C02F0912D02309721F00680BF
:1017E000F781E02D09940895E0912C02F0912D02EB
:1017F000309721F00190F081E02D099480E0089568
:101800008091500280FF02C08695089580E008957F
:1018100080915002982F9E7F29F48170826080937E
:10182000500208958A34E8F381708864F8CFAF924B
:10183000BF92CF92DF92EF92FF920F931F93CF93BD
:10184000DF93E82EF62EE901E42FF0E0611113C0DA
:10185000EC53FE4F4491E42F942F99834883EA83FD
:10186000DF91CF911F910F91FF90EF90DF90CF907C
:10187000BF90AF900895062F10E026E0829FC00130
:1018800011242FEF30E0B9010E94DD2F8E2D90E062
:10189000880F991F55E5569FD001579FB00D112411
:1018A0008A1B9B0B582F550F580FC901801B910B9A
:1018B0008E9FD0018F9FB00D9E9FB00D11248B2F56
:1018C000F59E70011124EF2CFF246901CE18DF086A
:1018D000CE9E7001CF9EF00CDE9EF00C11249F2D49
:1018E0005901A51AB108A09E6001A19ED00CB09E1E
:1018F000D00C1124CD2CDD242C193D092E9F800104
:101900002F9F100D3E9F100D11246230710529F19B
:1019100058F46115710579F06130710571F0E42FAB
:101920004B2F8F2D9E2F09C064307105E9F0C0F058
:1019300066307105A1F7942F412FE92FF0E0EC53A9
:10194000FE4F9491E42FF0E0EC53FE4F4491E82FCA
:10195000F0E0EC53FE4FE49180CF9B2F812FEDCF31
:10196000842F4F2D9B2FE9CF912F842F4B2FE5CF25
:101970009091290292FF06C0282F2871283069F41F
:10198000877F846093FF06C0282F2871283161F477
:10199000877E846194FD877E0895282F24712430EA
:1019A00089F78B7F8860EECF282F2471243191F73F
:1019B0008B7E8861EFCFCF93DF93972F70E02EE07F
:1019C000929F600D711D1124FB0136E4839FE00D91
:1019D000F11D1124EE0FFF1FE855FB4FC591D49167
:1019E000CE01C238D105A9F1E8F5C133D10509F41A
:1019F00081C040F5C932D10509F475C0CA32D1059C
:101A000009F47FC0C11541E5D40708F0AFC0C11586
:101A100050E5D50708F0EDC1C83ED10508F088C0F3
:101A2000C03ED105E0F4C83AD10508F071C0C53A0E
:101A3000D10508F033C1C130D10589F028F12497D0
:101A400070F422C0C533D10509F446C0C933D105AD
:101A5000C9F620912902237011F080EE90E0DF9109
:101A6000CF910895C33ED10539F188F4C03ED10528
:101A7000E1F0C23ED10531F62091290222FFEFCFDD
:101A800083EE90E024FFEBCF90E080E0E8CFC63E0D
:101A9000D105C9F0C73ED10509F0B4CF2091290284
:101AA00023FF0EC086EE90E0DACF2091290220FFBE
:101AB000D6CF89E390E0D3CF2091290222FDE4C163
:101AC00024FDE2CFCCCF2091290223FFC8CF87EE9F
:101AD00090E024FDD9CFC3CF2091290225FFBFCFAD
:101AE00089E290E0BCCF2091290225FFB8CF85E3A1
:101AF00090E0B5CF2091290226FFB1CF8AE290E095
:101B0000AECF2091290226FFAACF81E390E0A7CF94
:101B1000CF3BD10508F4D1C0C03CD10508F4B4CF07
:101B2000FE01EE0FFF1FEC5BFF4F8591949197CF65
:101B3000C11520E3D20788F4C11530E2D30708F0BD
:101B400049C1C03FD10508F49FCFCF3FD10511F067
:101B500008F085CFCE01906582CFC11540E4D4074F
:101B600008F43FC1CE019F70906A79CFC11559E545
:101B7000D507F0F5C11588E5D80708F07AC1C11579
:101B800094E5D90708F5C11523E5D20708F055C13A
:101B9000C11532E5D30708F44BC19E0123703327EA
:101BA00081E090E0AC0102C0440F551F2A95E2F796
:101BB0009A018C2F8695869550E2859FC00111244D
:101BC000822B932B9C684BCFC11545E5D40708F4B5
:101BD0004BC1C11556E5D50708F056CF8C2F0E9492
:101BE000B80C90E0982F882788279F71906237CF94
:101BF000CD3B8CE5D80709F441C140F580E094ED78
:101C0000CB3B2CE5D20709F42ACF80E095EDCC3B05
:101C10003CE5D30708F023CFC1154AE5D40708F007
:101C200033CF8C2F8F700E94B80CFE0194E0F69594
:101C3000E7959A95E1F7EF70F0E0FE2FEE27F06A56
:101C40008F70806E9F01282BC90109CF80E093ED32
:101C5000C03C5CE5D50709F402CF60F4CE3B9CE5BF
:101C6000D90709F40EC180E092EDCF3BDC4509F4C1
:101C7000F6CE0ACFCE0190568115904208F004CFDF
:101C80008D2F8F710E94B80C282F30E0322F222721
:101C900022273F71CE0199279062C7C081E890E466
:101CA000C53AD10509F4DBCE83E890E4C63AD10504
:101CB00009F0D5CE82E890E4D2CE82EE94E4C83A20
:101CC000D10509F4CCCE89EE94E4C93AD10509F4E2
:101CD000C6CE8AEE94E4CA3AD10509F4C0CE85EBAB
:101CE00094E4CB3AD10509F4BACE86EB94E4CC3A2D
:101CF000D10509F4B4CE83EB94E4CB3BD10509F4D0
:101D0000AECE84EB94E4CC3BD10509F4A8CE87EBAE
:101D100094E4CD3AD10509F4A2CE8CEC94E4C03B16
:101D2000D10509F49CCE8DEC94E4CE3AD10509F4AA
:101D300096CE83E895E4CF3AD10509F490CE8AE8AF
:101D400095E4C13BD10509F48ACE82E995E4C23B12
:101D5000D10509F484CE84E995E4C33BD10509F4A7
:101D60007ECE81E296E4C43BD10509F478CE83E2CD
:101D700096E4C53BD10509F472CE84E296E4C63BF5
:101D8000D10509F46CCE85E296E4C73BD10509F490
:101D900066CE86E296E4C83BD10509F460CE87E2C0
:101DA00096E4C93BD10509F45ACE8FE694E4CD3BC5
:101DB000D10509F454CE80E794E4CE3BD10509F473
:101DC0004ECE8AE296E4CA3BD10509F448CE80E0C3
:101DD00094E445CEFE01FF70EE0FFF1FEC53FE4F63
:101DE000A4CECE019927D3FF02C0986C38CE906C58
:101DF00036CE9E0174E0369527957A95E1F72370EB
:101E00003C2F337081E090E002C0880F991F3A9513
:101E1000E2F79C68AC01522B9A018C2F869586952F
:101E2000837050E2859FC0011124822B932B17CE23
:101E30009C2F8827816F906A12CE9E0123703327D2
:101E400081E090E0AC0102C0440F551F2A95E2F7F3
:101E50009A018C2F8695869550E2859FC0011124AA
:101E6000822B932B9A68FBCD9C2F8827846F906AD6
:101E7000F6CD9C2F8827806F906AF1CD80E091EDA0
:101E8000EECD80E090EDEBCD82EE90E0E8CDBF921C
:101E9000CF92DF92EF92FF920F931F93CF93DF9336
:101EA0008C01C0900702D0900802E0900902F090E7
:101EB0000A028091100290911102A0911202B09139
:101EC0001302C82AD92AEA2AFB2ACFE1D0E0BC2E85
:101ED000D701C6010C2E04C0B695A7959795879596
:101EE0000A94D2F780FD0EC0219788F7B12C8B2D74
:101EF000DF91CF911F910F91FF90EF90DF90CF90E6
:101F0000BF900895B8018C2F0E94DB0C019761F3FC
:101F1000EECFCF93DF93EC010E94470FBE01DF911C
:101F2000CF910C94DB0C0E94890F292F2F70E92F81
:101F3000E295EF70E250EE30E0F4F0E0EE55F04F55
:101F40000C942730B00FB00FB90FB90FBB0FB90FFA
:101F5000B90FB90FB00FB00FC00FB90FB90FC00F45
:101F6000803F19F020F4803E20F481E00895843F02
:101F7000E1F380E00895803EC0F3813FD1F7F5CFD3
:101F8000822F8695869586950895CF92DF92EF925F
:101F9000FF928C3724E1920750F469E070E00E94D0
:101FA000DD2FCB01FF90EF90DF90CF900895B0E050
:101FB000A0E0BC01CD016A50774D8F4F9F4F982F05
:101FC000872F762F662725EF38E241E050E00E9408
:101FD000053069017A01CA01B9010E94C12F9B0134
:101FE000AC01C701B6010E94C12F672F782F892F3E
:101FF00099276115710521E08207910591F66FEF30
:102000007FEFCFCF8630D8F481111AC09091800035
:10201000977F90938000282F30E0AFEFBFEF0E94B2
:102020002D3025E030E040E050E00E940530C9014D
:102030000E94C50F90938D0080938C00089585E0D9
:10204000909180009860E5CF0F931F93CF93DF931B
:1020500080910E0290910D02892B90910C02892B98
:102060008093620190910F02992369F0892B8093EC
:102070006201E4E6F1E097E080E0915009F03FC0B2
:1020800081110E94390BE0912C02F0912D023097C2
:10209000E1F10280F381E02D82E691E009958091E3
:1020A0004F0282FF32C080FF04C087E898E00E94A0
:1020B000BB08D0E0C0E001E818E080914F0280FF4B
:1020C0000EC0FE01EE59FE4F80811F928F931F9329
:1020D0000F930E9454090F900F900F900F9021962C
:1020E000C830D10551F780914F0280FF0EC08FE7B5
:1020F00098E0DF91CF911F910F910C94BB08219133
:10210000222309F4BACF8F5FB8CFDF91CF911F910F
:102110000F91089510920D0210920C020E9424104B
:1021200090E080E00E94DE0B90E080E00C94C80B11
:1021300060930702709308028093090290930A0249
:102140000C948A100F931F9341E050E060E070E020
:1021500004C0440F551F661F771F8A95D2F7CB0125
:10216000BA01609570958095909500910702109145
:1021700008022091090230910A0260237123822310
:1021800093231F910F910C94981090910B028095BE
:10219000892380930B02282F277071F4282F082E93
:1021A000000C330B9217130639F0859585958595AC
:1021B0000E94A21010920B0208950F931F9341E00A
:1021C00050E060E070E004C0440F551F661F771FA9
:1021D0008A95D2F78091070290910802A091090296
:1021E000B0910A028A019B01082B192B2A2B3B2B49
:1021F000C901B8011F910F910C94981060931002BF
:102200007093110280931202909313020C948A101F
:10221000882341F0809590910E02892380930E02CD
:102220000C9424100895882339F090910E02892B84
:1022300080930E020C9424100895882309F452C050
:10224000823871F40E94F40B81FF4CC089E30E9434
:102250004B0B0E94241089E30E943F0B0C94241026
:10226000833859F40E94F40B80FF3CC083E50E9440
:102270004B0B0E94241083E5EFCF843859F40E9461
:10228000F40B82FF2FC087E40E944B0B0E942410A6
:1022900087E4E2CF9CEF980F913AF0F290E2980F2A
:1022A000983088F4877021E030E0A90102C0440F23
:1022B000551F8A95E2F7CA01809590910E028923F5
:1022C00080930E02CBCF9BE5980F933020F490E0E3
:1022D00080E00C94DE0B885A873120F490E080E097
:1022E0000C94C80B089510924B0280914F0280FF0E
:1022F00008C08FE893E09F938F930E9454090F903A
:102300000F9008959FB7F89410924C029FBF909140
:102310006302943009F049C02091E9002F70909138
:10232000EC0090FD30C090E0922B23E02093E90078
:102330002091EB0020FF36C02091EE0027FF32C035
:1023400020911A02222321F02091E80025FF2AC0C3
:1023500010921A0226E03091E80035FF16C08093F3
:10236000F1008091E80085FD29C08091E80080FFA0
:10237000FCCF8091E8008E778093E8009F70909367
:10238000E90080E0089590E8CFCF309163023430C7
:1023900049F43091EB0035FD05C0215041F481E056
:1023A00080931A029F709093E9008FEF0895EFE9F0
:1023B000FFE03197F1F700C00000CDCF8FB7F89460
:1023C00021E020934C028FBFD9CFCF93DF9300D071
:1023D0001F92CDB7DEB79C0190911902911129C0CF
:1023E00080916302843049F584E089833B832A83AA
:1023F00082E08093E9008FEF9091E800815095FD95
:1024000006C095ED9A95F1F700008111F5CF809106
:10241000E80085FF12C050E040E063E070E0CE01CC
:1024200001960E94AB098091E8008E778093E800C6
:1024300004C09230C9F29430B9F20F900F900F900F
:10244000DF91CF910895CF93DF9300D01F92CDB746
:10245000DEB720916302243031F523E029838058D0
:1024600091099B838A8382E08093E9008FEF9091AA
:10247000E800815095FD06C095ED9A95F1F70000B2
:102480008111F5CF8091E80085FF0DC050E040E05C
:1024900063E070E0CE0101960E94AB098091E800F4
:1024A0008E778093E8000F900F900F90DF91CF917F
:1024B0000895CF93DF93EC0180911902811107C039
:1024C00080916302843029F0DF91CF9108958230AA
:1024D000C9F781E08093E9008FEF9091E800815087
:1024E00095FD06C095ED9A95F1F700008111F5CFA5
:1024F0008091E80085FFE8CF50E040E068E070E0C0
:10250000CE010E94AB098091E8008E778093E800AD
:1025100088E0FE01A9E5B2E001900D928A95E1F70D
:10252000D3CF81E08093E00080E28093D8001092C6
:10253000C9008FE19EE40197F1F700C0000087E039
:1025400090EBDC0180936D0290936E02A0936F027A
:10255000B093700288E19CE00FB6F894A895809340
:1025600060000FBE90936000FFCF8091500280FD0D
:102570000AC0E0E7F1E0118210821282339631E066
:10258000EA39F307C1F7809A81B38E7F91B39160E6
:102590002FB7F894E0E7F1E031E0EA39F30741F4CE
:1025A0002FBF87EC90E00197F1F700C0000008957D
:1025B000319148E091BB000000C037FF81BB330F71
:1025C000000000C000C000C081BB00C04A9591F768
:1025D000E3CFEF92FF920F931F93CF93DF938C0182
:1025E000C0E7D1E0F12CE12CF80194816091520216
:1025F00080915102F7E0EF16F104FCF49923F9F011
:102600009E01409153020E94170C2FEFE21AF20A2A
:1026100023968EE0E816F10439F70E94B512F8010E
:10262000848190E00196817099278483DF91CF9116
:102630001F910F91FF90EF900895992309F39E0148
:1026400040E0E1CFEF92FF921F93CF93DF93EC0135
:1026500080E7E82E81E0F82E10E08C819701409110
:10266000530260915202810F0E94170C1E5E83E09C
:10267000E80EF11C1C3F89F70E94B5129A818C81EB
:1026800090FF08C08F5F8C83DF91CF911F91FF90E7
:10269000EF9008958150F7CFCF92DF92EF92FF92A3
:1026A0000F931F93CF93DF93FC018281DD24DA9493
:1026B00080FD02C0DD24D39400E711E0D0E0C0E04B
:1026C000F80111821082128294E0E92EF12CC12CC3
:1026D00080916D018C0D87FD825F082E000C990B97
:1026E000C817D90791F4809153028E9DA0018F9D48
:1026F000500D112455954795559547959801609132
:102700005202809151020E94170CCD0CF1E0EF1A99
:10271000F108F1F621960D5F1F4FCE30D10581F6FD
:102720000E94B51280916D0191E0D91210C0811103
:102730000CC08DE080936D01DF91CF911F910F91BF
:10274000FF90EF90DF90CF9008958150F3CF90E00D
:102750000196BE010E94F12FEDCF0F931F93CF93EF
:10276000DF93C0E7D1E0FE0111821082128233961E
:1027700081E0EA39F807C1F710E000E080916E01CE
:10278000082E000C990B081719078CF180910C0189
:10279000082E000C990B801791074CF19E01409177
:1027A000530260915202809151020E94170C0F5FF8
:1027B0001F4F23960E30110509F70E94B512809124
:1027C0000B0190916E01980F90936E0120910C0176
:1027D000280F20930C01121614F49D301CF08195E3
:1027E00080930B01DF91CF911F910F910895198272
:1027F00018821A82DCCFEF92FF920F931F93CF9330
:10280000DF93EC018C819D810196817099279D83D6
:102810008C8380E7E82E81E0F82E10E005E5812F1B
:1028200086952C813D81820F932F911D8170970198
:102830004091530260915202809F802D11240E948A
:10284000170C1F5F83E0E80EF11C1E3041F7DF918B
:10285000CF911F910F91FF90EF900C94B512909132
:10286000500290FF0CC0E0E7F1E081836083428377
:10287000339691E0EA39F907C1F70C94B51208953F
:102880000F931F93CF93DF9300D01F92CDB7DEB786
:102890008C0180916F0181110AC09E012F5F3F4F13
:1028A0004FEF6FEF0E94170C8A8180936F01F80140
:1028B0008481813069F038F040916F01823009F0F5
:1028C00040E080E003C080916F0140E060E004C020
:1028D00060916F0140E080E00E942F14F801848134
:1028E00090E0019663E070E00E94F12F84830F90E6
:1028F0000F900F90DF91CF911F910F910895CF937B
:10290000DF9300D01F92CDB7DEB79091500290FFB9
:102910000AC09E012F5F3F4F0E94170C4B816981B7
:102920008A810E942F140F900F900F90DF91CF910A
:102930000895CF93DF93EC01EC81F0E0E855FC4F74
:102940004491E0E5F2E0628181810E947F148C81F4
:102950008F5F8C83DF91CF910895CF93DF93EC014C
:10296000E0E5F2E0438162818C810E947F148C81DA
:102970008F5F8C83DF91CF9108957F928F929F928A
:10298000AF92BF92CF92DF92EF92FF920F931F937D
:10299000CF93DF93AFE1B2E04DE351E0712CEE2431
:1029A000E394F12CAD90BC90119711961C921E925D
:1029B000EA018991AE01E82FE295EF70F0E091A174
:1029C0008F70B70101C0660F8A95EAF7892F862BB1
:1029D00081A382A1962E9094892182A3D0EADA95D0
:1029E000F1F782E4C82E81E0D82E30E020E0E60145
:1029F00089906E01082D02950F7010E0E80188A102
:102A00000D911C91119790E0D82DDF7002C0959523
:102A10008795DA95E2F780FD76C0C701022E02C0E5
:102A2000880F991F0A94E2F7082B192B11961C9313
:102A30000E932F5F3F4F2E303105C9F681A18921BA
:102A400081A382A1682B62A381E02D913C91119713
:102A50002A153B0509F480E0782A1296D1E0423429
:102A60005D0709F09FCF772049F081E080936C01EA
:102A70000E94150B90936B0180936A0180916C0109
:102A8000882391F180916A0190916B010E94EB0A79
:102A9000069750F180911F0290912002909330028E
:102AA00080932F0280912102909122029093320212
:102AB00080933102809123029091240290933402FA
:102AC00080933302809125029091260290933602E2
:102AD00080933502809127029091280290933802CA
:102AE0008093370210926C01872DDF91CF911F9157
:102AF0000F91FF90EF90DF90CF90BF90AF909F909D
:102B00008F907F90089590E080E08ECF682F86E0D0
:102B100090E00C945B30982F990F990F990F80914A
:102B20001B028770892B80931B02887F91E009F438
:102B300090E080911B0290FB80F980931B020E9421
:102B4000861580911B028695869586950C940210B9
:102B500090E080E00E94553021E08D3E9E4F09F0CC
:102B600020E0822F0895CF92DF92EF92FF926B01C7
:102B70007C010E94080CB701A60188E090E0FF905C
:102B8000EF90DF90CF900C946D302F923F924F9248
:102B90005F926F927F928F929F92AF92BF92CF92ED
:102BA000DF92EF92FF920F931F93CF93DF9300D0AA
:102BB00000D000D0CDB7DEB7582E262E342E2E836F
:102BC0009091500290FF47C0E92FE695AE2FB0E0FC
:102BD000A85EBE4F8C9180934A029E7F923009F08E
:102BE00053C09E012F5F3F4F852D0E94170C4B81D4
:102BF00069818A810E942F145092510220925202C0
:102C0000309253028E81882309F49FC06091500254
:102C10007091510280915202909153020E94B3151B
:102C200080914F0280FF17C0809153021F928F93B3
:102C3000809152021F928F93809151021F928F9325
:102C400085E293E09F938F930E9454090FB6F89406
:102C5000DEBF0FBECDBF26960FB6F894DEBF0FBE07
:102C6000CDBFDF91CF911F910F91FF90EF90DF903B
:102C7000CF90BF90AF909F908F907F906F905F901C
:102C80004F903F902F900895823019F43090530266
:102C9000B3CF863019F450905102AECF8930D9F3BA
:102CA000893109F0A9CFE9518E2F81708C838E2F45
:102CB000809581708D83E695F0E0EF58FC4FE590AC
:102CC000F490FF2480E7C82E81E0D82EB12CA12CEF
:102CD00010E000E09EE0692E712C2AE4822E23E0B1
:102CE000922EC501B3010E94DD2F9C81452C9111CC
:102CF0002AC0460E80914F0280FF12C0FF92EF92D1
:102D00001F928D818F931F924F921F930F939F92CB
:102D10008F920E9454090FB6F894DEBF0FBECDBF4C
:102D20009601432D622D842D0E94170C0F5F1F4FBB
:102D3000AE0CBF1C93E0C90ED11C0E30110589F6F4
:102D40000E94B51259CF461AD5CF80914F0280FF0D
:102D500082CF1F923F921F922F921F925F928EEF0F
:102D600092E070CFE0E5F2E083E0808311828FEFA4
:102D700082838383148260817181828193810C9428
:102D8000B3156DEE7EEF90E080E00E94793060E058
:102D900082E090E00E945B3060E083E090E00E947F
:102DA0005B301092100210921102109212021092D7
:102DB000130260E084E090E00E945B3060E085E018
:102DC00090E00E945B3060E086E090E00E945B3023
:102DD0006FEF87E090E00E945B3040E050E0BA0186
:102DE00088E090E00E946D3060E08DE090E00E940D
:102DF0005B3040E050E0BA0188E190E00E946D3025
:102E000060E087E190E00E945B3040E050E0BA0172
:102E10008CE190E00E946D3060E080E290E00E94E2
:102E20005B3040E050E0BA018FE090E00E946D30EE
:102E300040E050E0BA0183E190E00C946D300E94D4
:102E4000A815811102C00E94C11686E090E00E9480
:102E5000473080931B02803320F087708862809314
:102E60001B0280911B0280FF05C086958695869582
:102E70000C94021080E0FCCF10920E02E4E6F1E028
:102E800086E0DF011D928A95E9F70C948A101F9362
:102E9000CF93DF93CDB7DEB7AA970FB6F894DEBF16
:102EA0000FBECDBFE5E6F2E08091F100819382E0B4
:102EB000ED36F807C9F780916602833009F47CC0CB
:102EC00008F5813009F453C0823009F4BDC0809107
:102ED000E80083FFF7C080916502909166029A3006
:102EE00008F0F0C0E92FF0E0E858F84E0C942730D5
:102EF00035185B1862185B186218B918DB1862186D
:102F0000E519F2198A3009F48EC08B3009F471C0CA
:102F10008930E9F6809165028132C9F680916902B3
:102F200090916A02029798F68091E800877F8093DB
:102F3000E8008091E80082FF3AC08091F300909110
:102F4000F200892798278927029729F48091F100B8
:102F50008B7F813021F48091F10080935802809121
:102F6000E8008B778093E8000E94D509B0CF80916C
:102F70006502813A09F0ABCF8091E800877F8093AA
:102F8000E8008091690290916A02892B61F060E00B
:102F900090E080E070E00E94870A8091E8008B77E3
:102FA0008093E80094CF68E089E592E0F3CF8091C8
:102FB00063028111BECF8BCF80916502813A09F007
:102FC00086CF8091690290916A02892B09F07FCFA8
:102FD0008091E800877F8093E8008091E80080FF7F
:102FE000FCCF809117018093F1008091E8008E77EB
:102FF000B9CF80916502813209F069CF8091690271
:1030000090916A02892B09F062CF8091E800877F56
:103010008093E8000E94D509809167028093170190
:103020000E943C1754CF80916502813209F04FCF46
:103030008091E800877F8093E8000E94D509809105
:1030400068028093570243CF80916502813A09F06C
:103050003ECF8091E800877F8093E8008091E80070
:1030600080FFFCCF80915702BECF803889F0823834
:1030700049F5809169028F70873020F58093E900CF
:103080008091EB0085FB882780F91092E90006C04B
:103090008091610290916202911182609091E800AA
:1030A000977F9093E8008093F1001092F100809157
:1030B000E8008E772DC0282F2D7F21F48823D1F0B2
:1030C000823059F18091E80083FF0AC08091E800C6
:1030D000877F8093E8008091EB0080628093EB0013
:1030E000AA960FB6F894DEBF0FBECDBFDF91CF9189
:1030F0001F91089580916702813021F7933009F084
:1031000080E0809362021092E9008091E800877F5E
:103110008093E8000E94D509D5CF80916702811184
:10312000F2CF809169028F702FEF280F263050F672
:103130008093E9002091EB0020FFE5CF933031F43C
:103140008091EB0080628093EB00DDCF9091EB00EB
:1031500090619093EB0021E030E001C0220F8A954E
:10316000EAF72093EA001092EA008091EB00886071
:10317000EACF8111A7CF109167021F778091E300FA
:103180008078812B8093E3008091E800877F809393
:10319000E8000E94D5098091E80080FFFCCF809173
:1031A000E30080688093E30083E0111101C082E0B6
:1031B0008093630287CF8058823008F083CF2091BC
:1031C0006702309168022C3DA3E03A07A1F583E045
:1031D0008A838AE289834FB7F894DE01139620E050
:1031E0003EE051E2E32FF0E050935700E49120FFDE
:1031F00003C0E295EF703F5FEF708E2F90E0EA30F2
:10320000C0F0C7968D939D932F5F243159F74FBF20
:103210008091E800877F8093E8006AE270E0CE0149
:1032200001960E94870A8091E8008B778093E800DE
:1032300049CFC096E7CF8091690290916A02432FEF
:1032400055274330510509F44FC078F541305105F9
:1032500009F445C08BE590E0E4E2F0E1423051052D
:1032600009F030CF2091E800277F2093E8002091DB
:103270006B0230916C028217930708F49C0140E0C6
:103280002115310509F06EC041116CC08091E80034
:1032900082FDC9CF80916302882329F2853019F21B
:1032A0008091E80083FFF2CFBECF4132510509F48F
:1032B0004AC04232510509F005CF8330910508F02C
:1032C00001CFFC01EE0FFF1FED5AFE4F0190F08180
:1032D000E02D805B9E4FDC018C9190E020C082E16C
:1032E00090E0EFE7F0E1BECF332721303105D9F090
:1032F00078F022303105F9F02330310509F0E2CEC3
:10330000E1E9F0E1E4918E2F90E0E1E9F0E107C01E
:10331000E7ECF0E1E4918E2F90E0E7ECF0E100972C
:1033200009F4D0CE9FCFEBEAF0E1E4918E2F90E04C
:10333000EBEAF0E1F4CFE7E9F0E1E4918E2F90E0E1
:10334000E7E9F0E1ECCF8330910508F0BBCE880FC0
:10335000991FFC01E75AFE4F0190F081E02D89E0B2
:1033600090E080CF80916302882309F45CCF8530A0
:1033700009F459CF8091E80083FD55CF8091E80092
:1033800082FD84CF8091E80080FF7ACF8091F300A6
:103390009091F2008927982789272115310519F086
:1033A0008830910550F041E0089709F040E08091A5
:1033B000E8008E778093E80063CF44914093F1005A
:1033C0003196215031090196E8CF803809F07ACE44
:1033D0008091E800877F8093E80080916402809369
:1033E000F10065CE81116ECE10916702123008F0A7
:1033F00069CE8091E800877F8093E8001093640293
:103400000E94D509112399F084E08093630242E081
:1034100061EC81E00E94F40942E261EC82E00E94EA
:10342000F40942E261EC83E00E94F4094BCE809102
:10343000E30087FDE9CF81E0E8CFCF93C82F1F924B
:103440008F9387ED9DE09F938F930E94540961E0D5
:1034500070E080E090E004C0660F771F881F991F1E
:10346000CA95D2F70E94FE100F900F900F900F9008
:10347000CF910C943C17CF938B3109F429C208F0FB
:10348000C0C18B3009F4E6C108F08AC1863009F466
:10349000F4C148F4853009F4C2C18DE29DE00E9478
:1034A000BB0880E0FBC1873009F4FAC18830A9F776
:1034B0008CEC9DE00E94BB0887E09AE00E94BB086C
:1034C00083E090E00E9447301F928F9384E09AE05F
:1034D0009F938F930E94540982E09AE00E94BB0858
:1034E00082E090E00E944730C82F8FEE99E00E9462
:1034F000BB081F92CF938AEE99E09F938F930E940F
:10350000540988EE99E00E94BB088EED99E00E9474
:10351000BB088C2F81701F928F938BED99E09F9346
:103520008F930E94540989ED99E00E94BB088FECAB
:1035300099E00E94BB08C1FB882780F91F928F93F6
:103540008CEC99E09F938F930E9454098AEC99E048
:103550000E94BB088EEB99E00E94BB08C2FB882743
:1035600080F91F928F938BEB99E09F938F930E942A
:10357000540989EB99E00E94BB0880EB99E00E9416
:10358000BB08C3FBCC27C0F91F92CF938DEA99E00B
:103590009F938F930E9454098BEA99E00E94BB0885
:1035A00084E090E00E944730C82F87E999E00E94AC
:1035B000BB081F92CF9382E999E09F938F930E945B
:1035C000540980E999E00E94BB0887E799E00E94CE
:1035D000BB088C2F81701F928F9384E799E09F9393
:1035E0008F930E9454098DB79EB780960FB6F894BA
:1035F0009EBF0FBE8DBF82E799E00E94BB088BE59E
:1036000099E00E94BB08C1FB882780F91F928F9325
:1036100088E599E09F938F930E94540986E599E08D
:103620000E94BB0884E499E00E94BB08C2FB882783
:1036300080F91F928F9381E499E09F938F930E946A
:1036400054098FE399E00E94BB088DE299E00E9443
:10365000BB08C3FB882780F91F928F938AE299E009
:103660009F938F930E94540988E299E00E94BB08BF
:103670008EE199E00E94BB08C4FB882780F91F9265
:103680008F938BE199E09F938F930E94540989E176
:1036900099E00E94BB0887E099E00E94BB08C5FB47
:1036A000882780F91F928F9384E099E09F938F93EE
:1036B0000E94540982E099E00E94BB0886EE98E0DF
:1036C0000E94BB08C6FB882780F91F928F9383EE68
:1036D00098E09F938F930E94540981EE98E00E9496
:1036E000BB0889ED98E00E94BB08C7FBCC27C0F956
:1036F0001F92CF9386ED98E09F938F930E94540979
:1037000084ED98E00E94BB0886E090E00E9447307C
:10371000C82F8DEB98E00E94BB081F92CF9388EBD7
:1037200098E09F938F930E9454098DB79EB780961F
:103730000FB6F8949EBF0FBE8DBF86EB98E00E9437
:10374000BB088CEA98E00E94BB088C2F81701F9206
:103750008F9389EA98E09F938F930E94540987EA98
:1037600098E00E94BB088EE998E00E94BB08C695CD
:10377000C695C6951F92CF938BE998E09F938F9340
:103780000E94540989E998E00E94BB088DB79EB752
:1037900008960FB6F8949EBF0FBE8DBF81E07EC025
:1037A000803109F4ADC080F48E3009F076CE90916E
:1037B0004F02892F8B7F92FF846080934F0282FF9C
:1037C0009CC088E59DE090C0863109F4A9C089318C
:1037D00009F063CE85EB9CE00E94BB0888E99CE081
:1037E0000E94BB088BE59CE00E94BB088DE29CE038
:1037F0000E94BB0880E09CE00E94BB0885ED9BE036
:103800002BC08A3299F1E0F4873261F128F48E31CD
:1038100008F443CE8D5127C0893209F03ECE0E9474
:103820003C178BE99DE00E94BB089FEF23ED80E3EE
:10383000915020408040E1F700C000000E949112AA
:10384000833468F48A3308F0ABC0853359F0883389
:1038500009F023CE87E19AE00E94BB089FCF833412
:1038600009F01BCE80E00E941D1A98CF8BEB9DE0E3
:103870000E94BB080E94C11691CF80914F02817FA8
:103880008E7F80934F028AEB9BE00E94BB0887EB00
:103890009DE00E94BB0881E080931802CF910895BB
:1038A00090914F02892F8E7F90FF816080934F020D
:1038B00080FF03C08FE89DE0CFCF82E89DE00E94AB
:1038C000BB0880914F02897F877F80934F0266CF2C
:1038D00090914F02892F8D7F91FF826080934F02DC
:1038E00081FF08C085E79DE00E94BB0880914F02E0
:1038F0008160EBCF87E69DE0AFCF88E49DE0ACCF61
:1039000090914F02892F877F93FF886080934F02A9
:1039100083FF03C08CE39DE0E7CF8FE29DE09CCF67
:103920008FE19DE00E94BB080E94F40B1F928F93D1
:1039300085E09DE09F938F930E9454098091170129
:103940001F928F938EEE9CE09F938F930E94540959
:10395000809157021F928F938BED9CE09F938F93E2
:103960000E9454092FB7F894809114029091150287
:10397000A0911602B09117022FBFBF93AF939F93F0
:103980008F9384EC9CE09F938F930E9454098DB792
:103990009EB742960FB6F8949EBF0FBE8DBFFECE67
:1039A000895361CFCF93C82F882309F45FC0823831
:1039B000C1F40E94F40B81FD59C089E30E944B0BB6
:1039C0000E9424102FEF81EE94E02150804090401F
:1039D000E1F700C0000089E30E943F0BCF910C94F7
:1039E00024108338A1F40E94F40B80FD3FC083E5CE
:1039F0000E944B0B0E9424102FEF81EE94E0215087
:103A000080409040E1F700C0000083E5E5CF8438B6
:103A1000A1F40E94F40B82FD29C087E40E944B0BA5
:103A20000E9424102FEF81EE94E0215080409040BE
:103A3000E1F700C0000087E4CFCF8CEF8C0F813A14
:103A4000C0F580911802882341F0813089F01092EE
:103A500018028C2F0E944B0BC1CF80910E02823234
:103A6000C1F78C2F0E943B1A882399F3CF910895B8
:103A700080910E028232A9F3C431B9F038F4CB3010
:103A800049F089E798E00E94BB0811C0C93269F08B
:103A9000C833B9F78AEB9BE00E94BB088BE798E03C
:103AA0000E94BB0881E08170DFCF1092180280E095
:103AB000FACF80E28C0F883068F4C77021E030E0E4
:103AC00001C0220FCA95EAF780910E02822B8093E3
:103AD0000E0284CF8BE58C0F833068F481E890E090
:103AE000C53A31F083E890E0C63A11F482E890E0FC
:103AF000CF910C94DE0B88E58C0F873108F0B6CFA0
:103B000082EE90E0C83A09F460C089EE90E0C93ACC
:103B100009F45BC08AEE90E0CA3A09F456C085EB1E
:103B200090E0CB3A09F451C086EB90E0CC3A09F42E
:103B30004CC083EB90E0CB3B09F447C084EB90E0B2
:103B4000CC3B09F442C087EB90E0CD3AF1F18CEC2C
:103B500090E0C03BD1F18DEC90E0CE3AB1F183E83A
:103B600091E0CF3A91F18AE891E0C13B71F182E9AD
:103B700091E0C23B51F184E991E0C33B31F181E234
:103B800092E0C43B11F183E292E0C53BF1F084E2A4
:103B900092E0C63BD1F085E292E0C73BB1F086E20D
:103BA00092E0C83B91F087E292E0C93B71F08FE66A
:103BB00090E0CD3B51F080E790E0CE3B31F090E0DB
:103BC00080E0CA3B11F48AE292E0CF910C94C80BDA
:103BD0000F931F93CF93DF93C62FD42F022FFC0197
:103BE00082818823A1F06093A0010E94150B90931D
:103BF0009B0180939A01C77081E001C0880FCA952C
:103C0000EAF7DF91CF911F910F910C94131110914E
:103C1000A001161338C080919A0190919B010E94D7
:103C2000EB0A883C910578F5C0E2CD0F1D17B9F07D
:103C300080E2810F883040F4177081E001C0880F66
:103C40001A95EAF70E940811C83020F581E09D2FEF
:103C5000977001C0880F9A95EAF70E941311802F80
:103C60000E94D21C802F0E941D11C830E8F4D7702A
:103C700081E001C0880FDA95EAF7DF91CF911F91BB
:103C80000F910C940811C77081E001C0880FCA958C
:103C9000EAF7F3CF802F0E94D21C802FDF91CF91C3
:103CA0001F910F910C941D11DF91CF911F910F91D6
:103CB000089560915002669570E04BE050E080E01E
:103CC00091E00E948F30892B19F481E080934B02A0
:103CD0000E94150B909345028093440280914F02FD
:103CE00080FF08C086E793E09F938F930E9454095A
:103CF0000F900F9008959091500290FF55C09170D1
:103D000081113CC09260909350026623F1F1609162
:103D100050027091510280915202909153020E9480
:103D2000B31580914F0280FF0FC08091500286959D
:103D30001F928F9382EE92E09F938F930E9454097B
:103D40000F900F900F900F9060915002669570E069
:103D50004BE050E080E091E00E948F30892B09F128
:103D60000E94731181E08093470220E0409153024A
:103D700060915202809151020C94C515853210F069
:103D80009864C1CF880F982BBECF80914F0280FFDF
:103D9000DBCF8091500286951F928F9384EC92E046
:103DA000CBCF0E94591EDECF089561E00C947B1E9C
:103DB000809150028695815009F484E261E00C9470
:103DC0007B1E8091500286958F5F853208F081E0DE
:103DD00061E00C947B1E8F929F92AF92BF92CF9224
:103DE000DF92EF92FF920F931F93CF93DF9300D058
:103DF00000D01F92CDB7DEB77C01FC011081C180DD
:103E000083819481892B41F0FFEFCF1203C081E0C1
:103E10001F3F19F080E001C081E0282F2170D22ED1
:103E200080FD89C185E0F701DE01119601900D92B8
:103E30008A95E1F7F701228189819A81222309F489
:103E400045C00E94470F082F682F89819A810E94E0
:103E50008F0BE12FF0E02EE0C29EE00DF11D11244A
:103E600086E4089FE00DF11D1124EE0FFF1FE855B9
:103E7000FB4F05911491003F9CE5190709F46FC0B1
:103E800048F5083DFCE51F0709F465C0093D2CE530
:103E9000120709F470C0073D8CE5180749F526E2C2
:103EA00041EE61EEC7010F900F900F900F900F90B1
:103EB000DF91CF911F910F91FF90EF90DF90CF9006
:103EC000BF90AF909F908F900C94E81D0E94640B60
:103ED000082FBFCF023F9CE5190709F448C008F43A
:103EE00042C027E245EE66EE033FFCE51F07D1F234
:103EF000F7018281882309F4C7C61092A0010A3C09
:103F0000FCE51F0709F435C208F0C4C0023C8CE58B
:103F1000180709F464C108F084C00531ECE51E07F8
:103F200068F50230FCE51F0708F076C201152CE5A4
:103F3000120709F412C101301C4509F41BC1F70135
:103F400000811181C8010E94470FC82E682FC80147
:103F50000E948F0BC0C627E245EE65EEA3CF26E296
:103F600041EE60EE9FCF27E245EE64EE9BCF26E266
:103F700041EE62EE97CF28E241E0EFCF06319CE5BB
:103F8000190709F4DCC2013C1C45C9F610911B025B
:103F90001695117080914F0280FF2FC61F921F93BC
:103FA00087EB97E09F938F930E9454090F900F9097
:103FB0000F900F90112309F422C680911B0281FFFC
:103FC000BAC080911B028D7F80931B020E948615D0
:103FD00080914F0280FF08C08EE797E09F938F93F8
:103FE0000E9454090F900F9080916F008E7F8093F4
:103FF0006F0080911B028695869586950F900F9095
:104000000F900F900F90DF91CF911F910F91FF9024
:10401000EF90DF90CF90BF90AF909F908F900C94D7
:104020000210063CFCE51F0709F487C110F5043CAB
:104030008CE5180709F46AC108F451C18091510256
:1040400021E04091530260915202885F0F900F90DF
:104050000F900F900F90DF91CF911F910F91FF90D4
:10406000EF90DF90CF90BF90AF909F908F900C9487
:10407000C515083CECE51E0709F474C108F466C1D7
:104080004091530228E0420F08F44FEF21E0609185
:10409000520265C1013D2CE5120709F4A5C128F5BE
:1040A0000D3CECE51E0709F48DC180F40B3C2CE5BA
:1040B000120709F465C10C3C1C4509F040CF809102
:1040C0005402882309F463C181505FC10F3C9CE511
:1040D000190709F481C108F477C10E94000C8950C6
:1040E000853008F417C189E0E7C0053DFCE51F07EE
:1040F00009F48CC178F4033D8CE5180709F484C1F8
:1041000008F47AC10E94000C8951893008F402C178
:1041100089E1D2C00D3DECE51E0709F479C10E3DE1
:10412000FCE51F0709F448C00C3D1C4509F007CF0A
:104130008111109219020F900F900F900F900F9015
:10414000DF91CF911F910F91FF90EF90DF90CF9073
:10415000BF90AF909F908F9008950E943C178FEF73
:1041600094E3ECE081509040E040E1F700C00000B3
:104170000E94911290914F02892F8E7F90FF816053
:1041800080934F0280FF15C089EE97E00F900F904B
:104190000F900F900F90DF91CF911F910F91FF9093
:1041A000EF90DF90CF90BF90AF909F908F900C9446
:1041B000BB0887ED97E0EACF0F900F900F900F901C
:1041C0000F90DF91CF911F910F91FF90EF90DF90B3
:1041D000CF90BF90AF909F908F900C94C11680911C
:1041E0004F0280FF10C080915002809581701F9215
:1041F0008F9387E497E09F938F930E9454090F90C9
:104200000F900F900F908091500280FF3EC08E7FE4
:10421000809350026091500270915102809152023D
:10422000909153020E94B31580914F0280FF0FC0FE
:104230008091500281701F928F9388ED96E09F933A
:104240008F930E9454090F900F900F900F900E942F
:104250007311FFEF20E782E0F15020408040E1F74A
:1042600000C000000F900F900F900F900F90DF9103
:10427000CF911F910F91FF90EF90DF90CF90BF9063
:10428000AF909F908F900C94B512816080935002F4
:1042900080914F0280FF0DC01F9281E08F9380E1DB
:1042A00097E09F938F930E9454090F900F900F9067
:1042B0000F908091500286950F900F900F900F9065
:1042C0000F90DF91CF911F910F91FF90EF90DF90B2
:1042D000CF90BF90AF909F908F900C94D51E8091FF
:1042E0000E028272B9F00F900F900F900F900F9006
:1042F000DF91CF911F910F91FF90EF90DF90CF90C2
:10430000BF90AF909F908F900C94D81E80910E021A
:10431000827249F30F900F900F900F900F90DF91E2
:10432000CF911F910F91FF90EF90DF90CF90BF90B2
:10433000AF909F908F900C94E11E8091510221E0EC
:104340004091530260915202885080CE6091520297
:1043500028E0620F08F46FEF21E040915302809152
:10436000510274CE6091520228E0621B08F460E0B2
:10437000F3CF4091530228E0421B08F440E086CE80
:1043800080915402833018F48F5F809354026091BF
:1043900050027091510280915202909153020F90FD
:1043A0000F900F900F900F90DF91CF911F910F9171
:1043B000FF90EF90DF90CF90BF90AF909F908F9045
:1043C0000C94B31581E078CF0E94000C82508330AA
:1043D00008F4A0CF82E070CF0E94000C865082309B
:1043E00008F498CF86E068CF0E94000C8F5085308B
:1043F00008F490CF8FE060CF0E94000C855182308E
:1044000008F488CF85E158CF88E156CF83E254CFB6
:1044100082E0809319028FCE0E94A815811102C0FC
:104420000E94C11684E090E00E94473090E0909393
:104430002A0280932902F801E350FC458091290269
:104440008160E231F105C8F4E85DFD4D0C94273040
:104450003A2258225C226022642268226C22702256
:10446000742278227C228022842288228C2290222C
:10447000942298228091290282608093290260917F
:10448000290284E090E00E945B300F900F900F9023
:104490000F900F90DF91CF911F910F91FF90EF90B0
:1044A000DF90CF90BF90AF909F908F900C943C176F
:1044B000809129028460E1CF809129028860DDCF5C
:1044C000809129028061D9CF809129028062D5CF65
:1044D000809129028064D1CF809129028068CDCF5C
:1044E000809129028460EACF809129028E7FC5CF16
:1044F000809129028D7FC1CF809129028B7FBDCF12
:1045000080912902877FB9CF809129028F7EB5CF14
:10451000809129028F7DB1CF809129028F7BADCF11
:10452000809129028F77A9CF809129028B7FEACFD2
:1045300090912902892F97FB87F980589ECF80910F
:104540000E028A7A91E009F490E09093A101882309
:10455000B1F085E30E944B0B0F900F900F900F90DE
:104560000F90DF91CF911F910F91FF90EF90DF900F
:10457000CF90BF90AF909F908F900C94241089E2C1
:10458000E9CF8091A101882321F085E30E943F0BB0
:10459000E3CF89E2FBCFF12FFF70CF2E107F19F010
:1045A000C29490EFC922802FBB20C9F0CC2069F0C3
:1045B00090E2900F983010F001110BC080910E0224
:1045C000C82AC0920E020E942410802F0E94D21C82
:1045D00017C080910D02C82AC0920D02F4CF0E942C
:1045E0001D11CC2069F0C094005E083010F09110CD
:1045F00030C080910E02C822C0920E020E94241088
:10460000DD2009F498CD80910B0280FD94CDF70157
:1046100012828595859585950E94DD10C7010E94BF
:10462000EB1E80910B028595859585950F900F90D7
:104630000F900F900F90DF91CF911F910F91FF90EE
:10464000EF90DF90CF90BF90AF909F908F900C94A1
:10465000A21080910D02C822C0920D02CFCF212F4F
:104660002F70C22E107F103219F0C29480EFC82232
:10467000992071F091E0991661F1BB20B9F1AA205F
:1046800071F1F701858180FFA0CF8F70858327C0EE
:10469000BB2091F090910F02892F8C29A11003C0AB
:1046A0000E941311ADCFE1E0AE12FACF981709F4D2
:1046B000A7CF80930F02A4CFA11006C00E94390B90
:1046C0008C2D0E9408119CCFF1E0AF1609F498CF11
:1046D000F5CFBB2031F025E02A1508F491CF8C2DC1
:1046E000DFCF84E08A1508F48BCFEACFAA2041F30C
:1046F000093349F4FFEF27EE83E0F150204080407A
:10470000E1F700C00000802F0E941D1179CF812F9A
:1047100086958695837079F08130B1F0F8E0CF16F8
:1047200009F466C0CF1608F46BCF86EF8C0D82308B
:1047300008F45EC065CFC8019370B11002C090E06C
:1047400080E00E94DE0B5CCFC8019370B11002C004
:1047500090E080E00E94C80B53CF812F837009F056
:1047600068C0B11045C0802F829586958770880FEC
:10477000880F602F6F70862E912CB12CA12C082EE3
:1047800004C0880C991CAA1CBB1C0A94D2F740E0F8
:1047900050E0BA0104FF0FC04FE050E060E070E06D
:1047A00004C0440F551F661F771F8A95D2F74095A6
:1047B000509560957095812F86958695837082308F
:1047C00029F1E8F4009110021091110220911202D7
:1047D00030911302813079F0482959296A297B29BF
:1047E000CB01BA0160237123822393230E94FE1020
:1047F0000E94F40B05CF802A912AA22AB32ACB016A
:10480000BA01682979298A299B29F0CF4829592991
:104810006A297B2900911002109111022091120245
:1048200030911302CB01BA016027712782279327A9
:10483000DDCF8695BB2011F0812F81708823C1F2D6
:10484000802F829586958770880F880F602F6F70F4
:10485000862E912CB12CA12C082E04C0880C991CFA
:10486000AA1CBB1C0A94D2F740E050E0BA0104FF36
:104870000FC04FE050E060E070E004C0440F551FEF
:10488000661F771F8A95D2F7409550956095709571
:10489000812F869586958370823019F1D8F4009126
:1048A0000702109108022091090230910A0281301A
:1048B00069F0482959296A297B29CB01BA0160236B
:1048C0007123822393230E94981092CF802A912AE9
:1048D000A22AB32ACB01BA01682979298A299B29FE
:1048E000F2CF482959296A297B29009107021091A2
:1048F00008022091090230910A02CB01BA01602717
:10490000712782279327DFCF802FE0E2E00FE53188
:1049100008F08BC0F0E0E157FB4D0C942730A42445
:10492000A424A424A424A424A424A424A424A42447
:10493000A424A424A424A424A424A424A424B52426
:10494000DB24E224E924FB240F70812F8F71BB202C
:1049500031F00E94DD10802F0E941311DFCE0E94E3
:10496000A210802F0E940811D9CEBB20F9F094E04C
:104970009A1508F4D3CE1F7161E070E080E090E0FA
:1049800004C0660F771F881F991F1A95D2F70091F0
:104990000702109108022091090230910A02602753
:1049A0007127822793270E949810B8CEE5E0EA1578
:1049B00008F4B4CEE0CF812F8F71BB2039F00E9474
:1049C000DD10ACCE812F8F71BB20C9F30E94A210E5
:1049D000A5CE60E070E0CB01BB2029F31F7161E040
:1049E00070E080E090E004C0660F771F881F991F79
:1049F0001A95D2F7D8CFBB2069F01F71812F0E9482
:104A0000DD10F8E01F9FC0011124836080930B022A
:104A1000812FD5CF81E00E94C51021E02A1508F032
:104A20007DCE82E00E94C51079CEBB2041F0AA2045
:104A300019F00E94D21C72CE812F8F71C0CFAA2094
:104A400079F0093349F48FEF97EEE3E0815090401D
:104A5000E040E1F700C00000802F0E941D115ECEF3
:104A6000812F8F71B3CFB110CBCD1F70123009F4ED
:104A700061C038F5112389F1113009F04FCE8091D2
:104A80001B02982F987F79F0885080931B02887FB3
:104A900091E009F490E080911B0290FB80F98093F3
:104AA0001B020E94861580914F0280FFE7C0809113
:104AB0001B028695869586951F928F9382E198E0DA
:104AC00030C0143009F497C008F465C080E0153098
:104AD00009F024CE0E948B1593CD80911B02982F54
:104AE000969596959695953040F49F5F990F990FFE
:104AF000990F8770892B80931B0280911B02816024
:104B000080931B020E94861580914F0280FFB6C0E1
:104B100080911B028695869586951F928F938AEFCA
:104B200097E09F938F930E9454090F900F900F90DE
:104B30000F90A4C010911B02117080914F0280FF52
:104B40007FC01F921F938FE498E09F938F930E94E2
:104B500054090F900F900F900F90112309F472C019
:104B600080911B0280FF4CCD80911B028E7F809331
:104B70001B020E94861580914F0280FF08C08AE2C6
:104B800098E09F938F930E9454090F900F9080E0BC
:104B90000E94021035CD90911B02892F8695869533
:104BA00086958F5F8F719770863010F5880F880F0C
:104BB000880F892B80931B0280911B02887F91E0D4
:104BC00009F490E080911B0290FB80F980931B0216
:104BD0000E94861580914F0280FF50C080911B0279
:104BE0008695869586951F928F9385E698E099CF56
:104BF00090931B02E1CF85E06DCF1111E2C9809146
:104C00001B0281FD98CA826080931B020E94861558
:104C100080914F0280FF08C08BE997E09F938F93AC
:104C20000E9454090F900F9010921E0210921D02C4
:104C300010921C0280916F00816080936F007BCA8C
:104C4000111192CF80911B0280FDDACC816080939C
:104C50001B02813019F489E080931B0280911B02B2
:104C60000E94861580914F0280FF08C08DE398E076
:104C70009F938F930E9454090F900F9080911B0275
:104C800086958695869584CF0A3CFCE51F0709F436
:104C900052CA08F067C0023C8CE5180709F44BCAF9
:104CA00008F049CA0531ECE51E0708F051C0023092
:104CB000FCE51F0748F401152CE5120709F43BCA6F
:104CC00001301C4509F437CAF70100811181C80180
:104CD0000E94640BC82EB8018C2D0E94DB0C8C0145
:104CE000982EF701A580A2943FE0A322B280B110D4
:104CF00010920D0280910B02877081F0BB2069F049
:104D000080E2800F883050F082E00E94C5108091D0
:104D10000B028770DD24D3948111D12CC12EC29453
:104D20002FE0C222EC2DF0E0E856F94D0C9427302C
:104D3000CB22CB222F232F2387238E238E238E2338
:104D4000AD238E2384248424002333258E23002343
:104D500006319CE5190709F414CC013C1C4509F403
:104D6000EAC9B2CF013DFCE51F0709F4E4C988F4A4
:104D70000D3C8CE5180709F4DEC908F0DCC90B3CD2
:104D8000ECE51E0709F4D7C90C3C1C4509F4D3C94E
:104D90009BCF053D2CE5120709F4CDC908F4CBC91A
:104DA0000D3D9CE5190709F4C6C90E3DECE51E074B
:104DB00009F4C1C90C3D1C4509F4BDC985CF1F9339
:104DC000CF93DF938091A701807FD1F48091A401DC
:104DD0008823B1F08091D901D091A801B091A201AE
:104DE000C091A3014091A5015091A601A1E0BF3F50
:104DF00009F0A0E0BA016095709516E0D81304C0E0
:104E0000DF91CF911F91089521E04115510521F0C7
:104E10002A2FCF3F09F020E090E020FD38C0189FF6
:104E2000F001199FF00D1124E755FE4F21812C133D
:104E30002EC020812B132BC02281211128C0238159
:104E400034812417350700F1241B350B283C31052C
:104E5000F0F42091A7012F7020612093A70126E094
:104E6000289FF001299FF00D1124E255FE4F80810B
:104E70008F708061808382EA91E00E94EB1EDF9157
:104E8000CF911F910C94BE0B260F371FDFCF0196D9
:104E90008770B4CFAF92BF92CF92DF92EF92FF9222
:104EA0000F931F93CF93DF93CDB7DEB761970FB604
:104EB000F894DEBF0FBECDBF8C0185E0F801DE01A6
:104EC0001D9601900D928A95E1F7D8013C911196BB
:104ED0002C9111971296EC905091A2016091A30130
:104EE0008091A5019091A60141E0009731F06F3FBC
:104EF00019F441E05F3F09F040E0B42FB170BB2EE0
:104F000040FD5EC1F801C380D480A090A401AA2016
:104F100009F40EC1C816D906C0F1D601A81BB90BF9
:104F2000CD01FF24F394883C910508F0F12C809189
:104F3000A701982F907FFF2009F4BCC0911185C074
:104F4000FE2C621327C0531325C0E11023C08F70BD
:104F500080618093A70182EA91E00E94EB1E80911C
:104F6000A701F80185838F2D61960FB6F894DEBFF7
:104F70000FBECDBFDF91CF911F910F91FF90EF90AA
:104F8000DF90CF90BF90AF900895809590958C0D55
:104F90009D1DC7CF81E0CD2831F02F3F19F481E06E
:104FA0003F3F09F080E080FD24C081E08E25F82F8E
:104FB000F170DF2E80FF3FC08091D9014091A801A0
:104FC00056E0841318C03D872E878D859E850E94EC
:104FD000890F292F22952F70223008F1243030F5C7
:104FE0009F7009F1D80115969C91907FE1F4FB2CFC
:104FF000BACF80E0DCCF90E0589FF001599FF00DD0
:105000001124E755FE4F6181261306C060813613D7
:1050100003C06281E6120FC001968770D2CF9F70E5
:1050200011F0882321F3805E883008F3C8010E94C4
:10503000EB1EBD2CDCCFEE2009F495CF8091A701AB
:1050400081608093A701F12C8ECF621306C05313A9
:1050500004C0F801EE2009F495C03D872E878D85A8
:105060009E850E94930F882309F1EE20F9F080912C
:10507000A701803270F02091A2013091A3013887FE
:105080002F831986DB86CA868C87CE0107960E94FD
:10509000EB1E86E0F801A2EAB1E001900D928A953C
:1050A000E1F70E94DF26FF24F3945DCFC8010E9440
:1050B000EB1EF9CF91110CC082EA91E00E94EB1E29
:1050C00086E0E2EAF1E0DF011D928A95E9F74BCF35
:1050D000621312C0531310C0E1100EC0F801858393
:1050E000C8010E94EB1EE2EAF1E086E0DF011D92BA
:1050F0008A95E9F7FA2C37CF3D872E878D859E85D7
:105100000E94930F882391F2EE2081F28091A701F3
:10511000803208F4BECF2091A2013091A3013A83DE
:1051200029831B82DD82CC828E83CE010196AFCF94
:10513000C816D90640F0C81AD90AB8ECCB16D10463
:1051400048F0F12CBDCF809590958C0D9D1D883C2D
:105150009105B8F7FE2CEE2009F4A8CF62131FC00A
:1051600053131DC08091A70180FD10C0982F907F20
:1051700069F0F8018583903F31F0982F907F905F20
:105180008F70892B8583C8010E94EB1E86E0F80191
:10519000A2EAB1E001900D928A95E1F7E4CE3D8755
:1051A0002E878D859E850E94930F811172CF8091ED
:1051B000A70181608093A701C8010E94EB1ED3CE96
:1051C000EE2009F473CF3D872E878D859E850E9442
:1051D000930FF82E882309F469CF86E0F801A2EA3C
:1051E000B1E001900D928A95E1F78091A201909132
:1051F000A3010E94890F0E94DF26B5CE1F93CF9393
:10520000DF93CDB7DEB767970FB6F894DEBF0FBE5A
:10521000CDBF4B8B5C8B6D8B7E8B8F8B1A8A198AE3
:1052200085E0FE017396DE011D9601900D928A9530
:10523000E1F786E0FE013D96DE01179601900D92A2
:105240008A95E1F7CE0107960E944A27811137C05F
:1052500086E0FE013796DE01119601900D928A9547
:10526000E1F79F8188852A853B85232B39F08F3F85
:1052700019F481E09F3F19F080E001C081E080FDDA
:105280001EC02091A80130E0C901019687709927BE
:105290004091D9014817190659F196E0929FD00123
:1052A000939FB00D1124A755BE4FFE01319601907A
:1052B0000D929A95E1F78093A8010E94BE0B16E02B
:1052C0008091D9019091A8018917F9F0819FC001BF
:1052D000112487559E4F0E944A278823B1F0809160
:1052E000D90190E00196877099278093D901E8CF82
:1052F0000E943C171092A8011092D90186E0E2EAC0
:10530000F1E0DF011D928A95E9F767960FB6F894F0
:10531000DEBF0FBECDBFDF91CF911F9108951F92C9
:105320000F920FB60F9211242F933F934F935F93D9
:105330006F937F938F939F93AF93BF93CF93EF938D
:10534000FF93C091E900CF708091EC001092E900CA
:105350008091F000877F8093F00078940E94471737
:105360001092E9008091F00088608093F000C09373
:10537000E900FF91EF91CF91BF91AF919F918F91F4
:105380007F916F915F914F913F912F910F900FBE41
:105390000F901F9018951F920F920FB60F92112425
:1053A0002F933F934F935F936F937F938F939F932D
:1053B000AF93BF93EF93FF938091E10082FF15C0FD
:1053C0008091E20082FF11C08091E1008B7F809389
:1053D000E10020914D022F5F822F62E30E94D12FC6
:1053E000992309F4E6C020934D028091DA0080FFF2
:1053F00028C08091D80080FF24C08091DA008E7F81
:105400008093DA008091D90080FF0AC180E189BDD4
:1054100082E189BD09B400FEFDCF81E08093630283
:1054200087ED9FE00E94BB0880914E02811109C068
:105430000E945D090E94260A8091E20084608093A8
:10544000E2008091E10080FF1BC08091E20080FFBC
:1054500017C08091E2008E7F8093E2008091E2008D
:1054600080618093E2008091D80080628093D800B0
:1054700019BC85E0809363028FED9FE00E94BB081A
:105480008091E10084FF55C08091E20084FF51C00B
:1054900080E189BD82E189BD09B400FEFDCF809124
:1054A000D8008F7D8093D8008091E1008F7E80931B
:1054B000E1008091E2008F7E8093E2008091E20023
:1054C00081608093E20080916402882309F4B2C075
:1054D00084E0809363028CE190E10E94BB080E940B
:1054E0003C170E941F170E94F40B109256028091E5
:1054F00055028823E1F08091500281608093500230
:1055000080914F0280FF0DC01F9281E08F9383EE48
:105510009FE09F938F930E9454090F900F900F90DC
:105520000F908091500260E086950E947B1E0E9441
:10553000591E8091E10083FF2BC08091E20083FF20
:1055400027C08091E100877F8093E10082E0809313
:105550006302109264028091E1008E7F8093E100EB
:105560008091E2008E7F8093E2008091E200806172
:105570008093E20042E060E080E00E94F4098091C4
:10558000F00088608093F00080E290E10E94BB0808
:10559000FF91EF91BF91AF919F918F917F916F910B
:1055A0005F914F913F912F910F900FBE0F901F90E1
:1055B000189510924D0280914C02882309F415CF62
:1055C000809163028430B9F49091E9009F708091DA
:1055D000EC0080FD13C080E0892B93E09093E900FC
:1055E0009091EB0090FF04C09091EE0097FD0AC0EF
:1055F0008F708093E90010924C02F7CE80E8ECCFD8
:105600001092F1009091E80095FDFACF9091E8009A
:1056100090FFEECF9091E8009E779093E800E8CF5E
:1056200019BC109263028BED9FE00E94BB081092A0
:105630004E0207CF8091E30087FD02C081E049CF91
:1056400083E047CFCF93DF93CDB7DEB72B970FB66D
:10565000F894DEBF0FBECDBF84B7877F84BF0FB67F
:10566000F894A89580916000886180936000109202
:1056700060000FBE80E8809361001092610085B7E2
:10568000806885BF85B7806885BF0E945D090E94DC
:10569000260A8091E20084608093E20082E891E132
:1056A00090936101809360017894809163028823D4
:1056B00099F01091E9001F708091EC0080FFACC25E
:1056C00080E8182B1092E9008091E80083FD0E9489
:1056D00047171F701093E90082E084BD93E095BDE9
:1056E0009AEF97BD80936E00ADE3B1E061E070E0AA
:1056F0008D91E82FE295EF70F0E041A18F709B0152
:1057000001C0220F8A95EAF7922F9095942391A3D6
:1057100082A1822B82A321E0A234B20749F7A2E43E
:10572000B1E061E070E08D91E82FE295EF70F0E07C
:1057300041A18F709B0101C0220F8A95EAF7922F39
:105740009095942391A382A1822B82A381E0A0351E
:10575000B80749F71092200210921F0210923002EF
:1057600010922F0210922202109221021092320205
:1057700010923102109224021092230210923402ED
:1057800010923302109226021092250210923602D5
:1057900010923502109228021092270210923802BD
:1057A000109237020E94A815811102C00E94C116F2
:1057B000279A2F988AE08093800089E18093810066
:1057C0008FEF9FEF90938700809386000E941F17B2
:1057D00080911B0281FF0BC010921E0210921D02CD
:1057E00010921C0280916F00816080936F000E9474
:1057F000A815811102C00E94C11682E090E00E94AB
:10580000473080934F0284E090E00E94473090E060
:1058100090932A028093290283E090E00E9447300F
:10582000682F70E090E080E00E94FE100E941F1739
:1058300080912B028111E1C080914F0281608093A1
:105840004F0280FF08C08EE19FE09F938F930E94DC
:1058500054090F900F9080914F0280FF08C088E09C
:105860009FE09F938F930E9454090F900F900E9486
:10587000A81590914F02917081110DC041F080EEFA
:105880009EE09F938F930E9454090F900F900E9467
:10589000C1160E94B21688E090E00E944F306093DB
:1058A0005002709351028093520290935302809160
:1058B0004F0281706E7FC1F4882341F087E99EE03A
:1058C0009F938F930E9454090F900F900E94B216DD
:1058D00088E090E00E944F30609350027093510234
:1058E00080935202909353020E94080C80914F02C1
:1058F00080FF08C08EE79EE09F938F930E9454091B
:105900000F900F9080914F0280FF0FC08091500246
:1059100081701F928F9381E69EE09F938F930E94E8
:1059200054090F900F900F900F9080914F0280FFBD
:105930000FC08091500286951F928F9386E49EE05F
:105940009F938F930E9454090F900F900F900F9088
:1059500080914F0280FF0EC0809151021F928F9361
:105960008CE29EE09F938F930E9454090F900F90BA
:105970000F900F9080914F0280FF0EC080915202D5
:105980001F928F9382E19EE09F938F930E94540910
:105990000F900F900F900F9080914F0280FF0EC0DC
:1059A000809153021F928F9388EF9DE09F938F9376
:1059B0000E9454090F900F900F900F9080914F020A
:1059C00080FF0EC0809154021F928F938CED9DE05A
:1059D0009F938F930E9454090F900F900F900F90F8
:1059E00010924B028091500280FF04C060E08695C7
:1059F0000E947B1E81E080932B028DE091E09093CA
:105A00002D0280932C0286EC9FE00E94BB088091BF
:105A10006302853009F402C10E94BD141AE3412ECD
:105A200012E0512E0FE2602E02E0702E10E000E036
:105A30000B87F301E190F1903F01F201A190B19049
:105A40002F01AE14BF0409F461C180914F0281FFA0
:105A50003AC08FE79FE00E94BB08BFE28B2EB2E006
:105A60009B2ED12CC12CDF92CF928AE79FE09F938F
:105A70008F930E94540987E79FE00E94BB08F401BE
:105A800080812180F2E08F0E911C0E94210B382E24
:105A9000822D0E94210B3F928F9381E79FE09F937D
:105AA0008F930E9454098FE69FE00E94BB08FFEF8E
:105AB000CF1ADF0A0FB6F894DEBF0FBECDBF95E058
:105AC000C916D10481F690E080E0AE24BF24CC2436
:105AD000C394D12C082E02C0CC0CDD1C0A94E2F732
