:100000000C9473080C94BA080C94BA080C94BA08AF
:100010000C94BA080C94BA080C94BA080C94BA0858
:100020000C94BA080C94BA080C9416250C9452241B
:100030000C94FC2A0C94BA080C94BA080C94BA08D4
:100040000C94BA080C94BA080C94BA080C94BA0828
:100050000C94981A0C94A02A0C94BA080C94BA0820
:100060000C94BA080C94BA080C94BA080C94BA0808
:100070000C94BA080C94BA080C94BA080C94BA08F8
:100080000C94BA080C94BA080C94BA080C94BA08E8
:100090000C94BA080C94BA080C94BA080C94BA08D8
:1000A0000C94BA080C94BA080C94BA08000B000B14
:1000B0003B0B3B0B7F0B280E280E280E9F0B280EA8
:1000C0008C0C8C0C280E2E0D990C990C990C990CFB
:1000D000990C990C990C990C990C990C990C990CF8
:1000E000990C990C990C990CAA0CD30CD80CDF0C18
:1000F000F70C4B104D1058104F1051105310551055
:1001000057105A105C105E10691060106210641075
:10011000661068106B1061228822342488223424EF
:10012000D422F7223424FC230B24D026D026E32625
:10013000E326D926E326E326E326D026D026DE26AC
:10014000E326E326DE2629001E001F0020002100F2
:100150002200230024002500260027002D002E0069
:100160002A002B0014001A000800150017001C00BC
:1001700018000C00120013002F0030003100000F97
:1001800004001600070009000A000B000D000E0015
:100190000F003300340000002800E1001D001B00A8
:1001A0000600190005001100100036003700380065
:1001B00000000000E500E000E300E20000000000B5
:1001C0002C00000000000000E600E700E000000056
:1001D000015135003A003B003C003D003E003F002D
:1001E0004000410042004300440045004C00010033
:1001F00001000100010001000100010001000100F7
:100200000100460047004800010001000100010014
:1002100001000100010001000100010049004A0045
:100220004B00000001000100A900AA00A800010085
:1002300001000100010001004D004E00000000001F
:1002400001000100010001000000000001000000A9
:100250000000000001000251010000000100010047
:100260000100010001000100010001000100010086
:100270000100010001000100005CBF5CBE5CBD5CD0
:10028000C05C01000100010001000100010001004B
:10029000010001000100C25CC35CC55CC75CC95CB5
:1002A000CB5CCD5CCE5CCF5CD05C0100010000007B
:1002B00001000100C45CC65CC85CCA5CCC5CD15C5B
:1002C000D25CD35CD45C010000000000010001009E
:1002D000010001000000000001000000000000001B
:1002E000010001000100000001007267626C696793
:1002F00068742064697361626C65205B4545505287
:100300004F4D5D3A207267626C696768745F636F16
:100310006E6669672E656E61626C65203D2025758D
:100320000A007267626C6967687420656E61626C4E
:1003300065205B454550524F4D5D3A207267626CB7
:10034000696768745F636F6E6669672E656E616268
:100350006C65203D2025750A007267626C696768CC
:100360007420746F67676C65205B454550524F4D34
:100370005D3A207267626C696768745F636F6E666E
:1003800069672E656E61626C65203D2025750A00E7
:100390006261636B6C69676874206272656174681E
:1003A000696E672064697361626C650A00626163EB
:1003B0006B6C6967687420627265617468696E67E6
:1003C00020656E61626C650A006261636B6C6967CF
:1003D000687420627265617468696E6720746F6703
:1003E000676C653A2025750A0044454255473A2016
:1003F00064697361626C65642E0A00444542554726
:100400003A20656E61626C65642E0A006261636BFE
:100410006C6967687420696E6372656173653A2000
:1004200025750A006261636B6C6967687420646596
:100430006372656173653A2025750A006261636BBA
:100440006C696768742064697361626C650A006234
:1004500061636B6C6967687420656E61626C650AC4
:10046000006261636B6C6967687420746F67676CA6
:10047000653A2025750A006261636B6C6967687470
:1004800020737465703A2025750A00000000000092
:1004900000000000000001010203040506080A0C28
:1004A0000F1114181C2024292E33393F464C535B5E
:1004B000626A7179818A929AA2AAB2B9C1C8CFD56B
:1004C000DCE1E7EBF0F4F7FAFCFDFEFFFEFDFCFAE1
:1004D000F7F4F0EBE7E1DCD5CFC8C1B9B2AAA29A34
:1004E000928A8179716A625B534C463F39332E2977
:1004F00024201C1814110F0C0A080605040302011D
:1005000001000000000000000000000000000000EA
:1005100000000000000101010101010101010202CE
:10052000020202020202030303030303030404049E
:100530000404050505050506060606060707070760
:10054000080808080909090A0A0A0B0B0B0C0C0C0D
:100550000D0D0D0E0E0E0F0F1010101111121213A3
:10056000131414151516161717181819191A1A1B1B
:100570001C1C1D1D1E1F1F20212122232324252575
:1005800026272828292A2B2C2C2D2E2F30313132AA
:10059000333435363738393A3B3C3D3E3F404142B3
:1005A000434445464748494B4C4D4E4F5052535497
:1005B000555758595A5C5D5E606163646567686A47
:1005C0006B6C6E6F7172747677797A7C7D7F8182C5
:1005D000848687898B8D8E9092949597999B9D9F09
:1005E000A1A2A4A6A8AAACAEB0B2B4B6B9BBBDBF16
:1005F000C1C3C5C8CACCCED0D3D5D7DADCDEE1E3DF
:10060000E6E8EAEDEFF2F4F7F9FCFF7267626C6975
:10061000676874206D6F6465205B4E4F454550528E
:100620004F4D5D3A2025750A007267626C696768F4
:1006300074206D6F6465205B454550524F4D5D3AA7
:100640002025750A007267626C696768742073659B
:100650007420687376205B4E4F454550524F4D5D78
:100660003A2025752C25752C25750A007267626C59
:10067000696768742073657420687376205B4545EC
:1006800050524F4D5D3A2025752C25752C25750A45
:10069000007267626C69676874207261696E626F6C
:1006A0007720736574206873763A2025642C25645E
:1006B0002C25642C25750A00FFAA7F5540726762BD
:1006C0006C696768742074696D657220656E61621B
:1006D0006C65642E0A007267626C696768742074C6
:1006E000696D65722064697361626C652E0A00220F
:1006F00023252628292A2C2D2F3032333536383A17
:100700003B3D3E4042434547494A4C4E505153556C
:1007100057595A5C5E6062646668696B6D6F71738D
:100720007577797B7D7F81838587898A8C8E90928E
:100730009496989A9C9E9FA1A3A5A7A8AAACAEAF99
:10074000B1B3B4B6B8B9BBBCBEBFC1C2C3C5C6C7DE
:10075000C9CACBCCCDCED0D1D2D2D3D4D5D6D7D78F
:10076000D8D9D9DADADBDBDBDCDCDCDCDCDDDDDDD7
:10077000DDDCDCDCDCDCDBDBDBDADAD9D9D8D7D7D3
:10078000D6D5D4D3D2D2D1D0CECDCCCBCAC9C7C680
:10079000C5C3C2C1BFBEBCBBB9B8B6B4B3B1AFAEBE
:1007A000ACAAA8A7A5A3A19F9E9C9A989694929064
:1007B0008E8C8A89878583817F7D7B79777573713C
:1007C0006F6D6B6968666462605E5C5A5957555319
:1007D00051504E4C4A4947454342403E3D3B3A38D2
:1007E00036353332302F2D2C2A2928262523224C2A
:1007F00025640A007267626C696768745F636F6E74
:100800006669672E7370656564203D2025640A0063
:100810007267626C696768745F636F6E6669672E82
:1008200076616C203D2025640A007267626C6967FE
:1008300068745F636F6E6669672E736174203D2014
:1008400025640A007267626C696768745F636F6E23
:100850006669672E687565203D2025640A00726709
:10086000686C696768745F636F6E6669672E6D6F29
:100870006465203D2025640A007267626C696768C0
:10088000745F636F6E6669672E656E61626C65206A
:100890003D2025640A007267626C696768745F6353
:1008A0006F6E666967206570726F6D0A00726762AD
:1008B0006C696768745F696E6974207267626C69DD
:1008C0006768745F636F6E6669672E6D6F6465201D
:1008D0003D20302E2057726974652064656661750D
:1008E0006C742076616C75657320746F204545507B
:1008F000524F4D2E0A007267626C696768745F69B7
:100900006E6974206565636F6E6669672069732020
:100910006E6F7420656E61626C65642E0A0072678A
:10092000626C696768745F696E6974207374617260
:1009300074210A007267626C696768745F696E6926
:10094000742063616C6C65642E0A007267626C6966
:100950006768742064697361626C65205B6E6F45C3
:100960004550524F4D5D3A207267626C69676874FA
:100970005F636F6E6669672E656E61626C65203DB0
:100980002025750A000A002530313662003A200021
:1009900025303258000A722F63203031323334351B
:1009A000363738394142434445460A000A0025306B
:1009B0003258006B6579626F6172645F7365745F52
:1009C0006C65643A200000047F3F1F643214643277
:1009D00014783C1E1E140A055B735D004B6579623A
:1009E0006F6172642073746172742E0A000631FFA5
:1009F0000974A1010975150026FF0095207508816D
:100A0000020976150026FF00952075089102C005A1
:100A1000010980A10185031601002603001A810047
:100A20002A8300751095018100C0050C0901A10100
:100A30008504160100269C021A01002A9C027510EA
:100A400095018100C005010906A101050719E029EA
:100A5000E71500250195087501810295017508814A
:100A60000105081901290595057501910295017582
:100A70000391010507190029FF150026FF009506BF
:100A800075088100C05B435D005B445D005B535DA6
:100A9000007267626C6967687420656E61626C657C
:100AA000205B4E4F454550524F4D5D3A2072676274
:100AB0006C696768745F636F6E6669672E656E61E7
:100AC000626C65203D2025750A005B575D005B5216
:100AD0005D0009025B00030100A0FA0904000001A7
:100AE00003010100092111010001224000070581D5
:100AF0000308000A09040100010300000009211194
:100B00000100012236000705820320000A090402C1
:100B10000002030000000921110100012222000748
:100B200005830320000107050303200001120110C3
:100B30000100000008EDFE000001000102030104B5
:100B400003300000001203310075007000360030E1
:100B50000068007300650000001A03310075007022
:100B6000006B006500790062006F00610072006434
:100B70000073000000040309043F00433E20000A04
:100B8000002530325820006B6579626F6172645FB6
:100B90007265706F72743A20000A002575002E6C21
:100BA0006576656C3A20000A002575002E656E6139
:100BB000626C653A20000A00253032580062616399
:100BC0006B6C696768745F636F6E6669672E7261CC
:100BD000773A20000A002575002E6E6B726F3A205E
:100BE000000A002575002E737761705F6261636B88
:100BF000736C6173685F6261636B73706163653AA4
:100C000020000A002575002E737761705F6772619E
:100C100076655F6573633A20000A002575002E6EC5
:100C20006F5F6775693A20000A002575002E73779B
:100C300061705F72616C745F726775693A20000A57
:100C4000002575002E737761705F6C616C745F6C4A
:100C50006775693A20000A002575002E636170737C
:100C60006C6F636B5F746F5F636F6E74726F6C3AFF
:100C700020000A002575002E737761705F636F6E28
:100C800074726F6C5F636170736C6F636B3A20009A
:100C90000A0025303258006B65796D61705F636FB3
:100CA0006E6669672E7261773A20000A002575002A
:100CB0002E6D6F7573653A20000A002575002E6B46
:100CC0006579626F6172643A20000A002575002E12
:100CD0006D61747269783A20000A002575002E65EE
:100CE0006E61626C653A20000A002530325800645B
:100CF000656275675F636F6E6669672E7261773ACA
:100D000020000A0025750064656661756C745F6C6F
:100D1000617965723A20000A092D204D6167696387
:100D2000202D0A443A094465627567204D65737346
:100D300061676520546F67676C650A583A094D61B1
:100D400074726978204465627567204D6F64652010
:100D5000546F67676C65202D2053686F77206B6533
:100D6000797072657373657320696E206D6174723A
:100D7000697820677269640A4B3A094B6579626F3A
:100D800061726420446562756720546F67676C65A3
:100D9000202D2053686F77206B65797072657373AF
:100DA000207265706F72740A4D3A09446562756706
:100DB000204D6F75736520546F67676C650A563AEE
:100DC0000956657273696F6E0A533A0953746174F8
:100DD00075730A433A094163746976617465204307
:100DE0006F6E736F6C65204D6F64650A46312D46DA
:100DF00031303A0953776974636820746F204C610D
:100E000079657220302D392028463130203D204C24
:100E100030290A302D393A09537769746368207490
:100E20006F204C6179657220302D390A4752415646
:100E3000453A0953776974636820746F204C61796F
:100E4000657220302028616C7465726E617465294A
:100E50000A423A094A756D7020746F20426F6F74B0
:100E60006C6F616465720A4553433A094A756D7047
:100E700020746F20426F6F746C6F616465722028FC
:100E8000616C7465726E617465290A453A09507225
:100E9000696E7420454550524F4D205365747469F6
:100EA0006E67730A4253504143453A09436C65618A
:100EB0007220454550524F4D0A000A092D20436FBC
:100EC0006E736F6C65202D0A4553432F713A09717B
:100ED0007569740A004743433A20342E392E322074
:100EE0004156522D4C4942433A20312E382E307310
:100EF000766E204156525F415243483A20617672E5
:100F0000350A004F5054494F4E533A204C554641F4
:100F10002045585452414B455920434F4E534F4C56
:100F20004520434F4D4D414E4420343039360A0060
:100F30004255494C443A2022302E362E3433302D3F
:100F4000322D673136353062612D646972747922D1
:100F5000202832323A31353A3136204A756C203108
:100F6000372032303139290A005649443A20307846
:100F700046454544283175706B6579626F617264CE
:100F80007329205049443A203078303030302831AD
:100F90007570363068736529205645523A2030788E
:100FA000303030310A00444553433A2041206375C4
:100FB00073746F6D20363025206B6579626F6172B6
:100FC000640A000A092D2056657273696F6E202D20
:100FD0000A0074696D65725F726561643332282935
:100FE0003A202530346C580A006B6579626F617263
:100FF000645F69646C653A2025580A006B65796204
:101000006F6172645F70726F746F636F6C3A2025EA
:10101000580A00686F73745F6B6579626F61726400
:101020005F6C65647328293A2025580A000A092D47
:1010300020537461747573202D0A003F000A6D6F90
:101040007573653A206F66660A000A6D6F75736581
:101050003A206F6E0A000A6B6579626F6172643ABA
:10106000206F66660A000A6B6579626F6172643A86
:10107000206F6E0A000A6D61747269783A206F669B
:10108000660A000A6D61747269783A206F6E0A0010
:101090000A64656275673A206F66660A000A6465CD
:1010A0006275673A206F6E0A000A0A4A756D7069A8
:1010B0006E6720746F20626F6F746C6F616465720D
:1010C0002E2E2E2000433E2000436C656172696E17
:1010D0006720454550524F4D0A006565636F6E6647
:1010E00069673A0A000011241FBECFEFDAE0DEBFC5
:1010F000CDBF04B603FE27C080916D0290916E02B1
:10110000A0916F02B09170028730904BA740B04B16
:10111000D1F410926D0210926E0210926F02109232
:10112000700214BE84B7877F84BF0FB6F894A89569
:1011300080916000886180936000109260000FBE13
:10114000E0E0F8E3099511E0A0E0B1E0EAEDF1E6B6
:1011500002C005900D92A036B107D9F722E0A0E6B3
:10116000B1E001C01D92AD36B207E1F70E945C1DEF
:101170000C94EB300C940000FF93EF93E09160012E
:10118000F0916101309709F00995EF91FF91089571
:10119000FC018591803011F0EFDFFBCF0895FF2730
:1011A000E0E230E247FF0CC0419597FF09C0EDE255
:1011B0006095709580959095611D711D811D911DA3
:1011C00027FF02C0219530E350E2AA27660F771F60
:1011D000881F991FAA1FA41710F0A41B63955A9586
:1011E000A9F7AA3008F0A95FA05DAF93F395611548
:1011F00071058105910541F7ED3211F4EF93F395F7
:10120000F21718F43F93F395FBCF8F91B5DFFA9562
:10121000E1F70895E991F9918591803021F08532C7
:1012200019F0AADFF9CF089520E0E89455915532DE
:10123000C1F3503311F4689455915A3348F4505324
:1012400090F3220F022E220F220F200D250FF4CF34
:101250000EF4219589919991533619F3533729F159
:10126000533559F1BC0188279927E8945C3621F45D
:101270008991999168945591543639F446EF7EF0EE
:1012800077FF0DC08FEF9FEF0AC055374AE039F066
:10129000583540E121F0523642E009F00895FF93BD
:1012A000EF937DDFEF91FF91B7CFFF93EF93FC01B9
:1012B00081918030B9F360DFFBCFFF93EF9368DF5C
:1012C000F1CFDF93CF93CDB7DEB72596A3DFCF91D4
:1012D000DF9108954F925F926F927F92AF92BF928B
:1012E000CF92DF92EF92FF920F931F93CF93DF93F2
:1012F00000D000D000D0CDB7DEB7FC01D080118186
:1013000083819481892B09F474C71F3F21F40FEF67
:10131000D01609F46EC77F0185E0DE0111960190B9
:101320000D928A95E1F7F701228189819A81222322
:1013300049F00E94EC2E082F682F89819A810E9423
:10134000642F03C00E94382F082F2EE0129FF00157
:10135000112436E4039FE00DF11D1124ED0DF11D64
:10136000EE0FFF1FEA5BFE4F05911491003F8CE5E5
:101370001807C1F180F4083DECE51E07C9F0093DEE
:10138000FCE51F07D9F1073D2CE51207D1F526E250
:1013900041EE61EE10C0023F3CE5130759F130F118
:1013A000033F9CE5190769F527E245EE66EE03C0A9
:1013B00027E245EE65EEC70126960FB6F894DEBF2C
:1013C0000FBECDBFDF91CF911F910F91FF90EF9096
:1013D000DF90CF90BF90AF907F906F905F904F90D5
:1013E0000C94DB1226E241EE60EEE5CF27E245EEFB
:1013F00064EEE1CF26E241EE62EEDDCF28E241E08D
:10140000D9CFF7018281882309F482C0109262014A
:101410000A3CFCE51F0709F479C508F03FC0023C0F
:101420003CE5130709F4B6C4E8F40531ECE51E0702
:1014300078F40230FCE51F0708F00EC601152CE514
:10144000120709F45EC401301C4509F467C49AC050
:1014500006319CE5190709F460C0013C1C4509F4FC
:101460005FC690C0063CFCE51F0709F435C540F493
:10147000043C3CE5130709F40CC508F4F0C423C58B
:10148000083C9CE5190709F430C508F038C560919F
:10149000D30128E0620F08F46FEF2DC5013DFCE594
:1014A0001F0709F499C5C0F40D3C3CE5130709F486
:1014B00079C550F40B3C9CE5190709F448C50C3C70
:1014C0001C4509F44AC55EC00F3CFCE51F0709F442
:1014D00073C508F469C578C5053D3CE5130709F4F3
:1014E00095C540F4033D9CE5190709F485C508F44A
:1014F0007BC584C50D3DFCE51F0709F4A1C50E3D64
:101500002CE5120709F430C40C3D1C45D9F595C5EE
:101510000631FCE51F0709F0D5C3909162028823CC
:1015200081F09A7A81E009F480E08093630181116F
:1015300002C069E201C065E38EEE91E00E94312BAA
:101540000BC080916301811102C069E201C065E3B3
:101550008EEE91E00E94252B26960FB6F894DEBF02
:101560000FBECDBFDF91CF911F910F91FF90EF90F4
:10157000DF90CF90BF90AF907F906F905F904F9033
:101580000C94842EF70100811181C8010E94EC2E79
:10159000D82E682FC8010E94642FB8018D2D0E949B
:1015A0000C18182F782EF701058102950F70A28074
:1015B000A1101092610280915F02877089F0AA20C9
:1015C00079F080E2810F883058F082E09E830E949B
:1015D000C22F80915F028770BB24B3949E818111DA
:1015E000B12CC92EC2948FE0C822D12CFEE0CF16B8
:1015F000D10408F02DC3F601EA5AFF4F0C94BE3017
:10160000892F807F9F70092F882311F00295007F1A
:10161000AA20B9F0002309F40BC280E2810F8830C0
:1016200010F0711006C090916202092B00936202C3
:1016300005C090916102092B009361020E94842EE3
:10164000F7C1812F0E94D328002309F401C3105E43
:101650000095183010F0711006C0909162020923B5
:101660000093620205C09091610209230093610218
:101670000E94842EEDC2292F207F892F8F70203267
:1016800011F08295807F772021F021E07216E9F039
:1016900026C0AA2081F020916302002351F001307E
:1016A00041F4982F922B291709F4D2C29093630228
:1016B000CFC2822B46C1002319F0013009F4C8C201
:1016C0008E830E947E2E8E8142C1AA2021F0063098
:1016D00008F0BEC236C1053008F0BAC238C1AA202F
:1016E00051F0002309F42DC1F701958190FFA0C1AD
:1016F0009F70958326C1002309F429C1ABC1292F0E
:1017000026952695237030E02115310521F02130F2
:10171000310559F09DC2AA2019F0812F937002C0A3
:1017200080E090E00E94B912A1C2AA2019F0812F96
:10173000937002C080E090E00E94A31297C2892FAC
:10174000837009F071C0A1108FC2812F8295869598
:101750008770880F880F412F4F7050E060E070E075
:101760002A013B01082E04C0440C551C661C771C42
:101770000A94D2F714FF12C00FE010E020E030E02E
:1017800004C0000F111F221F331F8A95D2F7B90121
:10179000A801409550956095709503C040E050E0D9
:1017A000BA01969596959370892F90E082309105B5
:1017B000E9F08330910579F100916402109165029E
:1017C0002091660230916702019759F0442955290A
:1017D00066297729CB01BA016023712382239323E1
:1017E00020C0402A512A622A732A15C0442955294B
:1017F000662977298091640290916502A091660222
:10180000B09167028A019B01082719272A273B27E5
:10181000C901B80106C0CB01BA016429752986291E
:1018200097290E94FC2F20C2AA2019F0892F8170CD
:1018300001C08695882309F417C2812F8295869569
:101840008770880F880F412F4F7050E060E070E084
:101850002A013B01082E04C0440C551C661C771C51
:101860000A94D2F714FF12C00FE010E020E030E03D
:1018700004C0000F111F221F331F8A95D2F7B90130
:10188000A801409550956095709503C040E050E0E8
:10189000BA01969596959370892F90E082309105C4
:1018A000E9F08330910579F100915B0210915C02BF
:1018B00020915D0230915E02019759F0442955292B
:1018C00066297729CB01BA016023712382239323F0
:1018D00020C0402A512A622A732A15C0442955295A
:1018E0006629772980915B0290915C02A0915D024C
:1018F000B0915E028A019B01082719272A273B27FE
:10190000C901B80106C0CB01BA016429752986292D
:1019100097290E94932FA8C1412F50E0FA01E05E61
:10192000F109E531F10508F07EC0EC59FF4F0C9448
:10193000BE301F70892F8F71AA2031F00E94DB2FDB
:10194000812F0E94C92884C10E949D2F812F0E944F
:10195000BE287EC1AA2019F1053008F079C1292FCF
:101960002F7181E090E0A0E0B0E0AC01BD0104C0C7
:10197000440F551F661F771F2A95D2F780915B028F
:1019800090915C02A0915D02B0915E028A019B0180
:10199000082719272A273B27C901B80125C0063087
:1019A00008F056C1DCCFAA2029F0892F8F712EC0F4
:1019B000AA20D9F3892F8F710E949D2F49C1AA2097
:1019C00081F0292F2F7181E090E0A0E0B0E0BC0110
:1019D000CD0104C0660F771F881F991F2A95D2F783
:1019E00003C060E070E0CB010E94932F31C1AA20B8
:1019F00081F0192F1F71812F0E94DB2F28E0129F89
:101A0000C0011124836080935F02812F0E94DB2F2D
:101A10001FC181E00E94C22F023008F419C182E088
:101A20000E94C22F15C1AA2039F0002309F4BDCFAE
:101A3000812F0E942F290CC1002309F4BBCF193339
:101A400049F43FEF87EE93E0315080409040E1F75A
:101A500000C00000812F0E94D328FAC0A11006C147
:101A60009F70292F30E02230310509F467C03CF423
:101A70002115310581F021303105B9F1E9C024305B
:101A8000310509F4E1C00CF4A0C02530310509F09E
:101A9000DFC080E0DAC020919C01822F8695869578
:101AA0008695482F50E04530510554F48F5F982FAC
:101AB000990F990F990F822F8770892B80939C0122
:101AC00080919C01816080939C010E944B2B8091AE
:101AD000BB0180FFB1C080919C018695869586955B
:101AE0001F928F938CE094E09FC080919C01982F6F
:101AF000969596959695A1F0915E990F990F990FED
:101B00008770892B80939C01887F91E009F490E095
:101B100080919C0190FB80F980939C010E944B2B4B
:101B20008091BB0180FF88C080919C01869586953D
:101B300086951F928F9384E294E076C010919C0169
:101B400011708091BB0180FF0CC01F921F9381E632
:101B500094E09F938F930E9461090F900F900F90D4
:101B60000F9080919C011123A9F080FF7FC08E7F90
:101B700080939C010E944B2B8091BB0180FF08C089
:101B80008CE394E09F938F930E9461090F900F90D4
:101B900080E057C080FD6AC0816080939C018130E5
:101BA00019F489E080939C0180919C010E944B2B49
:101BB0008091BB0180FF40C08FE494E09F938F939E
:101BC0000E9461090F900F9037C090919C01892F5E
:101BD0008695869586958F5F8F719770863038F4DD
:101BE000880F880F880F892B80939C0102C09093E7
:101BF0009C0180919C01887F91E009F490E08091A4
:101C00009C0190FB80F980939C010E944B2B80915A
:101C1000BB0180FF11C080919C01869586958695B9
:101C20001F928F9387E794E09F938F930E9461099F
:101C30000F900F900F900F9080919C018695869544
:101C400086950E94FD1A12C085E00E941A1D0EC0E2
:101C5000E8E0CE16D10441F04CF00AE0C01AD108F9
:101C600012E0C116D10410F40E94CF12BB2009F477
:101C7000C0C280915F0280FDBCC2F70112828595CF
:101C8000859585950E94DB2FC7010E946A09809186
:101C90005F0285958595859526960FB6F894DEBFEB
:101CA0000FBECDBFDF91CF911F910F91FF90EF90AD
:101CB000DF90CF90BF90AF907F906F905F904F90EC
:101CC0000C949D2F07312CE5120750F401153CE5CB
:101CD000130708F4B9C102301C4508F48AC2B4C124
:101CE000013CECE51E0708F4AFC1063DFCE51F070B
:101CF00008F47FC20C5D1C450330110508F479C25D
:101D0000A3C10E94B3280FEF14E32CE00150104050
:101D10002040E1F700C000000E947C2A8091BB01B6
:101D2000982F9095917090FB80F98093BB01992337
:101D300019F08BEF93E002C089EE93E026960FB680
:101D4000F894DEBF0FBECDBFDF91CF911F910F91F1
:101D5000FF90EF90DF90CF90BF90AF907F906F900B
:101D60005F904F900C94C80826960FB6F894DEBF8B
:101D70000FBECDBFDF91CF911F910F91FF90EF90DC
:101D8000DF90CF90BF90AF907F906F905F904F901B
:101D90000C945B2B8091D101817011E081271F92FF
:101DA0008F9389E593E09F938F930E9461098091BF
:101DB000D1010F900F900F900F9080FF3DC08E7F4C
:101DC0008093D1016091D1017091D2018091D301B2
:101DD0009091D4010E94D2158091D10181701F92FF
:101DE0008F938AEE92E09F938F930E9461090E94E5
:101DF00056138FEF90E7E2E081509040E040E1F72A
:101E000000C000000F900F900F900F9026960FB615
:101E1000F894DEBF0FBECDBFDF91CF911F910F9120
:101E2000FF90EF90DF90CF90BF90AF907F906F903A
:101E30005F904F900C94871381608093D1011F9223
:101E40001F9382E293E09F938F930E9461090F900A
:101E50000F900F900F908091D1018695D8C08091FE
:101E600062028272D1F026960FB6F894DEBF0FBEE2
:101E7000CDBFDF91CF911F910F91FF90EF90DF9039
:101E8000CF90BF90AF907F906F905F904F900C94E9
:101E9000201780916202827231F326960FB6F89471
:101EA000DEBF0FBECDBFDF91CF911F910F91FF908D
:101EB000EF90DF90CF90BF90AF907F906F905F904A
:101EC0004F900C9429178091D20121E04091D401C8
:101ED0006091D301885F25C08091D20121E04091BB
:101EE000D4016091D30188501CC06091D30128E0D7
:101EF000621B08F460E021E04091D40110C04091E1
:101F0000D40128E0420F08F44FEF06C04091D401FD
:101F100028E0421B08F440E021E06091D301809169
:101F2000D20126960FB6F894DEBF0FBECDBFDF916B
:101F3000CF911F910F91FF90EF90DF90CF90BF90C6
:101F4000AF907F906F905F904F900C94EE158091C2
:101F5000D501833048F48F5F05C08091D501882377
:101F600019F081508093D5016091D1017091D20117
:101F70008091D3019091D40126960FB6F894DEBFDC
:101F80000FBECDBFDF91CF911F910F91FF90EF90CA
:101F9000DF90CF90BF90AF907F906F905F904F9009
:101FA0000C94D21581E033C00E94B7158250833063
:101FB00008F473CF82E02BC00E94B71586508230A0
:101FC00008F46BCF86E023C00E94B7158950853096
:101FD00008F463CF89E01BC00E94B7158F5085308D
:101FE00008F45BCF8FE013C00E94B7158551823093
:101FF00008F453CF85E10BC088E109C00E94B715F2
:102000008951893008F449CF89E101C083E22696DD
:102010000FB6F894DEBF0FBECDBFDF91CF911F91F9
:102020000F91FF90EF90DF90CF90BF90AF907F9097
:102030006F905F904F900C941D1710929A01D9C029
:1020400082E080939A01D5C0F70100811181C80117
:102050000E94382FD82EA1CA0E94502B811102C095
:102060000E945B2B84E090E00E94103090E09093FF
:10207000AB018093AA01F801E350FC45E231F10580
:1020800030F4E758FF4F8091AA010C94BE30809144
:10209000AA01816027C0826025C0846023C080615E
:1020A00021C080621FC080641DC080681BC0846026
:1020B000886018C08E7F16C08D7F14C08B7F12C0C1
:1020C0008F7E10C08F7D0EC08F7B0CC08F770AC0B3
:1020D0008B7F877F07C087FB222720F991E092271B
:1020E00090FB87F98093AA016091AA0184E090E0B7
:1020F0000E94243026960FB6F894DEBF0FBECDBFE7
:10210000DF91CF911F910F91FF90EF90DF90CF90D3
:10211000BF90AF907F906F905F904F900C94B328DA
:1021200010919C01169511708091BB0180FF0CC02D
:102130001F921F9389EC93E09F938F930E946109F4
:102140000F900F900F900F9080919C01112399F1A7
:1021500081FF4FC08D7F80939C010E944B2B80910B
:10216000BB0180FF08C080E993E09F938F930E949A
:1021700061090F900F9080916F008E7F80936F00A8
:1021800080919C0186958695869526960FB6F89443
:10219000DEBF0FBECDBFDF91CF911F910F91FF909A
:1021A000EF90DF90CF90BF90AF907F906F905F9057
:1021B0004F900C94FD1A81FD1CC0826080939C019D
:1021C0000E944B2B8091BB0180FF08C08DEA93E0F9
:1021D0009F938F930E9461090F900F9010929F011F
:1021E00010929E0110929D0180916F0081608093FA
:1021F0006F0026960FB6F894DEBF0FBECDBFDF91FD
:10220000CF911F910F91FF90EF90DF90CF90BF90F3
:10221000AF907F906F905F904F9008950895AF9228
:10222000BF92CF92DF92EF92FF920F931F93CF93C3
:10223000DF93D82EC62EE901E42FF0E0611106C02D
:10224000E55FFA4F4491E42F842F7BC0E62EF12CFA
:1022500026E0829FC00111240FEF10E0B8010E9418
:1022600074305BEA56039001579F300D11242D0DF9
:10227000311D2D0D311D822F880F280FC8018E1999
:102280009F098E9FD0018F9FB00D9E9FB00D11248E
:102290009B2F2C9D60011124CD2CDD245801AC18FE
:1022A000BD08AE9E6001AF9ED00CBE9ED00C112426
:1022B0005801A21AB108AE9C9001AF9C300DBE9C93
:1022C000300D1124232F3327021B130B0E9F900177
:1022D0000F9F300D1E9F300D1124832F623071052A
:1022E00091F04CF461157105E9F061307105C1F4AC
:1022F000842F4D2D17C06430710571F044F06630A5
:10230000710581F00DC0842F4B2F932F0BC0E42F4C
:102310004B2F9E2F8D2D06C08B2F942F432F02C045
:102320008B2F9D2DE42FF0E0E55FFA4F4491E82FCD
:10233000F0E0E55FFA4F8491E92FF0E0E55FFA4FB6
:10234000E49149838883EA83DF91CF911F910F91B4
:10235000FF90EF90DF90CF90BF90AF900895909155
:10236000AA0192FF0DC0282F2871283019F4877F09
:10237000846006C0282F2471243011F48B7F88607C
:1023800093FF0DC0282F2871283119F4877E8461AE
:1023900006C0282F2471243111F48B7E886194FDAE
:1023A000877E0895CF92DF92EF92FF928C3724E1DF
:1023B000920728F469E070E00E94743029C0A0E020
:1023C000B0E08A50974DAF4FBF4F6627782F892FC7
:1023D0009A2F25EF38E241E050E00E949C306901DD
:1023E0007A01CA01B9010E9458309B01AC01C701B2
:1023F000B6010E945830BB27A92F982F872F00972E
:1024000021E0A207B10511F0BC0102C06FEF7FEF20
:10241000CB01FF90EF90DF90CF9008951F93CF9363
:10242000DF93CDB7DEB767970FB6F894DEBF0FBE68
:10243000CDBF4B8B5C8B6D8B7E8B8F8B86E09E0133
:10244000235F3F4FD901E82F1D92EA95E9F795E008
:10245000FE017396D90101900D929A95E1F7F90169
:10246000DE01179601900D928A95E1F7CE0107964D
:102470000E94E726811136C086E0FE013796DE0114
:10248000119601900D928A95E1F77F816885EA8522
:10249000FB85309739F16F3F11F47F3F19F120919F
:1024A000FC0130E0C90101968770992740912D0207
:1024B00050E08417950779F179836A83FD83EC8373
:1024C00096E0929FD001939FB00D1124A350BE4F70
:1024D000FE01319601900D929A95E1F78093FC01EF
:1024E0000E94063016E080912D029091FC01891720
:1024F00001F1189FC001112483509E4F0E94E726CE
:102500008823B9F080912D0290E001968770992779
:1025100080932D02E8CF0E94B3281092FC01109204
:102520002D02E6EFF1E086E0DF011D928A95E9F7E2
:10253000D9CF67960FB6F894DEBF0FBECDBFDF913F
:10254000CF911F91089520919801309199018217A0
:10255000930771F09093990180939801E091AD01F8
:10256000F091AE01309721F00084F185E02D0994BF
:10257000089520919601309197018217930771F089
:102580009093970180939601E091AD01F091AE0197
:10259000309721F00680F781E02D09940895E091AD
:1025A000AD01F091AE01309721F00190F081E02D66
:1025B000099480E008950F931F93CF93DF93C62F64
:1025C000D42F022FFC0182818823C9F0609362011D
:1025D0000E94F02A909395018093940180E28C0FE1
:1025E000883008F05EC0C77081E001C0880FCA95CE
:1025F000EAF7DF91CF911F910F910C94C9281091A8
:10260000620116133EC080919401909195010E9441
:10261000C62A883C9105A8F5C0E2CD0F1D17B9F078
:1026200080E2810F883040F4177081E001C0880F8C
:102630001A95EAF70E94BE28C83048F481E09D2F21
:10264000977001C0880F9A95EAF70E94C928802FD9
:102650000E942F29093349F4FFEF27EE83E0F15060
:1026600020408040E1F700C00000802F0E94D32866
:10267000C830B8F4D77081E001C0880FDA95EAF766
:102680000AC080E28C0F883060F4C77081E001C01E
:10269000880FCA95EAF7DF91CF911F910F910C94A3
:1026A000BE28DF91CF911F910F9108951092CD0117
:1026B0008091BB0180FF08C086ED96E09F938F93C9
:1026C0000E9461090F900F9008956091D101669565
:1026D00070E04BE050E080E091E00E94DE30892B1A
:1026E00019F481E08093CD010E94F02A9093C701F4
:1026F0008093C6018091BB0180FF08C08DEB96E0FE
:102700009F938F930E9461090F900F90089580917D
:10271000D10180FF0AC0809A81B38E7F91B391600E
:102720002FB7F894EAE6F1E00DC080E090E0FC01FC
:10273000E659FE4F11821082128203968A32910569
:10274000B1F7E9CF31E0E439F30789F0319148E09E
:1027500091BB000000C037FF81BB330F000000C0F9
:1027600000C000C081BB00C04A9591F7EBCF2FBFDE
:1027700087EC90E00197F1F700C000000895EF9218
:10278000FF920F931F93CF93DF937C01CAE6D1E0B2
:1027900000E010E0F7018481073011051CF4882364
:1027A00039F002C0811104C09E014091D40102C0E1
:1027B0009E0140E06091D3018091D2010E940F11EF
:1027C0000F5F1F4F23960E30110521F70E948713CC
:1027D000F701248130E02F5F3F4F2170332724839E
:1027E000DF91CF911F910F91FF90EF900895EF929D
:1027F000FF920F931F93CF93DF93EC012C813D81C8
:102800002F5F3F4F217033273D832C838AE6E82ECC
:1028100081E0F82E10E005E5812F86954C815D81E1
:10282000480F511D842F817097014091D401609110
:10283000D301809F802D11240E940F111F5F83E020
:10284000E80EF11C1E3041F7DF91CF911F910F91DF
:10285000FF90EF900C9487130F931F93CF93DF9308
:1028600080E090E0FC01E659FE4F11821082128256
:1028700003968A329105B1F7C0E0D0E00EE010E097
:10288000CE01B8010E94883040916801042E000CEE
:10289000550BFC01EE0FFF1FC417D507B4F0409194
:1028A0000C01042E000C550B4C175D0774F08E0FB5
:1028B0009F1F9C0126593E4F4091D4016091D30146
:1028C0008091D2010E940F1107C0E80FF91FE6594D
:1028D000FE4F1182108212822196CE30D10581F6F0
:1028E0000E94871380910B0190916801980F90933B
:1028F000680120910C01280F20930C01121614F48A
:102900009D301CF0819580930B01DF91CF911F9139
:102910000F910895AF92BF92CF92DF92EF92FF9204
:102920000F931F93CF93DF93FC01828180FF03C03D
:10293000BB24BA9402C0BB24B3942AE6E22E21E061
:10294000F22E0CE611E0C0E0D0E0F80131971082E1
:10295000F7011082F801108294E0C92ED12CA12C2D
:10296000809167018A0D87FD825F082E000C990B0C
:10297000C817D90791F48091D4018C9DA0018D9D39
:10298000500D1124559547955595479597016091A0
:10299000D3018091D2010E940F11AB0CF1E0CF1A4C
:1029A000D108F1F6219683E0E80EF11C0D5F1F4F70
:1029B000CE30D10551F60E9487138091670191E0D6
:1029C000B91206C0811102C08DE007C0815005C058
:1029D00090E00196BE010E94883080936701DF91EC
:1029E000CF911F910F91FF90EF90DF90CF90BF900C
:1029F000AF900895EF92FF921F93CF93DF93EC0176
:102A00008AE6E82E81E0F82E10E08C819701409153
:102A1000D4016091D301810F0E940F111E5E83E0EB
:102A2000E80EF11C1C3F89F70E9487138A819C8164
:102A300080FF02C09F5F01C091509C83DF91CF91C6
:102A40001F91FF90EF9008959091D10190FF0FC0DA
:102A500020E030E0F901E659FE4F81836083428334
:102A60002D5F3F4F2A323105A9F70C948713089543
:102A70000F931F93CF93DF9300D01F92CDB7DEB794
:102A80008C018091690181110AC09E012F5F3F4F27
:102A90004FEF6FEF0E940F118A8180936901F80157
:102AA0008481813051F028F0823061F440916901D5
:102AB0000AC08091690140E007C06091690140E06F
:102AC00080E003C040E080E060E00E942415F8014F
:102AD000248130E0C901019663E070E00E948830F3
:102AE00084830F900F900F90DF91CF911F910F91E2
:102AF0000895CF93DF9300D01F92CDB7DEB79091AA
:102B0000D10190FF0AC09E012F5F3F4F0E940F111D
:102B10004B8169818A810E9424150F900F900F903C
:102B2000DF91CF910895CF93DF93EC01E1EDF1E0D8
:102B3000438162818C810E9479158C818F5F8C83A7
:102B4000DF91CF910895CF93DF93EC01EC81F0E01A
:102B5000E151F94F4491E1EDF1E0628181810E9400
:102B600079158C818F5F8C83DF91CF91089580914F
:102B7000D10180FF02C08695089580E0089580917C
:102B8000D101282F269530E02115310519F48170E7
:102B9000826005C02532310524F0817088648093FD
:102BA000D1010895CF93DF9300D000D0CDB7DEB729
:102BB000AB01BC0149835A836B837C830E94BF15A0
:102BC00049815A816B817C8188E090E00F900F9061
:102BD0000F900F90DF91CF910C9436303F924F922F
:102BE0005F926F927F928F929F92AF92BF92CF929D
:102BF000DF92EF92FF920F931F93CF93DF9300D05A
:102C000000D0CDB7DEB7182F562E042F322E90915C
:102C1000D10190FFAAC0E92FE695AE2FB0E0A85EE3
:102C2000BE4F8C918093CC019E7F923061F49E01C7
:102C30002F5F3F4F812F0E940F114B8169818A8145
:102C40000E94241560C0823019F40091D4015BC049
:102C5000863019F41091D20156C08930D9F38931E8
:102C600009F051C0E9518E2F80958170482EE6956C
:102C7000F0E0E854F94FC590D4908AE6A82E81E0A0
:102C8000B82EE12CF12CDD249EE0692E712C21E977
:102C9000822E26E0922EEC9CC001ED9C900DFC9CB7
:102CA000900D1124B3010E947430812F442011F043
:102CB000860F01C0861B9091BB0190FF13C0DF926D
:102CC000CF921F924F921F928F93FF92EF929F92FB
:102CD0008F928C830E9461090FB6F894DEBF0FBEFD
:102CE000CDBF8C819501402F652D0E940F113FEFC4
:102CF000E31AF30A83E0A80EB11C9EE0E916F10482
:102D000051F60E9487131093D2015092D301009381
:102D1000D4013320C9F06091D1017091D20180912A
:102D2000D3019091D4010E94D2158091D4011F92B9
:102D30008F938091D3011F928F938091D2011F9224
:102D40008F938CE696E008C01F920F931F925F92BC
:102D50001F921F9385E496E09F938F930E946109D1
:102D60000FB6F894DEBF0FBECDBF0F900F900F903F
:102D70000F90DF91CF911F910F91FF90EF90DF9017
:102D8000CF90BF90AF909F908F907F906F905F900B
:102D90004F903F9008959091D10190FF4DC0917058
:102DA000811102C0926006C0853210F0986402C0A2
:102DB000880F982B9093D101662391F06091D101F7
:102DC0007091D2018091D3019091D4010E94D215CB
:102DD0008091D10186951F928F9389E296E007C07A
:102DE0008091D10186951F928F938BE096E09F93FF
:102DF0008F930E9461090F900F900F900F90609138
:102E0000D101669570E04BE050E080E091E00E94D7
:102E1000DE30892B19F00E94561302C00E94651300
:102E200081E08093C90120E04091D4016091D301F9
:102E30008091D2010C94EE15089561E00C94CB16AC
:102E40008091D1018695815009F484E261E00C946F
:102E5000CB168091D10186958F5F853208F081E095
:102E600061E00C94CB16E1EDF1E083E08083118208
:102E70008FEF828383831482608171818281938149
:102E80000C94D2156F927F928F929F92AF92BF92C5
:102E9000CF92DF92EF92FF920F931F93CF93DF9326
:102EA0000DE311E0A0EAB1E0B12CEE24E394F12CA3
:102EB0004D016D907C90119711961C921E92E80125
:102EC00089918E01E82FE295EF70F0E091A18F706B
:102ED000970101C0220F8A95EAF7892F822B81A3DF
:102EE00082A1A22EA0948A2182A3D0EADA95F1F7DA
:102EF00082E4C82E81E0D82E60E070E0E60189917E
:102F00006E01C82FC295CF70D0E048A1CD91DC9161
:102F1000119750E08F7002C0559547958A95E2F75A
:102F200040FD08C0C701062E02C0880F991F0A94F1
:102F3000E2F702C080E090E0C82BD92B1196DC9319
:102F4000CE936F5F7F4F6E307105C1F681A1A822CD
:102F5000A1A282A1282B22A3129681E0F401208154
:102F600031816216730609F480E0B82AF1E0AA3ACA
:102F7000BF0709F09DCFBB2049F081E08093660137
:102F80000E94F02A9093650180936401809166010C
:102F9000882391F180916401909165010E94C62A75
:102FA000069750F18091A0019091A1019093B101F9
:102FB0008093B0018091A2019091A3019093B301FD
:102FC0008093B2018091A4019091A5019093B501E5
:102FD0008093B4018091A6019091A7019093B701CD
:102FE0008093B6018091A8019091A9019093B901B5
:102FF0008093B801109266018B2DDF91CF911F91C4
:103000000F91FF90EF90DF90CF90BF90AF909F9087
:103010008F907F906F900895CF93DF932EE0729FF3
:10302000F001112436E4839FE00DF11D1124E60F19
:10303000F11DEE0FFF1FEA5BFE4FC591D491CE014B
:10304000C238D10549F1B0F4C133D10509F464C0E7
:1030500048F4C932D10509F458C0CA32D10509F47F
:1030600062C068C0C533D10509F448C0C933D10571
:1030700099F060C0C33ED10541F138F4C03ED1059E
:1030800091F0C23ED105B1F055C0C63ED10521F147
:10309000C73ED10561F14EC02091AA0120FD43C277
:1030A00021FD41C242C22091AA0120FF3EC289E314
:1030B00090E03BC22091AA0122FF37C28091AA0171
:1030C00084FDE3C183EE90E030C28091AA0182FFCB
:1030D000F5CF82EE90E029C22091AA0123FF25C2FC
:1030E0008091AA0184FDD1C187EE90E01EC280913B
:1030F000AA0183FFF5CF86EE90E017C22091AA01C6
:1031000025FF13C289E290E010C22091AA0125FF99
:103110000CC285E390E009C22091AA0126FF05C2F6
:103120008AE290E002C22091AA0126FFFEC181E35B
:1031300090E0FBC1C11561E5D60708F047C0C11595
:1031400070E5D70708F03DC1C83ED10520F5C03E67
:10315000D10508F0EAC1C83AD10570F4C53AD105E5
:1031600008F0AEC0C130D10509F4DFC108F48DC14B
:10317000249708F48AC1D9C1CF3BD10508F4ABC06C
:10318000C03CD10508F481C1CE01880F991FFC0114
:10319000E557FC4F06C1C11520E3D20788F4C115DD
:1031A00030E2D30708F0F6C0C03FD10508F46DC186
:1031B000CF3FD10511F008F0B8C1CE019065B5C17F
:1031C000C11560E4D60708F4EFC0F7C0C11579E572
:1031D000D70758F5C11588E5D80708F042C1C115D1
:1031E00094E5D90778F4C11523E5D20708F01DC18D
:1031F000C11532E5D30708F001C19C2F8827816FE4
:10320000906A93C1C11565E5D60708F425C1C115BB
:1032100076E5D70708F039C18C2F0E94AF118F7166
:1032200090E0982F8827906280C1CD3B8CE5D8072D
:1032300009F422C108F5CB3B2CE5D20709F416C1ED
:1032400008F017C1C1156AE5D60708F01EC18C2F1A
:103250008F700E94AF11FE0194E0F695E7959A9564
:10326000E1F7EF70F0E0FE2FEE27F06A8F70806ECE
:103270009F01282BC90159C1C03C7CE5D70709F43F
:1032800001C160F4CE3B9CE5D90709F4F8C0CF3BFF
:10329000DC4509F0FAC080E092ED47C1CE019056BE
:1032A0008115904208F0F1C08D2F8F710E94AF11EF
:1032B000FE01FF27F0628F71BF01782BCB0135C172
:1032C000C53AD10509F4E4C0C63AD10509F0E3C016
:1032D00082E890E42AC1C83AD10509F4DFC0C93AAE
:1032E000D10509F4DEC0CA3AD10509F4DDC0CB3AF4
:1032F000D10509F4DCC0CC3AD10509F4DBC0CB3BE5
:10330000D10509F4DAC0CC3BD10509F4D9C0CD3AD6
:10331000D10509F4D8C0C03BD10509F4D7C0CE3AD5
:10332000D10509F4D6C0CF3AD10509F4D5C0C13BC7
:10333000D10509F4D4C0C23BD10509F4D3C0C33BC5
:10334000D10509F4D2C0C43BD10509F4D1C0C53BB5
:10335000D10509F4D0C0C63BD10509F4CFC0C73BA5
:10336000D10509F4CEC0C83BD10509F4CDC0C93B95
:10337000D10509F4CCC0CD3BD10509F4CBC0CE3B7F
:10338000D10509F4CAC0CA3BD10509F4C9C080E01F
:1033900094E4CBC0CE019F70FC01EE0FFF1FE55FF0
:1033A000FA4F85919491C1C09E013327C901D3FF83
:1033B00002C0986CBAC0906CB8C0CE019F70906A81
:1033C000B4C02C2F237081E090E002C0880F991FB9
:1033D0002A95E2F79C689E0174E0369527957A95C8
:1033E000E1F72370922BEC2FEF70E695E69560E203
:1033F000E69FF00111248E2B9F2B97C08C2F869572
:10340000869570E2879FA0011124CE0183709927D1
:1034100021E030E0B90102C0660F771F8A95E2F71C
:10342000CB01842B952B9C6880C08C2F869586952C
:1034300070E2879FA0011124CE018370992721E0BB
:1034400030E0B90102C0660F771F8A95E2F7CB0121
:10345000842B952B9A6869C09C2F8827846F906A6B
:1034600064C09C2F8827806F906A5FC080E094EDD5
:103470005CC080E095ED59C080E091ED56C080E0E1
:1034800090ED53C080E093ED50C080E090E04DC0DF
:1034900081E890E44AC083E890E447C082EE94E477
:1034A00044C089EE94E441C08AEE94E43EC085EBCA
:1034B00094E43BC086EB94E438C083EB94E435C0DD
:1034C00084EB94E432C087EB94E42FC08CEC94E45A
:1034D0002CC08DEC94E429C083E895E426C08AE8EA
:1034E00095E423C082E995E420C084E995E41DC0F9
:1034F00081E296E41AC083E296E417C084E296E47F
:1035000014C085E296E411C086E296E40EC087E21C
:1035100096E40BC08FE694E408C080E794E405C00D
:103520008AE296E402C080EE90E0DF91CF910895A8
:103530001F920F920FB60F9211242F933F934F9328
:103540005F936F937F938F939F93AF93BF93EF930B
:10355000FF9380919E0190919F01019668EB75E029
:103560000E94743090939F0180939E016BE070E005
:103570000E9474306F7780919D01823019F460341D
:1035800051F404C0813039F46F3729F480916F0011
:103590008E7F80936F00E62FF0E0E557FB4FE491BC
:1035A00021E031E0E29FC001E39F900D112465E02E
:1035B00070E00E94743080919C0186958695869576
:1035C000282F269FC001279F900D11240E94D21101
:1035D00090938D0080938C00FF91EF91BF91AF91FC
:1035E0009F918F917F916F915F914F913F912F911B
:1035F0000F900FBE0F901F901895863030F48111F8
:1036000005C090918000977F04C085E09091800074
:10361000986090938000282F30E0AFEFBFEF0E94BA
:10362000C43025E030E040E050E00E949C30C90109
:103630000E94D21190938D0080938C00089508957C
:103640008091D90108959FB7F8941092CE019FBF41
:103650009091E401943009F057C09091E9009F7077
:103660003091EC00232F217030FD20E8922B23E0D5
:103670002093E9002091EB0020FF43C02091EE0051
:1036800027FF3FC020919B01222321F02091E800D9
:1036900025FF37C010929B0126E03091E80035FDF0
:1036A00015C03091E401343061F53091EB0035FD07
:1036B00028C0215021F481E080939B0122C0EFE9D2
:1036C000FFE03197F1F700C00000E7CF8093F100F1
:1036D0008091E80085FD0AC08091E80080FFFCCF62
:1036E0008091E8008E778093E80006C08FB7F89449
:1036F00021E02093CE018FBF9F709093E90080E07E
:1037000008959F709093E9008FEF0895CF93DF9312
:1037100000D01F92CDB7DEB79C0190919A01911114
:1037200005C08091E401843049F504C0923011F065
:10373000943021F584E089833B832A8382E080935F
:10374000E9008FEF9091E800815095FD06C095ED5E
:103750009A95F1F700008111F5CF8091E80085FF7F
:103760000DC040E050E063E070E0CE0101960E94A1
:1037700046218091E8008E778093E8000F900F90AB
:103780000F90DF91CF910895CF93DF9300D01F92D8
:10379000CDB7DEB72091E401243031F523E0298351
:1037A000805891099B838A8382E08093E9008FEFA0
:1037B0009091E800815095FD06C095ED9A95F1F73E
:1037C00000008111F5CF8091E80085FF0DC040E039
:1037D00050E063E070E0CE0101960E9446218091A6
:1037E000E8008E778093E8000F900F900F90DF91A4
:1037F000CF910895CF93DF9320919A01211103C0B7
:103800002091E40102C0223011F0243039F521E08A
:103810002093E9002FEF3091E800215035FD06C0DC
:1038200035ED3A95F1F700002111F5CF2091E80030
:1038300025FF14C0EC0140E050E068E070E00E9419
:1038400046218091E8008E778093E80088E0FE01B1
:10385000AAEDB1E001900D928A95E1F7DF91CF9149
:1038600008952091E4003091E50095E64091EC0048
:10387000842F817040FF22C08091E80080FD1CC031
:103880008091E401882391F0853091F08091EB00E4
:1038900085FD10C04091E4005091E50042175307A8
:1038A00029F39A01915011F784E0089582E0089578
:1038B00083E0089581E0089580E008954091E80054
:1038C00042FFDECF08958091E60187FF11C080910D
:1038D000E80082FD05C08091E4018111F8CF11C09C
:1038E0008091E8008B770BC08091E401882349F038
:1038F0008091E80080FFF8CF8091E8008E77809378
:10390000E8000895982F973058F59093E90098179C
:1039100039F07091EC002091ED005091F00003C05F
:10392000242F762F50E021FF19C03091EB003E7F0D
:103930003093EB003091ED003D7F3093ED003091FE
:10394000EB0031603093EB007093EC002093ED00BE
:103950005093F0002091EE0027FF07C09F5FD3CF68
:103960008F708093E90081E0089580E008952091B0
:10397000EC013091ED012617370748F0611571050C
:1039800039F42091E8002E772093E80001C0B901B6
:1039900040E061157105A9F12091E401222309F4A9
:1039A00043C0253009F442C02091E80023FD40C007
:1039B0002091E80022FD32C02091E80020FFE9CFED
:1039C0004091F3002091F20030E0342BFC01CF0154
:1039D0006115710559F02830310540F481918093CB
:1039E000F100615071092F5F3F4FF1CF41E0283066
:1039F000310509F040E02091E8002E772093E8009F
:103A0000C8CF4111C9CF0AC08091E401882361F079
:103A1000853061F08091E80083FD0AC08091E80064
:103A200082FFF2CF80E0089582E0089583E0089558
:103A300081E00895863008F085E0880F880F880FB0
:103A400090919C019770892B80939C01887F91E0D5
:103A500009F490E080919C0190FB80F980939C0197
:103A60000E944B2B80919C018695869586950C949F
:103A7000FD1A0E94502B811102C00E945B2B86E030
:103A800090E00E94103080939C01282F2695269567
:103A9000269530E02630310524F0877088628093C7
:103AA0009C0180919C0180FF04C086958695869537
:103AB00001C080E00C94FD1ACF93DF93CDB7DEB741
:103AC0002D970FB6F894DEBF0FBECDBF84B7877FAA
:103AD00084BF0FB6F894A8958091600088618093A8
:103AE0006000109260000FBE80E880936100109229
:103AF000610085B7806885BF85B7806885BF0E94F3
:103B000096240E94B5248091E20084608093E200B4
:103B100083E29BE1909361018093600178948091AE
:103B2000E4018823A1F01091E9001F709091EC004E
:103B3000892F817090FD80E8182B1092E900809108
:103B4000E80083FD0E947D211F701093E90082E050
:103B500084BD93E095BD9AEF97BD80936E00ADE371
:103B6000B1E041E050E025E02A0F8D91E82FE29589
:103B7000EF70F0E031A18F70BA0102C0660F771FBD
:103B80008A95E2F7CB01962F9095932391A392A16A
:103B9000892B82A32A13E9CFA2E4B1E041E050E0EF
:103BA0002EE02A0F8D91E82FE295EF70F0E031A121
:103BB0008F70BA0102C0660F771F8A95E2F7CB01BA
:103BC000962F9095932391A392A1892B82A32A13D8
:103BD000E9CFE0EAF1E0A0EBB1E0119211921D9281
:103BE0001D9271E0EA3AF707C1F70E94502B81114C
:103BF00002C00E945B2B279A2F988AE08093800056
:103C000089E1809381008FEF9FEF909387008093ED
:103C100086000E94391D80919C0181FF0BC010928B
:103C20009F0110929E0110929D0180916F00816012
:103C300080936F000E94502B811102C00E945B2B69
:103C400082E090E00E9410308093BB0184E090E01D
:103C50000E94103090E09093AB018093AA0183E022
:103C600090E00E941030682F70E080E090E00E94A9
:103C7000FC2F0E94391D8091AC018111DEC0809122
:103C8000BB0181608093BB0184E399E09F938F9394
:103C90000E9461098091BB010F900F9080FF08C0C6
:103CA0008EE199E09F938F930E9461090F900F908E
:103CB0000E94502B811110C08091BB0180FF08C071
:103CC00086EF98E09F938F930E9461090F900F9069
:103CD0000E945B2B0E94331788E090E00E9418300E
:103CE0006093D1017093D2018093D3019093D4015A
:103CF0006E7FD1F48091BB0180FF08C08DEA98E00F
:103D00009F938F930E9461090F900F900E94331729
:103D100088E090E00E9418306093D1017093D20146
:103D20008093D3019093D4010E94BF158091BB0171
:103D300080FF08C086E998E09F938F930E946109F5
:103D40000F900F908091BB0180FF0FC08091D10137
:103D500081701F928F9389E798E09F938F930E94C1
:103D600061090F900F900F900F908091BB0180FF21
:103D70000FC08091D10186951F928F938EE598E0B8
:103D80009F938F930E9461090F900F900F900F9057
:103D90008091BB0180FF0EC08091D2011F928F9352
:103DA00084E498E09F938F930E9461090F900F9095
:103DB0000F900F908091BB0180FF0EC08091D301C6
:103DC0001F928F938AE298E09F938F930E946109DC
:103DD0000F900F900F900F908091BB0180FF0EC04D
:103DE0008091D4011F928F9380E198E09F938F93ED
:103DF0000E9461090F900F900F900F908091BB016E
:103E000080FF0EC08091D5011F928F9384EF97E0C1
:103E10009F938F930E9461090F900F900F900F90C6
:103E20001092CD018091D10180FF04C060E08695A1
:103E30000E94CB1681E08093AC018DE091E09093DD
:103E4000AE018093AD018CED99E00E94C808222458
:103E50002394312C8091E401853009F06EC088ED07
:103E600099E00E94C8088091E401843009F452C0AE
:103E70001092AF0120E488E190E00FB6F894A89585
:103E8000809360000FBE2093600080E00E94FD1AC6
:103E90000E9456138091D701811125C081E0809343
:103EA000D7018091D101982F91709093D6018E7F88
:103EB0008093D1011F921F928BE499E09F938F937F
:103EC0000E9461090E9456138FEF90E7A2E0815093
:103ED0009040A040E1F700C000000E9487130F90BF
:103EE0000F900F900F9083B7817F846083BF83B75B
:103EF000816083BF7894889583B78E7F83BF0FB628
:103F0000F894A89580916000886180936000109279
:103F100060000FBE8091E301882309F49BCF0E94CB
:103F20004217E0EBF1E081919191892B09F078C182
:103F3000B1E0EA3BFB07B9F78DCF0E9442173CEB9B
:103F4000832E31E0932E40EBA42E41E0B42E00E00E
:103F500010E00B87F501C190D1905F01D401ED9085
:103F6000FD904D01EC24FD24E114F104B1F40F5F48
:103F70001F4F0530110569F78FEF8E838F831886E9
:103F80000E94F02A8160782F9A8789874E815F810D
:103F900068858A850E940E127FC08091BB0181FDD9
:103FA00003C080E090E04BC085E999E00E94C8081A
:103FB00020EB622E21E0722E412C512C5F924F9209
:103FC000A0E9B9E0BF93AF930E9461098DE899E041
:103FD0000E94C808D3018C9111969C91B2E06B0E9F
:103FE000711C9C870E94682E282F9C85892F2D8705
:103FF0000E94682E2D8530E0322F2227F901E82B10
:10400000CF019F938F93A7E8B9E0BF93AF930E942E
:10401000610985E899E00E94C808FFEF4F1A5F0A1E
:104020000FB6F894DEBF0FBECDBF55E04516510464
:1040300029F6B7CF01968E30910509F498CF31015A
:10404000082E02C0660C771C0A94E2F793012E2119
:104050003F21232B79F389836B856A83C620D72080
:1040600081E0CD2809F480E08B830E94F02A8160F2
:10407000782F9D838C8349815A816B818D810E9429
:104080000E12000F111FF801E454FE4F8081918140
:1040900068267926718260821091BA010E94CF123F
:1040A000181739F10E94CF12182F8093BA0180910E
:1040B000BB0182FF1EC080FF04C083EB99E00E9419
:1040C000C8088091BB0180FF0CC01F921F938EEA2D
:1040D00099E09F938F930E9461090F900F900F902A
:1040E0000F908091BB0180FF04C08CEA99E00E9490
:1040F000C8088091CD01882309F4ACCE8091CC0111
:10410000E091D101E695E81BE093C801823049F4C3
:10411000F0E0EC52F64FE4910E2F10E023EA35E187
:1041200049C0863049F4F0E0EF52F64FE4910E2F8B
:1041300010E023E935E13EC0893051F4E695F0E026
:10414000E253F64FE4910E2F10E02AEF34E132C033
:104150008F3051F4E695F0E0E553F64FE4910E2FE1
:1041600010E02AE834E126C0853149F4F0E0E85354
:10417000F64FE4910E2F10E02CE234E11BC08831A1
:1041800081F0833239F4E6ECF9E00591149128E3EB
:1041900035E110C0843251F404EF11E02FEB33E12C
:1041A00009C008EE13E027EF33E104C000ED17E08B
:1041B0002EE031E18091C9018823A9F01092C90154
:1041C0002D873C870E94F02AA80140955095840FC6
:1041D000951F9093C7018093C6011092CB01109256
:1041E000CA013C852D858091C6019091C7012D871C
:1041F0003C870E94C62A2D853C858017910708F4CC
:1042000029CEE091C601F091C7010E0F1F1F109338
:10421000C7010093C60186EC91E0F90109951ACE19
:1042200080E189BD82E189BD09B400FEFDCF8091A6
:10423000D8008F7D8093D8008091E00082608093C9
:10424000E0008091E00081FDFCCF04CECF93C82F29
:104250001F928F938FEE97E09F938F930E94610937
:1042600081E090E0A0E0B0E0BC01CD0104C0660FA9
:10427000771F881F991FCA95D2F70E94FC2F0F90B5
:104280000F900F900F90CF910C94B328CF92DF92A4
:10429000FF920F931F93CF93DF931F92CDB7DEB79B
:1042A000F82E8B0199830E94311C998181111CC0C9
:1042B000CF2CD92E01151105B1F08091E80085FDB4
:1042C0000AC08091E8008E778093E8000E94311C3C
:1042D000882381F309C0F60181916F018093F10079
:1042E00001501109E7CF80E00F90DF91CF911F912E
:1042F0000F91FF90DF90CF9008951F93CF93DF939E
:10430000CDB7DEB7AA970FB6F894DEBF0FBECDBF0C
:10431000E6EEF1E088E08E0F9091F10091938E131C
:10432000FBCF8091E701833009F460C030F4813025
:1043300071F0823009F49AC0B1C08A3009F486C0A5
:104340008B3009F46BC0893009F0A8C020C080917F
:10435000E601813A09F0A2C08091E800877F80934E
:10436000E8008091EA019091EB01892B21F468E04B
:104370008AED91E003C060E080E090E070E00E9490
:10438000B71C8091E8008B778093E80087C080910C
:10439000E601813209F082C08091EA019091EB013F
:1043A000029708F07BC08091E800877F8093E80047
:1043B0008091E80082FD05C08091E4018111F8CF71
:1043C0006DC02091F3008091F20090E0922B029753
:1043D00029F48091F1008B7F813021F48091F100EC
:1043E0008093D9018091E8008B7754C08091E601D9
:1043F000813A09F053C08091EA019091EB01892B39
:1044000009F04CC08091E800877F8093E80080919C
:10441000E80080FFFCCF8091170137C08091E60152
:104420008132E1F58091EA019091EB01892BB1F5A0
:104430008091E800877F8093E8000E94631C809150
:10444000E801809317010E94B32828C08091E601FB
:10445000813221F58091E800877F8093E8000E94F7
:10446000631C8091E9018093D80118C08091E60116
:10447000813AA1F48091E800877F8093E8008091E1
:10448000E80080FFFCCF8091D8018093F1008091FB
:10449000E8008E778093E8000E94631C8091E8001A
:1044A00083FFE2C18091E6019091E701492F50E03E
:1044B0004A30510508F0D8C1FA01E557FF4F0C9476
:1044C000BE30803821F0823809F0CEC108C080911A
:1044D000E2019091E301992389F082600FC08091FD
:1044E000EA018F70873008F0BFC18093E9008091A6
:1044F000EB0085FB882780F91092E9009091E80095
:10450000977F9093E8008093F1001092F1007FC1B3
:10451000282F2D7F09F0A8C1882319F0823061F07F
:10452000A3C18091E801813009F09EC1933009F068
:1045300080E08093E3012EC08091E80181112AC0C0
:104540008091EA018F702FEF280F263008F08CC180
:104550008093E9002091EB0020FF1CC0933021F4F0
:104560008091EB00806214C09091EB009061909379
:10457000EB0021E030E0A90102C0440F551F8A95ED
:10458000E2F74093EA001092EA008091EB00886025
:104590008093EB001092E9008091E800877F809380
:1045A000E8000E94631C60C181115EC11091E801A6
:1045B0001F778091E3008078812B8093E3008091C6
:1045C000E800877F8093E8000E94631C8091E800E8
:1045D00080FFFCCF8091E30080688093E30011119D
:1045E00002C082E001C083E08093E4013DC18058B5
:1045F000823008F039C12091E8013091E9012C3D69
:1046000053E0350779F583E08A838AE289834FB7DF
:10461000F894DE01139620E03EE051E2E32FF0E053
:1046200050935700E49120FF03C0E295EF703F5F85
:10463000EF708E2F90E0EA3010F0C79601C0C09660
:104640008D939D932F5F243149F74FBF8091E800F0
:10465000877F8093E8006AE270E0CE0101960E94B5
:10466000B71CC4C08091EA019091EB01432F5527FC
:1046700043305105B9F06CF44130510509F403C1E0
:104680004230510509F0F0C08BE590E0E2EDFAE030
:104690005BC04132510509F434C04232510509F47E
:1046A0003FC0E2C0C901992781309105D1F05CF487
:1046B000892B09F0D9C0E5E7FBE0E4918E2F90E06B
:1046C000E5E7FBE03EC08230910599F0039709F0E1
:1046D000CBC0EFE3FBE0E4918E2F90E0EFE3FBE053
:1046E00030C0E9E5FBE0E4918E2F90E0E9E5FBE0E6
:1046F00028C0E5E4FBE0E4918E2F90E0E5E4FBE0E8
:1047000020C08330910508F0AFC0880F991FFC01CD
:10471000E75AFE4F0190F081E02D89E090E014C04F
:104720008330910508F0A0C0FC01EE0FFF1FED5A89
:10473000FE4F0190F081E02DDC01A05BBE4F8C911B
:1047400090E0009709F490C02091E800277F209323
:10475000E8002091EC013091ED012817390708F4A9
:10476000C90140E0009789F12091E401222309F476
:104770003DC02530D9F12091E80023FD37C02091BC
:10478000E80022FD2FC02091E80020FFEBCF4091F0
:10479000F3002091F20030E0342B009759F02830DC
:1047A000310540F444914093F100319601972F5F19
:1047B0003F4FF3CF41E02830310509F040E0209130
:1047C000E8002E772093E800CDCF4111CDCF0AC06D
:1047D0008091E401882351F0853041F08091E80018
:1047E00083FD04C08091E80082FFF2CF8091E80051
:1047F0008B778093E80038C08038B1F58091E8006D
:10480000877F8093E8008091E5018093F10080919B
:10481000E8008E77C4CE811127C01091E8011230D4
:1048200018F58091E800877F8093E8001093E501F8
:104830000E94631C111106C08091E30087FD02C035
:1048400081E001C084E08093E40142E061EC81E01A
:104850000E94821C42E261EC82E00E94821C42E2E1
:1048600061EC83E00E94821C8091E80083FF10C00D
:104870008091E800877F8093E8008091EB00806260
:104880008093EB0005C082E190E0EDE2FBE05CCFBD
:10489000AA960FB6F894DEBF0FBECDBFDF91CF91C1
:1048A0001F9108951F920F920FB60F9211242F930C
:1048B0003F934F935F936F937F938F939F93AF93A8
:1048C000BF93CF93DF93EF93FF93C091E900CF7035
:1048D0008091EC00D82FD17080FDD0E81092E900D3
:1048E0008091F000877F8093F00078940E947D2172
:1048F0001092E9008091F00088608093F000CD2B49
:10490000CF70C093E900FF91EF91DF91CF91BF91FC
:10491000AF919F918F917F916F915F914F913F9157
:104920002F910F900FBE0F901F901895E8EDF0E0BB
:1049300080818E7F80831092E2001092DA001092C4
:10494000E100A0EEB0E08C9181608C9380818F7744
:10495000808319BCA7EDB0E08C918E7F8C93808111
:104960008F7E80831092D0010895CF92DF92EF92D4
:10497000FF920F931F93CF93DF93C8EDD0E0888110
:104980008F7E8883E7EDF0E080818160808384E022
:1049900082BF81E08093D00188818E7F888302EE80
:1049A00010E0F80110821092DA0081EEC82ED12CAE
:1049B000F601108288818F77888388818068888358
:1049C00088818F7D888319BC1092E4011092E501E3
:1049D0001092E3011092E20190EEE92EF12CF70122
:1049E00080818B7F808388818160888342E060E062
:1049F00080E00E94821CF60180818E7F8083F80116
:104A0000808181608083808188608083F7018081DC
:104A10008E7F8083888180618883DF91CF911F9111
:104A20000F91FF90EF90DF90CF9008951F920F921B
:104A30000FB60F9211242F933F934F935F936F9371
:104A40007F938F939F93AF93BF93EF93FF93809147
:104A5000E10082FF49C08091E20082FF45C0809161
:104A6000E1008B7F8093E1002091CF012F5F822FA7
:104A700062E30E946830992319F02093CF0134C07B
:104A80001092CF018091CE01882371F18091E401D1
:104A9000843041F58091E9008F702091EC00922FD5
:104AA000917020FD90E8892B93E09093E90090911C
:104AB000EB0090FF14C09091EE0097FF10C0909112
:104AC000E80095FF03C01092F100F9CF9091E80043
:104AD00090FF05C09091E8009E779093E8008F705A
:104AE0008093E9001092CE018091DA0080FF32C0FD
:104AF0008091D80080FF2EC08091DA008E7F809355
:104B0000DA008091D90080FF1CC080E189BD82E17C
:104B100089BD09B400FEFDCF81E08093E40185E802
:104B20009AE00E94C8088091D001811113C00E94B0
:104B300096240E94B5248091E20084608093E20074
:104B400009C019BC1092E40189E89AE00E94C808E3
:104B50001092D0018091E10080FF1BC08091E200A3
:104B600080FF17C08091E2008E7F8093E2008091E9
:104B7000E20080618093E2008091D800806280939F
:104B8000D80019BC85E08093E4018DE89AE00E948A
:104B9000C8088091E10084FF58C08091E20084FF42
:104BA00054C080E189BD82E189BD09B400FEFDCF1A
:104BB0008091D8008F7D8093D8008091E1008F7E16
:104BC0008093E1008091E2008F7E8093E2008091EB
:104BD000E20081608093E2008091E501882311F07A
:104BE00084E007C08091E30087FD02C081E001C03E
:104BF00083E08093E4018AEC9AE00E94C8080E9456
:104C0000B3280E94391D0E94CF121092D7018091C3
:104C1000D6018823C1F08091D10181608093D101B8
:104C20001F9281E08F9381E99AE09F938F930E9476
:104C300061098091D10160E086950E94CB160F90AA
:104C40000F900F900F900E9465138091E10083FFF9
:104C50002BC08091E20083FF27C08091E100877F15
:104C60008093E10082E08093E4011092E50180915D
:104C7000E1008E7F8093E1008091E2008E7F80933F
:104C8000E2008091E20080618093E20042E060E017
:104C900080E00E94821C8091F00088608093F00088
:104CA0008EEC9AE00E94C808FF91EF91BF91AF91FE
:104CB0009F918F917F916F915F914F913F912F9134
:104CC0000F900FBE0F901F9018958091FB01829559
:104CD0008F7009F054C08091F801882309F44FC007
:104CE00080912D02A091FC016091F6017091F70175
:104CF0004091F9015091FA01B6E08A1709F43FC0DA
:104D000090E041155105C1F17F3F11F46F3FA1F1D2
:104D1000B89FF001B99FF00D1124E350FE4F21819F
:104D200072132AC02081621327C02281211124C05E
:104D3000238134812417350710F421503109241BB5
:104D4000350B283C3105C0F42091FB012F70206108
:104D50002093FB0126E0289FF001299FF00D1124EC
:104D6000EE5FFD4F80818F708061808386EF91E0E0
:104D70000E946A090C94063001968770BECF089590
:104D80000E942D2F292F2F7092959F70E92FF0E010
:104D90003297EE30F105B8F4EB56FF4F0C94BE306D
:104DA000803F99F018F4803E70F40FC0843F59F4AE
:104DB0000CC0803E50F0813F31F407C0822F8695B1
:104DC00086958695089580E0089581E00895BF92C4
:104DD000CF92DF92EF92FF920F931F93CF93DF93C7
:104DE000CDB7DEB761970FB6F894DEBF0FBECDBF6B
:104DF0008C0185E0F801DE011D9601900D928A95E7
:104E0000E1F7D8013C9111962C9111971296EC90F4
:104E100012971396CD90DC9014975091F601609103
:104E2000F7018091F9019091FA01009709F44FC1BF
:104E30006F3F19F45F3F09F44AC1B090F801BB20FD
:104E400009F4ECC04091FB01C816D90628F0F60120
:104E5000E81BF90BCF0104C0809590958C0D9D1D2A
:104E6000FF24F394883C910548F0F12C407F09F031
:104E70009FC086EF91E00E946A0921C1842F807F44
:104E800009F044C0621312C0531310C0E1100EC0E9
:104E90004F7040614093FB0186EF91E00E946A09E8
:104EA0008091FB01D80115968C932EC0CD2819F165
:104EB0002F3F11F43F3FF9F0FE2CE1101CC0809110
:104EC0002D024091FC0156E0841709F458C090E08F
:104ED000589FF001599FF00D1124E350FE4F61815E
:104EE000261306C06081361303C06281611103C0BE
:104EF00001968770E9CFFE2CEE2009F415C1809150
:104F0000FB0181608093FB01F12C0EC162130AC08A
:104F1000531308C0E11006C08091FB01D80115961B
:104F20008C93B0C03D872E878D859E850E94C026BC
:104F30008823D1F1EE20C1F12091FB01822F8295CF
:104F40008F7090E0029774F08091F6019091F701D4
:104F500098878F831986DB86CA862C87CE010796B1
:104F60000E946A0986E0F801A6EFB1E001900D9277
:104F70008A95E1F70E946526FF24F394D5C03D870A
:104F80002E878D859E850E942D2F292F22952F708B
:104F900030E0223031050CF0BBC09F7009F0B5C085
:104FA000805E883008F4C0C0C8010E946A09E4CF5E
:104FB000621314C0531312C0E11010C08091FB01A2
:104FC000F8018583C8010E946A0986E0E6EFF1E0F6
:104FD000DF011D928A95E9F7FB2CA6C03D872E873D
:104FE0008D859E850E94C0268823F1F2EE20E1F295
:104FF0002091FB01822F82958F7090E002970CF434
:10500000B1CF8091F6019091F7019A8389831B8239
:10501000DD82CC822E83CE010196A2CFC816D9069E
:1050200038F0C81AD90AB8ECCB16D10450F007C032
:10503000809590958C0D9D1D883C910510F0F12C6C
:105040003EC0FE2CEE2009F4AFCF621327C05313ED
:1050500025C02091FB0120FD18C0822F82958F7002
:10506000482F50E04115510581F0F80125834F305C
:10507000510541F08F5F982F9295907F822F8F700E
:10508000892B8583C8010E946A0986E0F801A6EF92
:10509000B1E001900D928A95E1F746C03D872E87D9
:1050A0008D859E850E94C02681115CCF8091FB0179
:1050B00081608093FB01C8010E946A0935C0E6EF58
:1050C000F1E086E0DF011D928A95E9F72DC0EE2020
:1050D00009F46ACF3D872E878D859E850E94C02664
:1050E000F82E882309F460CF86E0F801A6EFB1E03E
:1050F00001900D928A95E1F78091F6019091F70168
:105100000E942D2F0E9465260FC0811149CF0CC02F
:10511000243031050CF048CF9F7009F441CFF801DD
:105120009581907F09F03CCF8F2D61960FB6F89452
:10513000DEBF0FBECDBFDF91CF911F910F91FF90CA
:10514000EF90DF90CF90BF9008951092610210927F
:1051500060020E94842E80E090E00E94B91280E0FC
:1051600090E00C94A3121092620286E0E0EFF1E06E
:10517000DF011D928A95E9F70C94A528882341F058
:105180008095909162028923809362020C94842E10
:105190000895882339F090916202892B80936202EE
:1051A0000C94842E0895882309F458C0682F8238FF
:1051B00069F40E94CF1281FF51C069E38EEE91E045
:1051C0000E94312B0E94842E69E30EC0833891F433
:1051D0000E94CF1280FF42C063E58EEE91E00E94F4
:1051E000312B0E94842E63E58EEE91E00E94252BE8
:1051F0000C94842E843869F40E94CF1282FF2EC052
:1052000067E48EEE91E00E94312B0E94842E67E4C9
:10521000EBCF8CEF860F813A38F380E2860F88302F
:1052200070F4677081E090E001C0880F6A95EAF73A
:10523000809590916202892380936202D9CF8BE599
:10524000860F833020F480E090E00C94B912685A05
:10525000673120F480E090E00C94A3120895CF937E
:10526000882309F447C1C82F8238B1F40E94CF12B5
:1052700081FD40C169E38EEE91E00E94312B0E94D6
:10528000842E2FEF81EE94E0215080409040E1F792
:1052900000C0000069E317C08338E1F40E94CF1218
:1052A00080FD28C163E58EEE91E00E94312B0E94C3
:1052B000842E2FEF81EE94E0215080409040E1F762
:1052C00000C0000063E58EEE91E00E94252BCF9197
:1052D0000C94842E8438B1F40E94CF1282FD0AC14E
:1052E00067E48EEE91E00E94312B0E94842E2FEF16
:1052F00081EE94E0215080409040E1F700C0000032
:1053000067E4E1CF8CEF8C0F813AE0F580916C027D
:10531000882319F0813049F02AC0809162028232DC
:1053200059F58C2F0E94B92B25C0809162028232E0
:10533000C1F3C43191F018F4CB3029F011C0C93257
:1053400061F0C83369F48AEB9EE00E94C8088BE7DD
:105350009BE00E94C80881E008C010926C0204C063
:1053600089E79BE00E94C80880E0817003C010922A
:105370006C0202C08111BEC06C2F8EEE91E00E94C3
:10538000312BA5CF80E28C0F883068F4C77081E0A4
:1053900090E001C0880FCA95EAF790916202892BCC
:1053A0008093620294CF8BE58C0F833078F4C53AFA
:1053B00029F0C63A31F083E890E005C081E890E03A
:1053C00002C082E890E0CF910C94B91288E58C0F6E
:1053D000873108F08FC0C83A09F445C0C93A09F4CA
:1053E00045C0CA3A09F445C0CB3A09F445C0CC3AA5
:1053F00009F445C0CB3B09F445C0CC3B09F445C09A
:10540000CD3A09F445C0C03B09F445C0CE3A09F491
:1054100045C0CF3A09F445C0C13B09F445C0C23B81
:1054200009F445C0C33B09F445C0C43B09F445C079
:10543000C53B09F445C0C63B09F445C0C73B09F468
:1054400045C0C83B09F445C0C93B09F445C0CD3B44
:1054500009F445C0CE3B09F445C0CA3B09F445C038
:1054600080E090E044C082EE90E041C089EE90E0A0
:105470003EC08AEE90E03BC085EB90E038C086EB02
:1054800090E035C083EB90E032C084EB90E02FC019
:1054900087EB90E02CC08CEC90E029C08DEC90E084
:1054A00026C083E891E023C08AE891E020C082E929
:1054B00091E01DC084E991E01AC081E292E017C03A
:1054C00083E292E014C084E292E011C085E292E0AF
:1054D0000EC086E292E00BC087E292E008C08FE641
:1054E00090E005C080E790E002C08AE292E0CF91B0
:1054F0000C94A312CF91089581E08093E00080E2A4
:105500008093D8001092C9008FE19EE40197F1F7D3
:1055100000C0000087E090EBDC0180936D02909367
:105520006E02A0936F02B09370029CE088E10FB608
:10553000F894A895809360000FBE90936000FFCF11
:1055400078941F920F920FB60F9211248F939F930E
:10555000AF93BF938091680290916902A0916A0213
:10556000B0916B020196A11DB11D809368029093CA
:105570006902A0936A02B0936B02BF91AF919F91B1
:105580008F910F900FBE0F901F901895CF92DF92C2
:10559000EF92FF920F931F932FB7F89440916802F8
:1055A0005091690260916A0270916B022FBF6A018B
:1055B0007B01EE24FF248C0120E030E0C016D106F0
:1055C000E206F30610F4415051099A01281B390BE9
:1055D000C9011F910F91FF90EF90DF90CF90089538
:1055E0002FB7F8948091680290916902A0916A02A5
:1055F000B0916B022FBF08951F920F920FB60F92BA
:1056000011248F939F93AF93BF938091AF0181112A
:1056100013C08091680290916902A0916A02B091D2
:105620006B024196A11DB11D80936802909369029F
:10563000A0936A02B0936B02BF91AF919F918F913B
:105640000F900FBE0F901F901895FC013296089690
:105650002081261301C010823196E817F907C1F79F
:1056600008959C01FC0132969FEF80E0419146171E
:1056700089F09F3F19F4411101C0982F8F5F863048
:10568000A9F79F3F39F0F901E90FF11D97FDFA9550
:10569000628308950895682F86E090E00C9424308A
:1056A00080E090E00E941E3021E08D3E9E4F09F088
:1056B00020E0822F08956DEE7EEF80E090E00E9462
:1056C000423060E082E090E00E94243060E083E0BD
:1056D00090E00E94243010926402109265021092B1
:1056E00066021092670260E084E090E00E9424303D
:1056F00060E085E090E00E94243060E086E090E089
:105700000E9424306FEF87E090E00E94243040E058
:1057100050E0BA0188E090E00E94363060E08DE011
:1057200090E00E94243040E050E0BA0188E190E02F
:105730000E94363060E087E190E00E94243040E033
:1057400050E0BA018CE190E00E94363060E080E2E7
:1057500090E00E94243040E050E0BA018FE090E0F9
:105760000E94363040E050E0BA0183E190E00C94B2
:105770003630CF938B3109F417C208F0AFC18B30AC
:1057800009F4D1C108F085C1863009F4CFC120F4F5
:10579000853009F4DDC194C2873009F4EAC188304C
:1057A00009F08EC28AED90E10E94C80887E09DE072
:1057B0000E94C80883E090E00E9410301F928F93EF
:1057C00084E09DE09F938F930E94610982E09DE0B9
:1057D0000E94C80882E090E00E941030C82F8FEE2F
:1057E0009CE00E94C8081F92CF938AEE9CE09F9392
:1057F0008F930E94610988EE9CE00E94C8088EED9C
:105800009CE00E94C8088C2F81701F928F938BEDB3
:105810009CE09F938F930E94610989ED9CE00E9418
:10582000C8088FEC9CE00E94C808C1FB882780F95B
:105830001F928F938CEC9CE09F938F930E94610941
:105840008AEC9CE00E94C8088EEB9CE00E94C8088D
:10585000C2FB882780F91F928F938BEB9CE09F936C
:105860008F930E94610989EB9CE00E94C80880EB3D
:105870009CE00E94C808C3FBCC27C0F91F92CF93BD
:105880008DEA9CE09F938F930E9461098BEA9CE0D4
:105890000E94C80884E090E00E941030C82F87E979
:1058A0009CE00E94C8081F92CF9382E99CE09F93DE
:1058B0008F930E94610980E99CE00E94C80887E7F5
:1058C0009CE00E94C8088C2F81701F928F9384E700
:1058D0009CE09F938F930E9461098DB79EB780963D
:1058E0000FB6F8949EBF0FBE8DBF82E79CE00E946A
:1058F000C8088BE59CE00E94C808C1FB882780F996
:105900001F928F9388E59CE09F938F930E9461097B
:1059100086E59CE00E94C80884E49CE00E94C808D8
:10592000C2FB882780F91F928F9381E49CE09F93AC
:105930008F930E9461098FE39CE00E94C8088DE26A
:105940009CE00E94C808C3FB882780F91F928F93B0
:105950008AE29CE09F938F930E94610988E29CE019
:105960000E94C8088EE19CE00E94C808C4FB8827FA
:1059700080F91F928F938BE19CE09F938F930E94FD
:10598000610989E19CE00E94C80887E09CE00E94D0
:10599000C808C5FB882780F91F928F9384E09CE09C
:1059A0009F938F930E94610982E09CE00E94C80847
:1059B00086EE9BE00E94C808C6FB882780F91F92EC
:1059C0008F9383EE9BE09F938F930E94610981EEFA
:1059D0009BE00E94C80889ED9BE00E94C808C7FBB5
:1059E000CC27C0F91F92CF9386ED9BE09F938F93B6
:1059F0000E94610984ED9BE00E94C80886E090E067
:105A00000E941030C82F8DEB9BE00E94C8081F92A7
:105A1000CF9388EB9BE09F938F930E9461098DB792
:105A20009EB780960FB6F8949EBF0FBE8DBF86EBD3
:105A30009BE00E94C8088CEA9BE00E94C8088C2F5B
:105A400081701F928F9389EA9BE09F938F930E94AE
:105A5000610987EA9BE00E94C8088EE99BE00E94EA
:105A6000C808C695C695C6951F92CF938BE99BE053
:105A70009F938F930E94610989E99BE00E94C80867
:105A80008DB79EB708960FB6F8949EBF0FBE8DBF18
:105A900015C1803109F4B0C020F48E3009F498C0EB
:105AA0000FC1863109F4C5C0893109F009C183EC01
:105AB0009FE00E94C80886EA9FE00E94C80889E625
:105AC0009FE00E94C80880E39FE00E94C80883E02E
:105AD0009FE00E94C80885ED9EE0A8C08A32E1F0F0
