:100000000C9448090C948F090C948F090C948F0957
:100010000C948F090C948F090C948F090C948F0900
:100020000C948F090C948F090C94C12B0C94852B84
:100030000C9476300C948F090C948F090C948F09D2
:100040000C948F090C948F090C948F090C948F09D0
:100050000C948F090C9450300C948F090C948F09D8
:100060000C948F090C948F090C948F090C948F09B0
:100070000C948F090C948F090C948F090C948F09A0
:100080000C948F090C948F090C948F090C948F0990
:100090000C948F090C948F090C948F090C948F0980
:1000A0000C948F090C948F090C948F090631FF0969
:1000B00074A1010975150026FF00952075088102BD
:1000C0000976150026FF00952075089102C00501EC
:1000D0000980A10185031601002603001A81002A68
:1000E0008300751095018100C0050C0901A10185EF
:1000F00004160100269C021A01002A9C0275109524
:10010000018100C005010906A101050719E029E7E1
:100110001500250195087501810295017508810179
:1001200005081901290595057501910295017503C9
:1001300091010507190029FF150026FF0095067596
:10014000088100C000000000000000000000000066
:10015000000000000000000000000000000000009F
:10016000000000000000000000000000000000008F
:10017000000000000000000000000000000000007F
:10018000000000000000000000000000000000006F
:10019000000000000000000000000000000000005F
:1001A000000000000000000000000000000000004F
:1001B000000000000000000000000000000000003F
:1001C000000000000000000000000000000000002F
:1001D000000000000000000000000000000000001F
:1001E0000000000000010101010101000101010105
:1001F00000000000000000000000000000000100FE
:1002000001000101010101010101010101010101DF
:1002100001010101010101010101010101010100CF
:1002200000000101000000000000000000000000CC
:1002300000000000000000000000000000000001BD
:100240000101010000000000000000002A2B28002E
:100250000000000000000000000000000000002975
:10026000000000002C1E3420212224342627252EB5
:10027000362D3738271E1F202122232425263333ED
:10028000362E37381F0405060708090A0B0C0D0E19
:100290000F101112131415161718191A1B1C1D2FE5
:1002A0003130232D350405060708090A0B0C0D0E05
:1002B0000F101112131415161718191A1B1C1D2FC5
:1002C0003130354C776861742074686520667563D9
:1002D0006B00746F6E69676874007468616E6B2080
:1002E000796F75007468726F7567680077686174FC
:1002F000732075700070726F6261626C79006E6558
:100300007665726D696E64006A757374206B6964DA
:1003100064696E6700696E666F726D6174696F6E95
:100320000049206C6F766520796F7520746F6F00BF
:1003300049206C6F766520796F75004920646F6E77
:1003400074207468696E6B20736F004920646F6E4F
:1003500074207468696E6B00676F6F646E6967689C
:100360007400646F206E6F74006265747765656EEB
:10037000006265207269676874206261636B006265
:1003800079207468652077617900626563617573AF
:1003900065007267626C69676874206D6F646520C0
:1003A0005B4E4F454550524F4D5D3A2025750A0032
:1003B0007267626C69676874206D6F6465205B4565
:1003C0004550524F4D5D3A2025750A00000000004F
:1003D0000000000000000101010101010101010212
:1003E00002020202020202030303030303030404E2
:1003F00004040405050505050606060606070707A5
:1004000007080808080909090A0A0A0B0B0B0C0C53
:100410000C0D0D0D0E0E0E0F0F10101011111212EB
:1004200013131414151516161717181819191A1A64
:100430001B1C1C1D1D1E1F1F2021212223232425C0
:100440002526272828292A2B2C2C2D2E2F303131F8
:1004500032333435363738393A3B3C3D3E3F404104
:1004600042434445464748494B4C4D4E4F505253EA
:1004700054555758595A5C5D5E606163646567689E
:100480006A6B6C6E6F7172747677797A7C7D7F811E
:1004900082848687898B8D8E9092949597999B9D67
:1004A0009FA1A2A4A6A8AAACAEB0B2B4B6B9BBBD77
:1004B000BFC1C3C5C8CACCCED0D3D5D7DADCDEE144
:1004C000E3E6E8EAEDEFF2F4F7F9FCFF7267626C3D
:1004D000696768742073657420687376205B4E4F7B
:1004E000454550524F4D5D3A2025752C25752C25DC
:1004F000750A007267626C6967687420736574209E
:10050000687376205B454550524F4D5D3A20257506
:100510002C25752C25750A0029001E001F002000BF
:1005200021002200230024002500260027002D00A2
:100530002E002A002B0014001A00080015001700D6
:100540001C0018000C00120013002F003000175C74
:10055000000F04001600070009000A000B000D0040
:100560000E000F00330034000000280000071D00BB
:100570001B000600190005001100100036003700AE
:10058000380000000000E500E000E300E2000000A9
:1005900000002C00000000000000E600E700E4007E
:1005A0000000015135003A003B003C003D003E0098
:1005B0003F0040004100F85C4300440045004C000F
:1005C0002B0014001A000800150017001C0018006A
:1005D0000C0012001300F95C30003100000F5000D5
:1005E000510052004F000A000B000D000E000F00DA
:1005F000FC5CFB5C0000280000070100010001001A
:1006000001000100010001000100010001000000E3
:1006100000000100E000E300E200000000002C0008
:10062000000000000000E600E700025100000100A9
:1006300035023A003B003C003D003E003F004000D8
:10064000410042004300440045004C002B001400D0
:100650001A000800150017001C0018000C001200FA
:1006600013002F0030003100000F500051005200E5
:100670004F000A000B000D000E000F003300FA5C63
:100680000000280000070100010001000100010036
:100690000100010001000100010000000000010054
:1006A000E000E300E200000000002C000000000079
:1006B0000000E6000351010000000100C35CCB5CB8
:1006C000CA5CC75CC65CC95CC85CCD5CCC5C4200E3
:1006D0004300440045004C002B00CE5CD55C01007B
:1006E00001000100010001000100120013002F00B1
:1006F00030003100000F5000510052004F000A003E
:100700000B000D000E000F00330034000000280025
:1007100000070100010001000100010001000100CB
:1007200001000100010000000000010001000100C3
:1007300001000000000001000000000000000100B6
:10074000010001000000010029001E001F00200020
:1007500021002200230024002500260027002D0070
:100760002E002A002B0014001A00080015001700A4
:100770001C0018000C00120013002F003000310084
:10078000000F04001600070009000A000B000D000E
:100790000E000F003300340000002800E1001D00AF
:1007A0001B0006001900050011001000360037007C
:1007B000380000000000E500E000E300E200000077
:1007C00000002C00000000000000E600E700E4004C
:1007D0000000015129001E001F00200021002200FE
:1007E000230024002500260027002D002E002A00CB
:1007F0002B0014001A000800150017001C00180038
:100800000C00120013002F0030003100000F040014
:100810001600070009000A000B000D000E000F0073
:100820003300340000002800E1001D001B0006001A
:1008300019000500110010003600370038000000D4
:100840000000E500E000E300E200000000002C00F2
:10085000000000000000E600E700E4000000015195
:1008600029001E001F002000210022002300240078
:100870002500260027002D002E002A002B00140042
:100880001A000800150017001C0018000C001200C8
:1008900013002F0030003100000F04001600070085
:1008A00009000A000B000D000E000F003300340099
:1008B00000002800E1001D001B00060019000500D3
:1008C0001100100036003700380000000000E5007D
:1008D000E000E300E200000000002C000000000047
:1008E0000000E600E700E400000001513B3B00018E
:1008F00050002222000150002727000150005B5DBC
:10090000000150002829007267626C6967687420D2
:1009100064697361626C65205B454550524F4D5D63
:100920003A207267626C696768745F636F6E6669AC
:10093000672E656E61626C65203D2025750A007228
:1009400067626C6967687420656E61626C65205BC4
:10095000454550524F4D5D3A207267626C69676839
:10096000745F636F6E6669672E656E61626C652089
:100970003D2025750A007267626C6967687420748F
:100980006F67676C65205B454550524F4D5D3A205F
:100990007267626C696768745F636F6E6669672E01
:1009A000656E61626C65203D2025750A00444542F4
:1009B00055473A2064697361626C65642E0A00448D
:1009C000454255473A20656E61626C65642E0A00A7
:1009D0006261636B6C6967687420696E63726561DC
:1009E00073653A2025750A006261636B6C696768FC
:1009F000742064656372656173653A2025750A0029
:100A00006261636B6C696768742064697361626CAE
:100A1000650A006261636B6C6967687420656E616A
:100A2000626C650A006261636B6C6967687420744C
:100A30006F67676C653A2025750A006261636B6CAD
:100A40006967687420737465703A2025750A003FE1
:100A500000433E20000A002530325820006B6579A3
:100A6000626F6172645F7265706F72743A20000A1F
:100A7000002575002E6C6576656C3A20000A00250D
:100A800075002E656E61626C653A20000A002530A3
:100A90003258006261636B6C696768745F636F6E84
:100AA0006669672E7261773A20000A002575002E6C
:100AB0006E6B726F3A20000A002575002E73776105
:100AC000705F6261636B736C6173685F6261636BBB
:100AD00073706163653A20000A002575002E7377F4
:100AE00061705F67726176655F6573633A20000AC3
:100AF000002575002E6E6F5F6775693A20000A0049
:100B00002575002E737761705F72616C745F726718
:100B100075693A20000A002575002E737761705FB1
:100B20006C616C745F6C6775693A20000A0025750A
:100B3000002E636170736C6F636B5F746F5F636FC4
:100B40006E74726F6C3A20000A002575002E737760
:100B500061705F636F6E74726F6C5F636170736CF2
:100B60006F636B3A20000A0025303258006B6579BC
:100B70006D61705F636F6E6669672E7261773A2090
:100B8000000A002575002E6D6F7573653A20000A06
:100B9000002575002E6B6579626F6172643A2000E2
:100BA0000A002575002E6D61747269783A20000A7A
:100BB000002575002E656E61626C653A20000A00A2
:100BC000253032580064656275675F636F6E6669D1
:100BD000672E7261773A20000A0025750064656609
:100BE00061756C745F6C617965723A20000A092D39
:100BF000204D61676963202D0A443A094465627596
:100C000067204D65737361676520546F67676C6516
:100C10000A583A094D6174726978204465627567B3
:100C2000204D6F646520546F67676C65202D2053DD
:100C3000686F77206B65797072657373657320696F
:100C40006E206D617472697820677269640A4B3A2C
:100C5000094B6579626F6172642044656275672033
:100C6000546F67676C65202D2053686F77206B6524
:100C7000797072657373207265706F72740A4D3A81
:100C8000094465627567204D6F75736520546F6701
:100C9000676C650A563A0956657273696F6E0A5336
:100CA0003A095374617475730A433A09416374696C
:100CB0007661746520436F6E736F6C65204D6F6451
:100CC000650A46312D4631303A09537769746368B5
:100CD00020746F204C6179657220302D39202846B0
:100CE0003130203D204C30290A302D393A095377D4
:100CF0006974636820746F204C6179657220302DAF
:100D0000390A47524156453A095377697463682056
:100D1000746F204C6179657220302028616C746595
:100D2000726E617465290A423A094A756D702074C1
:100D30006F20426F6F746C6F616465720A45534334
:100D40003A094A756D7020746F20426F6F746C6F32
:100D5000616465722028616C7465726E61746529C6
:100D60000A453A095072696E7420454550524F4DFC
:100D70002053657474696E67730A4253504143454A
:100D80003A09436C65617220454550524F4D0A0047
:100D90000A092D20436F6E736F6C65202D0A455331
:100DA000432F713A09717569740A004743433A2029
:100DB000372E342E30204156522D4C4942433A2092
:100DC000322E302E30204156525F415243483A2055
:100DD000617672350A004F5054494F4E533A204CB9
:100DE0005546412045585452414B455920434F4E9A
:100DF000534F4C4520434F4D4D414E4420343039E4
:100E0000360A004255494C443A202236323563397D
:100E1000622D646972747922202832313A35313A70
:100E20003539204175672031322032303139290A75
:100E3000005649443A20307846454544283175707B
:100E40006B6579626F6172647329205049443A205E
:100E5000307830303030283175703630687365291D
:100E6000205645523A203078303030310A0044451F
:100E700053433A204120637573746F6D20363025DB
:100E8000206B6579626F6172640A000A092D205631
:100E9000657273696F6E202D0A0074696D65725FEB
:100EA00072656164333228293A202530346C580A3F
:100EB000006B6579626F6172645F69646C653A208A
:100EC00025580A006B6579626F6172645F70726F9A
:100ED000746F636F6C3A2025580A00686F73745FF3
:100EE0006B6579626F6172645F6C65647328293A1F
:100EF0002025580A000A092D205374617475732047
:100F00002D0A003F000A6D6F7573653A206F6666A3
:100F10000A000A6D6F7573653A206F6E0A000A6BDE
:100F20006579626F6172643A206F66660A000A6BC7
:100F30006579626F6172643A206F6E0A000A6D61B2
:100F4000747269783A206F66660A000A6D6174727D
:100F500069783A206F6E0A000A64656275673A2004
:100F60006F66660A000A64656275673A206F6E0AEA
:100F7000000A0A4A756D70696E6720746F20626F8F
:100F80006F746C6F616465722E2E2E2000433E20BC
:100F900000436C656172696E6720454550524F4D44
:100FA0000A006565636F6E6669673A0A004C2564DE
:100FB0000A007267626C696768745F636F6E666966
:100FC000672E7370656564203D2025640A00726792
:100FD000626C696768745F636F6E6669672E7661BD
:100FE0006C203D2025640A007267626C6967687432
:100FF0005F636F6E6669672E736174203D202564A0
:101000000A007267626C696768745F636F6E666915
:10101000672E687565203D2025640A007267686C3C
:10102000696768745F636F6E6669672E6D6F64656C
:10103000203D2025640A007267626C696768745FEE
:10104000636F6E6669672E656E61626C65203D2018
:1010500025640A007267626C696768745F636F6E0B
:1010600066696720454550524F4D3A0A00726762E3
:101070006C696768745F696E6974207267626C6915
:101080006768745F636F6E6669672E6D6F64652055
:101090003D20302E20577269746520646566617545
:1010A0006C742076616C75657320746F20454550B3
:1010B000524F4D2E0A007267626C696768745F69EF
:1010C0006E6974206565636F6E6669672069732059
:1010D0006E6F7420656E61626C65642E0A007267C3
:1010E000626C696768745F696E6974207374617299
:1010F00074210A007267626C696768745F696E695F
:10110000742063616C6C65642E0A007267626C699E
:101110006768742064697361626C65205B4E4F453B
:101120004550524F4D5D3A207267626C6967687432
:101130005F636F6E6669672E656E61626C65203DE8
:101140002025750A000A002530313662003A200059
:1011500025303258000A722F632030313233343553
:10116000363738394142434445460A000A002530A3
:101170003258006B6579626F6172645F7365745F8A
:101180006C65643A20005B735D004B6579626F614A
:1011900072642073746172742E0A005B435D005B9D
:1011A000445D005B535D007267626C696768742020
:1011B000656E61626C65205B4E4F454550524F4DE8
:1011C0005D3A207267626C696768745F636F6E6610
:1011D00069672E656E61626C65203D2025750A0089
:1011E0005B575D005B525D0009025B00030100A0DC
:1011F000FA090400000103010100092111010001A5
:101200002240000705810308000A090401000103C8
:1012100000000009211101000122360007058203A8
:1012200020000A0904020002030000000921110144
:1012300000012222000705830320000107050303A4
:101240002000011201100100000008EDFE00000165
:101250000001020301040330000000120331007595
:101260000070003600300068007300650000001A4E
:10127000033100750070006B006500790062006F3B
:1012800000610072006400730000000403090400A0
:1012900011241FBECFEFDAE0DEBFCDBF04B603FEE0
:1012A00027C080913B0290913C02A0913D02B091F9
:1012B0003E028730904BA740B04BD1F410923B02D6
:1012C00010923C0210923D0210923E0214BE84B76E
:1012D000877F84BF0FB6F894A895809160008861DD
:1012E00080936000109260000FBEE0E0F8E3099583
:1012F00011E0A0E0B1E0E6EBF2E602C005900D924D
:10130000AE32B107D9F722E0AEE2B1E001C01D92E2
:10131000AB33B207E1F70E94162D0C9459310C94AF
:101320000000FF93EF93E0912E01F0912F01309791
:1013300009F00995EF91FF910895FC0185918030A6
:1013400011F0EFDFFBCF0895FF27E0E230E247FF27
:101350000CC0419597FF09C0EDE2609570958095AE
:101360009095611D711D811D911D27FF02C0219562
:1013700030E350E2AA27660F771F881F991FAA1F24
:10138000A41710F0A41B63955A95A9F7AA3008F08A
:10139000A95FA05DAF93F395611571058105910576
:1013A00041F7ED3211F4EF93F395F21718F43F93F0
:1013B000F395FBCF8F91B5DFFA95E1F70895E991A9
:1013C000F9918591803021F0853219F0AADFF9CFAB
:1013D000089520E0E89455915532C1F3503311F44B
:1013E000689455915A3348F4505390F3220F022ECB
:1013F000220F220F200D250FF4CF0EF42195899195
:101400009991533619F3533729F1533559F1BC01EA
:1014100088279927E8945C3621F4899199916894FA
:101420005591543639F446EF7EF077FF0DC08FEFBB
:101430009FEF0AC055374AE039F0583540E121F0B6
:10144000523642E009F00895FF93EF937DDFEF916C
:10145000FF91B7CFFF93EF93FC0181918030B9F3F7
:1014600060DFFBCFFF93EF9368DFF1CFDF93CF9384
:10147000CDB7DEB72596A3DFCF91DF910895E8EDD4
:10148000F0E080818E7F80831092E2001092DA007B
:101490001092E100A0EEB0E08C9181608C9380818D
:1014A0008F77808319BCA7EDB0E08C918E7F8C93F1
:1014B00080818F7E808310921C0208952091E40029
:1014C0003091E50085E69091EC0090FF06C0909188
:1014D000E80090FF06C080E008959091E80092FD3A
:1014E000FACF90913102992391F0953091F090913B
:1014F000EB0095FD10C04091E4005091E5002417E9
:10150000350709F381509A01F1F684E0089582E0ED
:10151000089583E0089581E00895EF92FF920F937C
:101520001F93CF937C018B010E945E0AC82F81110B
:1015300017C08091E80085FD0BC08091E8008E7790
:101540008093E8000E945E0A882399F3C82F08C0A0
:10155000F70181917F018093F1000150110949F752
:101560008C2FCF911F910F91FF90EF900895809154
:10157000330287FF13C08091E80082FF06C080918C
:10158000E8008B778093E80004C0809131028111DC
:10159000F2CF0895809131028823D9F38091E80039
:1015A00080FFF8CF8091E8008E77ECCF982F909352
:1015B000E900242F762F50E0891731F07091EC006C
:1015C0002091ED005091F00021FD07C09F5F973002
:1015D00071F78093E90081E008953091EB003E7F40
:1015E0003093EB003091ED003D7F3093ED00309172
:1015F000EB0031603093EB007093EC002093ED0032
:101600005093F0002091EE0027FDE0CF80E0089598
:10161000CF92DF92EF92FF920F931F93CF93DF93BE
:10162000C8EDD0E088818F7E8883E7EDF0E080818F
:101630008160808384E082BF81E080931C02888186
:101640008E7F888302EE10E0F80110821092DA009B
:1016500081EEC82ED12CF601108288818F77888385
:1016600088818068888388818F7D888319BC1092E7
:101670003102109232021092300210922F0290EE3C
:10168000E92EF12CF70180818B7F80838881816036
:10169000888342E060E080E00E94D60AF601808103
:1016A0008E7F8083F8018081816080838081886063
:1016B0008083F70180818E7F808388818061888329
:1016C000DF91CF911F910F91FF90EF90DF90CF901E
:1016D0000895FC018091390290913A02861797078C
:1016E000A0F06115710529F49091E8009E77909320
:1016F000E80090E06115710551F4911108C08091E6
:10170000E80082FF35C080E00895BC01F2CF8091EF
:1017100031028823C9F18530C9F18091E80083FD49
:1017200031C08091E80082FDEACF8091E80080FF1F
:10173000E1CF2091F3008091F200322F282F611524
:10174000710519F02830310558F091E02830310545
:1017500009F090E02091E8002E772093E800CACFAE
:1017600081918093F100615071092F5F3F4FE7CF66
:1017700080913102882341F0853041F08091E8006A
:1017800083FFBDCF81E0089582E0089583E008954E
:101790000895809126020895CF92DF92EF92FF92F2
:1017A0000F931F932FB7F8944091ED015091EE01E4
:1017B0006091EF017091F0012FBF6A017B01EE246F
:1017C000FF248C0130E020E0C016D106E206F306CB
:1017D00050F0481B590BCA011F910F91FF90EF90D9
:1017E000DF90CF90089541505109F3CF2FB7F8946F
:1017F0008091ED019091EE01A091EF01B091F00187
:101800002FBF0895829590E09C01220F331F220F75
:10181000331F2C7C95958795959587958373282BF9
:1018200030E0C901880F991F8A7A3595279525756B
:10183000822B08958091E80181111092E8010895AA
:10184000E0E3F1E09281891301C01282319691E0C8
:10185000E633F907B9F70895A2E3B1E0EFEF90E0BE
:101860002D91821751F0EF3F19F4211101C0E92F9A
:101870009F5F9630A9F7EF3F09F408950E2E000CF4
:10188000FF0BE05DFE4F828308952EE0929F800D56
:101890001124982F977086958695869525E0829FCE
:1018A000A001112470E060E080E0FA01E60FF71F6C
:1018B000ED54FE4F208130E0092E02C03695279569
:1018C0000A94E2F721703327062E01C0220F0A94F2
:1018D000EAF7822B6F5F7F4F6530710531F708950E
:1018E0002EE0929F800D1124982F977071E001C017
:1018F000770F9A95EAF786958695869525E0829FDB
:10190000C001112450E040E0A62FB0E0FC01E40F3C
:10191000F51FED54FE4F60819D01042E02C03695E7
:1019200027950A94E2F72170219526272723262759
:1019300020834F5F5F4F4530510541F708958091F7
:10194000B20190918101981301C008958F5F877053
:10195000FACF2091690130916A012817390771F097
:1019600090936A0180936901E0910202F091030271
:10197000309721F00084F185E02D0994089520919D
:101980006701309168012817390771F09093680159
:1019900080936701E0910202F0910302309721F0F9
:1019A0000680F781E02D09940895E0910202F091FC
:1019B0000302309721F00190F081E02D099480E03E
:1019C000089580911E02982F9E7F39F480911E0207
:1019D0008170826080931E0208958430B8F7089564
:1019E0009091FF0192FF06C0282F2871283069F4DA
:1019F000877F846093FF06C0282F2871283161F407
:101A0000877E846194FD877E0895282F2471243079
:101A100089F78B7F8860EECF282F2471243191F7CE
:101A20008B7E8861EFCFCF93DF93972F70E02EE00E
:101A3000929F600D711D1124FB0146E4849FE00D0F
:101A4000F11D1124EE0FFF1FE85EFA4FC591D491EE
:101A5000CE01C238D105A9F1E8F5C133D10509F4A9
:101A600081C040F5C932D10509F475C0CA32D1052B
:101A700009F47FC0C11551E5D50708F0B1C0C11503
:101A800020E5D20708F0E4C1C83ED10508F08AC0BD
:101A9000C13ED105E0F4C83AD10508F071C0C53A9D
:101AA000D10508F02EC1C130D10589F028F1249765
:101AB00070F422C0C533D10509F446C0C933D1053D
:101AC000C9F62091FF01237011F080EE90E0DF91C4
:101AD000CF910895C33ED10539F188F4C03ED105B8
:101AE000E1F0C23ED10531F62091FF0122FFEFCF98
:101AF00083EE90E024FFEBCF90E080E0E8CFC63E9D
:101B0000D105C9F0C73ED10509F0B4CF2091FF013E
:101B100023FF0EC086EE90E0DACF2091FF0120FF78
:101B2000D6CF89E390E0D3CF2091FF0122FDDBC126
:101B300024FDE2CFCCCF2091FF0123FFC8CF87EE59
:101B400090E024FDD9CFC3CF2091FF0125FFBFCF67
:101B500089E290E0BCCF2091FF0125FFB8CF85E35B
:101B600090E0B5CF2091FF0126FFB1CF8AE290E04F
:101B7000AECF2091FF0126FFAACF81E390E0A7CF4F
:101B8000CF3BD10508F4CCC0FE01E05CF109E032A6
:101B9000F10508F0B1CFEE0FFF1FEC53FD4F85911B
:101BA000949195CFC11540E3D40788F4C11550E254
:101BB000D50708F042C1C03FD10508F49DCFCF3F03
:101BC000D10511F008F083CFCE01906580CFC1150B
:101BD00080E4D80708F434C1CE019F70906A77CFB3
:101BE000C11599E5D907E0F5C11528E5D20708F038
:101BF0006CC1C11544E5D407F8F4C11553E5D50708
:101C000008F049C1C11582E5D80708F43FC19E011B
:101C10002370332741E050E002C0440F551F2A953E
:101C2000E2F78C2F8695869520E2829FC0011124D1
:101C3000842B952B9C684BCFC11595E5D90708F4EB
:101C40003FC1C11526E5D20708F056CF8C2F0E9460
:101C5000F00C90E0982F882788279F71906237CFEB
:101C600080E091EDCE3B4CE5D40709F430CF08F588
:101C7000CC3B8CE5D80709F42DC108F02EC1C11565
:101C80002AE5D20708F038CF8C2F8F700E94F00C15
:101C90009E0194E0369527959A95E1F72F7030E0F4
:101CA000322F2227306A8F70806EA901482BCA011B
:101CB0000ECF80E093EDC13C4CE5D40709F407CF8B
:101CC00060F4CF3B8CE5D80709F40AC1C03CDC4581
:101CD00009F012CF80E092EDFACECE019056811538
:101CE000904208F009CF8D2F8F710E94F00C482F81
:101CF00050E0542F442744275F71CE01992790620A
:101D0000C2C081E890E4C53AD10509F4E0CE83E889
:101D100090E4C63AD10509F0DACE82E890E4D7CE55
:101D200082EE94E4C83AD10509F4D1CE89EE94E468
:101D3000C93AD10509F4CBCE8AEE94E4CA3AD1056A
:101D400009F4C5CE85EB94E4CB3AD10509F4BFCEB6
:101D500086EB94E4CC3AD10509F4B9CE83EB94E454
:101D6000CB3BD10509F4B3CE84EB94E4CC3BD10555
:101D700009F4ADCE87EB94E4CD3AD10509F4A7CEB2
:101D80008CEC94E4C03BD10509F4A1CE8DEC94E435
:101D9000CE3AD10509F49BCE83E895E4CF3AD1053C
:101DA00009F495CE8AE895E4C13BD10509F48FCEBC
:101DB00082E995E4C23BD10509F489CE84E995E432
:101DC000C33BD10509F483CE81E296E4C43BD1053F
:101DD00009F47DCE83E296E4C53BD10509F477CEC4
:101DE00084E296E4C63BD10509F471CE85E296E41F
:101DF000C73BD10509F46BCE86E296E4C83BD1051A
:101E000009F465CE87E296E4C93BD10509F45FCEBB
:101E10008FE694E4CD3BD10509F459CE80E794E4F4
:101E2000CE3BD10509F453CE8AE296E4CA3BD105F4
:101E300009F44DCE80E094E44ACEFE01FF70ABCEB3
:101E4000CE019927D3FF02C0986C41CE906C3FCE53
:101E50009E01F4E036952795FA95E1F723703C2F23
:101E6000337081E090E002C0880F991F3A95E2F745
:101E70009C68AC01522B8C2F86958695837020E24E
:101E8000829FC0011124842B952B21CE9C2F882763
:101E9000816F906A1CCE9E012370332741E050E091
:101EA00002C0440F551F2A95E2F78C2F8695869520
:101EB00020E2829FC0011124842B952B9A6807CEC3
:101EC0009C2F8827846F906A02CE9C2F8827806F72
:101ED000906AFDCD80E094EDFACD80E095EDF7CDF0
:101EE00080E090EDF4CD82EE90E0F1CDBF92CF9204
:101EF000DF92EF92FF920F931F93CF93DF938C01AA
:101F0000C090E001D090E101E090E201F090E301A7
:101F10008091E9019091EA01A091EB01B091EC016F
:101F2000C82AD92AEA2AFB2ACFE1D0E0BC2ED70161
:101F3000C6010C2E04C0B695A795979587950A946F
:101F4000D2F780FD0EC0219788F7B12C8B2DDF9141
:101F5000CF911F910F91FF90EF90DF90CF90BF90A6
:101F60000895B8018C2F0E94130D019761F3EECFF5
:101F7000CF93DF93EC010E94760FBE01DF91CF91EA
:101F80000C94130D0E94B80F292F2F70E92FE295A2
:101F9000EF70E250EE30E0F4F0E0EF52F04F0C94CE
:101FA000F130DF0FDF0FE80FE80FEA0FE80FE80F5F
:101FB000E80FDF0FDF0FEF0FE80FE80FEF0F803FA5
:101FC00019F020F4803E20F481E00895843FE1F38D
:101FD00080E00895803EC0F3813FD1F7F5CF822F96
:101FE0008695869586950895CF92DF92EF92FF921F
:101FF000863028F5811124C090918000977F9093BE
:102000008000282F30E0AFEFBFEF0E94F73025E0CF
:1020100030E040E050E00E94CF30C9012C3764E14D
:10202000360790F469E070E00E94BB3070938D0039
:1020300060938C00FF90EF90DF90CF90089585E043
:10204000909180009860DBCF2A50374D4F4F5F4F03
:10205000942F832F722F662725EF38E241E050E05E
:102060000E94CF3069017A01CA01B9010E949F30F4
:102070009B01AC01C701B6010E949F30672F782FEA
:10208000892F99276115710521E08207910571F665
:102090006FEF7FEFCBCF0F931F93CF93DF938091A1
:1020A000E7019091E601892B9091E501892B8093BE
:1020B00030019091E801992369F0892B80933001D8
:1020C000E2E3F1E097E080E0915009F03FC0811138
:1020D0000E941A0CE0910202F09103023097E1F1A4
:1020E0000280F381E02D80E391E0099580911D024B
:1020F00082FF32C080FF04C08DE59AE00E949D09F6
:10210000D0E0C0E007E51AE080911D0280FF0EC01C
:10211000FE01E05DFE4F80811F928F931F930F930E
:102120000E94360A0F900F900F900F902196C830A2
:10213000D10551F780911D0280FF0EC085E59AE020
:10214000DF91CF911F910F910C949D092191222332
:1021500009F4BACF8F5FB8CFDF91CF911F910F9164
:1021600008951092E6011092E5010E944B1090E054
:1021700080E00E94BF0C90E080E00C94A90C60937A
:10218000E0017093E1018093E2019093E3010C94EC
:10219000B1100F931F9341E050E060E070E004C085
:1021A000440F551F661F771F8A95D2F7CB01BA01DE
:1021B00060957095809590950091E0011091E101F6
:1021C0002091E2013091E301602371238223932364
:1021D0001F910F910C94BF109091E4018095892379
:1021E0008093E401282F277071F4282F082E000C0B
:1021F000330B9217130639F08595859585950E94C6
:10220000C9101092E40108950F931F9341E050E02C
:1022100060E070E004C0440F551F661F771F8A9569
:10222000D2F78091E0019091E101A091E201B0919B
:10223000E3018A019B01082B192B2A2B3B2BC90197
:10224000B8011F910F910C94BF106093E901709336
:10225000EA018093EB019093EC010C94B110882378
:1022600041F080959091E70189238093E7010C94D8
:102270004B100895882339F09091E701892B8093C2
:10228000E7010C944B100895882309F452C082385A
:1022900071F40E94D50C81FF4CC089E30E942C0C84
:1022A0000E944B1089E30E94200C0C944B10833841
:1022B00059F40E94D50C80FF3CC083E50E942C0C91
:1022C0000E944B1083E5EFCF843859F40E94D50C5F
:1022D00082FF2FC087E40E942C0C0E944B1087E4E1
:1022E000E2CF9CEF980F913AF0F290E2980F98307D
:1022F00088F4877021E030E0A90102C0440F551F27
:102300008A95E2F7CA0180959091E701892380932D
:10231000E701CBCF9BE5980F933020F490E080E06D
:102320000C94BF0C885A873120F490E080E00C9424
:10233000A90C08959FB7F89410921A029FBF90912C
:102340003102943009F049C02091E9002F7090913A
:10235000EC0090FD30C090E0922B23E02093E90048
:102360002091EB0020FF36C02091EE0027FF32C005
:102370002091F401222321F02091E80025FF2AC0BA
:102380001092F40126E03091E80035FF16C08093EA
:10239000F1008091E80085FD29C08091E80080FF70
:1023A000FCCF8091E8008E778093E8009F70909337
:1023B000E90080E0089590E8CFCF309131023430C9
:1023C00049F43091EB0035FD05C0215041F481E026
:1023D0008093F4019F709093E9008FEF0895EFE9E7
:1023E000FFE03197F1F700C00000CDCF8FB7F89430
:1023F00021E020931A028FBFD9CFCF93DF9300D073
:102400001F92CDB7DEB79C019091F301911129C0C5
:1024100080913102843049F584E089833B832A83AB
:1024200082E08093E9008FEF9091E800815095FD64
:1024300006C095ED9A95F1F700008111F5CF8091D6
:10244000E80085FF12C050E040E063E070E0CE019C
:1024500001960E948D0A8091E8008E778093E800B3
:1024600004C09230C9F29430B9F20F900F900F90DF
:10247000DF91CF910895CF93DF9300D01F92CDB716
:10248000DEB720913102243031F523E029838058D2
:1024900091099B838A8382E08093E9008FEF90917A
:1024A000E800815095FD06C095ED9A95F1F7000082
:1024B0008111F5CF8091E80085FF0DC050E040E02C
:1024C00063E070E0CE0101960E948D0A8091E800E1
:1024D0008E778093E8000F900F900F90DF91CF914F
:1024E0000895CF93DF93EC018091F301811107C030
:1024F00080913102843029F0DF91CF9108958230AC
:10250000C9F781E08093E9008FEF9091E800815056
:1025100095FD06C095ED9A95F1F700008111F5CF74
:102520008091E80085FFE8CF50E040E068E070E08F
:10253000CE010E948D0A8091E8008E778093E8009A
:1025400088E0FE01A7E2B2E001900D928A95E1F7E2
:10255000D3CF81E08093E00080E28093D800109296
:10256000C9008FE19EE40197F1F700C0000087E009
:1025700090EBDC0180933B0290933C02A0933D02E0
:10258000B0933E0288E19CE00FB6F894A895809342
:1025900060000FBE90936000FFCF80911E0280FD0F
:1025A0000AC0EBE3F1E0118210821282339631E02F
:1025B000E536F307C1F7809A81B38E7F91B39160BE
:1025C0002FB7F894EBE3F1E031E0E536F30741F49F
:1025D0002FBF87EC90E00197F1F700C0000008954D
:1025E000319148E091BB000000C037FF81BB330F41
:1025F000000000C000C000C081BB00C04A9591F738
:10260000E3CF982F990F990F990F8091F20187705E
:10261000892B8093F201887F91E009F490E060912A
:10262000F20190FB60F96093F20186E090E00E9475
:1026300025318091F2018695869586950C94F40F4C
:1026400090E080E00E941F3121E08D3E9E4F09F016
:1026500020E0822F0895CF92DF92EF92FF926B01DC
:102660007C010E94E10CB701A60188E090E0FF9098
:10267000EF90DF90CF900C9437319F92AF92BF9242
:10268000CF92DF92EF92FF920F931F93CF93DF933E
:10269000182FD62FC42F022FB0901E02B0FE51C0AB
:1026A0008B2D8E7F8230E1F4E42FF0E0611155C074
:1026B000E453FC4F8491E82F982FB0FE11C0ABE398
:1026C000B1E025E631E011969C9311978C93129618
:1026D000EC93129713962A173B07A9F70E94CD1285
:1026E00010931F02D0932002C0932102002309F40B
:1026F000B0C060911E0270911F02809120029091E3
:1027000021020E942B1380911D0280FF1AC080912C
:1027100021021F928F93809120021F928F938091AC
:102720001F021F928F9383EF94E09F938F930E94D9
:10273000360A8DB79EB708960FB6F8949EBF0FBEA7
:102740008DBFDF91CF911F910F91FF90EF90DF90A0
:10275000CF90BF90AF909F900895E62EF12C26E089
:10276000129FC00111242FEF30E0B9010E94BB304D
:10277000812F90E0880F991FA5E5A69FA001A79F34
:10278000500D1124841B950BD82EDD0CD80EA901F9
:102790004E195F094E9FC0014F9F900D5E9F900D97
:1027A0001124A92EDD9DA0011124452F5527D90103
:1027B000A41BB50BAE9FA001AF9F500DBE9F500D47
:1027C0001124952ED901AD19B1096D01CE9CD0010E
:1027D000CF9CB00DDE9CB00D1124AB2FBB272A1B64
:1027E0003B0B2E9FD0012F9FB00D3E9FB00D1124AB
:1027F0002B2F6230710599F048F46115710569F06D
:102800006130710571F0292FA52E07C06430710564
:10281000E9F048F066307105B1F79C2E07C0992E9B
:10282000AB2E2C2F03C0252F992EAC2EE92DF0E0D6
:10283000E453FC4F9491E22FF0E0E453FC4F849179
:10284000EA2DF0E0E453FC4FE49137CF9B2E292F83
:10285000ECCF80911D0280FF74CF1F92CF931F9207
:10286000DF931F921F938CEC94E09F938F930E94B1
:10287000360AADB7BEB718960FB6F894BEBF0FBEF6
:10288000ADBF5FCF80911E0280FF36C08170826035
:1028900080931E02662331F160911E0270911F0227
:1028A00080912002909121020E942B1380911D02A1
:1028B00080FF0FC080911E0286951F928F9380EB40
:1028C00093E09F938F930E94360A0F900F900F9082
:1028D0000F9020E0409121026091200280911F0220
:1028E0000C943D1380911D0280FFF3CF1F9281E075
:1028F0008F9382E993E0E5CF089580911E0286953B
:10290000815009F481E061E00C94421461E081E0BF
:102910000C944214EEE1F2E083E0808311828FEFA9
:1029200082838383148260817181828193810C947C
:102930002B136DEE7EEF90E080E00E94433160E06B
:1029400082E090E00E94253160E083E090E00E9408
:1029500025311092E9011092EA011092EB011092D8
:10296000EC0160E084E090E00E94253160E085E0C9
:1029700090E00E94253160E086E090E00E942531E1
:102980006FEF87E090E00E94253140E050E0BA010F
:1029900088E090E00E94373160E08DE090E00E9496
:1029A000253140E050E0BA0188E190E00E943731E3
:1029B00060E087E190E00E94253140E050E0BA01FC
:1029C0008CE190E00E94373160E080E290E00E946C
:1029D000253140E050E0BA018FE090E00E943731AD
:1029E00040E050E0BA0183E190E00C9437310E945E
:1029F0002013811102C00E94991486E090E00E9489
:102A000011318093F201803320F0877088628093C7
:102A1000F2018091F20180FF05C08695869586952A
:102A20000C94F40F80E0FCCF1092E701E2E3F1E0B8
:102A300086E0DF011D928A95E9F70C94B1101F938F
:102A4000CF93DF93CDB7DEB7AA970FB6F894DEBF6A
:102A50000FBECDBFE3E3F2E08091F100819382E00D
:102A6000EB33F807C9F780913402833009F47CC056
:102A700008F5813009F453C0823009F4BDC080915B
:102A8000E80083FFF7C080913302909134029A30BE
:102A900008F0F0C0E92FF0E0E05BFA4E0C94F13062
:102AA0000D1633163A1633163A169116B3163A1611
:102AB000BD17CA178A3009F48EC08B3009F471C073
:102AC0008930E9F6809133028132C9F6809137026C
:102AD00090913802029798F68091E800877F809362
:102AE000E8008091E80082FF3AC08091F300909165
:102AF000F200892798278927029729F48091F1000D
:102B00008B7F813021F48091F100809326028091A7
:102B1000E8008B778093E8000E94B70AB0CF8091DD
:102B20003302813A09F0ABCF8091E800877F809330
:102B3000E8008091370290913802892B61F060E0C3
:102B400090E080E070E00E94690B8091E8008B7754
:102B50008093E80094CF68E087E292E0F3CF809121
:102B600031028111BECF8BCF80913302813A09F0BF
:102B700086CF8091370290913802892B09F07FCF60
:102B80008091E800877F8093E8008091E80080FFD3
:102B9000FCCF80910A018093F1008091E8008E774C
:102BA000B9CF80913302813209F069CF8091370229
:102BB00090913802892B09F062CF8091E800877FDD
:102BC0008093E8000E94B70A8091350280930A0141
:102BD0000E94141554CF80913302813209F04FCFF7
:102BE0008091E800877F8093E8000E94B70A809177
:102BF00036028093250243CF80913302813A09F057
:102C00003ECF8091E800877F8093E8008091E800C4
:102C100080FFFCCF80912502BECF803889F08238BA
:102C200049F5809137028F70873020F58093E90055
:102C30008091EB0085FB882780F91092E90006C09F
:102C400080912F0290913002911182609091E80062
:102C5000977F9093E8008093F1001092F1008091AB
:102C6000E8008E772DC0282F2D7F21F48823D1F006
:102C7000823059F18091E80083FF0AC08091E8001A
:102C8000877F8093E8008091EB0080628093EB0067
:102C9000AA960FB6F894DEBF0FBECDBFDF91CF91DD
:102CA0001F91089580913502813021F7933009F00A
:102CB00080E0809330021092E9008091E800877FE5
:102CC0008093E8000E94B70AD5CF80913502811128
:102CD000F2CF809137028F702FEF280F263050F6F9
:102CE0008093E9002091EB0020FFE5CF933031F491
:102CF0008091EB0080628093EB00DDCF9091EB0040
:102D000090619093EB0021E030E001C0220F8A95A2
:102D1000EAF72093EA001092EA008091EB008860C5
:102D2000EACF8111A7CF109135021F778091E30080
:102D30008078812B8093E3008091E800877F8093E7
:102D4000E8000E94B70A8091E80080FFFCCF8091E4
:102D5000E30080688093E30083E0111101C082E00A
:102D60008093310287CF8058823008F083CF209142
:102D70003502309136022C3DA3E03A07A1F583E0FD
:102D80008A838AE289834FB7F894DE01139620E0A4
:102D90003EE051E2E32FF0E050935700E49120FF32
:102DA00003C0E295EF703F5FEF708E2F90E0EA3046
:102DB000C0F0C7968D939D932F5F243159F74FBF75
:102DC0008091E800877F8093E8006AE270E0CE019E
:102DD00001960E94690B8091E8008B778093E80050
:102DE00049CFC096E7CF8091370290913802432FA8
:102DF00055274330510509F44FC078F5413051054E
:102E000009F445C08BE590E0E8EEF1E14230510570
:102E100009F030CF2091E800277F2093E80020912F
:102E2000390230913A028217930708F49C0140E07E
:102E30002115310509F06EC041116CC08091E80088
:102E400082FDC9CF80913102882329F2853019F2A1
:102E50008091E80083FFF2CFBECF4132510509F4E3
:102E60004AC04232510509F005CF8330910508F080
:102E700001CFFC01EE0FFF1FEF5DFE4F0190F081CF
:102E8000E02D825E9E4FDC018C9190E020C082E1BB
:102E900090E0E3E4F2E1BECF332721303105D9F0F1
:102EA00078F022303105F9F02330310509F0E2CE17
:102EB000E5E5F2E1E4918E2F90E0E5E5F2E107C06F
:102EC000EBE8F2E1E4918E2F90E0EBE8F2E100977D
:102ED00009F4D0CE9FCFEFE6F2E1E4918E2F90E09F
:102EE000EFE6F2E1F4CFEBE5F2E1E4918E2F90E032
:102EF000EBE5F2E1ECCF8330910508F0BBCE880F13
:102F0000991FFC01E95DFE4F0190F081E02D89E001
:102F100090E080CF80913102882309F45CCF853026
:102F200009F459CF8091E80083FD55CF8091E800E6
:102F300082FD84CF8091E80080FF7ACF8091F300FA
:102F40009091F2008927982789272115310519F0DA
:102F50008830910550F041E0089709F040E08091F9
:102F6000E8008E778093E80063CF44914093F100AE
:102F70003196215031090196E8CF803809F07ACE98
:102F80008091E800877F8093E800809132028093EF
:102F9000F10065CE81116ECE10913502123008F02D
:102FA00069CE8091E800877F8093E8001093320219
:102FB0000E94B70A112399F084E08093310242E025
:102FC00061EC81E00E94D60A42E261EC82E00E945C
:102FD000D60A42E261EC83E00E94D60A4BCE809191
:102FE000E30087FDE9CF81E0E8CFCF93C82F1F92A0
:102FF0008F938DEA9FE09F938F930E94360A61E042
:1030000070E080E090E004C0660F771F881F991F72
:10301000CA95D2F70E9425110F900F900F900F9034
:10302000CF910C941415CF938B3109F429C208F079
:10303000C0C18B3009F4E6C108F08AC1863009F4BA
:10304000F4C148F4853009F4C2C183E09FE00E94D6
:103050009D0980E0FBC1873009F4FAC18830A9F7E7
:1030600082EA9FE00E949D098DED9BE00E949D09F0
:1030700083E090E00E9411311F928F938AED9BE0D4
:103080009F938F930E94360A88ED9BE00E949D09D2
:1030900082E090E00E941131C82F85EC9BE00E94F5
:1030A0009D091F92CF9380EC9BE09F938F930E948A
:1030B000360A8EEB9BE00E949D0984EB9BE00E9408
:1030C0009D098C2F81701F928F9381EB9BE09F93C2
:1030D0008F930E94360A8FEA9BE00E949D0985EA41
:1030E0009BE00E949D09C1FB882780F91F928F9366
:1030F00082EA9BE09F938F930E94360A80EA9BE0CE
:103100000E949D0984E99BE00E949D09C2FB8827DB
:1031100080F91F928F9381E99BE09F938F930E9488
:10312000360A8FE89BE00E949D0986E89BE00E949A
:103130009D09C3FBCC27C0F91F92CF9383E89BE086
:103140009F938F930E94360A81E89BE00E949D091D
:1031500084E090E00E941131C82F8DE69BE00E9430
:103160009D091F92CF9388E69BE09F938F930E94C7
:10317000360A86E69BE00E949D098DE49BE00E9452
:103180009D098C2F81701F928F938AE49BE09F93FF
:103190008F930E94360A8DB79EB780960FB6F8942B
:1031A0009EBF0FBE8DBF88E49BE00E949D0981E316
:1031B0009BE00E949D09C1FB882780F91F928F9395
:1031C0008EE29BE09F938F930E94360A8CE29BE0F5
:1031D0000E949D098AE19BE00E949D09C2FB88270D
:1031E00080F91F928F9387E19BE09F938F930E94BA
:1031F000360A85E19BE00E949D0983E09BE00E94E6
:103200009D09C3FB882780F91F928F9380E09BE084
:103210009F938F930E94360A8EEF9AE00E949D0939
:1032200084EF9AE00E949D09C4FB882780F91F92D1
:103230008F9381EF9AE09F938F930E94360A8FEECF
:103240009AE00E949D098DED9AE00E949D09C5FBC0
:10325000882780F91F928F938AED9AE09F938F932E
:103260000E94360A88ED9AE00E949D098CEB9AE054
:103270000E949D09C6FB882780F91F928F9389EBD6
:103280009AE09F938F930E94360A87EB9AE00E9400
:103290009D098FEA9AE00E949D09C7FBCC27C0F9DF
:1032A0001F92CF938CEA9AE09F938F930E94360AE5
:1032B0008AEA9AE00E949D0986E090E00E9411311E
:1032C000C82F83E99AE00E949D091F92CF938EE850
:1032D0009AE09F938F930E94360A8DB79EB780968F
:1032E0000FB6F8949EBF0FBE8DBF8CE89AE00E9487
:1032F0009D0982E89AE00E949D098C2F81701F929F
:103300008F938FE79AE09F938F930E94360A8DE701
:103310009AE00E949D0984E79AE00E949D09C69563
:10332000C695C6951F92CF9381E79AE09F938F939E
:103330000E94360A8FE69AE00E949D098DB79EB7DB
:1033400008960FB6F8949EBF0FBE8DBF81E07EC079
:10335000803109F4ADC080F48E3009F076CE9091C2
:103360001D02892F8B7F92FF846080931D0282FF54
:103370009CC08EE29FE090C0863109F4A9C08931DB
:1033800009F063CE8BE89EE00E949D098EE69EE0E8
:103390000E949D0981E39EE00E949D0983E09EE0DA
:1033A0000E949D0986ED9DE00E949D098BEA9DE0AB
:1033B0002BC08A3299F1E0F4873261F128F48E3122
:1033C00008F443CE8D5127C0893209F03ECE0E94C9
:1033D000141581E79FE00E949D099FEF23ED80E394
:1033E000915020408040E1F700C000000E94A912E7
:1033F000833468F48A3308F0ABC0853359F08833DE
:1034000009F023CE8DEE9BE00E949D099FCF83346F
:1034100009F01BCE80E00E94F51798CF81E99FE06C
:103420000E949D090E94991491CF80911D02817F75
:103430008E7F80931D0280E99DE00E949D098DE8AA
:103440009FE00E949D0981E08093F101CF91089552
:1034500090911D02892F8E7F90FF816080931D02C5
:1034600080FF03C085E69FE0CFCF88E59FE00E9404
:103470009D0980911D02897F877F80931D0266CF01
:1034800090911D02892F8D7F91FF826080931D0294
:1034900081FF08C08BE49FE00E949D0980911D027E
:1034A0008160EBCF8DE39FE0AFCF8EE19FE0ACCFAB
:1034B00090911D02892F877F93FF886080931D0262
:1034C00083FF03C082E19FE0E7CF85E09FE09CCFD0
:1034D00085EF9EE00E949D090E94D50C1F928F935C
:1034E0008BED9EE09F938F930E94360A80910A0194
:1034F0001F928F9384EC9EE09F938F930E94360AD5
:10350000809125021F928F9381EB9EE09F938F9372
:103510000E94360A2FB7F8948091ED019091EE0148
:10352000A091EF01B091F0012FBFBF93AF939F9394
:103530008F938AE99EE09F938F930E94360A8DB7FE
:103540009EB742960FB6F8949EBF0FBE8DBFFECEBB
:10355000895361CFCF93C82F882309F45FC0823885
:10356000C1F40E94D50C81FD59C089E30E942C0C46
:103570000E944B102FEF81EE94E02150804090404C
:10358000E1F700C0000089E30E94200CCF910C9469
:103590004B108338A1F40E94D50C80FD3FC083E519
:1035A0000E942C0C0E944B102FEF81EE94E02150D2
:1035B00080409040E1F700C0000083E5E5CF84380B
:1035C000A1F40E94D50C82FD29C087E40E942C0C36
:1035D0000E944B102FEF81EE94E0215080409040EC
:1035E000E1F700C0000087E4CFCF8CEF8C0F813A69
:1035F000C0F58091F101882341F0813089F010926B
:10360000F1018C2F0E942C0CC1CF8091E7018232F6
:10361000C1F78C2F0E941318882399F3CF91089536
:103620008091E7018232A9F3C431B9F038F4CB308C
:1036300049F08FE49AE00E949D0911C0C93269F0F7
:10364000C833B9F780E99DE00E949D0981E59AE0C1
:103650000E949D0981E08170DFCF1092F10180E02E
:10366000FACF80E28C0F883068F4C77021E030E038
:1036700001C0220FCA95EAF78091E701822B80935F
:10368000E70184CF8BE58C0F833068F481E890E00C
:10369000C53A31F083E890E0C63A11F482E890E050
:1036A000CF910C94BF0C88E58C0F873108F0B6CF12
:1036B00082EE90E0C83A09F460C089EE90E0C93A21
:1036C00009F45BC08AEE90E0CA3A09F456C085EB73
:1036D00090E0CB3A09F451C086EB90E0CC3A09F483
:1036E0004CC083EB90E0CB3B09F447C084EB90E007
:1036F000CC3B09F442C087EB90E0CD3AF1F18CEC81
:1037000090E0C03BD1F18DEC90E0CE3AB1F183E88E
:1037100091E0CF3A91F18AE891E0C13B71F182E901
:1037200091E0C23B51F184E991E0C33B31F181E288
:1037300092E0C43B11F183E292E0C53BF1F084E2F8
:1037400092E0C63BD1F085E292E0C73BB1F086E261
:1037500092E0C83B91F087E292E0C93B71F08FE6BE
:1037600090E0CD3B51F080E790E0CE3B31F090E02F
:1037700080E0CA3B11F48AE292E0CF910C94A90C4C
:10378000CF93C82F0E94AA1AC93349F42FEF87EEAE
:1037900093E0215080409040E1F700C000008C2F62
:1037A000CF910C9444110F931F93CF93DF93C62FA7
:1037B000D42F022FFC0182818823A1F0609379012C
:1037C0000E94F60B9093660180936501C77081E0BB
:1037D00001C0880FCA95EAF7DF91CF911F910F9131
:1037E0000C943A1110917901161335C0809165013E
:1037F000909166010E94CC0B883C910560F5C0E277
:10380000CD0F1D17B9F080E2810F883040F417709A
:1038100081E001C0880F1A95EAF70E942F11C83085
:1038200008F581E09D2F977001C0880F9A95EAF7FF
:103830000E943A11802F0E94C01BC830D0F4D7706C
:1038400081E001C0880FDA95EAF7DF91CF911F91EF
:103850000F910C942F11C77081E001C0880FCA9599
:10386000EAF7F3CF802FDF91CF911F910F910C9446
:10387000C01BDF91CF911F910F910895FF920F937D
:103880001F93CF93DF938C01F8012491222309F435
:1038900042C0E8012196213049F4FE011491812FA4
:1038A0000E94AA1A812F0E94441106C0223041F4BE
:1038B000FE0184910E94AA1A8E010F5F1F4FE4CF70
:1038C000233019F4FE018491EECF30E0F901EC5B76
:1038D000FD4FF490F901EC53FE4FD491F901EC5BEC
:1038E000FE4FC491DD2319F081EE0E94AA1ACC2369
:1038F00019F086EE0E94AA1A8F2D0E94C01BCC23BD
:1039000019F086EE0E944411DD2319F081EE0E9429
:103910004411E801D1CFDF91CF911F910F91FF901A
:1039200008957F928F929F92AF92BF92CF92DF9233
:10393000EF92FF920F931F93CF93DF93A5EFB1E028
:103940004BE051E0712CEE24E394F12CAD90BC904F
:10395000119711961C921E92EA018991AE01E82FEF
:10396000E295EF70F0E091A18F70B70101C0660F92
:103970008A95EAF7892F862B81A382A1962E9094AF
:10398000892182A3D0EADA95F1F780E1C82E81E09F
:10399000D82E30E020E0E60189906E01082D0295D6
:1039A0000F7010E0E80188A10D911C91119790E033
:1039B000D82DDF7002C095958795DA95E2F780FDE6
:1039C0000DC3C701022E02C0880F991F0A94E2F7A7
:1039D000082B192B11961C930E932F5F3F4F2E30FF
:1039E0003105C9F681A1892181A382A1682B62A337
:1039F00081E02D913C9111972A153B0509F480E057
:103A0000782A1296D1E040315D0709F09FCF7720E8
:103A100049F081E080933A010E94F60B90933901BE
:103A20008093380180913A01882391F18091380187
:103A3000909139010E94CC0B069750F18091F501CD
:103A40009091F60190930602809305028091F70110
:103A50009091F80190930802809307028091F901F8
:103A60009091FA0190930A02809309028091FB01E0
:103A70009091FC0190930C0280930B028091FD01C8
:103A80009091FE0190930E0280930D0210923A01E4
:103A900080917801882309F492C2809176019091F7
:103AA00077010E94CC0B8935924008F488C21092AD
:103AB000780180916B0190916C010597E1F4809100
:103AC0006D0190916E010697B1F480916F01909114
:103AD0007001892B81F48091710190917201892B81
:103AE00051F48091730190917401892B21F48AE83B
:103AF00093E00E943E1C80916B0190916C010597B0
:103B0000E1F480916D0190916E014797B1F480913D
:103B10006F01909170014A9781F4809171019091A9
:103B20007201892B51F48091730190917401892B5A
:103B300021F48FE793E00E943E1C80916B019091ED
:103B40006C010597E1F480916D0190916E014597AC
:103B5000B1F480916F0190917001059781F480918B
:103B6000710190917201892B51F4809173019091B0
:103B70007401892B21F481E793E00E943E1C80911F
:103B80006B0190916C010597E1F480916D0190912A
:103B90006E014A97B1F480916F0190917001892B69
:103BA00081F48091710190917201892B51F480917F
:103BB000730190917401892B21F489E693E00E94AE
:103BC0003E1C80916B0190916C010797E1F480910C
:103BD0006D0190916E014197B1F480916F019091C8
:103BE0007001892B81F48091710190917201892B70
:103BF00051F48091730190917401892B21F482E634
:103C000093E00E943E1C80916B0190916C010A9799
:103C1000E1F480916D0190916E014197B1F4809132
:103C20006F0190917001892B81F4809171019091C5
:103C30007201892B51F48091730190917401892B49
:103C400021F488E593E00E943E1C80916B019091E5
:103C50006C010C97E1F480916D0190916E010797D2
:103C6000B1F480916F0190917001479781F4809138
:103C7000710190917201892B51F48091730190919F
:103C80007401892B21F48BE493E00E943E1C809107
:103C90006B0190916C010C97E1F480916D01909112
:103CA0006E010797B1F480916F0190917001479771
:103CB00081F48091710190917201469751F4809145
:103CC000730190917401892B21F48BE393E00E949E
:103CD0003E1C80916B0190916C010C97E1F48091F6
:103CE0006D0190916E010F97B1F480916F019091E9
:103CF00070014C9781F48091710190917201892B30
:103D000051F48091730190917401892B21F480E327
:103D100093E00E943E1C80916B0190916C010C9786
:103D2000E1F480916D0190916E010F97B1F4809153
:103D30006F01909170014C9781F480917101909185
:103D40007201479751F48091730190917401892B0E
:103D500021F481E293E00E943E1C80916B019091DE
:103D60006C010C97E1F480916D0190916E01419787
:103D7000B1F480916F0190917001099781F4809165
:103D8000710190917201429751F480917301909169
:103D90007401892B21F485E193E00E943E1C8091FF
:103DA0006B0190916C010D97E1F480916D01909100
:103DB0006E010E97B1F480916F0190917001892B83
:103DC00081F48091710190917201892B51F480915D
:103DD000730190917401892B21F488E093E00E9493
:103DE0003E1C80916B0190916C014197E1F48091B0
:103DF0006D0190916E014997B1F480916F0190919E
:103E00007001409781F48091710190917201892B2A
:103E100051F48091730190917401892B21F48EEFFC
:103E200092E00E943E1C80916B0190916C0143973F
:103E3000E1F480916D0190916E014597B1F480910C
:103E40006F0190917001429781F48091710190917E
:103E50007201059751F48091730190917401892B3F
:103E600021F485EF92E00E943E1C80916B019091BD
:103E70006C014697E1F480916D0190916E01489735
:103E8000B1F480916F0190917001439781F480911A
:103E9000710190917201892B51F48091730190917D
:103EA0007401892B21F48CEE92E00E943E1C8091DB
:103EB0006B0190916C014797E1F480916D019091B5
:103EC0006E010B97B1F480916F019091700145974D
:103ED00081F48091710190917201489751F4809121
:103EE000730190917401892B21F484EE92E00E9479
:103EF0003E1C80916B0190916C014797E1F4809199
:103F00006D0190916E014C97B1F480916F01909189
:103F10007001892B81F48091710190917201892B3C
:103F200051F48091730190917401892B21F48AEDF1
:103F300092E00E943E1C80916B0190916C0147972A
:103F4000E1F480916D0190916E014197B1F48091FF
:103F50006F0190917001892B81F480917101909192
:103F60007201892B51F48091730190917401892B16
:103F700021F482ED92E00E943E1C80916B019091B1
:103F80006C014A97E1F480916D0190916E01479721
:103F9000B1F480916F0190917001099781F4809143
:103FA000710190917201892B51F48091730190916C
:103FB0007401892B21F484EC92E00E943E1C872D31
:103FC000DF91CF911F910F91FF90EF90DF90CF90F5
:103FD000BF90AF909F908F907F90089590E080E089
:103FE000F7CC8F929F92AF92BF92CF92DF92EF92D7
:103FF000FF920F931F93CF93DF9300D000D01F92B7
:10400000CDB7DEB77C01DC011C911196DC901197D5
:1040100013968D919C91892B41F0BFEFDB1203C069
:1040200081E01F3F19F080E001C081E0E82FE170DE
:10403000CE2E80FD6FC085E0F701DE011196019064
:104040000D928A95E1F7D70112962C9189819A8178
:10405000222309F471C00E94760F082F682F8981EE
:104060009A810E94700CE12FF0E0BEE0DB9EE00D33
:10407000F11D112426E4029FE00DF11D1124EE0F25
:10408000FF1FE85EFA4F059114915801D70112966F
:104090008C910A3FBCE51B0709F47BC008F050C0B7
:1040A000083FFCE51F0709F45AC0093F2CE5120739
:1040B00009F45FC0F701D280DD2009F47BC780914D
:1040C0007801882309F470C080917601909177017E
:1040D0000E94CC0B8835924008F0AAC0C8019056C7
:1040E000811520E2920720F0905E8115904110F436
:1040F0005801BB2480917501853008F052C0E82F2B
:10410000F0E0EE0FFF1FE559FE4FB182A0828F5FF6
:10411000809375010F900F900F900F900F90DF918B
:10412000CF911F910F91FF90EF90DF90CF90BF90B4
:10413000AF909F908F9008950E94450C082F93CFC9
:104140000B3F9CE51907E9F00C3FACE51A0709F0B5
:10415000B1CF882309F4AECF8CEE98E004C0882359
:1041600029F084E099E00E943E1CA4CF81E099E010
:10417000FACF882319F08EEF98E0F5CF8BEF98E017
:10418000F2CF882319F088EF98E0EDCF85EF98E023
:10419000EACF882319F082EF98E0E5CF8FEE98E020
:1041A000E2CF10927801B6CF0731BCE51B0709F0CA
:1041B00069C681E0809378010E94F60B90937701A5
:1041C0008093760110927501EBE6F1E08AE0DF0161
:1041D0001D928A95E9F7F7018281882309F46CC75B
:1041E00010927901083CFCE51F0709F424C208F08D
:1041F000DBC006318CE5180709F4DDC208F095C074
:104200000130ACE51A0709F436C108F05AC00115AF
:104210001C4509F006C10E941415EFEFF4E32CE0F1
:10422000E150F0402040E1F700C000000E94A912D8
:10423000013FBCE51B07B1F118F5093DFCE51F077F
:1042400069F10A3D2CE51207C9F1083D8CE5180714
:1042500011F626E241EE61EEC7010F900F900F902C
:104260000F900F90DF91CF911F910F91FF90EF90E2
:10427000DF90CF90BF90AF909F908F900C94D31B06
:10428000033F9CE51907B1F088F0043FBCE51B072C
:1042900009F0A1CF27E245EE66EEDECF27E245EE3C
:1042A00065EEDACF26E241EE60EED6CF27E245EEAC
:1042B00064EED2CF26E241EE62EECECF28E241E0BC
:1042C000EFCF0531FCE51F0708F0ABC00E942013BB
:1042D000811102C00E94991484E090E00E94113183
:1042E00090E0909300028093FF01F801E350FC45B9
:1042F0008091FF018160E231F10508F0FAC1ED57CC
:10430000FE4D0C94F1307623942398239C23A02314
:10431000A423A823AC23B023B423B823BC23C023F5
:10432000C423C823CC23D023D423053C2CE5120777
:1043300009F448C120F5033C9CE5190709F4C0C005
:10434000043C1C4509F06DC0DD2009F4E3CE8091EA
:10435000E701827209F43EC10F900F900F900F9009
:104360000F90DF91CF911F910F91FF90EF90DF9011
:10437000CF90BF90AF909F908F900C947D14063C8F
:10438000BCE51B0709F439C1073C1C4509F049C0CD
:10439000DD2009F4BFCE80911F0221E0409121026F
:1043A00060912002885034C10E3CFCE51F0709F4DF
:1043B0008AC168F50B3C8CE5180709F455C1A8F4CF
:1043C000093CACE51A0709F445C10A3C1C4549F50E
:1043D000DD2009F49FCE4091210221E1420F08F433
:1043E0004FEF21E06091200232C10C3CECE51E074A
:1043F00009F444C10D3C1C45A1F4DD2009F48ACE2A
:1044000080912202882309F443C181503FC10D3DB0
:104410002CE5120709F45DC180F4073D1C4508F442
:1044200079CEF70100811181C8010E94760FD82E44
:10443000682FC8010E94700CF2C50E3DACE51A074A
:1044400009F44DC10F3D1C4561F7DD2009F462CE32
:104450000F900F900F900F900F90DF91CF911F91C1
:104460000F91FF90EF90DF90CF90BF90AF909F9013
:104470008F900C949914DD2009F44CCE90911D027C
:10448000892F8E7F90FF816080931D0280FF15C071
:104490008FEB99E00F900F900F900F900F90DF919E
:1044A000CF911F910F91FF90EF90DF90CF90BF9031
:1044B000AF909F908F900C949D098DEA99E0EACF80
:1044C000DD2009F427CE80911D0280FF10C080916D
:1044D0001E02809581701F928F9386E799E09F93CB
:1044E0008F930E94360A0F900F900F900F9080913B
:1044F0001E0280FF3CC08E7F80931E0260911E02D0
:1045000070911F0280912002909121020E942B1332
:1045100080911D0280FF0FC080911E0281701F924A
:104520008F9387E099E09F938F930E94360A0F90B4
:104530000F900F900F908FEF90E7A2E08150904086
:10454000A040E1F700C000000F900F900F900F9077
:104550000F90DF91CF911F910F91FF90EF90DF901F
:10456000CF90BF90AF909F908F900C94CD128160B0
:1045700080931E0280911D0280FF0DC01F9281E07A
:104580008F938FE399E09F938F930E94360A0F9049
:104590000F900F900F9080911E0261E086950F9012
:1045A0000F900F900F900F90DF91CF911F910F916F
:1045B000FF90EF90DF90CF90BF90AF909F908F9043
:1045C0000C944214DD2009F4A5CD8091E70182729C
:1045D00009F4C2CE0F900F900F900F900F90DF91C3
:1045E000CF911F910F91FF90EF90DF90CF90BF90F0
:1045F000AF909F908F900C948614DD2009F48ACDA3
:1046000080911F0221E04091210260912002885F89
:104610000F900F900F900F900F90DF91CF911F91FF
:104620000F91FF90EF90DF90CF90BF90AF909F9051
:104630008F900C943D13DD2009F46CCD6091200225
:1046400021E1620F08F46FEF21E040912102809197
:104650001F02DECFDD2009F45DCD6091200221E153
:10466000621B08F460E0F0CFDD2009F453CD4091E7
:10467000210221E1421B08F440E0B3CEDD2009F421
:1046800049CD80912202833018F48F5F80932202FB
:1046900060911E0270911F02809120029091210270
:1046A0000F900F900F900F900F90DF91CF911F916F
:1046B0000F91FF90EF90DF90CF90BF90AF909F90C1
:1046C0008F900C942B13DD2009F424CD61E081E060
:1046D00066CFDD2009F41ECD1092F3011BCDDD2045
:1046E00009F418CD82E08093F30114CD8091FF018D
:1046F00082608093FF016091FF0184E090E00E945E
:1047000025310F900F900F900F900F90DF91CF9168
:104710001F910F91FF90EF90DF90CF90BF90AF90DF
:104720009F908F900C9414158091FF018460E1CFCD
:104730008091FF018860DDCF8091FF018061D9CF3A
:104740008091FF018062D5CF8091FF018064D1CF3D
:104750008091FF018068CDCF8091FF018460EACF16
:104760008091FF018E7FC5CF8091FF018D7FC1CFEA
:104770008091FF018B7FBDCF8091FF01877FB9CFF3
:104780008091FF018F7EB5CF8091FF018F7DB1CFEA
:104790008091FF018F7BADCF8091FF018F77A9CFF3
:1047A0008091FF018B7FEACF9091FF01892F97FBCA
:1047B00087F980589ECF8091E7018A7A91E009F4C9
:1047C00090E090937A018823B1F085E30E942C0C4D
:1047D0000F900F900F900F900F90DF91CF911F913E
:1047E0000F91FF90EF90DF90CF90BF90AF909F9090
:1047F0008F900C944B1089E2E9CF80917A01882345
:1048000021F085E30E94200CE3CF89E2FBCFB12F9A
:10481000BF70BB2E107F19F0B29490EFB922802F99
:10482000DD20C9F0BB2069F090E2900F983010F0C5
:1048300001110BC08091E701B82AB092E7010E94F4
:104840004B10802F0E94AA1A17C08091E601B82A47
:10485000B092E601F4CF0E944411BB2069F0B094FD
:10486000005E083010F0911031C08091E701B8224D
:10487000B092E7010E944B10CC2009F44BCC809100
:10488000E40180FD47CCD70112961C928595859551
:1048900085950E940411C7010E94F11F8091E401D7
:1048A0008595859585950F900F900F900F900F909F
:1048B000DF91CF911F910F91FF90EF90DF90CF90FC
:1048C000BF90AF909F908F900C94C9108091E6019B
:1048D000B822B092E601CECFE12FEF70AE2E107F5E
:1048E000103219F0A29480EFA822992071F0F1E023
:1048F0009F1661F1DD20B9F1BB2071F1F7018581CF
:1049000080FF9FCF8F70858327C0DD2091F090912D
:10491000E8018A2D892BB11003C00E943A11ACCF57
:1049200021E0B212FACF891709F4A6CF8093E801EB
:10493000A3CFB11006C00E941A0C8A2D0E942F111D
:104940009BCF81E0B81609F497CFF5CFDD2031F089
:1049500095E09B1508F490CF8A2DDFCFA4E0AB152E
:1049600008F48ACFEACFBB2041F3093349F4FFEFC3
:1049700027EE83E0F15020408040E1F700C00000C6
:10498000802F0E94441178CF812F86958695837061
:1049900079F08130B1F098E0A91609F466C0A91643
:1049A00008F46ACF86EF8A0D823008F45EC064CFC7
:1049B000C8019370D11002C090E080E00E94BF0C4B
:1049C0005BCFC8019370D11002C090E080E00E94DC
:1049D000A90C52CF812F837009F068C0D11045C057
:1049E000802F829586958770880F880F602F6F7053
:1049F000862E912CB12CA12C082E04C0880C991C59
:104A0000AA1CBB1C0A94D2F740E050E0BA0104FF94
:104A10000FC04FE050E060E070E004C0440F551F4D
:104A2000661F771F8A95D2F74095509560957095CF
:104A3000812F869586958370823029F1E8F4009164
:104A4000E9011091EA012091EB013091EC018130F4
:104A500079F0482959296A297B29CB01BA016023B9
:104A60007123822393230E9425110E94D50C04CF29
:104A7000802A912AA22AB32ACB01BA01682979296E
:104A80008A299B29F0CF482959296A297B29009135
:104A9000E9011091EA012091EB013091EC01CB0189
:104AA000BA016027712782279327DDCF8695DD2005
:104AB00011F0812F81708823C1F2802F8295869515
:104AC0008770880F880F602F6F70862E912CB12C05
:104AD000A12C082E04C0880C991CAA1CBB1C0A948B
:104AE000D2F740E050E0BA0104FF0FC04FE050E0C1
:104AF00060E070E004C0440F551F661F771F8A9561
:104B0000D2F74095509560957095812F8695869542
:104B10008370823019F1D8F40091E0011091E10125
:104B20002091E2013091E301813069F0482959294F
:104B30006A297B29CB01BA01602371238223932345
:104B40000E94BF1092CF802A912AA22AB32ACB01B9
:104B5000BA01682979298A299B29F2CF482959293C
:104B60006A297B290091E0011091E1012091E20185
:104B70003091E301CB01BA01602771278227932787
:104B8000DFCF802FE0E2E00FE53108F08BC0F0E0EE
:104B9000E453FA4D0C94F130E125E125E125E125BE
:104BA000E125E125E125E125E125E125E125E125D5
:104BB000E125E125E125E125F22518261F262626F7
:104BC00038260F70812F8F71DD2031F00E94041183
:104BD000802F0E943A11DFCE0E94C910802F0E94C0
:104BE0002F11D9CEDD20F9F094E09B1508F4D3CE37
:104BF0001F7161E070E080E090E004C0660F771FF5
:104C0000881F991F1A95D2F70091E0011091E101D8
:104C10002091E2013091E3016027712782279327D9
:104C20000E94BF10B8CEA5E0AB1508F4B4CEE0CF1B
:104C3000812F8F71DD2039F00E940411ACCE812FBD
:104C40008F71DD20C9F30E94C910A5CE60E070E02D
:104C5000CB01DD2029F31F7161E070E080E090E07E
:104C600004C0660F771F881F991F1A95D2F7D8CFF7
:104C7000DD2069F01F71812F0E940411B8E01B9F95
:104C8000C001112483608093E401812FD5CF81E09E
:104C90000E94EC10E1E0EB1508F07DCE82E00E946E
:104CA000EC1079CEDD2041F0BB2019F00E94AA1A49
:104CB00072CE812F8F71C0CFBB2079F0093349F4B8
:104CC000FFEF27EE83E0F15020408040E1F700C085
:104CD0000000802F0E9444115ECE812F8F71B3CFD0
:104CE000D110CACD1F70123009F465C048F51123E8
:104CF00099F1113009F04FCE8091F201982F987FF1
:104D000089F088508093F201887F91E009F490E067
:104D10006091F20190FB60F96093F20186E090E00F
:104D20000E94253180911D0280FFEFC08091F20129
:104D30008695869586951F928F9388EE99E032C06E
:104D4000143009F49DC008F469C080E0153009F002
:104D500022CE0E94011390CD8091F201982F96955A
:104D600096959695953040F49F5F990F990F990FFE
:104D70008770892B8093F2016091F20161606093EA
:104D8000F20186E090E00E94253180911D0280FFB3
:104D9000BCC08091F2018695869586951F928F936F
:104DA00080ED99E09F938F930E94360A0F900F90A9
:104DB0000F900F90AAC01091F201117080911D0206
:104DC00080FF83C01F921F9385E29AE09F938F9389
:104DD0000E94360A0F900F900F900F90112309F444
:104DE00076C08091F20180FF47CD6091F2016E7F25
:104DF0006093F20186E090E00E94253180911D02CF
:104E000080FF08C080E09AE09F938F930E94360A4B
:104E10000F900F9080E00E94F40F2ECD9091F20140
:104E2000892F8695869586958F5F8F7197708630CE
:104E300020F5880F880F880F892B8093F2018091CD
:104E4000F201887F91E009F490E06091F20190FB1B
:104E500060F96093F20186E090E00E942531809134
:104E60001D0280FF52C08091F2018695869586953D
:104E70001F928F938BE39AE095CF9093F201DFCF4F
:104E800085E067CF013FBCE51B0709F40BCA80F43E
:104E9000093DFCE51F0709F401CA0A3D2CE512078C
:104EA00009F40CCA083D8CE5180709F099C9D1C965
:104EB000033F9CE5190709F4FDC908F4F7C9043F4D
:104EC000BCE51B0709F4E6C98BC911118ECF80918F
:104ED000F20180FDD1CC81608093F201813019F420
:104EE00089E08093F2016091F20186E090E00E94F7
:104EF000253180911D0280FF08C083E19AE09F93D5
:104F00008F930E94360A0F900F908091F201869540
:104F10008695869580CF053CFCE51F0709F4FAC805
:104F200050F4033C8CE5180709F4F4C8043C1C4514
:104F300009F4F0C86DC0063CACE51A0709F4EAC8EC
:104F4000073C1C4509F4E6C863C00E3CECE51E07AF
:104F500009F4E0C8D0F40B3C2CE5120709F4DAC8D8
:104F600050F4093C9CE5190709F4D4C80A3C1C45D7
:104F700009F4D0C84DC00C3CBCE51B0709F4CAC8F5
:104F80000D3C1C4509F4C6C843C00D3DFCE51F0798
:104F900009F4C0C828F4073D1C4508F4BBC838C054
:104FA0000E3D9CE5190709F4B5C80F3D1C4509F4F1
:104FB000B1C82EC0013FBCE51B0709F473C908F056
:104FC0006EC0093DFCE51F0709F468C90A3D2CE5E0
:104FD000120709F473C9083D8CE5180709F439C9AB
:104FE000083CFCE51F0709F495C808F0AECF063170
:104FF0008CE5180709F401CC08F08DCF0130ACE541
:105000001A0709F487C820F401151C4509F482C861
:10501000F70100811181C8010E94450CD82EB8010A
:105020008D2D0E94130D8C01982ED7011596BC90E2
:105030001597B2943FE0B3221296DC90D1101092F3
:10504000E6018091E401877081F0DD2069F080E263
:10505000800F883050F082E00E94EC108091E401D3
:105060008770CC24C3948111C12CA12EA2942FE06F
:10507000A222EA2DF0E0E15CF74D0C94F130072418
:1050800007246C246C24C424CB24CB24CB24EA2412
:10509000CB24C125C1253C247026CB243C24033FCE
:1050A0009CE5190709F406C908F400C9043FBCE5EA
:1050B0001B0709F4EFC894CF083CECE51E0711F478
:1050C0000C948A2098F506312CE5120709F495CB4B
:1050D00070F401309CE5190711F40C948A2008F053
:1050E00097CF01151C4511F40C948A2091CF053CF3
:1050F000ECE51E0711F40C948A2060F4033C2CE5C7
:10510000120711F40C948A20043C1C4511F40C94F1
:105110008A207ECF063C9CE5190711F40C948A2066
:10512000073C1C4511F40C948A2072CF0E3CBCE560
:105130001B0711F40C948A20F8F40B3CFCE51F07C4
:1051400011F40C948A2060F4093C8CE5180711F4E2
:105150000C948A200A3C1C4511F40C948A2058CFE8
:105160000C3CACE51A0711F40C948A200D3C1C454C
:1051700011F40C948A204CCF0D3DECE51E0711F480
:105180000C948A2030F4073D1C4510F40C948A20BE
:105190003FCF0E3D8CE5180711F40C948A200F3D8B
:1051A0001C4511F40C948A2033CF1F93CF93DF93C7
:1051B00080918001807FD1F480917D018823B1F0BE
:1051C0008091B201D0918101B0917B01C0917C01AD
:1051D00040917E0150917F01A1E0BF3F09F0A0E026
:1051E000BA016095709516E0D81304C0DF91CF9195
:1051F0001F91089521E04115510521F02A2FCF3F3D
:1052000009F020E090E020FD38C0189FF001199FC0
:10521000F00D1124EE57FE4F21812C132EC020815A
:105220002B132BC02281211128C023813481241704
:10523000350700F1241B350B283C3105F0F4209193
:1052400080012F7020612093800126E0289FF001CB
:10525000299FF00D1124E957FE4F80818F708061E6
:1052600080838BE791E00E94F11FDF91CF911F9126
:105270000C949F0C260F371FDFCF01968770B4CF99
:10528000AF92BF92CF92DF92EF92FF920F931F9354
:10529000CF93DF93CDB7DEB761970FB6F894DEBF3B
:1052A0000FBECDBF8C0185E0F801DE011D96019097
:1052B0000D928A95E1F7D8013C9111962C911197A6
:1052C0001296EC9050917B0160917C0180917E015F
:1052D00090917F0141E0009731F06F3F19F441E078
:1052E0005F3F09F040E0B42FB170BB2E40FD5EC1BE
:1052F000F801C380D480A0907D01AA2009F40EC1DA
:10530000C816D906C0F1D601A81BB90BCD01FF24E0
:10531000F394883C910508F0F12C80918001982F3E
:10532000907FFF2009F4BCC0911185C0FE2C621350
:1053300027C0531325C0E11023C08F708061809374
:1053400080018BE791E00E94F11F80918001F801BC
:1053500085838F2D61960FB6F894DEBF0FBECDBF4B
:10536000DF91CF911F910F91FF90EF90DF90CF9041
:10537000BF90AF900895809590958C0D9D1DC7CFDF
:1053800081E0CD2831F02F3F19F481E03F3F09F053
:1053900080E080FD24C081E08E25F82FF170DF2EA3
:1053A00080FF3FC08091B2014091810156E084139B
:1053B00018C03D872E878D859E850E94B80F292FA6
:1053C00022952F70223008F1243030F59F7009F1BA
:1053D000D80115969C91907FE1F4FB2CBACF80E028
:1053E000DCCF90E0589FF001599FF00D1124EE574B
:1053F000FE4F6181261306C06081361303C06281AF
:10540000E6120FC001968770D2CF9F7011F08823EB
:1054100021F3805E883008F3C8010E94F11FBD2C83
:10542000DCCFEE2009F495CF8091800181608093DC
:105430008001F12C8ECF621306C0531304C0F80113
:10544000EE2009F495C03D872E878D859E850E94AC
:10545000C20F882309F1EE20F9F08091800180329B
:1054600070F020917B0130917C0138872F83198661
:10547000DB86CA868C87CE0107960E94F11F86E0E4
:10548000F801ABE7B1E001900D928A95E1F70E9437
:10549000D528FF24F3945DCFC8010E94F11FF9CFF6
:1054A00091110CC08BE791E00E94F11F86E0EBE7C1
:1054B000F1E0DF011D928A95E9F74BCF621312C02C
:1054C000531310C0E1100EC0F8018583C8010E947B
:1054D000F11FEBE7F1E086E0DF011D928A95E9F725
:1054E000FA2C37CF3D872E878D859E850E94C20F6F
:1054F000882391F2EE2081F280918001803208F4BD
:10550000BECF20917B0130917C013A8329831B829D
:10551000DD82CC828E83CE010196AFCFC816D9062C
:1055200040F0C81AD90AB8ECCB16D10448F0F12CD7
:10553000BDCF809590958C0D9D1D883C9105B8F749
:10554000FE2CEE2009F4A8CF62131FC053131DC018
:105550008091800180FD10C0982F907F69F0F80144
:105560008583903F31F0982F907F905F8F70892BCB
:105570008583C8010E94F11F86E0F801ABE7B1E026
:1055800001900D928A95E1F7E4CE3D872E878D85B7
:105590009E850E94C20F811172CF8091800181602F
:1055A00080938001C8010E94F11FD3CEEE2009F440
:1055B00073CF3D872E878D859E850E94C20FF82E62
:1055C000882309F469CF86E0F801ABE7B1E00190E8
:1055D0000D928A95E1F780917B0190917C010E9468
:1055E000B80F0E94D528B5CE1F93CF93DF93CDB7C8
:1055F000DEB767970FB6F894DEBF0FBECDBF4B8BFB
:105600005C8B6D8B7E8B8F8B1A8A198A85E0FE01ED
:105610007396DE011D9601900D928A95E1F786E062
:10562000FE013D96DE01179601900D928A95E1F7F5
:10563000CE0107960E944029811137C086E0FE0105
:105640003796DE01119601900D928A95E1F79F81C0
:1056500088852A853B85232B39F08F3F19F481E01B
:105660009F3F19F080E001C081E080FD1EC02091C5
:10567000810130E0C9010196877099274091B201FC
:105680004817190659F196E0929FD001939FB00DEB
:105690001124AE57BE4FFE01319601900D929A959E
:1056A000E1F7809381010E949F0C16E08091B20186
:1056B000909181018917F9F0819FC00111248E57C3
:1056C0009E4F0E9440298823B1F08091B20190E062
:1056D0000196877099278093B201E8CF0E94141534
:1056E000109281011092B20186E0EBE7F1E0DF0158
:1056F0001D928A95E9F767960FB6F894DEBF0FBE44
:10570000CDBFDF91CF911F9108951F920F920FB6D9
:105710000F9211242F933F934F935F936F937F9337
:105720008F939F93AF93BF93CF93EF93FF93C091CA
:10573000E900CF708091EC001092E9008091F000B8
:10574000877F8093F00078940E941F151092E900E3
:105750008091F00088608093F000C093E900FF9191
:10576000EF91CF91BF91AF919F918F917F916F9169
:105770005F914F913F912F910F900FBE0F901F900F
:1057800018951F920F920FB60F9211242F933F93EB
:105790004F935F936F937F938F939F93AF93BF9339
:1057A000EF93FF938091E10082FF15C08091E200AA
:1057B00082FF11C08091E1008B7F8093E1002091F6
:1057C0001B022F5F822F62E30E94AF30992309F4FE
:1057D000E4C020931B028091DA0080FF28C08091F2
:1057E000D80080FF24C08091DA008E7F8093DA0099
:1057F0008091D90080FF08C180E189BD82E189BD27
:1058000009B400FEFDCF81E0809331028BE991E184
:105810000E949D0980911C02811109C00E943F0ACB
:105820000E94080B8091E20084608093E2008091E6
:10583000E10080FF1BC08091E20080FF17C08091D3
:10584000E2008E7F8093E2008091E200806180938D
:10585000E2008091D80080628093D80019BC85E076
:105860008093310283EA91E10E949D098091E100D9
:1058700084FF53C08091E20084FF4FC080E189BD66
:1058800082E189BD09B400FEFDCF8091D8008F7DF3
:105890008093D8008091E1008F7E8093E100809119
:1058A000E2008F7E8093E2008091E200816080932D
:1058B000E20080913202882309F4B0C084E0809332
:1058C000310280EE91E10E949D090E9414150E9410
:1058D000F7140E94D50C1092240280912302882391
:1058E000E1F080911E02816080931E0280911D0272
:1058F00080FF0DC01F9281E08F9387EA91E19F9313
:105900008F930E94360A0F900F900F900F90809106
:105910001E0260E086950E9442148091E10083FFA0
:105920002BC08091E20083FF27C08091E100877F38
:105930008093E10082E080933102109232028091E4
:10594000E1008E7F8093E1008091E2008E7F809362
:10595000E2008091E20080618093E20042E060E03A
:1059600080E00E94D60A8091F00088608093F00069
:1059700084EE91E10E949D09FF91EF91BF91AF915B
:105980009F918F917F916F915F914F913F912F9157
:105990000F900FBE0F901F90189510921B028091D0
:1059A0001A02882309F417CF809131028430B9F4A8
:1059B0009091E9009F708091EC0080FD13C080E021
:1059C000892B93E09093E9009091EB0090FF04C045
:1059D0009091EE0097FD0AC08F708093E9001092BD
:1059E0001A02F9CE80E8ECCF1092F1009091E80015
:1059F00095FDFACF9091E80090FFEECF9091E800EE
:105A00009E779093E800E8CF19BC109231028FE99D
:105A100091E10E949D0910921C0209CF8091E30040
:105A200087FD02C081E04BCF83E049CFCF93DF9366
:105A3000CDB7DEB72E970FB6F894DEBF0FBECDBF41
:105A400084B7877F84BF0FB6F894A89580916000D3
:105A5000886180936000109260000FBE80E88093A0
:105A600061001092610085B7806885BF85B7806846
:105A700085BF0E943F0A0E94080B8091E20084606B
:105A80008093E2008AE991E190932F0180932E01A7
:105A9000789480913102882399F01091E9001F7069
:105AA0008091EC0080FF5BC280E8182B1092E90027
:105AB0008091E80083FD0E941F151F701093E9007C
:105AC00082E084BD93E095BD9AEF97BD80936E0010
:105AD000ABE0B1E061E070E08D91E82FE295EF700E
