:100000000C94FF090C94460A0C94460A0C94460A78
:100010000C94460A0C94460A0C94460A0C94460A20
:100020000C94460A0C94460A0C94402D0C94042D12
:100030000C94A8320C94460A0C94460A0C94460A76
:100040000C94460A0C94460A0C94460A0C94460AF0
:100050000C94D1320C9482320C94460A0C94460AC9
:100060000C94460A0C94460A0C94460A0C94460AD0
:100070000C94460A0C94460A0C94460A0C94460AC0
:100080000C94460A0C94460A0C94460A0C94460AB0
:100090000C94460A0C94460A0C94460A0C94460AA0
:1000A0000C94460A0C94460A0C94460A0631FF0941
:1000B00074A1010975150026FF00952075088102BD
:1000C0000976150026FF00952075089102C00501EC
:1000D0000980A10185031601002603001A81002A68
:1000E0008300751095018100C0050C0901A10185EF
:1000F00004160100269C021A01002A9C0275109524
:10010000018100C005010906A101050719E029E7E1
:100110001500250195087501810295017508810179
:1001200005081901290595057501910295017503C9
:1001300091010507190029FF150026FF0095067596
:10014000088100C000000000000000000000000066
:10015000000000000000000000000000000000009F
:10016000000000000000000000000000000000008F
:10017000000000000000000000000000000000007F
:10018000000000000000000000000000000000006F
:10019000000000000000000000000000000000005F
:1001A000000000000000000000000000000000004F
:1001B000000000000000000000000000000000003F
:1001C000000000000000000000000000000000002F
:1001D000000000000000000000000000000000001F
:1001E0000000000000010101010101000101010105
:1001F00000000000000000000000000000000100FE
:1002000001000101010101010101010101010101DF
:1002100001010101010101010101010101010100CF
:1002200000000101000000000000000000000000CC
:1002300000000000000000000000000000000001BD
:100240000101010000000000000000002A2B28002E
:100250000000000000000000000000000000002975
:10026000000000002C1E3420212224342627252EB5
:10027000362D3738271E1F202122232425263333ED
:10028000362E37381F0405060708090A0B0C0D0E19
:100290000F101112131415161718191A1B1C1D2FE5
:1002A0003130232D350405060708090A0B0C0D0E05
:1002B0000F101112131415161718191A1B1C1D2FC5
:1002C0003130354C0000000000000000000000014B
:1002D000010203040506080A0C0F1114181C20243F
:1002E000292E33393F464C535B626A7179818A9279
:1002F0009AA2AAB2B9C1C8CFD5DCE1E7EBF0F4F716
:10030000FAFCFDFEFFFEFDFCFAF7F4F0EBE7E1DCA2
:10031000D5CFC8C1B9B2AAA29A928A8179716A620C
:100320005B534C463F39332E2924201C1814110FDF
:100330000C0A080605040302010100000000000089
:1003400000000000000000000000000000000101AB
:100350000101010101010102020202020202020383
:10036000030303030303040404040405050505054E
:100370000606060606070707070808080809090908
:100380000A0A0A0B0B0B0C0C0C0D0D0D0E0E0E0FAA
:100390000F10101011111212131314141515161634
:1003A0001717181819191A1A1B1C1C1D1D1E1F1FA0
:1003B00020212122232324252526272828292A2BEA
:1003C0002C2C2D2E2F30313132333435363738390D
:1003D0003A3B3C3D3E3F4041424344454647484905
:1003E0004B4C4D4E4F50525354555758595A5C5DD3
:1003F0005E606163646567686A6B6C6E6F7172746E
:100400007677797A7C7D7F8182848687898B8D8ED1
:100410009092949597999B9D9FA1A2A4A6A8AAACFF
:10042000AEB0B2B4B6B9BBBDBFC1C3C5C8CACCCEED
:10043000D0D3D5D7DADCDEE1E3E6E8EAEDEFF2F49B
:10044000F7F9FCFF7267626C69676874206D6F640E
:1004500065205B4E4F454550524F4D5D3A20257506
:100460000A007267626C69676874206D6F6465204A
:100470005B454550524F4D5D3A2025750A00726725
:10048000626C696768742073657420687376205B9A
:100490004E4F454550524F4D5D3A2025752C2575E0
:1004A0002C25750A007267626C6967687420736531
:1004B0007420687376205B454550524F4D5D3A205D
:1004C00025752C25752C25750A007267626C696785
:1004D0006874207261696E626F772073657420683A
:1004E00073763A2025642C25642C25642C25750A06
:1004F00000FFAA7F55407267626C69676874207458
:10050000696D657220656E61626C65642E0A0072A9
:1005100067626C696768742074696D6572206469CC
:100520007361626C652E0A002223252628292A2C55
:100530002D2F3032333536383A3B3D3E404243452D
:1005400047494A4C4E5051535557595A5C5E606268
:10055000646668696B6D6F71737577797B7D7F8178
:10056000838587898A8C8E90929496989A9C9E9F78
:10057000A1A3A5A7A8AAACAEAFB1B3B4B6B8B9BB96
:10058000BCBEBFC1C2C3C5C6C7C9CACBCCCDCED005
:10059000D1D2D2D3D4D5D6D7D7D8D9D9DADADBDBF2
:1005A000DBDCDCDCDCDCDDDDDDDDDCDCDCDCDCDB89
:1005B000DBDBDADAD9D9D8D7D7D6D5D4D3D2D2D1D2
:1005C000D0CECDCCCBCAC9C7C6C5C3C2C1BFBEBCC5
:1005D000BBB9B8B6B4B3B1AFAEACAAA8A7A5A3A136
:1005E0009F9E9C9A98969492908E8C8A89878583F8
:1005F000817F7D7B79777573716F6D6B69686664D8
:1006000062605E5C5A5957555351504E4C4A4947A7
:10061000454342403E3D3B3A3836353332302F2D4C
:100620002C2A29282625232229001E001F0020000D
:1006300021002200230024002500260027002D0091
:100640002E002A002B0014001A00080015001700C5
:100650001C0018000C00120013002F0030003100A5
:10066000000F04001600070009000A000B000D002F
:100670000E000F00330034000000280000071D00AA
:100680001B0006001900050011001000360037009D
:10069000380000000000E500E000E300E200000098
:1006A00000002C00000000000000E600E700E4006D
:1006B0000000015135003A003B003C003D003E0087
:1006C0003F0040004100F85C4300440045004C00FE
:1006D0002B0014001A000800150017001C00180059
:1006E0000C0012001300F95C30003100000F5000C4
:1006F000510052004F000A000B000D000E000F00C9
:10070000FA5C34000000280000070100010001002D
:1007100001000100010001000100010001000000D2
:1007200000000100E000E300E200000000002C00F7
:10073000000000000000E600E70002510000010098
:1007400035023A003B003C003D003E003F004000C7
:10075000410042004300440045004C002B001400BF
:100760001A000800150017001C0018000C001200E9
:1007700013002F0030003100000F500051005200D4
:100780004F000A000B000D000E000F003300340074
:100790000000280000070100010001000100010025
:1007A0000100010001000100010000000000010043
:1007B000E000E300E200000000002C000000000068
:1007C0000000E6000351010000000100C35CCB5CA7
:1007D000CA5CC75CC65CC95CC85CCD5CCC5C4200D2
:1007E0004300440045004C002B00CE5CCF5CD05C45
:1007F000D15CD25CD35CD45CD55C120013002F00BA
:1008000030003100000F5000510052004F000A002C
:100810000B000D000E000F00330034000000280014
:1008200000070100010001000100010001000100BA
:1008300001000100010000000000010001000100B2
:1008400001000000000001000000000000000100A5
:10085000010001000000010029001E001F0020000F
:1008600021002200230024002500260027002D005F
:100870002E002A002B0014001A0008001500170093
:100880001C0018000C00120013002F003000310073
:10089000000F04001600070009000A000B000D00FD
:1008A0000E000F00330034000000280000071D0078
:1008B0001B0006001900050011001000360037006B
:1008C000380000000000E500E000E300E200000066
:1008D00000002C00000000000000E600E700E4003B
:1008E0000000015129001E001F00200021002200ED
:1008F000230024002500260027002D002E002A00BA
:100900002B0014001A000800150017001C00180026
:100910000C00120013002F0030003100000F040003
:100920001600070009000A000B000D000E000F0062
:10093000330034000000280000071D001B000600E3
:1009400019000500110010003600370038000000C3
:100950000000E500E000E300E200000000002C00E1
:10096000000000000000E600E700E4000000015184
:1009700029001E001F002000210022002300240067
:100980002500260027002D002E002A002B00140031
:100990001A000800150017001C0018000C001200B7
:1009A00013002F0030003100000F04001600070074
:1009B00009000A000B000D000E000F003300340088
:1009C0000000280000071D001B000600190005009C
:1009D0001100100036003700380000000000E5006C
:1009E000E000E300E200000000002C000000000036
:1009F0000000E600E700E400000001513B3B00017D
:100A000050005B5D000150002829007267626C692C
:100A10006768742064697361626C65205B4545504A
:100A2000524F4D5D3A207267626C696768745F630C
:100A30006F6E6669672E656E61626C65203D20256C
:100A4000750A007267626C6967687420656E61621E
:100A50006C65205B454550524F4D5D3A2072676290
:100A60006C696768745F636F6E6669672E656E6137
:100A7000626C65203D2025750A007267626C6967AB
:100A8000687420746F67676C65205B454550524FF2
:100A90004D5D3A207267626C696768745F636F6E60
:100AA0006669672E656E61626C65203D2025750A5A
:100AB000006261636B6C696768742062726561745F
:100AC00068696E672064697361626C650A006261BF
:100AD000636B6C6967687420627265617468696EC3
:100AE0006720656E61626C650A006261636B6C69A8
:100AF00067687420627265617468696E6720746FDC
:100B000067676C653A2025750A0044454255473AA7
:100B10002064697361626C65642E0A004445425525
:100B2000473A20656E61626C65642E0A00626163FB
:100B30006B6C6967687420696E6372656173653A8E
:100B40002025750A006261636B6C696768742064B4
:100B5000656372656173653A2025750A0062616399
:100B60006B6C696768742064697361626C650A0004
:100B70006261636B6C6967687420656E61626C6545
:100B80000A006261636B6C6967687420746F6767E1
:100B90006C653A2025750A006261636B6C69676851
:100BA0007420737465703A2025750A003F00433E37
:100BB00020000A002530325820006B6579626F6191
:100BC00072645F7265706F72743A20000A00257556
:100BD000002E6C6576656C3A20000A002575002EA3
:100BE000656E61626C653A20000A0025303258005B
:100BF0006261636B6C696768745F636F6E66696777
:100C00002E7261773A20000A002575002E6E6B72F5
:100C10006F3A20000A002575002E737761705F62BD
:100C200061636B736C6173685F6261636B73706146
:100C300063653A20000A002575002E737761705FA6
:100C400067726176655F6573633A20000A002575F7
:100C5000002E6E6F5F6775693A20000A00257500E7
:100C60002E737761705F72616C745F726775693A39
:100C700020000A002575002E737761705F6C616C2F
:100C8000745F6C6775693A20000A002575002E6351
:100C90006170736C6F636B5F746F5F636F6E7472A0
:100CA0006F6C3A20000A002575002E737761705F23
:100CB000636F6E74726F6C5F636170736C6F636B84
:100CC0003A20000A0025303258006B65796D61705A
:100CD0005F636F6E6669672E7261773A20000A0063
:100CE0002575002E6D6F7573653A20000A00257515
:100CF000002E6B6579626F6172643A20000A0025EC
:100D000075002E6D61747269783A20000A002575AD
:100D1000002E656E61626C653A20000A0025303253
:100D2000580064656275675F636F6E6669672E72EF
:100D300061773A20000A0025750064656661756C6C
:100D4000745F6C617965723A20000A092D204D614B
:100D5000676963202D0A443A094465627567204D2E
:100D600065737361676520546F67676C650A583AED
:100D7000094D6174726978204465627567204D6F12
:100D8000646520546F67676C65202D2053686F770A
:100D9000206B65797072657373657320696E206D61
:100DA000617472697820677269640A4B3A094B650D
:100DB00079626F61726420446562756720546F6761
:100DC000676C65202D2053686F77206B6579707292
:100DD000657373207265706F72740A4D3A094465C9
:100DE000627567204D6F75736520546F67676C651A
:100DF0000A563A0956657273696F6E0A533A095377
:100E000074617475730A433A094163746976617455
:100E10006520436F6E736F6C65204D6F64650A4685
:100E2000312D4631303A0953776974636820746F05
:100E3000204C6179657220302D39202846313020D0
:100E40003D204C30290A302D393A095377697463B3
:100E50006820746F204C6179657220302D390A4703
:100E6000524156453A0953776974636820746F207C
:100E70004C6179657220302028616C7465726E61F6
:100E80007465290A423A094A756D7020746F2042D0
:100E90006F6F746C6F616465720A4553433A094A17
:100EA000756D7020746F20426F6F746C6F61646534
:100EB000722028616C7465726E617465290A453A06
:100EC000095072696E7420454550524F4D2053654C
:100ED0007474696E67730A4253504143453A09433B
:100EE0006C65617220454550524F4D0A000A092D2C
:100EF00020436F6E736F6C65202D0A4553432F712D
:100F00003A09717569740A004743433A20372E3411
:100F10002E30204156522D4C4942433A20322E3039
:100F20002E30204156525F415243483A206176723A
:100F3000350A004F5054494F4E533A204C554641C4
:100F40002045585452414B455920434F4E534F4C26
:100F50004520434F4D4D414E4420343039360A0030
:100F60004255494C443A20226666623164372D640A
:100F70006972747922202831373A34383A31342072
:100F80004A756C2032362032303139290A005649F0
:100F9000443A20307846454544283175706B657970
:100FA000626F6172647329205049443A203078306E
:100FB00030303028317570363068736529205645D9
:100FC000523A203078303030310A00444553433AA9
:100FD000204120637573746F6D20363025206B655A
:100FE00079626F6172640A000A092D205665727376
:100FF000696F6E202D0A0074696D65725F7265619C
:1010000064333228293A202530346C580A006B6545
:1010100079626F6172645F69646C653A2025580A71
:10102000006B6579626F6172645F70726F746F6379
:101030006F6C3A2025580A00686F73745F6B65798E
:10104000626F6172645F6C65647328293A20255869
:101050000A000A092D20537461747573202D0A004B
:101060003F000A6D6F7573653A206F66660A000A65
:101070006D6F7573653A206F6E0A000A6B65796251
:101080006F6172643A206F66660A000A6B65796266
:101090006F6172643A206F6E0A000A6D6174726942
:1010A000783A206F66660A000A6D61747269783A50
:1010B000206F6E0A000A64656275673A206F666683
:1010C0000A000A64656275673A206F6E0A000A0AB0
:1010D0004A756D70696E6720746F20626F6F746CF3
:1010E0006F616465722E2E2E2000433E2000436CFB
:1010F000656172696E6720454550524F4D0A006523
:1011000065636F6E6669673A0A004C25640A00726F
:1011100067626C696768745F636F6E6669672E7378
:1011200070656564203D2025640A007267626C6901
:101130006768745F636F6E6669672E76616C203DC9
:101140002025640A007267626C696768745F636F68
:101150006E6669672E736174203D2025640A0072F3
:1011600067626C696768745F636F6E6669672E6833
:101170007565203D2025640A007267686C696768A0
:10118000745F636F6E6669672E6D6F6465203D20C6
:1011900025640A007267626C696768745F636F6ECA
:1011A0006669672E656E61626C65203D2025640A64
:1011B000007267626C696768745F636F6E66696707
:1011C00020454550524F4D3A0A007267626C69677C
:1011D00068745F696E6974207267626C69676874AD
:1011E0005F636F6E6669672E6D6F6465203D2030AA
:1011F0002E2057726974652064656661756C742071
:1012000076616C75657320746F20454550524F4D63
:101210002E0A007267626C696768745F696E697430
:10122000206565636F6E666967206973206E6F74F1
:1012300020656E61626C65642E0A007267626C697B
:101240006768745F696E6974207374617274210ACF
:10125000007267626C696768745F696E69742063A5
:10126000616C6C65642E0A007267626C69676874F1
:101270002064697361626C65205B4E4F4545505236
:101280004F4D5D3A207267626C696768745F636F87
:101290006E6669672E656E61626C65203D202575FE
:1012A0000A000A002530313662003A20002530322B
:1012B00058000A722F6320303132333435363738D4
:1012C000394142434445460A000A0025303258005D
:1012D0006B6579626F6172645F7365745F6C65647E
:1012E0003A200000047F3F1F643214643214783CBB
:1012F0001E1E140A055B735D004B6579626F617297
:10130000642073746172742E0A005B435D005B4459
:101310005D005B535D007267626C6967687420658D
:101320006E61626C65205B4E4F454550524F4D5D7E
:101330003A207267626C696768745F636F6E666992
:10134000672E656E61626C65203D2025750A005B25
:10135000575D005B525D0009025B00030100A0FACB
:10136000090400000103010100092111010001220B
:1013700040000705810308000A0904010001030079
:101380000000092111010001223600070582032017
:10139000000A0904020002030000000921110100F3
:1013A0000122220007058303200001070503032013
:1013B00000011201100100000008EDFE0000010014
:1013C0000102030104033000000012033100750024
:1013D00070003600300068007300650000001A03DA
:1013E0003100750070006B006500790062006F00CD
:1013F00061007200640073000000040309041124FA
:101400001FBECFEFDAE0DEBFCDBF04B603FE27C0BC
:1014100080917B0290917C02A0917D02B0917E022E
:101420008730904BA740B04BD1F410927B021092C2
:101430007C0210927D0210927E0214BE84B7877FD8
:1014400084BF0FB6F894A89580916000886180935E
:101450006000109260000FBEE0E0F8E3099511E033
:10146000A0E0B1E0E6E2F8E602C005900D92A036F9
:10147000B107D9F722E0A0E6B1E001C01D92AB3779
:10148000B207E1F70E94972E0C9411340C940000DF
:10149000FF93EF93E0916001F0916101309709F0C3
:1014A0000995EF91FF910895FC018591803011F02D
:1014B000EFDFFBCF0895FF27E0E230E247FF0CC0EB
:1014C000419597FF09C0EDE26095709580959095E4
:1014D000611D711D811D911D27FF02C0219530E303
:1014E00050E2AA27660F771F881F991FAA1FA4170B
:1014F00010F0A41B63955A95A9F7AA3008F0A95FCC
:10150000A05DAF93F395611571058105910541F7D4
:10151000ED3211F4EF93F395F21718F43F93F3952E
:10152000FBCF8F91B5DFFA95E1F70895E991F99135
:101530008591803021F0853219F0AADFF9CF089526
:1015400020E0E89455915532C1F3503311F468947A
:1015500055915A3348F4505390F3220F022E220F24
:10156000220F200D250FF4CF0EF42195899199912A
:10157000533619F3533729F1533559F1BC018827F4
:101580009927E8945C3621F4899199916894559152
:10159000543639F446EF7EF077FF0DC08FEF9FEFA2
:1015A0000AC055374AE039F0583540E121F052364B
:1015B00042E009F00895FF93EF937DDFEF91FF91F3
:1015C000B7CFFF93EF93FC0181918030B9F360DFD7
:1015D000FBCFFF93EF9368DFF1CFDF93CF93CDB7CE
:1015E000DEB72596A3DFCF91DF910895E8EDF0E017
:1015F00080818E7F80831092E2001092DA00109238
:10160000E100A0EEB0E08C9181608C9380818F77B7
:10161000808319BCA7EDB0E08C918E7F8C93808184
:101620008F7E808310925C0208952091E4003091B7
:10163000E50085E69091EC0090FF06C09091E800EF
:1016400090FF06C080E008959091E80092FDFACFE7
:1016500090917102992391F0953091F09091EB0067
:1016600095FD10C04091E4005091E5002417350726
:1016700009F381509A01F1F684E0089582E008951B
:1016800083E0089581E00895EF92FF920F931F93F6
:10169000CF937C018B010E94150BC82F811117C0BD
:1016A0008091E80085FD0BC08091E8008E778093E3
:1016B000E8000E94150B882399F3C82F08C0F70192
:1016C00081917F018093F1000150110949F78C2F1E
:1016D000CF911F910F91FF90EF9008958091730229
:1016E00087FF13C08091E80082FF06C08091E80068
:1016F0008B778093E80004C0809171028111F2CF52
:101700000895809171028823D9F38091E80080FFC9
:10171000F8CF8091E8008E77ECCF982F9093E90076
:10172000242F762F50E0891731F07091EC00209132
:10173000ED005091F00021FD07C09F5F973071F7D9
:101740008093E90081E008953091EB003E7F309373
:10175000EB003091ED003D7F3093ED003091EB00D8
:1017600031603093EB007093EC002093ED005093C8
:10177000F0002091EE0027FDE0CF80E00895CF92A9
:10178000DF92EF92FF920F931F93CF93DF93C8EDF9
:10179000D0E088818F7E8883E7EDF0E080818160F2
:1017A000808384E082BF81E080935C0288818E7FA9
:1017B000888302EE10E0F80110821092DA0081EEC8
:1017C000C82ED12CF601108288818F77888388817A
:1017D0008068888388818F7D888319BC109271020C
:1017E000109272021092700210926F0290EEE92E27
:1017F000F12CF70180818B7F8083888181608883D1
:1018000042E060E080E00E948D0BF60180818E7FD7
:101810008083F801808181608083808188608083FB
:10182000F70180818E7F8083888180618883DF914A
:10183000CF911F910F91FF90EF90DF90CF9008957F
:10184000FC018091790290917A0286179707A0F0A7
:101850006115710529F49091E8009E779093E80056
:1018600090E06115710551F4911108C08091E80074
:1018700082FF35C080E00895BC01F2CF80917102F3
:101880008823C9F18530C9F18091E80083FD31C01A
:101890008091E80082FDEACF8091E80080FFE1CFEF
:1018A0002091F3008091F200322F282F61157105ED
:1018B00019F02830310558F091E02830310509F051
:1018C00090E02091E8002E772093E800CACF819124
:1018D0008093F100615071092F5F3F4FE7CF8091F6
:1018E0007102882341F0853041F08091E80083FF48
:1018F000BDCF81E0089582E0089583E008950895C2
:101900000895809166020895CF92DF92EF92FF9240
:101910000F931F932FB7F894409122025091230206
:1019200060912402709125022FBF6A017B01EE2491
:10193000FF248C0130E020E0C016D106E206F30659
:1019400050F0481B590BCA011F910F91FF90EF9067
:10195000DF90CF90089541505109F3CF2FB7F894FD
:101960008091220290912302A0912402B09125023D
:101970002FBF0895829590E09C01220F331F220F04
:10198000331F2C7C95958795959587958373282B88
:1019900030E0C901880F991F8A7A359527952575FA
:1019A000822B089580911D02811110921D020895CD
:1019B000E2E6F1E09281891301C01282319691E052
:1019C000E836F907B9F70895A4E6B1E0EFEF90E043
:1019D0002D91821751F0EF3F19F4211101C0E92F29
:1019E0009F5F9630A9F7EF3F09F408950E2E000C83
:1019F000FF0BEE59FE4F828308952EE0929F800DDB
:101A00001124982F977086958695869525E0829F5C
:101A1000A001112470E060E080E0FA01E60FF71FFA
:101A2000E851FE4F208130E0092E02C036952795FF
:101A30000A94E2F721703327062E01C0220F0A9480
:101A4000EAF7822B6F5F7F4F6530710531F708959C
:101A50002EE0929F800D1124982F977071E001C0A5
:101A6000770F9A95EAF786958695869525E0829F69
:101A7000C001112450E040E0A62FB0E0FC01E40FCB
:101A8000F51FE851FE4F60819D01042E02C036957E
:101A900027950A94E2F721702195262727232627E8
:101AA00020834F5F5F4F4530510541F70895809186
:101AB000E7019091B601981301C008958F5F877078
:101AC000FACF20919E0130919F012817390771F0BC
:101AD00090939F0180939E01E0913A02F0913B0226
:101AE000309721F00084F185E02D0994089520912C
:101AF0009C0130919D012817390771F090939D0149
:101B000080939C01E0913A02F0913B02309721F0E2
:101B10000680F781E02D09940895E0913A02F09152
:101B20003B02309721F00190F081E02D099480E094
:101B3000089580915E0280FF02C08695089580E03E
:101B4000089580915E02982F9E7F29F481708260B3
:101B500080935E0208958A34E8F381708864F8CF38
:101B6000AF92BF92CF92DF92EF92FF920F931F93AB
:101B7000CF93DF93E82EF62EE901E42FF0E0611118
:101B800013C0EC5BFC4F4491E42F942F998348835E
:101B9000EA83DF91CF911F910F91FF90EF90DF903B
:101BA000CF90BF90AF900895062F10E026E0829F5F
:101BB000C00111242FEF30E0B9010E9452338E2D65
:101BC00090E0880F991F55E5569FD001579FB00DA3
:101BD00011248A1B9B0B582F550F580FC901801BCE
:101BE000910B8E9FD0018F9FB00D9E9FB00D112441
:101BF0008B2FF59E70011124EF2CFF246901CE1864
:101C0000DF08CE9E7001CF9EF00CDE9EF00C1124FA
:101C10009F2D5901A51AB108A09E6001A19ED00C6C
:101C2000B09ED00C1124CD2CDD242C193D092E9F03
:101C300080012F9F100D3E9F100D11246230710501
:101C400029F158F46115710579F06130710571F071
:101C5000E42F4B2F8F2D9E2F09C064307105E9F0C2
:101C6000C0F066307105A1F7942F412FE92FF0E005
:101C7000EC5BFC4F9491E42FF0E0EC5BFC4F449163
:101C8000E82FF0E0EC5BFC4FE49180CF9B2F812F9D
:101C9000EDCF842F4F2D9B2FE9CF912F842F4B2FEA
:101CA000E5CF9091370292FF06C0282F2871283087
:101CB00069F4877F846093FF06C0282F287128313C
:101CC00061F4877E846194FD877E0895282F2471B6
:101CD000243089F78B7F8860EECF282F2471243140
:101CE00091F78B7E8861EFCFCF93DF93972F70E0D2
:101CF0002EE0929F600D711D1124FB0146E4849F2C
:101D0000E00DF11D1124EE0FFF1FE85DF94FC591A5
:101D1000D491CE01C238D105A9F1E8F5C133D1057E
:101D200009F481C040F5C932D10509F475C0CA3241
:101D3000D10509F47FC0C11551E5D50708F0B1C040
:101D4000C11520E5D20708F0E4C1C83ED10508F06E
:101D50008AC0C13ED105E0F4C83AD10508F071C08F
:101D6000C53AD10508F02EC1C130D10589F028F15E
:101D7000249770F422C0C533D10509F446C0C93395
:101D8000D105C9F620913702237011F080EE90E062
:101D9000DF91CF910895C33ED10539F188F4C03E5B
:101DA000D105E1F0C23ED10531F62091370222FF84
:101DB000EFCF83EE90E024FFEBCF90E080E0E8CF20
:101DC000C63ED105C9F0C73ED10509F0B4CF209178
:101DD000370223FF0EC086EE90E0DACF2091370263
:101DE00020FFD6CF89E390E0D3CF2091370222FDA8
:101DF000DBC124FDE2CFCCCF2091370223FFC8CF37
:101E000087EE90E024FDD9CFC3CF2091370225FF84
:101E1000BFCF89E290E0BCCF2091370225FFB8CF39
:101E200085E390E0B5CF2091370226FFB1CF8AE25B
:101E300090E0AECF2091370226FFAACF81E390E059
:101E4000A7CFCF3BD10508F4CCC0FE01E05CF1097F
:101E5000E032F10508F0B1CFEE0FFF1FEC5BFC4F55
:101E60008591949195CFC11540E3D40788F4C115AD
:101E700050E2D50708F042C1C03FD10508F49DCF1C
:101E8000CF3FD10511F008F083CFCE01906580CF10
:101E9000C11580E4D80708F434C1CE019F70906A60
:101EA00077CFC11599E5D907E0F5C11528E5D20727
:101EB00008F06CC1C11544E5D407F8F4C11553E529
:101EC000D50708F049C1C11582E5D80708F43FC11C
:101ED0009E012370332741E050E002C0440F551F9C
:101EE0002A95E2F78C2F8695869520E2829FC00185
:101EF0001124842B952B9C684BCFC11595E5D907F0
:101F000008F43FC1C11526E5D20708F056CF8C2F43
:101F10000E94510E90E0982F882788279F71906229
:101F200037CF80E091EDCE3B4CE5D40709F430CFBC
:101F300008F5CC3B8CE5D80709F42DC108F02EC17B
:101F4000C1152AE5D20708F038CF8C2F8F700E9478
:101F5000510E9E0194E0369527959A95E1F72F70E2
:101F600030E0322F2227306A8F70806EA901482B13
:101F7000CA010ECF80E093EDC13C4CE5D40709F4D3
:101F800007CF60F4CF3B8CE5D80709F40AC1C03C09
:101F9000DC4509F012CF80E092EDFACECE019056EA
:101FA0008115904208F009CF8D2F8F710E94510E3C
:101FB000482F50E0542F442744275F71CE019927C2
:101FC0009062C2C081E890E4C53AD10509F4E0CE40
:101FD00083E890E4C63AD10509F0DACE82E890E4CD
:101FE000D7CE82EE94E4C83AD10509F4D1CE89EE79
:101FF00094E4C93AD10509F4CBCE8AEE94E4CA3A06
:10200000D10509F4C5CE85EB94E4CB3AD10509F4AA
:10201000BFCE86EB94E4CC3AD10509F4B9CE83EB7C
:1020200094E4CB3BD10509F4B3CE84EB94E4CC3BF0
:10203000D10509F4ADCE87EB94E4CD3AD10509F48E
:10204000A7CE8CEC94E4C03BD10509F4A1CE8DEC75
:1020500094E4CE3AD10509F49BCE83E895E4CF3AD7
:10206000D10509F495CE8AE895E4C13BD10509F480
:102070008FCE82E995E4C23BD10509F489CE84E98B
:1020800095E4C33BD10509F483CE81E296E4C43BD9
:10209000D10509F47DCE83E296E4C53BD10509F470
:1020A00077CE84E296E4C63BD10509F471CE85E291
:1020B00096E4C73BD10509F46BCE86E296E4C83BB3
:1020C000D10509F465CE87E296E4C93BD10509F450
:1020D0005FCE8FE694E4CD3BD10509F459CE80E77D
:1020E00094E4CE3BD10509F453CE8AE296E4CA3B90
:1020F000D10509F44DCE80E094E44ACEFE01FF7094
:10210000ABCECE019927D3FF02C0986C41CE906C24
:102110003FCE9E01F4E036952795FA95E1F72370BE
:102120003C2F337081E090E002C0880F991F3A95F0
:10213000E2F79C68AC01522B8C2F869586958370B4
:1021400020E2829FC0011124842B952B21CE9C2F4D
:102150008827816F906A1CCE9E012370332741E04F
:1021600050E002C0440F551F2A95E2F78C2F869548
:10217000869520E2829FC0011124842B952B9A68BA
:1021800007CE9C2F8827846F906A02CE9C2F8827C9
:10219000806F906AFDCD80E094EDFACD80E095ED02
:1021A000F7CD80E090EDF4CD82EE90E0F1CDBF92DE
:1021B000CF92DF92EF92FF920F931F93CF93DF9313
:1021C0008C01C0901502D0901602E0901702F0909A
:1021D000180280911E0290911F02A0912002B091DE
:1021E0002102C82AD92AEA2AFB2ACFE1D0E0BC2E54
:1021F000D701C6010C2E04C0B695A7959795879573
:102200000A94D2F780FD0EC0219788F7B12C8B2D50
:10221000DF91CF911F910F91FF90EF90DF90CF90C2
:10222000BF900895B8018C2F0E94740E019761F33E
:10223000EECFCF93DF93EC010E94D710BE01DF9168
:10224000CF910C94740E0E941911292F2F70E92F31
:10225000E295EF70E250EE30E0F4F0E0EE5CFE4E1E
:102260000C949C3340114011491149114B114911F3
:102270004911491140114011501149114911501192
:10228000803F19F020F4803E20F481E00895843FDF
:10229000E1F380E00895803EC0F3813FD1F7F5CFB0
:1022A000822F8695869586950895CF92DF92EF923C
:1022B000FF928C3724E1920750F469E070E00E94AD
:1022C0005233CB01FF90EF90DF90CF900895B0E0B4
:1022D000A0E0BC01CD016A50774D8F4F9F4F982FE2
:1022E000872F762F662725EF38E241E050E00E94E5
:1022F0007A3369017A01CA01B9010E9436339B0120
:10230000AC01C701B6010E943633672F782F892FA1
:1023100099276115710521E08207910591F66FEF0C
:102320007FEFCFCF8630D8F481111AC09091800012
:10233000977F90938000282F30E0AFEFBFEF0E948F
:10234000A23325E030E040E050E00E947A33C9013A
:102350000E94551190938D0080938C00089585E024
:10236000909180009860E5CF0F931F93CF93DF93F8
:1023700080911C0290911B02892B90911A02892B4B
:102380008093620190911D02992369F0892B8093BB
:102390006201E4E6F1E097E080E0915009F03FC08F
:1023A00081110E94D20CE0913A02F0913B023097E9
:1023B000E1F10280F381E02D82E691E009958091C0
:1023C0005D0282FF32C080FF04C08AEB9BE00E9466
:1023D000540AD0E0C0E004EB1BE080915D0280FF76
:1023E0000EC0FE01EE59FE4F80811F928F931F9306
:1023F0000F930E94ED0A0F900F900F900F9021966F
:10240000C830D10551F780915D0280FF0EC082EB8C
:102410009BE0DF91CF911F910F910C94540A219171
:10242000222309F4BACF8F5FB8CFDF91CF911F91EC
:102430000F91089510921B0210921A020E94B4117B
:1024400090E080E00E94770D90E080E00C94610DB8
:1024500060931502709316028093170290931802EE
:102460000C941A120F931F9341E050E060E070E06B
:1024700004C0440F551F661F771F8A95D2F7CB0102
:10248000BA01609570958095909500911502109114
:1024900016022091170230911802602371238223C3
:1024A00093231F910F910C942812909119028095FB
:1024B000892380931902282F277071F4282F082E62
:1024C000000C330B9217130639F085958595859589
:1024D0000E9432121092190208950F931F9341E047
:1024E00050E060E070E004C0440F551F661F771F86
:1024F0008A95D2F78091150290911602A091170249
:10250000B09118028A019B01082B192B2A2B3B2B17
:10251000C901B8011F910F910C94281260931E02FB
:1025200070931F0280932002909321020C941A1240
:10253000882341F0809590911C02892380931C028E
:102540000C94B4110895882339F090911C02892BC2
:1025500080931C020C94B4110895882309F452C08E
:10256000823871F40E948D0D81FF4CC089E30E9476
:10257000E40C0E94B41189E30E94D80C0C94B411AD
:10258000833859F40E948D0D80FF3CC083E50E9482
:10259000E40C0E94B41183E5EFCF843859F40E9413
:1025A0008D0D82FF2FC087E40E94E40C0E94B411BD
:1025B00087E4E2CF9CEF980F913AF0F290E2980F07
:1025C000983088F4877021E030E0A90102C0440F00
:1025D000551F8A95E2F7CA01809590911C028923C4
:1025E00080931C02CBCF9BE5980F933020F490E0B2
:1025F00080E00C94770D885A873120F490E080E0D9
:102600000C94610D08951092590280915D0280FF33
:1026100008C08FE095E09F938F930E94ED0A0F9082
:102620000F9008959FB7F89410925A029FBF90910F
:102630007102943009F049C02091E9002F70909107
:10264000EC0090FD30C090E0922B23E02093E90055
:102650002091EB0020FF36C02091EE0027FF32C012
:1026600020912802222321F02091E80025FF2AC092
:102670001092280226E03091E80035FF16C08093C2
:10268000F1008091E80085FD29C08091E80080FF7D
:10269000FCCF8091E8008E778093E8009F70909344
:1026A000E90080E0089590E8CFCF30917102343096
:1026B00049F43091EB0035FD05C0215041F481E033
:1026C000809328029F709093E9008FEF0895EFE9BF
:1026D000FFE03197F1F700C00000CDCF8FB7F8943D
:1026E00021E020935A028FBFD9CFCF93DF9300D040
:1026F0001F92CDB7DEB79C0190912702911129C09E
:1027000080917102843049F584E089833B832A8378
:1027100082E08093E9008FEF9091E800815095FD71
:1027200006C095ED9A95F1F700008111F5CF8091E3
:10273000E80085FF12C050E040E063E070E0CE01A9
:1027400001960E94440B8091E8008E778093E80008
:1027500004C09230C9F29430B9F20F900F900F90EC
:10276000DF91CF910895CF93DF9300D01F92CDB723
:10277000DEB720917102243031F523E0298380589F
:1027800091099B838A8382E08093E9008FEF909187
:10279000E800815095FD06C095ED9A95F1F700008F
:1027A0008111F5CF8091E80085FF0DC050E040E039
:1027B00063E070E0CE0101960E94440B8091E80036
:1027C0008E778093E8000F900F900F90DF91CF915C
:1027D0000895CF93DF93EC0180912702811107C008
:1027E00080917102843029F0DF91CF910895823079
:1027F000C9F781E08093E9008FEF9091E800815064
:1028000095FD06C095ED9A95F1F700008111F5CF81
:102810008091E80085FFE8CF50E040E068E070E09C
:10282000CE010E94440B8091E8008E778093E800EF
:1028300088E0FE01A7E6B2E001900D928A95E1F7EB
:10284000D3CF81E08093E00080E28093D8001092A3
:10285000C9008FE19EE40197F1F700C0000087E016
:1028600090EBDC0180937B0290937C02A0937D022D
:10287000B0937E0288E19CE00FB6F894A89580930F
:1028800060000FBE90936000FFCF80915E0280FDDC
:102890000AC0E0E7F1E0118210821282339631E043
:1028A000EA39F307C1F7809A81B38E7F91B39160C3
:1028B0002FB7F894E0E7F1E031E0EA39F30741F4AB
:1028C0002FBF87EC90E00197F1F700C0000008955A
:1028D000319148E091BB000000C037FF81BB330F4E
:1028E000000000C000C000C081BB00C04A9591F745
:1028F000E3CFEF92FF920F931F93CF93DF938C015F
:10290000C0E7D1E0F12CE12CF801948160916002E4
:1029100080915F02F7E0EF16F104FCF49923F9F0DF
:102920009E01409161020E94B00D2FEFE21AF20A5F
:1029300023968EE0E816F10439F70E944514F80159
:10294000848190E00196817099278483DF91CF91F3
:102950001F910F91FF90EF900895992309F39E0125
:1029600040E0E1CFEF92FF921F93CF93DF93EC0112
:1029700080E7E82E81E0F82E10E08C8197014091ED
:10298000610260916002810F0E94B00D1E5E83E0C3
:10299000E80EF11C1C3F89F70E9445149A818C8136
:1029A00090FF08C08F5F8C83DF91CF911F91FF90C4
:1029B000EF9008958150F7CFCF92DF92EF92FF9280
:1029C0000F931F93CF93DF93FC018281DD24DA9470
:1029D00080FD02C0DD24D39400E711E0D0E0C0E028
:1029E000F80111821082128294E0E92EF12CC12CA0
:1029F00080916D018C0D87FD825F082E000C990B74
:102A0000C817D90791F4809161028E9DA0018F9D16
:102A1000500D11245595479555954795980160910E
:102A2000600280915F020E94B00DCD0CF1E0EF1AC0
:102A3000F108F1F621960D5F1F4FCE30D10581F6DA
:102A40000E94451480916D0191E0D91210C081114E
:102A50000CC08DE080936D01DF91CF911F910F919C
:102A6000FF90EF90DF90CF9008958150F3CF90E0EA
:102A70000196BE010E946633EDCF0F931F93CF9353
:102A8000DF93C0E7D1E0FE011182108212823396FB
:102A900081E0EA39F807C1F710E000E080916E01AB
:102AA000082E000C990B081719078CF180910C0166
:102AB000082E000C990B801791074CF19E01409154
:102AC00061026091600280915F020E94B00D0F5F11
:102AD0001F4F23960E30110509F70E94451480916F
:102AE0000B0190916E01980F90936E0120910C0153
:102AF000280F20930C01121614F49D301CF08195C0
:102B000080930B01DF91CF911F910F91089519824E
:102B100018821A82DCCFEF92FF920F931F93CF930C
:102B2000DF93EC018C819D810196817099279D83B3
:102B30008C8380E7E82E81E0F82E10E005E5812FF8
:102B400086952C813D81820F932F911D8170970175
:102B50004091610260916002809F802D11240E944B
:102B6000B00D1F5F83E0E80EF11C1E3041F7DF91CE
:102B7000CF911F910F91FF90EF900C94451490917D
:102B80005E0290FF0CC0E0E7F1E081836083428346
:102B9000339691E0EA39F907C1F70C94451408958A
:102BA0000F931F93CF93DF9300D01F92CDB7DEB763
:102BB0008C0180916F0181110AC09E012F5F3F4FF0
:102BC0004FEF6FEF0E94B00D8A8180936F01F80183
:102BD0008481813069F038F040916F01823009F0D2
:102BE00040E080E003C080916F0140E060E004C0FD
:102BF00060916F0140E080E00E94BF15F801848180
:102C000090E0019663E070E00E94663384830F9049
:102C10000F900F90DF91CF911F910F910895CF9357
:102C2000DF9300D01F92CDB7DEB790915E0290FF88
:102C30000AC09E012F5F3F4F0E94B00D4B816981FA
:102C40008A810E94BF150F900F900F90DF91CF9156
:102C50000895CF93DF93EC01EC81F0E0E85DFA4F4B
:102C60004491EEE5F2E0628181810E940F168C8131
:102C70008F5F8C83DF91CF910895CF93DF93EC0129
:102C8000EEE5F2E0438162818C810E940F168C8117
:102C90008F5F8C83DF91CF9108957F928F929F9267
:102CA000AF92BF92CF92DF92EF92FF920F931F935A
:102CB000CF93DF93ADE2B2E04DE351E0712CEE240F
:102CC000E394F12CAD90BC90119711961C921E923A
:102CD000EA018991AE01E82FE295EF70F0E091A151
:102CE0008F70B70101C0660F8A95EAF7892F862B8E
:102CF00081A382A1962E9094892182A3D0EADA95AD
:102D0000F1F782E4C82E81E0D82E30E020E0E60121
:102D100089906E01082D02950F7010E0E80188A1DE
:102D20000D911C91119790E0D82DDF7002C0959500
:102D30008795DA95E2F780FD76C0C701022E02C0C2
:102D4000880F991F0A94E2F7082B192B11961C93F0
:102D50000E932F5F3F4F2E303105C9F681A1892197
:102D600081A382A1682B62A381E02D913C911197F0
:102D70002A153B0509F480E0782A1296D1E0423406
:102D80005D0709F09FCF772049F081E080936C01C7
:102D90000E94AE0C90936B0180936A0180916C014C
:102DA000882391F180916A0190916B010E94840CBB
:102DB000069750F180912D0290912E0290933E0241
:102DC00080933D0280912F029091300290934002B7
:102DD00080933F028091310290913202909342029F
:102DE0008093410280913302909134029093440287
:102DF000809343028091350290913602909346026F
:102E00008093450210926C01872DDF91CF911F9125
:102E10000F91FF90EF90DF90CF90BF90AF909F9079
:102E20008F907F90089590E080E08ECF682F86E0AD
:102E300090E00C94D033982F990F990F990F8091AF
:102E400029028770892B80932902887F91E009F4F9
:102E500090E08091290290FB80F9809329020E94E2
:102E60001617809129028695869586950C94921165
:102E700090E080E00E94CA3321E08D3E9E4F09F031
:102E800020E0822F0895CF92DF92EF92FF926B01A4
:102E90007C010E94A10DB701A60188E090E0FF909F
:102EA000EF90DF90CF900C94E2332F923F924F92AD
:102EB0005F926F927F928F929F92AF92BF92CF92CA
:102EC000DF92EF92FF920F931F93CF93DF9300D087
:102ED00000D000D0CDB7DEB7582E262E342E2E834C
:102EE00090915E0290FF47C0E92FE695AE2FB0E0CB
:102EF000A85EBE4F8C91809358029E7F923009F05D
:102F000053C09E012F5F3F4F852D0E94B00D4B8116
:102F100069818A810E94BF1550925F0220926002EF
:102F2000309261028E81882309F49FC060915E0215
:102F300070915F0280916002909161020E9443173C
:102F400080915D0280FF17C0809161021F928F9374
:102F5000809160021F928F9380915F021F928F93E6
:102F600085EA94E09F938F930E94ED0A0FB6F89440
:102F7000DEBF0FBECDBF26960FB6F894DEBF0FBEE4
:102F8000CDBFDF91CF911F910F91FF90EF90DF9018
:102F9000CF90BF90AF909F908F907F906F905F90F9
:102FA0004F903F902F900895823019F43090610235
:102FB000B3CF863019F450905F02AECF8930D9F389
:102FC000893109F0A9CFE9518E2F81708C838E2F22
:102FD000809581708D83E695F0E0EF50FB4FE59092
:102FE000F490FF2480E7C82E81E0D82EB12CA12CCC
:102FF00010E000E09EE0692E712C2AEC822E24E085
:10300000922EC501B3010E9452339C81452C91112F
:103010002AC0460E80915D0280FF12C0FF92EF929F
:103020001F928D818F931F924F921F930F939F92A8
:103030008F920E94ED0A0FB6F894DEBF0FBECDBF8F
:103040009601432D622D842D0E94B00D0F5F1F4FFE
:10305000AE0CBF1C93E0C90ED11C0E30110589F6D1
:103060000E94451459CF461AD5CF80915D0280FF4A
:1030700082CF1F923F921F922F921F925F928EE7F4
:1030800094E070CFEEE5F2E083E0808311828FEF71
:1030900082838383148260817181828193810C9405
:1030A00043176DEE7EEF90E080E00E94EE3360E02B
:1030B00082E090E00E94D03360E083E090E00E94E4
:1030C000D03310921E0210921F0210922002109212
:1030D000210260E084E090E00E94D03360E085E06F
:1030E00090E00E94D03360E086E090E00E94D03310
:1030F0006FEF87E090E00E94D03340E050E0BA01EB
:1031000088E090E00E94E23360E08DE090E00E9471
:10311000D03340E050E0BA0188E190E00E94E23311
:1031200060E087E190E00E94D03340E050E0BA01D7
:103130008CE190E00E94E23360E080E290E00E9447
:10314000D03340E050E0BA018FE090E00E94E233DB
:1031500040E050E0BA0183E190E00C94E2330E9439
:103160003817811102C00E94511886E090E00E9439
:10317000BC3380932902803320F08770886280936B
:1031800029028091290280FF05C086958695869543
:103190000C94921180E0FCCF10921C02E4E6F1E066
:1031A00086E0DF011D928A95E9F70C941A121F93AD
:1031B000CF93DF93CDB7DEB7AA970FB6F894DEBFF3
:1031C0000FBECDBFE3E7F2E08091F100819382E092
:1031D000EB37F807C9F780917402833009F47CC09B
:1031E00008F5813009F453C0823009F4BDC08091E4
:1031F000E80083FFF7C080917302909174029A30C7
:1032000008F0F0C0E92FF0E0E85FF64E0C949C3334
:10321000C519EB19F219EB19F219491A6B1AF219BF
:10322000751B821B8A3009F48EC08B3009F471C083
:103230008930E9F6809173028132C9F68091770274
:1032400090917802029798F68091E800877F8093AA
:10325000E8008091E80082FF3AC08091F3009091ED
:10326000F200892798278927029729F48091F10095
:103270008B7F813021F48091F100809366028091F0
:10328000E8008B778093E8000E946E0BB0CF8091AE
:103290007302813A09F0ABCF8091E800877F809379
:1032A000E8008091770290917802892B61F060E0CC
:1032B00090E080E070E00E94200C8091E8008B7725
:1032C0008093E80094CF68E087E692E0F3CF8091A6
:1032D00071028111BECF8BCF80917302813A09F0C8
:1032E00086CF8091770290917802892B09F07FCF69
:1032F0008091E800877F8093E8008091E80080FF5C
:10330000FCCF809117018093F1008091E8008E77C7
:10331000B9CF80917302813209F069CF8091770231
:1033200090917802892B09F062CF8091E800877F25
:103330008093E8000E946E0B8091750280931701C4
:103340000E94CC1854CF80917302813209F04FCF84
:103350008091E800877F8093E8000E946E0B809147
:1033600076028093650243CF80917302813A09F01F
:103370003ECF8091E800877F8093E8008091E8004D
:1033800080FFFCCF80916502BECF803889F0823803
:1033900049F5809177028F70873020F58093E9009E
:1033A0008091EB0085FB882780F91092E90006C028
:1033B00080916F0290917002911182609091E8006B
:1033C000977F9093E8008093F1001092F100809134
:1033D000E8008E772DC0282F2D7F21F48823D1F08F
:1033E000823059F18091E80083FF0AC08091E800A3
:1033F000877F8093E8008091EB0080628093EB00F0
:10340000AA960FB6F894DEBF0FBECDBFDF91CF9165
:103410001F91089580917502813021F7933009F052
:1034200080E0809370021092E9008091E800877F2D
:103430008093E8000E946E0BD5CF809175028111B8
:10344000F2CF809177028F702FEF280F263050F641
:103450008093E9002091EB0020FFE5CF933031F419
:103460008091EB0080628093EB00DDCF9091EB00C8
:1034700090619093EB0021E030E001C0220F8A952B
:10348000EAF72093EA001092EA008091EB0088604E
:10349000EACF8111A7CF109175021F778091E300C9
:1034A0008078812B8093E3008091E800877F809370
:1034B000E8000E946E0B8091E80080FFFCCF8091B5
:1034C000E30080688093E30083E0111101C082E093
:1034D0008093710287CF8058823008F083CF20918B
:1034E0007502309176022C3DA3E03A07A1F583E006
:1034F0008A838AE289834FB7F894DE01139620E02D
:103500003EE051E2E32FF0E050935700E49120FFBA
:1035100003C0E295EF703F5FEF708E2F90E0EA30CE
:10352000C0F0C7968D939D932F5F243159F74FBFFD
:103530008091E800877F8093E8006AE270E0CE0126
:1035400001960E94200C8091E8008B778093E80020
:1035500049CFC096E7CF8091770290917802432FB0
:1035600055274330510509F44FC078F541305105D6
:1035700009F445C08BE590E0E7E5F3E14230510501
:1035800009F030CF2091E800277F2093E8002091B8
:10359000790230917A028217930708F49C0140E087
:1035A0002115310509F06EC041116CC08091E80011
:1035B00082FDC9CF80917102882329F2853019F2EA
:1035C0008091E80083FFF2CFBECF4132510509F46C
:1035D0004AC04232510509F005CF8330910508F009
:1035E00001CFFC01EE0FFF1FED5AFE4F0190F0815D
:1035F000E02D805B9E4FDC018C9190E020C082E149
:1036000090E0E2EBF3E1BECF332721303105D9F072
:1036100078F022303105F9F02330310509F0E2CE9F
:10362000E4ECF3E1E4918E2F90E0E4ECF3E107C0E9
:10363000EAEFF3E1E4918E2F90E0EAEFF3E10097F7
:1036400009F4D0CE9FCFEEEDF3E1E4918E2F90E020
:10365000EEEDF3E1F4CFEAECF3E1E4918E2F90E0AC
:10366000EAECF3E1ECCF8330910508F0BBCE880F94
:10367000991FFC01E75AFE4F0190F081E02D89E08F
:1036800090E080CF80917102882309F45CCF85306F
:1036900009F459CF8091E80083FD55CF8091E8006F
:1036A00082FD84CF8091E80080FF7ACF8091F30083
:1036B0009091F2008927982789272115310519F063
:1036C0008830910550F041E0089709F040E0809182
:1036D000E8008E778093E80063CF44914093F10037
:1036E0003196215031090196E8CF803809F07ACE21
:1036F0008091E800877F8093E80080917202809338
:10370000F10065CE81116ECE10917502123008F075
:1037100069CE8091E800877F8093E8001093720261
:103720000E946E0B112399F084E08093710242E0B5
:1037300061EC81E00E948D0B42E261EC82E00E942C
:103740008D0B42E261EC83E00E948D0B4BCE8091A9
:10375000E30087FDE9CF81E0E8CFCF93C82F1F9228
:103760008F938AE091E19F938F930E94ED0A61E02D
:1037700070E080E090E004C0660F771F881F991FFB
:10378000CA95D2F70E948E120F900F900F900F9053
:10379000CF910C94CC18CF938B3109F429C208F047
:1037A000C0C18B3009F4E6C108F08AC1863009F443
:1037B000F4C148F4853009F4C2C180E690E10E946A
:1037C000540A80E0FBC1873009F4FAC18830A9F7B8
:1037D0008FEF90E10E94540A8AE39DE00E94540A10
:1037E00083E090E00E94BC331F928F9387E39DE0BB
:1037F0009F938F930E94ED0A85E39DE00E94540AF7
:1038000082E090E00E94BC33C82F82E29DE00E94DB
:10381000540A1F92CF938DE19DE09F938F930E9456
:10382000ED0A8BE19DE00E94540A81E19DE00E9437
:10383000540A8C2F81701F928F938EE09DE09F938E
:103840008F930E94ED0A8CE09DE00E94540A82E072
:103850009DE00E94540AC1FB882780F91F928F9334
:103860008FEF9CE09F938F930E94ED0A8DEF9CE079
:103870000E94540A81EF9CE00E94540AC2FB8827F0
:1038800080F91F928F938EEE9CE09F938F930E94FE
:10389000ED0A8CEE9CE00E94540A83EE9CE00E94AC
:1038A000540AC3FBCC27C0F91F92CF9380EE9CE053
:1038B0009F938F930E94ED0A8EED9CE00E94540A24
:1038C00084E090E00E94BC33C82F8AEC9CE00E9408
:1038D000540A1F92CF9385EC9CE09F938F930E9494
:1038E000ED0A83EC9CE00E94540A8AEA9CE00E9464
:1038F000540A8C2F81701F928F9387EA9CE09F93CC
:103900008F930E94ED0A8DB79EB780960FB6F894FC
:103910009EBF0FBE8DBF85EA9CE00E94540A8EE8D0
:103920009CE00E94540AC1FB882780F91F928F9364
:103930008BE89CE09F938F930E94ED0A89E89CE0BE
:103940000E94540A87E79CE00E94540AC2FB882721
:1039500080F91F928F9384E79CE09F938F930E943E
:10396000ED0A82E79CE00E94540A80E69CE00E94F7
:10397000540AC3FB882780F91F928F938DE59CE042
:103980009F938F930E94ED0A8BE59CE00E94540A5E
:1039900081E59CE00E94540AC4FB882780F91F92AD
:1039A0008F938EE49CE09F938F930E94ED0A8CE4AA
:1039B0009CE00E94540A8AE39CE00E94540AC5FBE2
:1039C000882780F91F928F9387E39CE09F938F93C2
:1039D0000E94ED0A85E39CE00E94540A89E19CE084
:1039E0000E94540AC6FB882780F91F928F9386E1B4
:1039F0009CE09F938F930E94ED0A84E19CE00E94DB
:103A0000540A8CE09CE00E94540AC7FBCC27C0F902
:103A10001F92CF9389E09CE09F938F930E94ED0AC1
:103A200087E09CE00E94540A86E090E00E94BC334C
:103A3000C82F80EF9BE00E94540A1F92CF938BEE19
:103A40009BE09F938F930E94ED0A8DB79EB780965F
:103A50000FB6F8949EBF0FBE8DBF89EE9BE00E940B
:103A6000540A8FED9BE00E94540A8C2F81701F92A4
:103A70008F938CED9BE09F938F930E94ED0A8AEDCC
:103A80009BE00E94540A81ED9BE00E94540AC69577
:103A9000C695C6951F92CF938EEC9BE09F938F9314
:103AA0000E94ED0A8CEC9BE00E94540A8DB79EB7F1
:103AB00008960FB6F8949EBF0FBE8DBF81E07EC002
:103AC000803109F4ADC080F48E3009F076CE90914B
:103AD0005D02892F8B7F92FF846080935D0282FF5D
:103AE0009CC08BE890E190C0863109F4A9C089316F
:103AF00009F063CE88EE9FE00E94540A8BEC9FE0B1
:103B00000E94540A8EE89FE00E94540A80E69FE0DB
:103B10000E94540A83E39FE00E94540A88E09FE0D9
:103B20002BC08A3299F1E0F4873261F128F48E31AA
:103B300008F443CE8D5127C0893209F03ECE0E9451
:103B4000CC188EEC90E10E94540A9FEF23ED80E3A5
:103B5000915020408040E1F700C000000E942114F5
:103B6000833468F48A3308F0ABC0853359F0883366
:103B700009F023CE8AE49DE00E94540A9FCF83344B
:103B800009F01BCE80E00E94AD1B98CF8EEE90E135
:103B90000E94540A0E94511891CF80915D02817F4A
:103BA0008E7F80935D028DEE9EE00E94540A8AEE25
:103BB00090E10E94540A81E080932602CF910895FB
:103BC00090915D02892F8E7F90FF816080935D02CE
:103BD00080FF03C082EC90E1CFCF85EB90E10E94A3
:103BE000540A80915D02897F877F80935D0266CF52
:103BF00090915D02892F8D7F91FF826080935D029D
:103C000081FF08C088EA90E10E94540A80915D0219
:103C10008160EBCF8AE990E1AFCF8BE790E1ACCF49
:103C200090915D02892F877F93FF886080935D026A
:103C300083FF03C08FE690E1E7CF82E690E19CCF5F
:103C400082E590E10E94540A0E948D0D1F928F938D
:103C500088E390E19F938F930E94ED0A8091170172
:103C60001F928F9381E290E19F938F930E94ED0AC0
:103C7000809165021F928F938EE090E19F938F93C6
:103C80000E94ED0A2FB7F8948091220290912302AE
:103C9000A0912402B09125022FBFBF93AF939F93B1
:103CA0008F9387EF9FE09F938F930E94ED0A8DB7CC
:103CB0009EB742960FB6F8949EBF0FBE8DBFFECE44
:103CC000895361CFCF93C82F882309F45FC082380E
:103CD000C1F40E948D0D81FD59C089E30E94E40C5E
:103CE0000E94B4112FEF81EE94E02150804090406B
:103CF000E1F700C0000089E30E94D80CCF910C943A
:103D0000B4118338A1F40E948D0D80FD3FC083E57E
:103D10000E94E40C0E94B4112FEF81EE94E0215038
:103D200080409040E1F700C0000083E5E5CF843893
:103D3000A1F40E948D0D82FD29C087E40E94E40C4D
:103D40000E94B4112FEF81EE94E02150804090400A
:103D5000E1F700C0000087E4CFCF8CEF8C0F813AF1
:103D6000C0F580912602882341F0813089F01092BD
:103D700026028C2F0E94E40CC1CF80911C0282325B
:103D8000C1F78C2F0E94CB1B882399F3CF91089504
:103D900080911C028232A9F3C431B9F038F4CB30DF
:103DA00049F08CEA9BE00E94540A11C0C93269F0C4
:103DB000C833B9F78DEE9EE00E94540A8EEA9BE06C
:103DC0000E94540A81E08170DFCF1092260280E0C9
:103DD000FACF80E28C0F883068F4C77021E030E0C1
:103DE00001C0220FCA95EAF780911C02822B8093B2
:103DF0001C0284CF8BE58C0F833068F481E890E05F
:103E0000C53A31F083E890E0C63A11F482E890E0D8
:103E1000CF910C94770D88E58C0F873108F0B6CFE1
:103E200082EE90E0C83A09F460C089EE90E0C93AA9
:103E300009F45BC08AEE90E0CA3A09F456C085EBFB
:103E400090E0CB3A09F451C086EB90E0CC3A09F40B
:103E50004CC083EB90E0CB3B09F447C084EB90E08F
:103E6000CC3B09F442C087EB90E0CD3AF1F18CEC09
:103E700090E0C03BD1F18DEC90E0CE3AB1F183E817
:103E800091E0CF3A91F18AE891E0C13B71F182E98A
:103E900091E0C23B51F184E991E0C33B31F181E211
:103EA00092E0C43B11F183E292E0C53BF1F084E281
:103EB00092E0C63BD1F085E292E0C73BB1F086E2EA
:103EC00092E0C83B91F087E292E0C93B71F08FE647
:103ED00090E0CD3B51F080E790E0CE3B31F090E0B8
:103EE00080E0CA3B11F48AE292E0CF910C94610D1C
:103EF000CF93C82F0E94621EC93349F42FEF87EE7B
:103F000093E0215080409040E1F700C000008C2FEA
:103F1000CF910C94AD120F931F93CF93DF93C62FC5
:103F2000D42F022FFC0182818823A1F06093AE017F
:103F30000E94AE0C90939B0180939A01C77081E020
:103F400001C0880FCA95EAF7DF91CF911F910F91B9
:103F50000C94A3121091AE01161335C080919A01F2
:103F600090919B010E94840C883C910560F5C0E211
:103F7000CD0F1D17B9F080E2810F883040F4177023
:103F800081E001C0880F1A95EAF70E949812C830A4
:103F900008F581E09D2F977001C0880F9A95EAF788
:103FA0000E94A312802F0E94781FC830D0F4D770CF
:103FB00081E001C0880FDA95EAF7DF91CF911F9178
:103FC0000F910C949812C77081E001C0880FCA95B8
:103FD000EAF7F3CF802FDF91CF911F910F910C94CF
:103FE000781FDF91CF911F910F910895FF920F934A
:103FF0001F93CF93DF938C01F8012491222309F4BE
:1040000042C0E8012196213049F4FE011491812F2C
:104010000E94621E812F0E94AD1206C0223041F420
:10402000FE0184910E94621E8E010F5F1F4FE4CF3C
:10403000233019F4FE018491EECF30E0F901EC5BFE
:10404000FD4FF490F901EC53FE4FD491F901EC5B74
:10405000FE4FC491DD2319F081EE0E94621ECC2335
:1040600019F086EE0E94621E8F2D0E94781FCC23CD
:1040700019F086EE0E94AD12DD2319F081EE0E9448
:10408000AD12E801D1CFDF91CF911F910F91FF9039
:10409000089560915E02669570E04BE050E080E02C
:1040A00091E00E940434892B19F481E08093590235
:1040B0000E94AE0C909353028093520280915D0255
:1040C00080FF08C086EF94E09F938F930E94ED0AD3
:1040D0000F900F90089590915E0290FF55C09170DF
:1040E00081113CC0926090935E026623F1F1609171
:1040F0005E0270915F0280916002909161020E9465
:10410000431780915D0280FF0FC080915E0286950B
:104110001F928F9382E694E09F938F930E94ED0A03
:104120000F900F900F900F9060915E02669570E077
:104130004BE050E080E091E00E940434892B09F1CB
:104140000E94031381E08093550220E040916102B8
:104150006091600280915F020C945517853210F0D7
:104160009864C1CF880F982BBECF80915D0280FFED
:10417000DBCF80915E0286951F928F9384E494E05A
:10418000CBCF0E944920DECF089561E00C946B20D4
:1041900080915E028695815009F484E261E00C947E
:1041A0006B2080915E0286958F5F853208F081E0FA
:1041B00061E00C946B208F929F92AF92BF92CF924E
:1041C000DF92EF92FF920F931F93CF93DF9300D074
:1041D00000D01F92CDB7DEB76C01DC011C911196A7
:1041E000FC90119713968D919C91892B41F0BFEF14
:1041F000FB1203C081E01F3F19F080E001C081E0A5
:10420000E82FE170EE2E80FD74C085E0F601DE013E
:10421000119601900D928A95E1F7D60112962C9194
:1042200089819A81222309F476C00E94D710082F31
:10423000682F89819A810E94280DE12FF0E0BEE06D
:10424000FB9EE00DF11D112426E4029FE00DF11DFF
:104250001124EE0FFF1FE85DF94F059114915801ED
:10426000D60112968C91093FBCE51B0709F45AC090
:104270000A3FECE51E0709F45DC0083FFCE51F0797
:1042800039F4882309F44BC088E09AE00E94F61FB5
:10429000D6011296FC90FF2011F40C945E298091B7
:1042A000AD01882309F44FC08091AB019091AC011E
:1042B0000E94840C8C32914008F091C0C801905645
:1042C0008115E0E29E0720F0905E8115904110F488
:1042D0005801BB248091AA01853090F5E82FF0E0C9
:1042E000EE0FFF1FE056FE4FB182A0828F5F8093DA
:1042F000AA010F900F900F900F900F90DF91CF9128
:104300001F910F91FF90EF90DF90CF90BF90AF90F3
:104310009F908F9008950E94FD0C082F8ECF85E00E
:104320009AE0B4CF882319F082E09AE0AFCF8FEF04
:1043300099E0ACCF882309F4ABCF8CEF99E0A6CFFE
:104340001092AD01D6CF07312CE5120709F00DC749
:1043500081E08093AD010E94AE0C9093AC018093FC
:10436000AB011092AA01E0EAF1E08AE0DF011D92C0
:104370008A95E9F7F6018281882311F40C94ED29DE
:104380001092AE010B3CFCE51F0709F485C208F052
:1043900003C1033C8CE5180709F4A2C108F0BDC0B5
:1043A0000531ACE51A0708F064C00230BCE51B0714
:1043B00008F0E3C20115ECE51E0709F449C101301C
:1043C0001C4509F452C1F60100811181C8010E9407
:1043D000D710F82E682FC8010E94280DB1C7013FE1
:1043E000BCE51B07B9F120F5093DFCE51F0771F19C
:1043F0000A3D2CE51207D1F1083D8CE5180709F0BC
:10440000B9CF26E241EE61EEC6010F900F900F90FA
:104410000F900F90DF91CF911F910F91FF90EF9030
:10442000DF90CF90BF90AF909F908F900C948B1F98
:10443000033F9CE51907B1F088F0043FBCE51B077A
:1044400009F098CF27E245EE66EEDECF27E245EE93
:1044500065EEDACF26E241EE60EED6CF27E245EEFA
:1044600064EED2CF26E241EE62EECECF28E241E00A
:10447000EFCF06312CE5120709F415C3023C1C45A9
:1044800009F0A1CF109129021695117080915D025B
:1044900080FF8EC61F921F938AEE9AE09F938F93A0
:1044A0000E94ED0A0F900F900F900F90112309F4C6
:1044B00081C68091290281FF1CCF809129028D7FC6
:1044C000809329020E94161780915D0280FF08C028
:1044D00081EB9AE09F938F930E94ED0A0F900F90CB
:1044E00080916F008E7F80936F0080912902869566
:1044F000869586950F900F900F900F900F90DF91FB
:10450000CF911F910F91FF90EF90DF90CF90BF90D0
:10451000AF909F908F900C949211073C9CE51907E7
:1045200009F495C128F5053CBCE51B0709F475C1E4
:1045300008F459C1FF2009F4DCCE80915F0221E02C
:104540004091610260916002885F0F900F900F9020
:104550000F900F90DF91CF911F910F91FF90EF90EF
:10456000DF90CF90BF90AF909F908F900C94551795
:10457000093CFCE51F0709F485C108F474C1FF205C
:1045800009F4B7CE4091610228E0420F08F44FEFE2
:1045900021E06091600273C1023D8CE5180709F4C7
:1045A000C5C158F50E3CACE51A0709F4A4C198F44E
:1045B0000C3CECE51E0709F479C10D3C1C4509F0E3
:1045C00002CFFF2009F495CE80916202882309F47E
:1045D00077C1815073C1003D2CE5120709F49BC1DE
:1045E00008F48EC1FF2009F484CE0E94990D8950F1
:1045F000853008F419C189E0E3C0063D9CE5190740
:1046000009F4AFC190F4043DBCE51B0709F4A4C153
:1046100008F497C1FF2009F46CCE0E94990D8951CE
:10462000893008F401C189E1CBC00E3DFCE51F07CC
:1046300009F49CC10F3D2CE51207E1F10D3D1C452D
:1046400009F0C1CEFF2009F454CE1092270251CEBA
:104650000E94CC189FEFA4E3BCE09150A040B04072
:10466000E1F700C000000E942114FF2009F441CEB0
:1046700090915D02892F8E7F90FF816080935D0213
:1046800080FF15C08CE19BE00F900F900F900F9072
:104690000F90DF91CF911F910F91FF90EF90DF90DE
:1046A000CF90BF90AF909F908F900C94540A8AE067
:1046B0009BE0EACFFF2009F41CCE0F900F900F90E3
:1046C0000F900F90DF91CF911F910F91FF90EF907E
:1046D000DF90CF90BF90AF909F908F900C94511827
:1046E000FF2009F406CE80915D0280FF10C080910A
:1046F0005E02809581701F928F938AE79AE09F9364
:104700008F930E94ED0A0F900F900F900F90809161
:104710005E0280FF3EC08E7F80935E0260915E02EB
:1047200070915F0280916002909161020E94431734
:1047300080915D0280FF0FC080915E0281701F92A8
:104740008F938BE09AE09F938F930E94ED0A0F90D6
:104750000F900F900F900E940313EFEFF0E722E00D
:10476000E150F0402040E1F700C000000F900F90B2
:104770000F900F900F90DF91CF911F910F91FF90AD
:10478000EF90DF90CF90BF90AF909F908F900C9460
:104790004514816080935E0280915D0280FF0DC0B0
:1047A0001F9281E08F9383E49AE09F938F930E94FE
:1047B000ED0A0F900F900F900F9080915E028695FA
:1047C0000F900F900F900F900F90DF91CF911F914E
:1047D0000F91FF90EF90DF90CF90BF90AF909F90A0
:1047E0008F900C94C520FF2009F483CD80911C028A
:1047F0008272D1F00F900F900F900F900F90DF9179
:10480000CF911F910F91FF90EF90DF90CF90BF90CD
:10481000AF909F908F900C94C820FF2009F469CD31
:1048200080911C02827231F30F900F900F900F90C5
:104830000F90DF91CF911F910F91FF90EF90DF903C
:10484000CF90BF90AF909F908F900C94D120FF207D
:1048500009F44FCD80915F0221E0409161026091A7
:104860006002885072CEFF2009F443CD609160024F
:1048700028E0620F08F46FEF21E04091610280911F
:104880005F0263CEFF2009F434CD6091600228E01E
:10489000621B08F460E0F0CFFF2009F42ACD4091BC
:1048A000610228E0421B08F440E072CEFF2009F4C8
:1048B00020CD80916202833018F48F5F8093620272
:1048C00060915E0270915F0280916002909161023E
:1048D0000F900F900F900F900F90DF91CF911F913D
:1048E0000F91FF90EF90DF90CF90BF90AF909F908F
:1048F0008F900C94431781E0FF2009F4FACC60CF2D
:10490000FF2009F4F6CC0E94990D8250833008F400
:104910008BCF82E055CFFF2009F4EBCC0E94990D9C
:104920008650823008F480CF86E04ACFFF2009F419
:10493000E0CC0E94990D8F50853008F475CF8FE040
:104940003FCFFF2009F4D5CC0E94990D85518230CC
:1049500008F46ACF85E134CF88E1FF2009F4C9CC9F
:104960002FCFFF2009F4C5CC83E22ACFFF2009F422
:10497000C0CC82E080932702BCCCFF2009F4D9C4CC
:104980000E943817811102C00E94511884E090E003
:104990000E94BC3390E09093380280933702F80174
:1049A000E350FC45809137028160E231F105C8F4A3
:1049B000E452FB4D0C949C33EE240C251025142559
:1049C00018251C252025242528252C25302534258F
:1049D00038253C254025442548254C258091370223
:1049E0008260809337026091370284E090E00E94F9
:1049F000D0330F900F900F900F900F90DF91CF91C9
:104A00001F910F91FF90EF90DF90CF90BF90AF90EC
:104A10009F908F900C94CC18809137028460E1CFE6
:104A2000809137028860DDCF809137028061D9CFD5
:104A3000809137028062D5CF809137028064D1CFD8
:104A4000809137028068CDCF809137028460EACFB1
:104A5000809137028E7FC5CF809137028D7FC1CF85
:104A6000809137028B7FBDCF80913702877FB9CF8E
:104A7000809137028F7EB5CF809137028F7DB1CF85
:104A8000809137028F7BADCF809137028F77A9CF8E
:104A9000809137028B7FEACF90913702892F97FB65
:104AA00087F980589ECF80911C028A7A91E009F4A0
:104AB00090E09093AF018823B1F085E30E94E40C6D
:104AC0000F900F900F900F900F90DF91CF911F914B
:104AD0000F91FF90EF90DF90CF90BF90AF909F909D
:104AE0008F900C94B41189E2E9CF8091AF018823B3
:104AF00021F085E30E94D80CE3CF89E2FBCFF12FB0
:104B0000FF70FF2E107F19F0F29490EFF922802FA2
:104B1000BB20C9F0FF2069F090E2900F983010F0B0
:104B200001110BC080911C02F82AF0921C020E9415
:104B3000B411802F0E94621E17C080911B02F82AB8
:104B4000F0921B02F4CF0E94AD12FF2069F0F094A6
:104B5000005E083010F0911031C080911C02F822E4
:104B6000F0921C020E94B411EE2009F4C2CB809195
:104B7000190280FDBECBD60112961C9285958595B3
:104B800085950E946D12C6010E94DB20809119025A
:104B90008595859585950F900F900F900F900F90AC
:104BA000DF91CF911F910F91FF90EF90DF90CF9009
:104BB000BF90AF909F908F900C94321280911B0207
:104BC000F822F0921B02CECF212F2F70F22E107FF1
:104BD000103219F0F29480EFF822992089F091E0D8
:104BE000991679F1BB20D1F1AA2089F1D601159649
:104BF0008C91159780FF9DCF8F7015968C9327C051
:104C0000BB2091F090911D028F2D892BA11003C024
:104C10000E94A312A9CFA1E0AA12FACF891709F422
:104C2000A3CF80931D02A0CFA11006C00E94D20C7A
:104C30008F2D0E94981298CFB1E0AB1609F494CF53
:104C4000F5CFBB2031F0E5E0EA1508F48DCF8F2DCC
:104C5000DFCFF4E0FA1508F487CFEACFAA2041F3BA
:104C6000093349F4BFEFE7EEF3E0B150E040F04024
:104C7000E1F700C00000802F0E94AD1275CF812F98
:104C800086958695837079F08130B1F088E0F816CA
:104C900009F466C0F81608F467CF86EF8F0D8230EE
:104CA00008F45EC061CFC8019370B11002C090E0FB
:104CB00080E00E94770D58CFC8019370B11002C0F8
:104CC00090E080E00E94610D4FCF812F837009F04A
:104CD00068C0B11045C0802F829586958770880F77
:104CE000880F602F6F70862E912CB12CA12C082E6E
:104CF00004C0880C991CAA1CBB1C0A94D2F740E083
:104D000050E0BA0104FF0FC04FE050E060E070E0F7
:104D100004C0440F551F661F771F8A95D2F7409530
:104D2000509560957095812F869586958370823019
:104D300029F1E8F400911E0210911F022091200237
:104D400030912102813079F0482959296A297B293B
:104D5000CB01BA0160237123822393230E948E1218
:104D60000E948D0D01CF802A912AA22AB32ACB015D
:104D7000BA01682979298A299B29F0CF482959291C
:104D80006A297B2900911E0210911F0220912002A6
:104D900030912102CB01BA01602771278227932726
:104DA000DDCF8695BB2011F0812F81708823C1F261
:104DB000802F829586958770880F880F602F6F707F
:104DC000862E912CB12CA12C082E04C0880C991C85
:104DD000AA1CBB1C0A94D2F740E050E0BA0104FFC1
:104DE0000FC04FE050E060E070E004C0440F551F7A
:104DF000661F771F8A95D2F74095509560957095FC
:104E0000812F869586958370823019F1D8F40091B0
:104E1000150210911602209117023091180281306C
:104E200069F0482959296A297B29CB01BA016023F5
:104E30007123822393230E94281292CF802A912AE1
:104E4000A22AB32ACB01BA01682979298A299B2988
:104E5000F2CF482959296A297B290091150210911E
:104E600016022091170230911802CB01BA01602777
:104E7000712782279327DFCF802FE0E2E00FE53113
:104E800008F08BC0F0E0E95BF84D0C949C335C2794
:104E90005C275C275C275C275C275C275C275C27FA
:104EA0005C275C275C275C275C275C275C276D27D9
:104EB00093279A27A127B3270F70812F8F71BB20CB
:104EC00031F00E946D12802F0E94A312DFCE0E944B
:104ED0003212802F0E949812D9CEBB20F9F024E024
:104EE0002A1508F4D3CE1F7161E070E080E090E0F5
:104EF00004C0660F771F881F991F1A95D2F700917B
:104F000015021091160220911702309118026027A5
:104F10007127822793270E942812B8CE85E08A1530
:104F200008F4B4CEE0CF812F8F71BB2039F00E94FE
:104F30006D12ACCE812F8F71BB20C9F30E9432124B
:104F4000A5CE60E070E0CB01BB2029F31F7161E0CA
:104F500070E080E090E004C0660F771F881F991F03
:104F60001A95D2F7D8CFBB2069F01F71812F0E940C
:104F70006D12A8E01A9FC00111248360809319026A
:104F8000812FD5CF81E00E945512B1E0BA1508F00B
:104F90007DCE82E00E94551279CEBB2041F0AA203E
:104FA00019F00E94621E72CE812F8F71C0CFAA208D
:104FB00079F0093349F4EFEFF7EE23E0E150F040E8
:104FC0002040E1F700C00000802F0E94AD125ECEAD
:104FD000812F8F71B3CFB110C7CD1F70123009F47C
:104FE00061C038F5112389F1113009F04FCE80915D
:104FF0002902982F987F79F0885080932902887F22
:1050000091E009F490E08091290290FB80F980936F
:1050100029020E94161780915D0280FF0AC18091CB
:1050200029028695869586951F928F9385E49BE04D
:1050300030C0143009F497C008F465C080E0153022
:1050400009F024CE0E941B178FCD80912902982F42
:10505000969596959695953040F49F5F990F990F88
:10506000990F8770892B8093290280912902816092
:10507000809329020E94161780915D0280FFD9C09B
:10508000809129028695869586951F928F938DE251
:105090009BE09F938F930E94ED0A0F900F900F90CB
:1050A0000F90C7C010912902117080915D0280FF9E
:1050B000A2C01F921F9382E89BE09F938F930E9450
:1050C000ED0A0F900F900F900F90112309F495C0E7
:1050D0008091290280FF48CD809129028E7F8093A4
:1050E00029020E94161780915D0280FF08C08DE59D
:1050F0009BE09F938F930E94ED0A0F900F9080E0AA
:105100000E94921131CD90912902892F8695869522
:1051100086958F5F8F719770863010F5880F880F96
:10512000880F892B8093290280912902887F91E042
:1051300009F490E08091290290FB80F98093290284
:105140000E94161780915D0280FF73C08091290232
:105150008695869586951F928F9388E99BE099CFD7
:1051600090932902E1CF85E06DCF013FBCE51B079D
:1051700009F470C980F4093DFCE51F0709F466C90C
:105180000A3D2CE5120709F471C9083D8CE51807A2
:1051900009F0F6C836C9033F9CE5190709F462C94E
:1051A00008F45CC9043FBCE51B0709F44BC9E8C817
:1051B000111183C98091290281FD9BC8826080936F
:1051C00029020E94161780915D0280FF08C08EECB4
:1051D0009AE09F938F930E94ED0A0F900F90109288
:1051E0002C0210922B0210922A0280916F00816093
:1051F00080936F007EC811116FCF8091290280FDCE
:10520000B3CC816080932902813019F489E08093C6
:105210002902809129020E94161780915D0280FF69
:1052200008C080E79BE09F938F930E94ED0A0F9048
:105230000F908091290286958695869561CF0631DB
:105240002CE5120709F451CC023C1C4509F451C865
:1052500070C0023D9CE5190709F44BC8A8F40E3C48
:10526000BCE51B0711F40C94792110F00C94792102
:105270000C3CFCE51F0711F40C9479210D3C1C45F6
:1052800011F40C94792155C0063D8CE5180711F4F2
:105290000C94792110F40C9479210E3DACE51A0799
:1052A00011F40C9479210F3DBCE51B0711F40C940B
:1052B00079210D3D1C45E9F50C947921013FFCE570
:1052C0001F0709F4C7C808F078C0093D8CE5180726
:1052D00009F4BCC80A3D9CE5190709F4C7C8083D94
:1052E000ACE51A0709F48DC80B3CFCE51F0711F467
:1052F0000C94792108F0ADCF033C8CE5180711F42C
:105300000C94792110F00C9479210531ACE51A0741
:1053100008F095CF0230BCE51B0758F40115ECE509
:105320001E0711F40C94792101301C4511F40C94E2
:105330007921D6010D911C91C8010E94FD0CF82E17
:10534000B8018F2D0E94740E8C01982EF601A58055
:10535000A2943FE0A322B280B11010921B02809170
:105360001902877081F0BB2069F080E2800F8830DD
:1053700050F082E00E945512809119028770EE244D
:10538000E3948111E12CF12EF2942FE0F222EF2D23
:10539000F0E0E353F64D0C949C337F257F25E42504
:1053A000E4253F26462646264626652646263C27F1
:1053B0003C27B425EB274626B425033FBCE51B0755
:1053C00011F40C94322210F40C942E22043FFCE5CC
:1053D0001F0711F40C94222287CF0B3C2CE51207F7
:1053E00011F40C94792148F5033C9CE5190711F45C
:1053F0000C94792110F00C9479210531BCE51B0740
:1054000088F40230ECE51E0708F093CF0115FCE5A7
:105410001F0711F40C94792101301C4511F40C94F0
:10542000792187CF06318CE5180709F45ECB023C61
:105430001C4511F40C9479217CCF023DACE51A0790
:1054400011F40C947921A8F40E3CECE51E0711F43C
:105450000C94792110F00C9479210C3C2CE5120766
:1054600011F40C9479210D3C1C4511F40C94792114
:1054700060CF063D9CE5190711F40C94792110F4D6
:105480000C9479210E3DBCE51B0711F40C94792195
:105490000F3DECE51E0711F40C9479210D3D1C45E0
:1054A00009F047CF0C9479211F93CF93DF9380911C
:1054B000B501807FD1F48091B2018823B1F0809151
:1054C000E701D091B601B091B001C091B101409116
:1054D000B3015091B401A1E0BF3F09F0A0E0BA01CF
:1054E0006095709516E0D81304C0DF91CF911F919D
:1054F000089521E04115510521F02A2FCF3F09F0F1
:1055000020E090E020FD38C0189FF001199FF00DB9
:105510001124E954FE4F21812C132EC020812B131E
:105520002BC02281211128C0238134812417350703
:1055300000F1241B350B283C3105F0F42091B50116
:105540002F7020612093B50126E0289FF001299F4C
:10555000F00D1124E454FE4F80818F7080618083B0
:1055600080EB91E00E94DB20DF91CF911F910C94A2
:10557000570D260F371FDFCF01968770B4CFAF923C
:10558000BF92CF92DF92EF92FF920F931F93CF9330
:10559000DF93CDB7DEB761970FB6F894DEBF0FBECD
:1055A000CDBF8C0185E0F801DE011D9601900D92C2
:1055B0008A95E1F7D8013C9111962C91119712969A
:1055C000EC905091B0016091B1018091B301909144
:1055D000B40141E0009731F06F3F19F441E05F3FC3
:1055E00009F040E0B42FB170BB2E40FD5EC1F80160
:1055F000C380D480A090B201AA2009F40EC1C816BD
:10560000D906C0F1D601A81BB90BCD01FF24F39434
:10561000883C910508F0F12C8091B501982F907F7E
:10562000FF2009F4BCC0911185C0FE2C621327C075
:10563000531325C0E11023C08F7080618093B501A2
:1056400080EB91E00E94DB208091B501F801858319
:105650008F2D61960FB6F894DEBF0FBECDBFDF91E0
:10566000CF911F910F91FF90EF90DF90CF90BF905F
:10567000AF900895809590958C0D9D1DC7CF81E0CA
:10568000CD2831F02F3F19F481E03F3F09F080E051
:1056900080FD24C081E08E25F82FF170DF2E80FF81
:1056A0003FC08091E7014091B60156E0841318C0D5
:1056B0003D872E878D859E850E941911292F229561
:1056C0002F70223008F1243030F59F7009F1D80195
:1056D00015969C91907FE1F4FB2CBACF80E0DCCF53
:1056E00090E0589FF001599FF00D1124E954FE4FAE
:1056F0006181261306C06081361303C06281E61201
:105700000FC001968770D2CF9F7011F0882321F3CC
:10571000805E883008F3C8010E94DB20BD2CDCCFFE
:10572000EE2009F495CF8091B50181608093B50199
:10573000F12C8ECF621306C0531304C0F801EE2083
:1057400009F495C03D872E878D859E850E94231183
:10575000882309F1EE20F9F08091B501803270F0D4
:105760002091B0013091B10138872F831986DB86F3
:10577000CA868C87CE0107960E94DB2086E0F8015E
:10578000A0EBB1E001900D928A95E1F70E94542AB6
:10579000FF24F3945DCFC8010E94DB20F9CF911163
:1057A0000CC080EB91E00E94DB2086E0E0EBF1E0B2
:1057B000DF011D928A95E9F74BCF621312C0531394
:1057C00010C0E1100EC0F8018583C8010E94DB20E3
:1057D000E0EBF1E086E0DF011D928A95E9F7FA2C13
:1057E00037CF3D872E878D859E850E942311882384
:1057F00091F2EE2081F28091B501803208F4BECFA3
:105800002091B0013091B1013A8329831B82DD825E
:10581000CC828E83CE010196AFCFC816D90640F058
:10582000C81AD90AB8ECCB16D10448F0F12CBDCF78
:10583000809590958C0D9D1D883C9105B8F7FE2CA8
:10584000EE2009F4A8CF62131FC053131DC080912E
:10585000B50180FD10C0982F907F69F0F801858315
:10586000903F31F0982F907F905F8F70892B8583C8
:10587000C8010E94DB2086E0F801A0EBB1E00190B6
:105880000D928A95E1F7E4CE3D872E878D859E8522
:105890000E942311811172CF8091B50181608093A4
:1058A000B501C8010E94DB20D3CEEE2009F473CFEE
:1058B0003D872E878D859E850E942311F82E882393
:1058C00009F469CF86E0F801A0EBB1E001900D92F8
:1058D0008A95E1F78091B0019091B1010E94191170
:1058E0000E94542AB5CE1F93CF93DF93CDB7DEB776
:1058F00067970FB6F894DEBF0FBECDBF4B8B5C8BA6
:105900006D8B7E8B8F8B1A8A198A85E0FE017396C8
:10591000DE011D9601900D928A95E1F786E0FE0169
:105920003D96DE01179601900D928A95E1F7CE0122
:1059300007960E94BF2A811137C086E0FE01379684
:10594000DE01119601900D928A95E1F79F8188857D
:105950002A853B85232B39F08F3F19F481E09F3F47
:1059600019F080E001C081E080FD1EC02091B601E9
:1059700030E0C9010196877099274091E7014817E7
:10598000190659F196E0929FD001939FB00D112412
:10599000A954BE4FFE01319601900D929A95E1F700
:1059A0008093B6010E94570D16E08091E701909117
:1059B000B6018917F9F0819FC001112489549E4FC7
:1059C0000E94BF2A8823B1F08091E70190E0019600
:1059D000877099278093E701E8CF0E94CC18109236
:1059E000B6011092E70186E0E0EBF1E0DF011D92E5
:1059F0008A95E9F767960FB6F894DEBF0FBECDBF64
:105A0000DF91CF911F9108951F920F920FB60F92C1
:105A100011242F933F934F935F936F937F938F93B3
:105A20009F93AF93BF93CF93EF93FF93C091E90000
:105A3000CF708091EC001092E9008091F000877F98
:105A40008093F00078940E94D7181092E90080911A
:105A5000F00088608093F000C093E900FF91EF911F
:105A6000CF91BF91AF919F918F917F916F915F91F6
:105A70004F913F912F910F900FBE0F901F9018954F
:105A80001F920F920FB60F9211242F933F934F93B3
:105A90005F936F937F938F939F93AF93BF93EF9396
:105AA000FF938091E10082FF15C08091E20082FFA8
:105AB00011C08091E1008B7F8093E10020915B0217
:105AC0002F5F822F62E30E944633992309F4E6C0D8
:105AD00020935B028091DA0080FF28C08091D8007B
