:100000000C945F090C94A6090C94A6090C94A609FB
:100010000C94A6090C94A6090C94A6090C94A609A4
:100020000C94A6090C94A6090C94AC2B0C94682B88
:100030000C9463300C94A6090C94A6090C94A609A0
:100040000C94A6090C94A6090C94A6090C94A60974
:100050000C94A6090C943F300C94A6090C94A609A4
:100060000C94A6090C94A6090C94A6090C94A60954
:100070000C94A6090C94A6090C94A6090C94A60944
:100080000C94A6090C94A6090C94A6090C94A60934
:100090000C94A6090C94A6090C94A6090C94A60924
:1000A0000C94A6090C94A6090C94A6090631FF0924
:1000B00074A1010975150026FF00952075088102BD
:1000C0000976150026FF00952075089102C00501EC
:1000D0000980A10185031601002603001A81002A68
:1000E0008300751095018100C0050C0901A10185EF
:1000F00004160100269C021A01002A9C0275109524
:10010000018100C005010906A101050719E029E7E1
:100110001500250195087501810295017508810179
:1001200005081901290595057501910295017503C9
:1001300091010507190029FF150026FF0095067596
:10014000088100C000000000000000000000000066
:10015000000000000000000000000000000000009F
:10016000000000000000000000000000000000008F
:10017000000000000000000000000000000000007F
:10018000000000000000000000000000000000006F
:10019000000000000000000000000000000000005F
:1001A000000000000000000000000000000000004F
:1001B000000000000000000000000000000000003F
:1001C000000000000000000000000000000000002F
:1001D000000000000000000000000000000000001F
:1001E0000000000000010101010101000101010105
:1001F00000000000000000000000000000000100FE
:1002000001000101010101010101010101010101DF
:1002100001010101010101010101010101010100CF
:1002200000000101000000000000000000000000CC
:1002300000000000000000000000000000000001BD
:100240000101010000000000000000002A2B28002E
:100250000000000000000000000000000000002975
:10026000000000002C1E3420212224342627252EB5
:10027000362D3738271E1F202122232425263333ED
:10028000362E37381F0405060708090A0B0C0D0E19
:100290000F101112131415161718191A1B1C1D2FE5
:1002A0003130232D350405060708090A0B0C0D0E05
:1002B0000F101112131415161718191A1B1C1D2FC5
:1002C0003130354C776861742074686520667563D9
:1002D0006B00746F20626520686F6E6573740074C4
:1002E0006F6E69676874007468616E6B20796F75F2
:1002F000007468726F756768007768617473207541
:1003000070007269676874206E6F770070726F6238
:1003100061626C79006E657665726D696E64006C01
:100320006574206D65206B6E6F77006A757374203D
:100330006B696464696E6700696E666F726D617483
:10034000696F6E0049206C6F766520796F75207437
:100350006F6F0049206C6F766520796F75004920BA
:10036000646F6E74207468696E6B20736F0049202F
:10037000646F6E74206B6E6F77004920646F6E74CB
:10038000207468696E6B00676F6F646E696768746C
:1003900000646F206E6F74006265747765656E002F
:1003A0006265207269676874206261636B006279BC
:1003B0002074686520776179006265636175736593
:1003C000007267626C69676874206D6F6465205B9A
:1003D0004E4F454550524F4D5D3A2025750A0072EB
:1003E00067626C69676874206D6F6465205B454562
:1003F00050524F4D5D3A2025750A00000000000064
:1004000000000000000101010101010101010202DF
:1004100002020202020203030303030303040404AF
:100420000404050505050506060606060707070771
:10043000080808080909090A0A0A0B0B0B0C0C0C1E
:100440000D0D0D0E0E0E0F0F1010101111121213B4
:10045000131414151516161717181819191A1A1B2C
:100460001C1C1D1D1E1F1F20212122232324252586
:1004700026272828292A2B2C2C2D2E2F30313132BB
:10048000333435363738393A3B3C3D3E3F404142C4
:10049000434445464748494B4C4D4E4F50525354A8
:1004A000555758595A5C5D5E606163646567686A58
:1004B0006B6C6E6F7172747677797A7C7D7F8182D6
:1004C000848687898B8D8E9092949597999B9D9F1A
:1004D000A1A2A4A6A8AAACAEB0B2B4B6B9BBBDBF27
:1004E000C1C3C5C8CACCCED0D3D5D7DADCDEE1E3F0
:1004F000E6E8EAEDEFF2F4F7F9FCFF7267626C6987
:100500006768742073657420687376205B4E4F456E
:100510004550524F4D5D3A2025752C25752C25757B
:100520000A007267626C696768742073657420687A
:100530007376205B454550524F4D5D3A2025752C12
:1005400025752C25750A0029001E001F002000219A
:10055000002200230024002500260027002D002E65
:10056000002A002B0014001A000800150017001CB8
:100570000018000C00120013002F003000175C0060
:100580000F04001600070009000A000B000D000E02
:10059000000F00330034000000280000071D001B7E
:1005A0000006001900050011001000360037003861
:1005B0000000000000E500E000E300E200000000B1
:1005C000002C00000000000000E600E700E400004E
:1005D00000015135003A003B003C003D003E003F29
:1005E0000040004100F85C4300440045004C002BF3
:1005F0000014001A000800150017001C0018000C59
:100600000012001300F95C30003100000F5000515F
:100610000052004F000A000B000D000E000F00FCFE
:100620005CFB5C00002800000701000100010001E4
:1006300000010001000100010001000100000000B4
:10064000000100E000E300E200000000002C0000D8
:100650000000000000E600E7000251000001003544
:10066000023A003B003C003D003E003F004000419C
:100670000042004300440045004C002B0014001AC7
:10068000000800150017001C0018000C00120013D1
:10069000002F0030003100000F5000510052004F79
:1006A000000A000B000D000E000F003300FA5C0082
:1006B0000028000007010001000100010001000105
:1006C000000100010001000100000000000100E045
:1006D00000E300E200000000002C00000000000029
:1006E00000E6000351010000000100C35CCB5CCABE
:1006F0005CC75CC65CC95CC85CCD5CCC5C4200433A
:1007000000440045004C002B00CE5CD55C0100018C
:10071000000100010001000100120013002F003051
:10072000003100000F5000510052004F000A000B32
:10073000000D000E000F0033003400000028000000
:10074000070100010001000100010001000100019A
:100750000001000100000000000100010001000193
:100760000000000000010000000000000001000186
:100770000001000000010029001E001F00200021D0
:10078000002200230024002500260027002D002E33
:10079000002A002B0014001A000800150017001C86
:1007A0000018000C00120013002F00300031000070
:1007B0000F04001600070009000A000B000D000ED0
:1007C000000F003300340000002800E1001D001B72
:1007D000000600190005001100100036003700382F
:1007E0000000000000E500E000E300E2000000007F
:1007F000002C00000000000000E600E700E400001C
:1008000000015129001E001F0020002100220023AA
:100810000024002500260027002D002E002A002B92
:100820000014001A000800150017001C0018000C26
:1008300000120013002F0030003100000F040016DA
:1008400000070009000A000B000D000E000F003326
:1008500000340000002800E1001D001B0006001904
:1008600000050011001000360037003800000000BD
:1008700000E500E000E300E200000000002C0000C2
:100880000000000000E600E700E40000000151293C
:10089000001E001F0020002100220023002400254C
:1008A00000260027002D002E002A002B0014001A1D
:1008B000000800150017001C0018000C001200139F
:1008C000002F0030003100000F040016000700095F
:1008D000000A000B000D000E000F00330034000072
:1008E000002800E1001D001B000600190005001192
:1008F00000100036003700380000000000E500E07E
:1009000000E300E200000000002C000000000000F6
:1009100000E600E700E400000001513B3B0001500D
:10092000002222000150002727000150005B5D00DB
:100930000150002829007267626C6967687420643E
:10094000697361626C65205B454550524F4D5D3A5D
:10095000207267626C696768745F636F6E6669674F
:100960002E656E61626C65203D2025750A007267F8
:10097000626C6967687420656E61626C65205B45B6
:100980004550524F4D5D3A207267626C69676874DA
:100990005F636F6E6669672E656E61626C65203D90
:1009A0002025750A007267626C6967687420746F2D
:1009B00067676C65205B454550524F4D5D3A20722C
:1009C00067626C696768745F636F6E6669672E65DE
:1009D0006E61626C65203D2025750A0044454255D4
:1009E000473A2064697361626C65642E0A0044456D
:1009F0004255473A20656E61626C65642E0A00625A
:100A000061636B6C6967687420696E63726561739A
:100A1000653A2025750A006261636B6C69676874CA
:100A20002064656372656173653A2025750A00620A
:100A300061636B6C696768742064697361626C657B
:100A40000A006261636B6C6967687420656E61623D
:100A50006C650A006261636B6C6967687420746F0F
:100A600067676C653A2025750A006261636B6C6983
:100A700067687420737465703A2025750A003F001A
:100A8000433E20000A002530325820006B65796211
:100A90006F6172645F7265706F72743A20000A0051
:100AA0002575002E6C6576656C3A20000A00257568
:100AB000002E656E61626C653A20000A00253032B6
:100AC00058006261636B6C696768745F636F6E6620
:100AD00069672E7261773A20000A002575002E6E34
:100AE0006B726F3A20000A002575002E73776170D3
:100AF0005F6261636B736C6173685F6261636B7388
:100B0000706163653A20000A002575002E737761D5
:100B1000705F67726176655F6573633A20000A00F3
:100B20002575002E6E6F5F6775693A20000A0025F3
:100B300075002E737761705F72616C745F72677598
:100B4000693A20000A002575002E737761705F6C8A
:100B5000616C745F6C6775693A20000A0025750046
:100B60002E636170736C6F636B5F746F5F636F6E26
:100B700074726F6C3A20000A002575002E7377613D
:100B8000705F636F6E74726F6C5F636170736C6FB4
:100B9000636B3A20000A0025303258006B65796D8E
:100BA00061705F636F6E6669672E7261773A2000CD
:100BB0000A002575002E6D6F7573653A20000A00D6
:100BC0002575002E6B6579626F6172643A20000AA8
:100BD000002575002E6D61747269783A20000A0054
:100BE0002575002E656E61626C653A20000A00254D
:100BF0003032580064656275675F636F6E6669675F
:100C00002E7261773A20000A0025750064656661DE
:100C1000756C745F6C617965723A20000A092D2049
:100C20004D61676963202D0A443A0944656275671E
:100C3000204D65737361676520546F67676C650A43
:100C4000583A094D6174726978204465627567206D
:100C50004D6F646520546F67676C65202D20536865
:100C60006F77206B65797072657373657320696E39
:100C7000206D617472697820677269640A4B3A0961
:100C80004B6579626F6172642044656275672054B8
:100C90006F67676C65202D2053686F77206B6579CF
:100CA0007072657373207265706F72740A4D3A09C1
:100CB0004465627567204D6F75736520546F676773
:100CC0006C650A563A0956657273696F6E0A533A33
:100CD000095374617475730A433A09416374697600
:100CE00061746520436F6E736F6C65204D6F646532
:100CF0000A46312D4631303A0953776974636820CA
:100D0000746F204C6179657220302D39202846316E
:100D100030203D204C30290A302D393A095377696B
:100D200074636820746F204C6179657220302D39AE
:100D30000A47524156453A095377697463682074EB
:100D40006F204C6179657220302028616C74657267
:100D50006E617465290A423A094A756D7020746F94
:100D600020426F6F746C6F616465720A4553433A39
:100D7000094A756D7020746F20426F6F746C6F61DB
:100D80006465722028616C7465726E617465290AED
:100D9000453A095072696E7420454550524F4D20B6
:100DA00053657474696E67730A4253504143453A00
:100DB00009436C65617220454550524F4D0A000A47
:100DC000092D20436F6E736F6C65202D0A455343C8
:100DD0002F713A09717569740A004743433A203903
:100DE0002E322E30204156522D4C4942433A203269
:100DF0002E302E30204156525F415243483A2061F6
:100E00007672350A004F5054494F4E533A204C5594
:100E100046412045585452414B455920434F4E536B
:100E20004F4C4520434F4D4D414E442034303936D0
:100E30000A004255494C443A2022626530356632F8
:100E40002D646972747922202832303A30353A356F
:100E500035204F63742032312032303139290A0075
:100E60005649443A20307846454544283175706BE0
:100E70006579626F6172647329205049443A203069
:100E800078303030302831757036306873652920FD
:100E90005645523A203078303030310A00444553BC
:100EA000433A204120637573746F6D2036302520DE
:100EB0006B6579626F6172640A000A092D205665BC
:100EC0007273696F6E202D0A0074696D65725F72AE
:100ED000656164333228293A202530346C580A0081
:100EE0006B6579626F6172645F69646C653A202535
:100EF000580A006B6579626F6172645F70726F741B
:100F00006F636F6C3A2025580A00686F73745F6BCB
:100F10006579626F6172645F6C65647328293A2039
:100F200025580A000A092D20537461747573202D09
:100F30000A003F000A6D6F7573653A206F66660A96
:100F4000000A6D6F7573653A206F6E0A000A6B6553
:100F500079626F6172643A206F66660A000A6B6597
:100F600079626F6172643A206F6E0A000A6D617473
:100F70007269783A206F66660A000A6D6174726958
:100F8000783A206F6E0A000A64656275673A206FCE
:100F900066660A000A64656275673A206F6E0A0029
:100FA0000A0A4A756D70696E6720746F20626F6FF0
:100FB000746C6F616465722E2E2E2000433E2000FB
:100FC000436C656172696E6720454550524F4D0A0A
:100FD000006565636F6E6669673A0A004C25640AAE
:100FE000007267626C696768745F636F6E666967D9
:100FF0002E7370656564203D2025640A0072676267
:101000006C696768745F636F6E6669672E76616C82
:10101000203D2025640A007267626C696768745F0E
:10102000636F6E6669672E736174203D2025640AC4
:10103000007267626C696768745F636F6E66696788
:101040002E687565203D2025640A007267686C690A
:101050006768745F636F6E6669672E6D6F64652085
:101060003D2025640A007267626C696768745F637B
:101070006F6E6669672E656E61626C65203D202526
:10108000640A007267626C696768745F636F6E669A
:10109000696720454550524F4D3A0A007267626CAD
:1010A000696768745F696E6974207267626C6967EA
:1010B00068745F636F6E6669672E6D6F6465203D4F
:1010C00020302E2057726974652064656661756CE6
:1010D000742076616C75657320746F20454550529D
:1010E0004F4D2E0A007267626C696768745F696EA3
:1010F0006974206565636F6E666967206973206E29
:101100006F7420656E61626C65642E0A007267629E
:101110006C696768745F696E697420737461727456
:10112000210A007267626C696768745F696E69742E
:101130002063616C6C65642E0A007267626C69677B
:1011400068742064697361626C65205B4E4F45452D
:1011500050524F4D5D3A207267626C696768745FE8
:10116000636F6E6669672E656E61626C65203D20F7
:1011700025750A000A002530313662003A20002524
:10118000303258000A722F63203031323334353612
:101190003738394142434445460A000A0025303277
:1011A00058006B6579626F6172645F7365745F6C20
:1011B00065643A20005B735D004B6579626F617214
:1011C000642073746172742E0A005B435D005B449B
:1011D0005D005B535D007267626C696768742065CF
:1011E0006E61626C65205B4E4F454550524F4D5DC0
:1011F0003A207267626C696768745F636F6E6669D4
:10120000672E656E61626C65203D2025750A005B66
:10121000575D005B525D0009025B00030100A0FA0C
:10122000090400000103010100092111010001224C
:1012300040000705810308000A09040100010300BA
:101240000000092111010001223600070582032058
:10125000000A090402000203000000092111010034
:101260000122220007058303200001070503032054
:1012700000011201100100000008EDFE0000010055
:101280000102030104033000000012033100750065
:1012900070003600300068007300650000001A031B
:1012A0003100750070006B006500790062006F000E
:1012B000610072006400730000000403090411243B
:1012C0001FBECFEFDAE0DEBFCDBF04B603FE27C0FE
:1012D00080913B0290913C02A0913D02B0913E0270
:1012E0008730904BA740B04BD1F410923B02109244
:1012F0003C0210923D0210923E0214BE84B7877FDA
:1013000084BF0FB6F894A89580916000886180939F
:101310006000109260000FBEE0E0F8E3099511E074
:10132000A0E0B1E0EAE6F3E602C005900D92AE322D
:10133000B107D9F722E0AEE2B1E001C01D92AB33B4
:10134000B207E1F70E94002D0C9444310C94000088
:10135000FF93EF93E0912E01F0912F01309709F068
:101360000995EF91FF910895FC018591803011F06E
:10137000EFDFFBCF0895FF27E0E230E247FF0CC02C
:10138000419597FF09C0EDE2609570958095909525
:10139000611D711D811D911D27FF02C0219530E344
:1013A00050E2AA27660F771F881F991FAA1FA4174C
:1013B00010F0A41B63955A95A9F7AA3008F0A95F0D
:1013C000A05DAF93F395611571058105910541F716
:1013D000ED3211F4EF93F395F21718F43F93F39570
:1013E000FBCF8F91B5DFFA95E1F70895E991F99177
:1013F0008591803021F0853219F0AADFF9CF089568
:1014000020E0E89455915532C1F3503311F46894BB
:1014100055915A3348F4505390F3220F022E220F65
:10142000220F200D250FF4CF0EF42195899199916B
:10143000533619F3533729F1533559F1BC01882735
:101440009927E8945C3621F4899199916894559193
:10145000543639F446EF7EF077FF0DC08FEF9FEFE3
:101460000AC055374AE039F0583540E121F052368C
:1014700042E009F00895FF93EF937DDFEF91FF9134
:10148000B7CFFF93EF93FC0181918030B9F360DF18
:10149000FBCFFF93EF9368DFF1CFDF93CF93CDB70F
:1014A000DEB72596A3DFCF91DF910895E8EDF0E058
:1014B00080818E7F80831092E2001092DA00109279
:1014C000E100A0EEB0E08C9181608C9380818F77F9
:1014D000808319BCA7EDB0E08C918E7F8C938081C6
:1014E0008F7E808310921C0208952091E400309139
:1014F000E50095E6A9012091EC00822F817020FF84
:1015000006C08091E80080FF06C080E00895209129
:10151000E80022FD1AC080913102882389F08530CD
:1015200089F08091EB0085FD0FC02091E40030919F
:10153000E50042175307F9F29150E1F684E008956F
:1015400082E0089583E0089581E00895EF92FF928C
:101550000F931F93CF937C018B010E94750AC82FB4
:10156000811117C08091E80085FD0BC08091E800D3
:101570008E778093E8000E94750A882399F3C82F1C
:1015800008C0F70181917F018093F100015011099A
:1015900049F78C2FCF911F910F91FF90EF900895F5
:1015A0008091330287FF13C08091E80082FF06C05C
:1015B0008091E8008B778093E80004C0809131022D
:1015C0008111F2CF0895809131028823D9F380915F
:1015D000E80080FFF8CF8091E8008E77ECCF982F5D
:1015E0009093E900242F762F50E0891731F0709105
:1015F000EC002091ED005091F00021FD07C09F5FAD
:10160000973071F78093E90081E008953091EB0005
:101610003E7F3093EB003091ED003D7F3093ED0045
:101620003091EB0031603093EB007093EC0020932D
:10163000ED005093F0002091EE0027FDE0CF80E018
:101640000895CF92DF92EF92FF920F931F93CF9363
:10165000DF93C8EDD0E088818F7E8883E7EDF0E0EE
:1016600080818160808384E082BF81E080931C025E
:1016700088818E7F888302EE10E0F801108210923C
:10168000DA0081EEC82ED12CF601108288818F7786
:10169000888388818068888388818F7D888319BC4E
:1016A00010923102109232021092300210922F02E8
:1016B00090EEE92EF12CF70180818B7F8083888169
:1016C0008160888342E060E080E00E94EF0AF601DA
:1016D00080818E7F8083F80180818160808380811A
:1016E00088608083F70180818E7F8083888180611C
:1016F0008883DF91CF911F910F91FF90EF90DF9042
:10170000CF900895FC01CB012091390230913A022B
:101710002617370790F0009729F42091E8002E77DC
:101720002093E80040E0009751F4411108C08091F7
:10173000E80082FF31C080E00895C901F3CF209115
:1017400031022223A9F12530A9F12091E80023FDDF
:101750002DC02091E80022FDEACF2091E80020FF73
:10176000E2CF3091F3002091F200009719F0283079
:10177000310558F041E02830310509F040E0209172
:10178000E8002E772093E800CECF41914093F100FE
:1017900001972F5F3F4FE9CF80913102882341F0BD
:1017A000853041F08091E80083FFC1CF81E008954A
:1017B00082E0089583E008950895809126020895B7
:1017C000CF92DF92EF92FF929C014FB7F8948091F5
:1017D000ED019091EE01A091EF01B091F0014FBFAA
:1017E0006C017D01EE24FF24A90170E060E0C416C5
:1017F000D506E606F70638F0821B930BFF90EF90B4
:10180000DF90CF9008950197F7CF2FB7F89480918C
:10181000ED019091EE01A091EF01B091F0012FBF89
:101820000895829594E0899F900111242C7C8695DF
:1018300086958373282B30E0C901880F991F8A7A17
:10184000359527952575822B08958091E8018111A2
:101850001092E8010895E2E3F1E09191891303C049
:10186000DF0111971C9291E0E833F907B1F7089571
:10187000A2E3B1E0EFEF90E02D91821751F0EF3F3E
:1018800019F4211101C0E92F9F5F9630A9F7EF3FAE
:1018900009F408950E2E000CFF0BE05DFE4F8283CD
:1018A0000895E82F2EE0929FE00D11249E2F97704F
:1018B000E695E695E69585E0E89FF0011124ED5464
:1018C000FE4F50E040E080E0219130E0092E02C060
:1018D000369527950A94E2F721703327042E01C02C
:1018E000220F0A94EAF7822B4F5F5F4F4530510574
:1018F00059F70895E82F2EE0929FE00D11248E2FC6
:10190000877041E001C0440F8A95EAF7E695E695B5
:10191000E69585E0E89FF0011124ED54FE4F30E09C
:1019200020E070E05191DF011197CB01022E02C03F
:10193000969587950A94E2F781708195852784238F
:1019400085278C932F5F3F4F2530310559F7089538
:101950008091B20190918101981301C008958F5F29
:101960008770FACF2091690130916A0128173907F1
:1019700071F090936A0180936901E0910202F09105
:101980000302309721F00084F185E02D0994089539
:1019900020916701309168012817390771F0909301
:1019A000680180936701E0910202F0910302309791
:1019B00021F00680F781E02D09940895E09102025C
:1019C000F0910302309721F00190F081E02D09940D
:1019D00080E0089580911E02982F9E7F39F48091B7
:1019E0001E028170826080931E0208958430B8F7D1
:1019F00008959091FF0192FF06C0282F287128308A
:101A000069F4877F846093FF06C0282F28712831EE
:101A100061F4877E846194FD877E0895282F247168
:101A2000243089F78B7F8860EECF282F24712431F2
:101A300091F78B7E8861EFCFCF93DF93972F70E084
:101A40002EE0929F600D711D1124FB0136E4839FEF
:101A5000E00DF11D1124EE0FFF1FE95BFA4FC59158
:101A6000D491CE01C03ED10509F478C0F0F5C13360
:101A7000D10509F4AAC0A0F4C932D10509F49EC069
:101A8000CA32D10509F4A8C0C430D10508F063C03A
:101A900031E020E0219709F030E0832F922F5BC0E6
:101AA000C933D10509F451C0C238D10509F44DC07C
:101AB000C533D10509F47BC0CF3BD10508F093C0F5
:101AC000C83AD10508F031C1C53AD105E8F281E83C
:101AD00090E4C53AD10509F43EC082E890E4C63AE4
:101AE000D105C9F183E890E436C0C63ED10509F4BA
:101AF0004EC060F4C23ED105C1F1C33ED10509F428
:101B00003FC0C05ED109289730F137C0C73ED1052C
:101B100009F446C0C11544E5D40708F0A9C0C115B1
:101B200023E5D20708F0B8C1C11530E3D30708F0A8
:101B300073C0C11540E2D40708F4BECFFE01FF70A8
:101B4000EE0FFF1FEC53FD4F64C02091FF01237087
:101B500011F080EE90E0DF91CF9108952091FF0188
:101B600020FFF9CF89E390E0F6CF2091FF0122FF1B
:101B7000F2CF83EE90E024FFEECF90E080E0EBCF59
:101B80002091FF0122FDB5C124FFE5CFF6CF2091C2
:101B9000FF0123FFE0CF87EE90E024FDEECFDBCF07
:101BA0002091FF0123FFF0CF86EE90E0D4CF20916B
:101BB000FF0125FFD0CF89E290E0CDCF2091FF013A
:101BC00025FFC9CF85E390E0C6CF2091FF0126FF16
:101BD000C2CF8AE290E0BFCF2091FF0126FFBBCFAA
:101BE00081E390E0B8CFCF3FD10511F008F0B3CF3B
:101BF000C03FD10508F026C1C03ED10508F081CF15
:101C0000CF3BD10509F4B9CFFE01EE0FFF1FEC5B0E
:101C1000FE4F859194919FCFC11581E5D80770F44F
:101C2000C11590E5D90708F017C1CE01C11520E410
:101C3000D20708F40AC19F70906A8DCFC11532E5B2
:101C4000D30708F424C19E012370332781E090E07C
:101C500002C0880F991F2A95E2F7EC2FE695E695CA
:101C600040E2E49FF00111248E2B9F2B9C6873CFE0
:101C7000CD3B8CE5D80709F43FC150F5C11529E5E6
:101C8000D207D0F4C11538E5D30708F01EC1C1153D
:101C900045E5D40708F414C1CE0195558F3F910551
:101CA00011F008F06ACF8C2F0E94F90C90E0982F69
:101CB000882788279F7137C0C1158AE5D80708F49F
:101CC00009C1CC3BDC4509F058CF80E094ED43CF0F
:101CD00080E092EDC03C2CE5D20709F43CCF70F4D3
:101CE00080E091EDCE3B4CE5D40709F434CFCF3BF7
:101CF000DC4509F042CF80E090ED2DCFC13C9CE562
:101D0000D90709F4FCC0CE0190568115904208F025
:101D100034CF8D2F8F710E94F90C90E0982F882777
:101D200088279F718C2B906216CF82EE94E4C83A7C
:101D3000D10509F410CF89EE94E4C93AD10509F42C
:101D40000ACF8AEE94E4CA3AD10509F404CF85EBB0
:101D500094E4CB3AD10509F4FECE86EB94E4CC3A78
:101D6000D10509F4F8CE83EB94E4CB3BD10509F41B
:101D7000F2CE84EB94E4CC3BD10509F4ECCE87EBB6
:101D800094E4CD3AD10509F4E6CE8CEC94E4C03B62
:101D9000D10509F4E0CE8DEC94E4CE3AD10509F4F6
:101DA000DACE83E895E4CF3AD10509F4D4CE8AE8B7
:101DB00095E4C13BD10509F4CECE82E995E4C23B5E
:101DC000D10509F4C8CE84E995E4C33BD10509F4F3
:101DD000C2CE81E296E4C43BD10509F4BCCE83E2D5
:101DE00096E4C53BD10509F4B6CE84E296E4C63B41
:101DF000D10509F4B0CE85E296E4C73BD10509F4DC
:101E0000AACE86E296E4C83BD10509F4A4CE87E2C7
:101E100096E4C93BD10509F49ECE8FE694E4CD3B10
:101E2000D10509F498CE80E794E4CE3BD10509F4BE
:101E300092CE80E094E4CA3BD10509F08CCE8AE2D0
:101E400096E489CECE01906586CE9927D3FF02C055
:101E5000986C81CE906C7FCE9E0164E0369527957C
:101E60006A95E1F723708C2F86958695837040E202
:101E7000849FC0011124922BC37021E030E002C086
:101E8000220F331FCA95E2F7822B932BEFCE9C2FA4
:101E90008827816F906A5FCEAE014370552721E09D
:101EA00030E002C0220F331F4A95E2F786958695EF
:101EB00040E2849FC0011124822B932B9A684BCE61
:101EC0009C2F8827846F906A46CE9C2F8827806F2E
:101ED000906A41CE8C2F8F700E94F90CFE0194E025
:101EE000F695E7959A95E1F7EF708F70806E9E2FCB
:101EF000A3CE82EE90E02FCE80E095ED2CCE80E058
:101F000093ED29CEBF92CF92DF92EF92FF920F9383
:101F10001F93CF93DF938C01C090E001D090E1013B
:101F2000E090E201F090E3018091E9019091EA01F3
:101F3000A091EB01B091EC01C82AD92AEA2AFB2A28
:101F4000CFE1D0E0BC2ED701C6010C2E04C0B6955F
:101F5000A795979587950A94D2F780FD0EC0219793
:101F600088F7B12C8B2DDF91CF911F910F91FF90AE
:101F7000EF90DF90CF90BF900895B8018C2F0E9412
:101F80001C0D019761F3EECFCF93DF93D82FC92FAC
:101F90000E94820F6D2F7C2FDF91CF910C941C0D2E
:101FA0000E94C40F282F892F8F70392F32953F70D0
:101FB000903C80F43A30B0F4343020F4323090F475
:101FC00080E008953630E1F781E0203E88F0213F3F
:101FD000B9F70EC03C3011F03F3091F786958695E9
:101FE0008695089581E0203F39F018F4203E40F7AF
:101FF0000895243F29F7FCCF0895CF93DF93CDB701
:10200000DEB728970FB6F894DEBF0FBECDBF86307F
:1020100048F5811128C090918000977F90938000AF
:10202000282F30E0AFEFBFEF0E94E23025E030E034
:1020300040E050E00E94BA30C9012C3764E1360715
:10204000B0F469E070E00E94A63070938D00609358
:102050008C0028960FB6F894DEBF0FBECDBFDF917F
:10206000CF91089585E0909180009860D7CF2A5055
:10207000374D4F4F5F4FB42FA32F922F8827BC01AE
:10208000CD0125EF38E241E050E00E94BA302983CB
:102090003A834B835C83CA01B9010E948A309B0159
:1020A000AC0169817A818B819C810E948A30BB2737
:1020B000A92F982F872FBC010097A140B10529F6C1
:1020C0006FEF7FEFC2CFEF92FF920F931F93CF93EB
:1020D000DF938091E7019091E601892B9091E501D2
:1020E000892B809330019091E801992391F0892BFD
:1020F0008093300120E082E391E0FC013081019681
:1021000031112F5F31E088339307B9F721110E9415
:10211000250CE0910202F09103023097C9F1028090
:10212000F381E02D80E391E0099580911D0282FF0B
:102130002FC080FF04C08CE89AE00E94B409C0E37D
:10214000D1E088E3E82E81E0F82E06E81AE08091DD
:102150001D0280FF0BC088811F928F931F930F93E6
:102160000E944D0A0F900F900F900F902196EC1641
:10217000FD0669F780911D0280FF0AC084E89AE09D
:10218000DF91CF911F910F91FF90EF900C94B409C4
:10219000DF91CF911F910F91FF90EF9008951092D2
:1021A000E6011092E5010E94631090E080E00E9439
:1021B000C80C90E080E00C94B20C6093E001709346
:1021C000E1018093E2019093E3010C94CF100F930F
:1021D0001F93CF93DF9300D000D0CDB7DEB741E09F
:1021E00050E060E070E004C0440F551F661F771F89
:1021F0008A95D2F740955095609570958091E00151
:102200009091E101A091E201B091E3018A019B016B
:10221000082319232A233B2309831A832B833C8316
:10222000C901B8010F900F900F900F90DF91CF91DF
:102230001F910F910C94DD109091E40180958923FA
:102240008093E401282F277071F4282F082E000CAA
:10225000330B9217130639F08595859585950E9465
:10226000E7101092E40108950F931F93CF93DF932B
:1022700000D000D0CDB7DEB741E050E060E070E0C4
:1022800004C0440F551F661F771F8A95D2F78091AF
:10229000E0019091E101A091E201B091E3018A0196
:1022A0009B01082B192B2A2B3B2B09831A832B8389
:1022B0003C83C901B8010F900F900F900F90DF91F0
:1022C000CF911F910F910C94DD106093E9017093F1
:1022D000EA018093EB019093EC010C94CF108823DA
:1022E00041F080959091E70189238093E7010C9458
:1022F00063100895882339F09091E701892B80932A
:10230000E7010C9463100895882309F452C08238C1
:1023100071F40E94DE0C81FF4CC089E30E94380CEE
:102320000E94631089E30E942B0C0C946310833885
:1023300059F40E94DE0C80FF3CC083E50E94380CFB
:102340000E94631083E5EFCF843859F40E94DE0CBD
:1023500082FF2FC087E40E94380C0E94631087E43C
:10236000E2CF9CEF980F913AF0F290E2980F9830FC
:1023700088F4877021E030E0A90102C0440F551FA6
:102380008A95E2F7CA0180959091E70189238093AD
:10239000E701CBCF9BE5980F933020F490E080E0ED
:1023A0000C94C80C885A873120F490E080E00C949B
:1023B000B20C08959FB7F89410921A029FBF9091A3
:1023C0003102943009F048C02091E9002F7030911B
:1023D000EC00932F917030FD90E8922B23E0209336
:1023E000E9002091EB0020FF34C02091EE0027FF90
:1023F00030C02091F401222321F02091E80025FF34
:1024000028C01092F40126E03091E80035FF14C096
:102410008093F1008091E80085FD27C08091E8005D
:1024200080FFFCCF8091E8008E778093E8009F705A
:102430009093E90080E0089530913102343049F4FE
:102440003091EB0035FD05C0215041F481E08093CF
:10245000F4019F709093E9008FEF0895EFE9FFE09A
:102460003197F1F700C00000CFCF8FB7F89421E08B
:1024700020931A028FBFDBCFCF93DF9300D00F9250
:10248000CDB7DEB72091F30121110AC020913102AE
:10249000243041F00F900F900F90DF91CF9108956D
:1024A0002230B1F724E029838A839B8382E08093E2
:1024B000E9008FEF9091E800815095FD06C095ED01
:1024C0009A95F1F700008111F5CF8091E80085FF22
:1024D000E1CF50E040E063E070E0CE0101960E9461
:1024E000A60A8091E8008E778093E800D3CFCF933F
:1024F000DF9300D00F92CDB7DEB79C0180913102FF
:10250000843031F583E08983205831093B832A8365
:1025100082E08093E9008FEF9091E800815095FD73
:1025200006C095ED9A95F1F700008111F5CF8091E5
:10253000E80085FF0DC050E040E063E070E0CE01B0
:1025400001960E94A60A8091E8008E778093E800A9
:102550000F900F900F90DF91CF910895CF93DF935D
:10256000D82FC92F8091F301811107C080913102CA
:10257000843029F0DF91CF9108958230C9F781E04E
:102580008093E9008FEF9091E800815095FD06C09F
:1025900095ED9A95F1F700008111F5CF8091E80053
:1025A00085FFE8CF50E040E068E070E08D2F9C2F81
:1025B0000E94A60A8091E8008E778093E80088E068
:1025C000ED2FFC2FA7E2B2E001900D928A95E1F782
:1025D000D1CF81E08093E00080E28093D800109218
:1025E000C9008FE19EE40197F1F700C0000087E089
:1025F00090EBDC0180933B0290933C02A0933D0260
:10260000B0933E0288E19CE00FB6F894A8958093C1
:1026100060000FBE90936000FFCF80911E0280FD8E
:102620000AC0EBE3F1E0118210821282339651E08E
:10263000E536F507C1F7809A31B33E7F21B32160BB
:102640004FB7F8948BE391E0FC010196508168E06C
:1026500021BB000000C057FF31BB550F000000C078
:1026600000C000C031BB00C06A9591F751E08536CB
:10267000950751F74FBF87EC90E00197F1F700C045
:1026800000000895982F990F990F990F8091F201EA
:102690008770892B8093F201887F91E009F490E0A4
:1026A0006091F20190FB60F96093F20186E090E0A6
:1026B0000E9410318091F2018695869586950C9442
:1026C000FD0F90E080E00E940A319C0181E02D3EE8
:1026D0003E4F09F080E008950F931F93CF93DF934F
:1026E0008B01D82FC92F0E94EA0CA8016D2F7C2FD7
:1026F00088E090E0DF91CF911F910F910C942231EF
:102700007F928F929F92AF92BF92CF92DF92EF9281
:10271000FF920F931F93CF93DF9300D000D00F92BF
:10272000CDB7DEB7B82E6D834983722E80901E021E
:1027300080FE56C0882D8E7F8230E1F4E42FF0E0D9
:10274000611161C0E550FC4FA490EA2D8A2D80FEF6
:1027500011C0ABE3B1E025E631E011968C931197FF
:10276000AC921296EC93129713962A173B07A9F78F
:102770000E940D13B0921F028D81809320029981D7
:1027800090932102772009F4C1C080911E0290919C
:102790001F02A0912002B091210289839A83AB830A
:1027A000BC83BC01CD010E946C1380911D0280FF8F
:1027B00017C0809121021F928F93809120021F9257
:1027C0008F9380911F021F928F9382E295E09F93D7
:1027D0008F930E944D0A0FB6F894DEBF0FBECDBF97
:1027E0000F900F900F900F900F90DF91CF911F914E
:1027F0000F91FF90EF90DF90CF90BF90AF909F90A0
:102800008F907F9008952D81E22EF12C86E0B89E66
:10281000800111242FEF30E0C801B9010E94A630D9
:102820008B2D90E0880F991FA5E5A69FA001A79F7B
:10283000500D1124841B950BD82EDD0CD80EA90148
:102840004E195F094E9FC0014F9F900D5E9F900DE6
:102850001124A92EAD81AD9DA0011124452F55272E
:10286000D901A41BB50BAE9FA001AF9F500DBE9F19
:10287000500D1124952ED901AD19B1096D01CE9CD1
:10288000D001CF9CB00DDE9CB00D1124AB2FBB2727
:102890002A1B3B0B2E9FD0012F9FB00D3E9FB00DEA
:1028A0001124EB2F63307105C1F00C3F23E01207B8
:1028B00060F461307105A9F06230710521F10F3FBC
:1028C000110548F4992EAB2E06C06430710539F01D
:1028D00066307105B9F3E98107C0E92FA52E99800B
:1028E00003C0E52F992EA980F0E0E550FC4F8491BC
:1028F000EA2DF0E0E550FC4FA490E92DF0E0E55022
:10290000FC4FE49124CF9B2EE92FEDCF80911D0247
:1029100080FF66CF1F92B981BF931F922D812F93A5
:102920001F92BF928BEF94E052CFCF93DF9300D0F2
:1029300000D0CDB7DEB780911E0280FF42C081700B
:10294000826080931E02662391F180911E02909115
:102950001F02A0912002B091210289839A83AB8348
:10296000BC83BC01CD010E946C1380911D0280FFCD
:102970000FC080911E0286951F928F938FED93E07A
:102980009F938F930E944D0A0F900F900F900F907E
:1029900020E0409121026091200280911F020F905F
:1029A0000F900F900F90DF91CF910C948013809136
:1029B0001D0280FFEDCF1F9281E08F9381EC93E0A9
:1029C000DFCF0F900F900F900F90DF91CF91089570
:1029D00090911E0296958FEF890F913009F481E056
:1029E00061E00C94951461E081E00C949514CF9310
:1029F000DF9300D000D0CDB7DEB7EEE1F2E083E0A8
:102A0000808311828FEF82838383148280819181FE
:102A1000A281B38189839A83AB83BC83BC01CD013E
:102A20000F900F900F900F90DF91CF910C946C133B
:102A30006DEE7EEF90E080E00E942E3160E082E05B
:102A400090E00E94103160E083E090E00E9410313D
:102A50001092E9011092EA011092EB011092EC0140
:102A600060E084E090E00E94103160E085E090E05A
:102A70000E94103160E086E090E00E9410316FEF1C
:102A800087E090E00E94103140E050E0BA0188E019
:102A900090E00E94223160E08DE090E00E941031D1
:102AA00040E050E0BA0188E190E00E94223160E00D
:102AB00087E190E00E94103140E050E0BA018CE1E3
:102AC00090E00E94223160E080E290E00E941031AC
:102AD00040E050E0BA018FE090E00E94223140E0F7
:102AE00050E0BA0183E190E00C9422310E9461131E
:102AF000811102C00E94181586E090E00E94FC300F
:102B00008093F201803320F0877088628093F20115
:102B10009091F201892F817090FF04C0892F8695D2
:102B2000869586950C94FD0F1092E701E2E3F1E0A3
:102B300086E0DF011D928A95E9F70C94CF101F9370
:102B4000CF93DF93CDB7DEB7AA970FB6F894DEBF69
:102B50000FBECDBF83E392E0FC0101962091F1000E
:102B6000208322E08B339207B9F7809134028930B9
:102B700009F456C0C8F4823009F4B1C0833009F4B6
:102B800080C0813071F18091E80083FF34C1809171
:102B90003302909134029A3008F02DC1E92FF0E011
:102BA000EA5BFE4C0C94DC308A3009F487C08B3031
:102BB00051F780913302813231F780913702909141
:102BC0003802892B01F78091E800877F8093E80025
:102BD0000E94D00A8091350280930A010E949415C8
:102BE000D2CF80913302813A71F68091E800877FDD
:102BF0008093E8008091370290913802892B61F42C
:102C000068E087E292E070E00E94820B8091E80029
:102C10008B778093E800B7CF60E090E080E0F3CF5F
:102C200080913302813209F0AECF809137029091CA
:102C30003802029708F0A7CF8091E800877F809341
:102C4000E8008091E80082FF17C09091F300809126
:102C5000F200029729F48091F1008B7F813021F4FA
:102C60008091F100809326028091E8008B77809319
:102C7000E8000E94D00A87CF809131028111E1CF14
:102C800082CF80913302813A09F07DCF8091370263
:102C900090913802892B09F076CF8091E800877FE8
:102CA0008093E8008091E80080FFFCCF80910A01CA
:102CB0008093F1008091E8008E77D9CF8091330224
:102CC000813209F060CF8091E800877F8093E8002F
:102CD0000E94D00A809136028093250254CF8091C1
:102CE0003302813A09F04FCF8091E800877F8093CB
:102CF000E8008091E80080FFFCCF80912502D8CFCA
:102D0000803899F0823809F076C0809137028F7050
:102D1000873008F070C08093E9008091EB0085FB5C
:102D2000882780F91092E90006C080912F029091C7
:102D30003002911182609091E800977F9093E800B3
:102D40008093F1001092F1008091E8008E77BCC171
:102D5000882309F4A9C1823009F04DC08091350261
:102D60008111ADC1809137028F702FEF280F26306F
:102D700008F041C08093E9002091EB0020FF9FC143
:102D8000933031F48091EB0080628093EB0097C127
:102D90009091EB0090619093EB0021E030E001C056
:102DA000220F8A95EAF72093EA001092EA008091B8
:102DB000EB008860EACF81111EC0109135021F77A9
:102DC0008091E3008078812B8093E3008091E8007C
:102DD000877F8093E8000E94D00A8091E80080FFFE
:102DE000FCCF8091E30080688093E30082E01111C2
:102DF00083E0809331028091E80083FF0AC08091D4
:102E0000E800877F8093E8008091EB0080628093E8
:102E1000EB00AA960FB6F894DEBF0FBECDBFDF91D0
:102E2000CF911F9108958058823028F74091350244
:102E3000509136024C3D83E05807A1F583E08A8328
:102E40008AE289834FB7F894DE01139620E03EE0D2
:102E500051E2E32FF0E050935700E49120FF03C0CC
:102E6000E295EF703F5FEF708E2F90E0EA30C0F098
:102E7000C7968D939D932F5F243159F74FBF809153
:102E8000E800877F8093E8006AE270E0CE01019657
:102E90000E94820B8091E8008B778093E800ABCF93
:102EA000C096E7CF8091370290913802252F3327C3
:102EB0002330310509F44AC078F52130310509F491
:102EC00086C08BE590E0E7E1F2E12230310509F0C0
:102ED00092CF2091E800277F2093E80020913902CB
:102EE00030913A028217930708F49C0140E02115C3
:102EF000310509F071C041116FC08091E80082FD79
:102F0000C9CF80913102882329F2853019F280914E
:102F1000E80083FFF2CFBECF2132310509F448C06B
:102F20002232310509F067CF8330910508F063CF75
:102F3000FC01EE0FFF1FEF5DFE4F0190F081E02DD1
:102F4000825E9E4FDC018C9190E026C0CA019927D9
:102F5000423031F18330910568F40097B1F0019768
:102F600009F049CFEEE9F2E1E4918E2F90E0EEE92D
:102F7000F2E112C0039709F03ECFE4E8F2E1E491F8
:102F80008E2F90E0E4E8F2E107C0EAEBF2E1E49191
:102F90008E2F90E0EAEBF2E1009709F42CCF99CF65
:102FA000EAE8F2E1E4918E2F90E0EAE8F2E1F4CF72
:102FB0008330910508F01FCF880F991FFC01E95D50
:102FC000FE4F0190F081E02D89E090E082CF82E118
:102FD00090E0E2E7F2E17DCF80913102882309F4AD
:102FE00059CF853009F456CF8091E80083FD52CF48
:102FF0008091E80082FD81CF8091E80080FF77CF4B
:103000009091F3008091F2002115310519F088307C
:10301000910550F041E0089709F040E08091E80008
:103020008E778093E80063CF44914093F10031960E
:10303000215031090196E8CF803809F0DCCE80912B
:10304000E800877F8093E800809132028093F1004E
:103050007BCE8111D0CE10913502123008F0CBCE4C
:103060008091E800877F8093E800109332020E94ED
:10307000D00A112311F084E005C08091E30087FDA0
:10308000FACF81E08093310242E061EC81E00E945E
:10309000EF0A42E261EC82E00E94EF0A42E261EC58
:1030A00083E00E94EF0AA7CE80913502813009F0BB
:1030B000A2CE81E0933009F080E08093300210923C
:1030C000E9008091E800877F8093E8000E94D00AA1
:1030D00092CECF93DF9300D000D0CDB7DEB78983F7
:1030E0001F928F938CED9FE09F938F930E944D0AC8
:1030F00081E090E0A0E0B0E09C01AD01098004C057
:10310000220F331F441F551F0A94D2F729833A8395
:103110004B835C83CA01B9010E9465110F900F9027
:103120000F900F900F900F900F900F90DF91CF9115
:103130000C949415CF938B3258F4853098F0EBEFC4
:10314000E80FE63278F4F0E0E05BFE4C0C94DC3003
:10315000833470F48A3308F05BC2853359F08833C6
:1031600009F48BC182E39FE00E94B40980E09AC118
:103170008334C1F780E00E94691876C181ED9FE039
:103180000E94B4098CE09CE00E94B40983E090E0C6
:103190000E94FC301F928F9389E09CE09F938F9355
:1031A0000E944D0A87E09CE00E94B40982E090E012
:1031B0000E94FC30C82F84EF9BE00E94B4091F924C
:1031C000CF938FEE9BE09F938F930E944D0A8DEEDD
:1031D0009BE00E94B40983EE9BE00E94B4098C2F0F
:1031E00081701F928F9380EE9BE09F938F930E943C
:1031F0004D0A8EED9BE00E94B40984ED9BE00E9495
:10320000B409C1FB882780F91F928F9381ED9BE061
:103210009F938F930E944D0A8FEC9BE00E94B4090C
:1032200083EC9BE00E94B409C2FB882780F91F92BF
:103230008F9380EC9BE09F938F930E944D0A8EEBBF
:103240009BE00E94B40985EB9BE00E94B409C3FB9C
:10325000CC27C0F91F92CF9382EB9BE09F938F9373
:103260000E944D0A80EB9BE00E94B40984E090E04C
:103270000E94FC30C82F8CE99BE00E94B4091F9289
:10328000CF9387E99BE09F938F930E944D0A85E936
:103290009BE00E94B4098CE79BE00E94B4098C2F4C
:1032A00081701F928F9389E79BE09F938F930E9479
:1032B0004D0A8DB79EB780960FB6F8949EBF0FBE8D
:1032C0008DBF87E79BE00E94B40980E69BE00E94E7
:1032D000B409C1FB882780F91F928F938DE59BE08D
:1032E0009F938F930E944D0A8BE59BE00E94B40947
:1032F00089E49BE00E94B409C2FB882780F91F92F1
:103300008F9386E49BE09F938F930E944D0A84E401
:103310009BE00E94B40982E39BE00E94B409C3FBD6
:10332000882780F91F928F938FE29BE09F938F9362
:103330000E944D0A8DE29BE00E94B40983E29BE06B
:103340000E94B409C4FB882780F91F928F9380E202
:103350009BE09F938F930E944D0A8EE19BE00E9419
:10336000B4098CE09BE00E94B409C5FB882780F972
:103370001F928F9389E09BE09F938F930E944D0A49
:1033800087E09BE00E94B4098BEE9AE00E94B409AA
:10339000C6FB882780F91F928F9388EE9AE09F934F
:1033A0008F930E944D0A86EE9AE00E94B4098EED3A
:1033B0009AE00E94B409C7FBCC27C0F91F92CF93B3
:1033C0008BED9AE09F938F930E944D0A89ED9AE0CE
:1033D0000E94B40986E090E00E94FC30C82F82EC85
:1033E0009AE00E94B4091F92CF938DEB9AE09F93CD
:1033F0008F930E944D0A8DB79EB780960FB6F894B2
:103400009EBF0FBE8DBF8BEB9AE00E94B40981EB8B
:103410009AE00E94B4098C2F81701F928F938EEADC
:103420009AE09F938F930E944D0A8CEA9AE00E9443
:10343000B40983EA9AE00E94B409C695C695C69578
:103440001F92CF9380EA9AE09F938F930E944D0A38
:103450008EE99AE00E94B4098DB79EB708960FB620
:10346000F8949EBF0FBE8DBF81E01CC080EC9FE032
:103470000E94B4090E941815F7CF8CE19CE00E94CD
:10348000B409F2CF80911D02807F80931D028FEBE3
:103490009DE00E94B4098CEB9FE00E94B40981E09A
:1034A0008093F101CF9108950E94941580EA9FE0E6
:1034B0000E94B4099FEF23ED80E3915020408040AB
:1034C000E1F700C000000E94E91290911D02892FCF
:1034D0008E7F90FF816080931D0280FF03C084E98E
:1034E0009FE0CDCF87E89FE00E94B40980911D0244
:1034F000817F80931D02B8CF90911D02892F8D7F0F
:1035000091FF826080931D0281FF08C08AE79FE0DF
:103510000E94B40980911D028160EBCF8CE69FE090
:10352000AECF90911D02892F8B7F92FF8460809394
:103530001D0282FF03C08DE59FE0EACF8DE49FE08E
:103540009ECF90911D02892F877F93FF8860809383
:103550001D0283FF03C081E49FE0DACF84E39FE094
:103560008ECF8AEB9EE00E94B4098DE99EE00E9416
:10357000B40980E69EE00E94B40982E39EE00E94C6
:10358000B40985E09EE00E94B4098AED9DE077CF02
:1035900084E29FE00E94B4090E94DE0C1F928F9388
:1035A0008AE09FE09F938F930E944D0A80910A01C9
:1035B0001F928F9383EF9EE09F938F930E944D0AFB
:1035C000809125021F928F9380EE9EE09F938F93B0
:1035D0000E944D0A2FB7F8948091ED019091EE0171
:1035E000A091EF01B091F0012FBFBF93AF939F93D4
:1035F0008F9389EC9EE09F938F930E944D0A8DB725
:103600009EB742960FB6F8949EBF0FBE8DBF2CCFCB
:103610008953B1CD8D51AFCDCF93C82F882309F4F5
:103620005FC08238C1F40E94DE0C81FD59C089E37D
:103630000E94380C0E9463102FEF81EE94E021501D
:1036400080409040E1F700C0000089E30E942B0C0D
:10365000CF910C9463108338A1F40E94DE0C80FD9E
:103660003FC083E50E94380C0E9463102FEF81EE6B
:1036700094E0215080409040E1F700C0000083E5D5
:10368000E5CF8438A1F40E94DE0C82FD29C087E4D6
:103690000E94380C0E9463102FEF81EE94E02150BD
:1036A00080409040E1F700C0000087E4CFCF8CEF6E
:1036B0008C0F813AC0F58091F101882341F081306F
:1036C00089F01092F1018C2F0E94380CC1CF8091AB
:1036D000E7018232C1F78C2F0E949A18882399F350
:1036E000CF9108958091E7018232A9F3C932B9F0F0
:1036F00048F4CB3049F0C43191F08EE79AE00E9453
:10370000B4090FC0C833C9F78FEB9DE00E94B4091C
:1037100080E89AE00E94B40981E08170DFCF1092C6
:10372000F10180E0FACF80E28C0F883068F4C77036
:1037300021E030E001C0220FCA95EAF78091E7014D
:10374000822B8093E70184CF8BE58C0F833068F464
:1037500081E890E0C53A31F083E890E0C63A11F490
:1037600082E890E0CF910C94C80C88E58C0F8731EB
:1037700008F0B6CF82EE90E0C83A09F460C089EE56
:1037800090E0C93A09F45BC08AEE90E0CA3A09F4C5
:1037900056C085EB90E0CB3A09F451C086EB90E03F
:1037A000CC3A09F44CC083EB90E0CB3B09F447C022
:1037B00084EB90E0CC3B09F442C087EB90E0CD3A3B
:1037C000F1F18CEC90E0C03BD1F18DEC90E0CE3A81
:1037D000B1F183E891E0CF3A91F18AE891E0C13B01
:1037E00071F182E991E0C23B51F184E991E0C33B80
:1037F00031F181E292E0C43B11F183E292E0C53BFA
:10380000F1F084E292E0C63BD1F085E292E0C73B62
:10381000B1F086E292E0C83B91F087E292E0C93BCA
:1038200071F08FE690E0CD3B51F080E790E0CE3B29
:1038300031F090E080E0CA3B11F48AE292E0CF914F
:103840000C94B20CCF93C82F0E940C1BC93349F4BF
:103850002FEF87EE93E0215080409040E1F700C0C9
:1038600000008C2FCF910C948411FF920F931F9323
:10387000CF93DF93C62FD42F022FFC0182818823A0
:10388000A9F0609379010E94050C909366018093E2
:103890006501C77081E001C0880FCA95EAF7DF9122
:1038A000CF911F910F91FF900C947A111091790193
:1038B000161334C080916501909166010E94E00B5F
:1038C000883C910558F5C0E2CD0F1D17A9F017707F
:1038D000FF24F3948F2D01C0880F1A95EAF70E94F8
:1038E0006F11C83048F48D2F877001C0FF0C8A9586
:1038F000EAF78F2D0E947A11802F0E94221CC83077
:10390000A0F4D77081E001C0880FDA95EAF7DF9163
:10391000CF911F910F91FF900C946F11C77081E0B0
:1039200001C0880FCA95EAF7F2CFDF91CF911F91BE
:103930000F91FF900895FF920F931F93CF93DF9302
:103940008C01F8012491222309F442C0E801219658
:10395000213049F4FE011491812F0E940C1B812F0C
:103960000E94841106C0223041F4FE0184910E941D
:103970000C1B8E010F5F1F4FE4CF233019F4FE01A3
:103980008491EECF30E0F901EC5BFD4FF490F9014A
:10399000EC53FE4FD491F901EC5BFE4FC491DD2353
:1039A00019F081EE0E940C1BCC2319F086EE0E94C8
:1039B0000C1B8F2D0E94221CCC2319F086EE0E9436
:1039C0008411DD2319F081EE0E948411E801D1CF2A
:1039D000DF91CF911F910F91FF9008953F924F92E9
:1039E0005F926F927F928F929F92AF92BF92CF928F
:1039F000DF92EF92FF920F931F93CF93DF9325EF08
:103A000031E00BE011E09FEF692E91E0792E412C1F
:103A1000EE24E394F12CE901899099909E01DE0156
:103A20001E921E92F80181918F01E82FE295EF70AE
:103A3000F0E091A18F70B70101C0660F8A95EAF797
:103A4000892F862B81A382A1362E3094832182A3D5
:103A500080EA8A95F1F780E1C82E81E0D82E50E007
:103A600040E0E60159906E01852D82958F7090E0BF
:103A7000EC0188A1AD90BC90119790E0D52DDF703E
:103A800002C095958795DA95E2F780FD63C0C7017E
:103A9000042E02C0880F991F0A94E2F78A299B29F5
:103AA00011969C938E934F5F5F4F4E305105C9F630
:103AB00081A1D32DD823D1A382A1682B62A381E059
:103AC0004D915C914815590509F480E0482A621629
:103AD000730609F0A0CF442009F43FC081E0809331
:103AE0003A010E94050C909339018093380180912E
:103AF0003801909139010E94E00B069790F1809176
:103B0000F5019091F6019093060280930502809151
:103B1000F7019091F8019093080280930702809139
:103B2000F9019091FA0190930A0280930902809121
:103B3000FB019091FC0190930C0280930B02809109
:103B4000FD019091FE0190930E0280930D02109260
:103B50003A0107C090E080E0A1CF80913A01811145
:103B6000C6CF80917801882309F442C38091760101
:103B7000909177010E94E00B8935924008F438C398
:103B80001092780180916B0190916C01059709F07A
:103B90008BC080916D0190916E01069709F466C00B
:103BA00080916D0190916E014797E9F480916F01CA
:103BB000909170014A97D9F58091710190917201AD
:103BC0002091730130917401822B932B892B79F50D
:103BD0008EEA93E00E949B1C80916B0190916C0196
:103BE000059709F061C080916D0190916E01459734
:103BF000F1F480916F0190917001059709F078C000
:103C00008091710190917201209173013091740142
:103C1000822B932B892B09F06BC080EA93E00E94E2
:103C20009B1C80916B0190916C010597E9F5809147
:103C30006D0190916E014A9709F05AC080916F0111
:103C4000909170012091710130917201822B932B20
:103C50002091730130917401822B932B892B09F0F1
:103C600047C088E993E00E949B1C1EC080916F01B1
:103C7000909170012091710130917201822B932BF0
:103C80002091730130917401822B932B892B09F0C1
:103C9000AACF89EB93E00E949B1C80916B019091CD
:103CA0006C01059709F47CCF80916B0190916C01B8
:103CB0000797F1F480916D0190916E01419709F0A1
:103CC00065C080916F0190917001209171013091D8
:103CD0007201822B932B2091730130917401822BFE
:103CE000932B892B09F052C081E993E00E949B1C21
:103CF00080916B0190916C010A97E9F480916D01BC
:103D000090916E01419709F041C080916F019091AF
:103D100070012091710130917201822B932B2091BF
:103D2000730130917401822B932B892B79F587E8ED
:103D300093E00E949B1C80916B0190916C010C9709
:103D400029F580916D0190916E01079709F04AC0A5
:103D500080916F0190917001479709F063C1809144
:103D60007101909172012091730130917401822B45
:103D7000932B892B09F056C18AE793E00E949B1C84
:103D800080916B0190916C010C9729F180916B01EE
:103D900090916C010D97A1F580916D0190916E014C
:103DA0000E9709F077C080916F019091700120917A
:103DB000710130917201822B932B2091730130910C
:103DC0007401822B932B892B09F064C08BE293E062
:103DD0000E949B1C15C080916D0190916E01079708
:103DE00009F420C180916D0190916E010F9709F443
:103DF0005EC180916D0190916E01419709F49CC163
:103E000080916B0190916C010F97F9F480916D0195
:103E100090916E01409709F063C080916F0190917D
:103E200070010E9709F05CC0809171019091720150
:103E30002091730130917401822B932B892B09F00F
:103E40004FC08FE193E00E949B1C80916B01909189
:103E50006C014197F9F480916D0190916E01499741
:103E600009F062C080916F0190917001409709F054
:103E70005BC080917101909172012091730130912A
:103E80007401822B932B892B09F04EC085E193E0BE
:103E90000E949B1C80916B0190916C01439701F5EE
:103EA00080916D0190916E01459709F062C08091FB
:103EB0006F0190917001429709F05BC08091710190
:103EC00090917201059709F054C08091730190910F
:103ED0007401892B09F04DC08CE093E00E949B1C7B
:103EE00080916B0190916C014597F1F480916D0187
:103EF00090916E01419709F059C180916F019091A5
:103F000070012091710130917201822B932B2091CD
:103F1000730130917401822B932B892B09F046C1D8
:103F200082E093E00E949B1C80916B0190916C0158
:103F30004697F9F480916D0190916E01489709F0D0
:103F400035C180916F0190917001439709F02EC1A6
:103F500080917101909172012091730130917401EF
:103F6000822B932B892B09F021C189EF92E00E94CB
:103F70009B1C80916B0190916C01479709F016C1D1
:103F800080916D0190916E010B9709F4EFC08091C3
:103F90006D0190916E014C9709F43DC180916D01C6
:103FA00090916E014197F1F480916F0190917001B1
:103FB0002091710130917201822B932B209173011A
:103FC00030917401822B932B892B09F011C18FED55
:103FD00092E00E949B1C80916B0190916C0147972D
:103FE00009F0E4C080916D0190916E01059709F090
:103FF000FFC080916F01909170010B9709F0F8C09C
:10400000809171019091720120917301309174013E
:10401000822B932B892B09F0EBC082ED92E00E945A
:104020009B1CC4C080916F01909170010E97F1F4B8
:10403000809171019091720120917301309174010E
:10404000822B932B892B91F48EE693E00E949B1C8C
:1040500080916B0190916C010C9709F097CE809143
:104060006D0190916E01079709F0BCCE80916F01B0
:1040700090917001479709F0BCCE809171019091A9
:104080007201469709F0B5CE809173019091740149
:10409000892B09F0AECE8EE593E00E949B1C8091A7
:1040A0006B0190916C010C9709F49CCE6FCE8091BE
:1040B0006F01909170014C97F1F480917101909192
:1040C00072012091730130917401822B932B892B03
:1040D00091F483E593E00E949B1C80916B01909189
:1040E0006C010C9709F052CE80916D0190916E0198
:1040F0000F9709F07ECE80916F01909170014C97DF
:1041000009F07ECE8091710190917201479709F07C
:1041100077CE8091730190917401892B09F070CE54
:1041200084E493E00E949B1C80916B0190916C0150
:104130000C9709F45ECE2ACE80916F0190917001A8
:10414000099709F05DCE80917101909172014297BB
:1041500009F056CE8091730190917401892B09F07A
:104160004FCE88E393E00E949B1C10CE80916F019C
:1041700090917001459709F011CF80917101909154
:104180007201489709F00ACF8091730190917401F0
:10419000892B09F003CF81EF92E00E949B1C809154
:1041A0006B0190916C01479709F4F1CE80916B01FE
:1041B00090916C014A97E1F480916D0190916E01AC
:1041C0004797B1F480916F0190917001099781F444
:1041D000809171019091720120917301309174016D
:1041E000822B932B892B21F484EC92E00E949B1C60
:1041F000842DDF91CF911F910F91FF90EF90DF9071
:10420000CF90BF90AF909F908F907F906F905F9076
:104210004F903F90089580916F019091700120918F
:10422000710130917201822B932B20917301309197
:104230007401822B932B892B09F0D4CE87EE92E068
:104240000E949B1C80916B0190916C01479709F42F
:10425000A5CEACCF7F928F929F92AF92BF92DF920A
:10426000EF92FF920F931F93CF93DF93CDB7DEB7FB
:1042700029970FB6F894DEBF0FBECDBF7C01DC01DD
:1042800013968D919C911497892B41F01C91119656
:10429000DC90812F8D218F3F09F057C729960FB6EB
:1042A000F894DEBF0FBECDBFDF91CF911F910F916C
:1042B000FF90EF90DF90BF90AF909F908F907F9096
:1042C00008950E94820F082F682F89819A810E9489
:1042D0007A0CE12FF0E0BEE0DB9EE00DF11D112431
:1042E00016E4019FE00DF11D1124EE0FFF1FE95BA5
:1042F000FA4F059114915801D70112968C910A3FFB
:10430000BCE51B0709F463C0D8F5083FFCE51F07AF
:1043100009F443C0093F2CE5120709F448C0D7014E
:1043200012968C91882309F4D1C08091780188235A
:1043300009F458C080917601909177010E94E00BBA
:104340008835924008F0C2C0C80190568115E0E25D
:104350009E0720F0905E8115904110F45801BB2417
:10436000809175018530D8F5E82FF0E0EE0FFF1F42
:10437000E559FE4FB182A0828F5F809375018ECF89
:104380000B3F3CE51307D9F00C3F4CE5140739F619
:10439000882329F28BE199E004C0882329F083E384
:1043A00099E00E949B1CBBCF80E399E0FACF882361
:1043B00019F08DE299E0F5CF8AE299E0F2CF8823F7
:1043C00019F087E299E0EDCF84E299E0EACF882303
:1043D00019F081E299E0E5CF8EE199E0E2CF109209
:1043E00078015CCF07312CE5120709F06FC081E03E
:1043F000809378010E94050C909377018093760159
:1044000010927501EBE6F1E08AE0DF011D928A95DA
:10441000E9F7D70112968C91811110927901003E33
:10442000BCE51B07C0F4033CECE51E0708F09AC08E
:104430000531FCE51F0708F0A0C002302CE512078B
:1044400008F083C201153CE5130709F4BEC0013032
:104450001C4509F4CAC0D701AD90BC90882309F46B
:1044600005C3C5010E94820F182F682FC5010E9445
:104470007A0CB501812F0E941C0D8C01882EF7014A
:10448000958092943FE09322A280A1101092E601C1
:104490008091E401877079F0AA2069F080E2800FB2
:1044A000883048F082E00E941C118091E4018770FE
:1044B000772473948111712CD12ED2942FE0D222C3
:1044C000ED2DF0E0EA58FE4C0C94DC30013FBCE5E9
:1044D0001B07E9F128F5093DFCE51F07A1F10A3D9D
:1044E0002CE51207E1F126E241EE61EE083D3CE5E4
:1044F000130709F08ECFC70129960FB6F894DEBFD7
:104500000FBECDBFDF91CF911F910F91FF90EF9024
:10451000DF90BF90AF909F908F907F900C94351C50
:10452000033F4CE51407B9F027E245EE66EE043F81
:104530005CE5150701F327E245EE64EE023F8CE5EA
:104540001807C9F266CF27E245EE65EED4CF26E222
:1045500041EE60EED0CF26E241EE62EECCCF28E213
:1045600041E0F3CFF801E35CFC45ED31F10508F0E3
:1045700072CFEA57FE4C0C94DC3006311C4509F032
:104580006ACF882309F468C28091E7018A7A91E0B2
:1045900009F490E090937A0181115CC289E20E9453
:1045A000380C29960FB6F894DEBF0FBECDBFDF9151
:1045B000CF911F910F91FF90EF90DF90BF90AF9040
:1045C0009F908F907F900C946310882309F466CE9F
:1045D0000E9494158FEF94E3ACE081509040A0408E
:1045E000E1F700C000000E94E912882309F456CECA
:1045F00090911D02892F8E7F90FF816080931D0214
:1046000080FF16C08EEE99E029960FB6F894DEBFB3
:104610000FBECDBFDF91CF911F910F91FF90EF9013
:10462000DF90BF90AF909F908F907F900C94B409D3
:104630008CED99E0E9CF882309F430CE29960FB6A6
:10464000F894DEBF0FBECDBFDF91CF911F910F91C8
:10465000FF90EF90DF90BF90AF909F908F907F90F2
:104660000C941815882309F419CE80911D0280FF3F
:1046700010C080911E02809581701F928F9385EAF1
:1046800099E09F938F930E944D0A0F900F900F9087
:104690000F9080911E0280FF43C08E7F80931E0288
:1046A00000911E0210911F022091200230912102E0
:1046B0000E831F8328873987C901B8010E946C13B4
:1046C00080911D0280FF0FC080911E0281701F9299
:1046D0008F9386E399E09F938F930E944D0A0F90EA
:1046E0000F900F900F901FEF20E732E01150204005
:1046F0003040E1F700C0000029960FB6F894DEBF05
:104700000FBECDBFDF91CF911F910F91FF90EF9022
:10471000DF90BF90AF909F908F907F900C940D137F
:10472000816080931E0280911D0280FF0DC01F9248
:1047300081E08F938EE699E09F938F930E944D0ABC
:104740000F900F900F900F9080911E0261E0869560
:1047500029960FB6F894DEBF0FBECDBFDF91CF9183
:104760001F910F91FF90EF90DF90BF90AF909F90BF
:104770008F907F900C949514882309F48FCD8091AD
:10478000E7018272D9F029960FB6F894DEBF0FBE0A
:10479000CDBFDF91CF911F910F91FF90EF90DF90F0
:1047A000BF90AF909F908F907F900C94E8148823D7
:1047B00009F474CD8091E701827229F329960FB62E
:1047C000F894DEBF0FBECDBFDF91CF911F910F9147
:1047D000FF90EF90DF90BF90AF909F908F907F9071
:1047E0000C94F314882309F459CD80911F0221E021
:1047F0004091210260912002885F29960FB6F894BB
:10480000DEBF0FBECDBFDF91CF911F910F91FF9003
:10481000EF90DF90BF90AF909F908F907F900C941F
:104820008013882309F43ACD80911F0221E0409142
:104830002102609120028850E0CF882309F42ECD18
:104840006091200221E1620F08F46FEF21E04091B6
:10485000210280911F02D1CF882309F41FCD6091DE
:10486000200221E1621B08F460E0F0CF882309F404
:1048700015CD4091210221E1420F08F44FEF21E0D4
:1048800060912002E6CF882309F408CD40912102EF
:1048900021E1421B08F440E0F2CF882309F4FECC6A
:1048A00080912202833018F48F5F809322028091DE
:1048B0001E0290911F02A0912002B09121028E83CE
:1048C0009F83A887B987BC01CD0129960FB6F894BC
:1048D000DEBF0FBECDBFDF91CF911F910F91FF9033
:1048E000EF90DF90BF90AF909F908F907F900C944F
:1048F0006C13882309F4D2CC80912202882319F00A
:1049000081508093220200911E0210911F0220917B
:104910002002309121020E831F8328873987C90125
:10492000B801D3CF882309F4B9CC61E081E010CF7E
:10493000882309F4B3CC1092F301B0CC882309F496
:10494000ADCC82E08093F301A9CC882309F483CD18
:104950000E946113811102C00E94181584E090E04A
:104960000E94FC3090E0909300028093FF01F801D8
:10497000E350FC458091FF018160E231F10538F49C
:10498000ED55FE4C0C94DC308091FF0182608093E9
:10499000FF016091FF0184E090E00E9410312996B0
:1049A0000FB6F894DEBF0FBECDBFDF91CF911F9140
:1049B0000F91FF90EF90DF90BF90AF909F908F90FE
:1049C0007F900C9494158091FF018460E0CF8091DA
:1049D000FF018860DCCF8091FF018061D8CF80919A
:1049E000FF018062D4CF8091FF018064D0CF80919D
:1049F000FF018068CCCF8091FF018C60C8CF80918F
:104A0000FF018E7FC4CF8091FF018D7FC0CF809149
:104A1000FF018B7FBCCF8091FF01877FB8CF809152
:104A2000FF018F7EB4CF8091FF018F7DB0CF809149
:104A3000FF018F7BACCF8091FF018F77A8CF809152
:104A4000FF01837FA4CF9091FF01892F97FB87F906
:104A500080589DCF85E3A3CD80917A01811104C058
:104A600089E20E942B0C9DCD85E3FBCFC5010E94FE
:104A7000510C182FFECCF12FFF70DF2E107F19F094
:104A8000D29490EFD922802FAA20C9F0DD2069F0BE
:104A900090E2900F983010F001110BC08091E70167
:104AA000D82AD092E7010E946310802F0E940C1B2D
:104AB00017C08091E601D82AD092E601F4CF0E9477
:104AC0008411DD2069F0D094005E083010F0811070
:104AD00031C08091E701D822D092E7010E94631093
:104AE000772009F4DBCB8091E40180FDD7CBF7017F
:104AF00012828595859585950E943411C7010E9483
:104B00002A218091E40185958595859529960FB692
:104B1000F894DEBF0FBECDBFDF91CF911F910F91F3
:104B2000FF90EF90DF90BF90AF909F908F907F901D
:104B30000C94E7108091E601D822D092E601CECF06
:104B4000212F2F70D22E107F103219F0D29480EFC7
:104B5000D822882089F031E0831679F1AA20D1F19A
:104B6000992089F1D70115968C91159780FF9DCFDB
:104B70008F7015968C9327C0AA2091F09091E80130
:104B80008D2D892B911003C00E947A11A9CF41E08D
:104B90009412FACF891709F4A3CF8093E801A0CF2C
:104BA000911006C00E94250C8D2D0E946F1198CF88
:104BB00051E0951609F494CFF5CFAA2031F085E0A5
:104BC000891508F48DCF8D2DDFCF94E0991508F469
:104BD00087CFEACF992041F3093349F4BFEFE7EEDD
:104BE000F3E0B150E040F040E1F700C00000802F5A
:104BF0000E94841175CF812F86958695837049F028
:104C0000813081F086E08D0D8F70823008F475C0A0
:104C100067CFC8019370A11002C090E080E00E94AD
:104C2000C80C5ECFC8019370A11002C090E080E074
:104C30000E94B20C55CF912F937009F07BC0A11048
:104C40005CC0202F229526952770220F220F402F1F
:104C50004F7050E070E060E0022E04C0440F551F1A
:104C6000661F771F0A94D2F780E090E0DC0104FF12
:104C70000FC08FE090E0A0E0B0E004C0880F991F63
:104C8000AA1FBB1F2A95D2F780959095A095B09545
:104C9000169516951370123099F1133009F443C02C
:104CA0008090E9019090EA01A090EB01B090EC01B6
:104CB000113089F0842B952BA62BB72B8C019D01ED
:104CC000082119212A213B210E831F832887398738
:104CD000C901B80110C0842A952AA62AB72AA501BD
:104CE0009401282B392B4A2B5B2B2E833F8348873B
:104CF0005987CA01B9010E9465110E94DE0CF0CEED
:104D0000842B952BA62BB72B4091E9015091EA01FA
:104D10006091EB017091EC018C019D010427152736
:104D200026273727D1CF8A019B01082B192B2A2B45
:104D30003B2BCACF9695AA2011F0912F9170992301
:104D4000E1F2202F229526952770220F220F402F67
:104D50004F7050E070E060E0022E04C0440F551F19
:104D6000661F771F0A94D2F780E090E0DC0104FF11
:104D70000FC08FE090E0A0E0B0E004C0880F991F62
:104D8000AA1FBB1F2A95D2F780959095A095B09544
:104D9000169516951370123059F1133009F441C06D
:104DA0008090E0019090E101A090E201B090E301D9
:104DB000113099F0842B952BA62BB72B9C01AD01BC
:104DC000282139214A215B212E833F834887598737
:104DD000CA01B9010E94DD1090CF842A952AA62A23
:104DE000B72A95018401082B192B2A2B3B2B12C0C3
:104DF000842B952BA62BB72B4091E0015091E1011C
:104E00006091E2017091E3018C019D010427152757
:104E1000262737270E831F8328873987C901B801C2
:104E2000D9CF8A019B01DFCF802F22EF821609F4B0
:104E300076C02815A8F030EF8316F1F141EF841603
:104E400009F466C090E2900F903108F1AA2009F4AD
:104E500095C0992009F48FC0802F0E940C1B21C09F
:104E600053EF851609F462C094EF8912EFCFAA20A0
:104E700009F476C01F71812F0E94341138E0139F0E
:104E8000C001112483608093E401812F45C00F701D
:104E9000812F8F71AA2051F00E943411802F0E941F
:104EA0007A11A8E0DA1609F428CFACCE0E94E710F8
:104EB000802F0E946F11F5CFAA2031F1A4E0A9152F
:104EC00080F31F7181E090E0A0E0B0E004C0880FA3
:104ED000991FAA1FBB1F1A95D2F74091E00150916C
:104EE000E1016091E2017091E3018C019D010427D1
:104EF0001527262737270E831F8328873987C9015F
:104F0000B8010E94DD10CDCF25E0291550F2D9CF90
:104F1000812F8F71AA2039F00E943411C2CF812FC6
:104F20008F71AA20C9F30E94E710BBCF60E070E048
:104F3000CB01AA2031F31F7181E090E0A0E0B0E046
:104F40009C01AD0104C0220F331F441F551F1A9549
:104F5000D2F72E833F8348875987CA01B901D1CF41
:104F600081E00E941C1141E0491508F09ACF82E0CF
:104F70000E941C1196CF812F8F71CECF992079F08E
:104F8000893349F45FEF87EE93E0515080409040C1
:104F9000E1F700C00000802F0E94841182CF812F92
:104FA0008F71C1CFA1109CCD1F70133009F499C02F
:104FB000B8F5113009F43EC0123009F45FC0111188
:104FC00021CE8091F201982F9695969596958832EC
:104FD00040F49F5F990F990F990F8770892B8093E9
:104FE000F2016091F20161606093F20186E090E06D
:104FF0000E94103180911D0280FFDAC08091F20181
:105000008695869586951F928F938FEF99E09F9353
:105010008F930E944D0A0F900F900F900F90C8C071
:10502000143009F490C080E0153009F0EBCD0E94F7
:10503000421356CD8091F201982F987F89F08850C5
:105040008093F201887F91E009F490E06091F20191
:1050500090FB60F96093F20186E090E00E941031CD
:1050600080911D0280FFA4C08091F20186958695F3
:1050700086951F928F9387E19AE0C9CF1091F20134
:10508000117080911D0280FF73C01F921F9384E5F1
:105090009AE09F938F930E944D0A0F900F900F906C
:1050A0000F90112309F466C08091F20180FF18CDA2
:1050B0006091F2016E7F6093F20186E090E00E94C1
:1050C000103180911D0280FF08C08FE29AE09F930B
:1050D0008F930E944D0A0F900F9080E00E94FD0F69
:1050E000FFCC9091F201892F8695869586958F5FEA
:1050F0008F719770863020F5880F880F880F892B65
:105100008093F2018091F201887F91E009F490E0B0
:105110006091F20190FB60F96093F20186E090E00B
:105120000E94103180911D0280FF42C08091F201E7
:105130008695869586951F928F938AE69AE067CF2B
:105140009093F201DFCF85E072CF85E0F701DE01B9
:10515000119601900D928A95E1F7D70112962C9144
:1051600089819A812111ADC80E94510C082FB1C8C4
:1051700011119ECF8091F20180FDB2CC81608093AD
:10518000F201813019F489E08093F2016091F2011B
:1051900086E090E00E94103180911D0280FF08C0DF
:1051A00082E49AE09F938F930E944D0A0F900F9094
:1051B0008091F20186958695869590CF1F93CF9327
:1051C000DF9380918001807FC1F480917D018823ED
:1051D000A1F08091B201C091810160917B01709139
:1051E0007C0140917E0150917F01D62FD723DA01B7
:1051F000A095B09516E0C81304C0DF91CF911F9120
:10520000089590E04115510511F0DF3F31F401960A
:105210008770F1CF2A0F3B1F17C0189FF001199F0D
:10522000F00D1124EE57FE4F21812713F0CF20817E
:105230002613EDCF22812111EACF23813481241757
:10524000350740F3241B350B283C310500F720912E
:1052500080012F7020612093800126E0289FF001BB
:10526000299FF00D1124E957FE4F80818F708061D6
:1052700080838BE791E00E942A21DF91CF911F91DB
:105280000C94A80C9F92AF92BF92CF92DF92EF92B4
:10529000FF920F931F93CF93DF93CDB7DEB72B977A
:1052A0000FB6F894DEBF0FBECDBF8C0185E0F801CC
:1052B000DE01179601900D928A95E1F7D8012C91A5
:1052C00011963C9111971296EC90129780917E0165
:1052D00090917F01009709F44EC140917B0150915C
:1052E0007C01652F64236F3F09F445C11396CD906F
:1052F000DC9090907D01992009F4ECC0C816D90685
:10530000E8F1F601E81BF90BCF01FF24F394883C88
:10531000910508F0F12C8BE7A82E81E0B82E809142
:105320008001982F907FFF2009F4B5C091117EC0B5
:10533000FE2C531328C0421326C0E11024C08F70E6
:10534000806180938001C5010E942A2180918001A3
:10535000D80115968C938F2D2B960FB6F894DEBF3F
:105360000FBECDBFDF91CF911F910F91FF90EF90B6
:10537000DF90CF90BF90AF909F90089580959095CB
:105380008C0D9D1DC2CFCD2829F0822F83238F3F06
:1053900009F00FC180E0B82FB170DB2EE091B201AF
:1053A0004091810156E080FD1CC0EE20A1F2809169
:1053B0008001816080938001F12CCDCF8E2F90E011
:1053C0005E9FF0011124EE57FE4F6181361306C037
:1053D0006081261303C062816E11E7CFFC01319614
:1053E000E770E413EBCF2F8338878F8198850E9475
:1053F000C40F292F22952F70903260F0225F2F70FA
:10540000223078F49F7051F0F8019581907F31F44B
:10541000D12C0AC09F7011F08823D1F3805E8830B0
:10542000B8F3C8010E942A21FD2C95CF531306C062
:10543000421304C0D801EE2009F47EC02F833887C0
:105440008F8198850E94D00F882309F1EE20F9F012
:1054500080918001803270F020917B0130917C013D
:105460003A8329831B82DD82CC828E83CE01019612
:105470000E942A2186E0F801ABE7B1E001900D928D
:105480008A95E1F70E94DE28FF24F39464CFC801D7
:105490000E942A21F9CF91110AC08BE791E00E9466
:1054A0002A2186E0F50111928A95E9F754CF53132A
:1054B000C5CF4213C3CFE110C1CFD80115968C934D
:1054C000C8010E942A2186E0F50111928A95E9F728
:1054D000F92C41CFC816D90678F0C81AD90AF8ECC9
:1054E000CF16D10480F0F12C86E0EBE7F1E0DF018C
:1054F0001D928A95E9F72FCF809590958C0D9D1D73
:10550000883C910580F7FE2CEE2009F2531322C04F
:10551000421320C08091800180FD13C0982F907F9E
:1055200081F0D80115968C931597903F39F0982FFC
:10553000907F905F8F70892B15968C93C8010E9485
:105540002A2186E0F801ABE7B1E001900D928A953F
:10555000E1F701CF2F8338878F8198850E94D00F84
:10556000811188CF80918001816080938001C80182
:105570000E942A21F0CEEE2009F489CF2F833887AC
:105580008F8198850E94D00FF82E882309F47FCF51
:1055900086E0F801ABE7B1E001900D928A95E1F762
:1055A00080917B0190917C010E94C40F0E94DE28B3
:1055B000D2CE81E08E25EFCE1F93CF93DF93CDB770
:1055C000DEB767970FB6F894DEBF0FBECDBF4B8B2B
:1055D0005C8B6D8B7E8B8F8B1A8A85E0FE017396B8
:1055E000DE011D9601900D928A95E1F786E0FE019D
:1055F0003D96DE01179601900D928A95E1F7CE0156
:1056000007960E944229882389F016E08091B20112
:1056100090918101891349C067960FB6F894DEBF57
:105620000FBECDBFDF91CF911F91089586E0FE019F
:105630003796DE01119601900D928A95E1F78A85E1
:105640009B85892B11F388859F8189238F3FE9F200
:105650002091810130E0C90101968770992740911E
:10566000B2014817190671F40E9494151092810135
:105670001092B20186E0EBE7F1E0DF011D928A951E
:10568000E9F7C3CF96E0929FD001939FB00D11240C
:10569000AE57BE4FFE01319601900D929A95E1F7FB
:1056A000809381010E94A80CB0CF819FC00111247A
:1056B0008E579E4F0E944229882309F4ADCF8091D6
:1056C000B20190E00196877099278093B2019ECF36
:1056D0001F920F920FB60F9211242F933F934F9367
:1056E0005F936F937F938F939F93AF93BF93CF936A
:1056F000DF93EF93FF93D091E900DF708091EC008E
:10570000C82FC17080FDC0E81092E9008091F000C0
:10571000877F8093F00078940E949F151092E90093
:105720008091F00088608093F000CD2BCF70C09303
:10573000E900FF91EF91DF91CF91BF91AF919F91E0
:105740008F917F916F915F914F913F912F910F902A
:105750000FBE0F901F9018951F920F920FB60F92C9
:1057600011242F933F934F935F936F937F938F9366
:105770009F93AF93BF93EF93FF938091E10082FFDC
:1057800015C08091E20082FF11C08091E1008B7F03
:105790008093E10020911B022F5F822F62E30E9421
:1057A0009A30992309F4E4C020931B028091DA0017
:1057B00080FF28C08091D80080FF24C08091DA004B
:1057C0008E7F8093DA008091D90080FF07C180E14D
:1057D00089BD82E189BD09B400FEFDCF81E08093DF
:1057E00031028AEC91E10E94B40980911C0281117E
:1057F00009C00E94560A0E94210B8091E200846039
:105800008093E2008091E10080FF1BC08091E20064
:1058100080FF17C08091E2008E7F8093E20080912C
:10582000E20080618093E2008091D80080628093E2
:10583000D80019BC85E08093310282ED91E10E948D
:10584000B4098091E10084FF53C08091E20084FF9D
:105850004FC080E189BD82E189BD09B400FEFDCF62
:105860008091D8008F7D8093D8008091E1008F7E59
:105870008093E1008091E2008F7E8093E20080912E
:10588000E20081608093E20080913202882309F473
:10589000AFC084E0809331028FE092E10E94B409AE
:1058A0000E9494150E9476150E94DE0C109224022C
:1058B000809123028823E1F080911E028160809311
:1058C0001E0280911D0280FF0DC01F9281E08F9308
:1058D00086ED91E19F938F930E944D0A0F900F9058
:1058E0000F900F9080911E0260E086950E949514A3
:1058F0008091E10083FF2BC08091E20083FF27C0ED
:105900008091E100877F8093E10082E08093310203
:10591000109232028091E1008E7F8093E1008091AD
:10592000E2008E7F8093E2008091E20080618093AC
:10593000E20042E060E080E00E94EF0A8091F00027
:1059400088608093F00083E192E10E94B409FF91A6
:10595000EF91BF91AF919F918F917F916F915F91E7
:105960004F913F912F910F900FBE0F901F90189560
:1059700010921B0280911A02882309F417CF80919C
:1059800031028430C1F49091E9009F702091EC00C5
:10599000822F817020FD80E8892B93E09093E900AD
:1059A0009091EB0090FF04C09091EE0097FD08C02D
:1059B0008F708093E90010921A02F8CE1092F100D5
:1059C0009091E80095FDFACF9091E80090FFF0CF1C
:1059D0009091E8009E779093E800EACF19BC10926E
:1059E00031028EEC91E10E94B40910921C020ACFA0
:1059F0008091E30087FD02C081E04CCF83E04ACF75
:105A0000CDB7DEB72B970FB6F894DEBF0FBECDBF74
:105A100084B7877F84BF0FB6F894A8958091600003
:105A2000886180936000109260000FBE80E88093D0
:105A300061001092610085B7806885BF85B7806876
:105A400085BF0E94560A0E94210B8091E20084606B
:105A50008093E2008AED91E190932F0180932E01D3
:105A60007894809131028823A1F01091E9001F7091
:105A70009091EC00892F817090FD80E8182B109296
:105A8000E9008091E80083FD0E949F151F7010932C
:105A9000E90082E084BD93E095BD9AEF97BD8093C5
:105AA0006E00ABE0B1E061E070E08D91E82FE2952F
:105AB000EF70F0E041A18F709B0101C0220F8A9529
:105AC000EAF7922F9095942391A382A1822B82A32F
:105AD00021E0A031B20749F7A0E1B1E061E070E058
